{
  "address": "0xd52Ffdd8B2F9927E547231AD133172Beb598f781",
  "abi": [
    {
      "inputs": [],
      "stateMutability": "nonpayable",
      "type": "constructor"
    },
    {
      "anonymous": false,
      "inputs": [
        {
          "indexed": false,
          "internalType": "uint256",
          "name": "tokenId",
          "type": "uint256"
        },
        {
          "indexed": false,
          "internalType": "uint256",
          "name": "weight",
          "type": "uint256"
        }
      ],
      "name": "Abstained",
      "type": "event"
    },
    {
      "anonymous": false,
      "inputs": [
        {
          "indexed": true,
          "internalType": "address",
          "name": "sender",
          "type": "address"
        },
        {
          "indexed": true,
          "internalType": "address",
          "name": "gauge",
          "type": "address"
        },
        {
          "indexed": false,
          "internalType": "uint256",
          "name": "amount",
          "type": "uint256"
        }
      ],
      "name": "DistributeReward",
      "type": "event"
    },
    {
      "anonymous": false,
      "inputs": [
        {
          "indexed": true,
          "internalType": "address",
          "name": "gauge",
          "type": "address"
        }
      ],
      "name": "GaugeKilled",
      "type": "event"
    },
    {
      "anonymous": false,
      "inputs": [
        {
          "indexed": true,
          "internalType": "address",
          "name": "gauge",
          "type": "address"
        }
      ],
      "name": "GaugeRevived",
      "type": "event"
    },
    {
      "anonymous": false,
      "inputs": [
        {
          "indexed": false,
          "internalType": "uint8",
          "name": "version",
          "type": "uint8"
        }
      ],
      "name": "Initialized",
      "type": "event"
    },
    {
      "anonymous": false,
      "inputs": [
        {
          "indexed": true,
          "internalType": "address",
          "name": "gauge",
          "type": "address"
        },
        {
          "indexed": false,
          "internalType": "address",
          "name": "creator",
          "type": "address"
        },
        {
          "indexed": false,
          "internalType": "address",
          "name": "internal_bribe",
          "type": "address"
        },
        {
          "indexed": true,
          "internalType": "address",
          "name": "external_bribe",
          "type": "address"
        },
        {
          "indexed": true,
          "internalType": "address",
          "name": "target",
          "type": "address"
        }
      ],
      "name": "MarketGaugeCreated",
      "type": "event"
    },
    {
      "anonymous": false,
      "inputs": [
        {
          "indexed": true,
          "internalType": "address",
          "name": "sender",
          "type": "address"
        },
        {
          "indexed": true,
          "internalType": "address",
          "name": "reward",
          "type": "address"
        },
        {
          "indexed": false,
          "internalType": "uint256",
          "name": "amount",
          "type": "uint256"
        }
      ],
      "name": "NotifyReward",
      "type": "event"
    },
    {
      "anonymous": false,
      "inputs": [
        {
          "indexed": true,
          "internalType": "address",
          "name": "previousOwner",
          "type": "address"
        },
        {
          "indexed": true,
          "internalType": "address",
          "name": "newOwner",
          "type": "address"
        }
      ],
      "name": "OwnershipTransferred",
      "type": "event"
    },
    {
      "anonymous": false,
      "inputs": [
        {
          "indexed": true,
          "internalType": "address",
          "name": "gauge",
          "type": "address"
        },
        {
          "indexed": false,
          "internalType": "address",
          "name": "creator",
          "type": "address"
        },
        {
          "indexed": false,
          "internalType": "address",
          "name": "internal_bribe",
          "type": "address"
        },
        {
          "indexed": true,
          "internalType": "address",
          "name": "external_bribe",
          "type": "address"
        },
        {
          "indexed": true,
          "internalType": "address",
          "name": "market",
          "type": "address"
        }
      ],
      "name": "PairGaugeCreated",
      "type": "event"
    },
    {
      "anonymous": false,
      "inputs": [
        {
          "indexed": true,
          "internalType": "address",
          "name": "voter",
          "type": "address"
        },
        {
          "indexed": false,
          "internalType": "uint256",
          "name": "tokenId",
          "type": "uint256"
        },
        {
          "indexed": false,
          "internalType": "uint256",
          "name": "weight",
          "type": "uint256"
        }
      ],
      "name": "Voted",
      "type": "event"
    },
    {
      "inputs": [],
      "name": "MAX_VOTE_DELAY",
      "outputs": [
        {
          "internalType": "uint256",
          "name": "",
          "type": "uint256"
        }
      ],
      "stateMutability": "view",
      "type": "function"
    },
    {
      "inputs": [],
      "name": "_epochTimestamp",
      "outputs": [
        {
          "internalType": "uint256",
          "name": "",
          "type": "uint256"
        }
      ],
      "stateMutability": "view",
      "type": "function"
    },
    {
      "inputs": [],
      "name": "_gaugeFactories",
      "outputs": [
        {
          "internalType": "address[]",
          "name": "",
          "type": "address[]"
        }
      ],
      "stateMutability": "view",
      "type": "function"
    },
    {
      "inputs": [],
      "name": "_ve",
      "outputs": [
        {
          "internalType": "address",
          "name": "",
          "type": "address"
        }
      ],
      "stateMutability": "view",
      "type": "function"
    },
    {
      "inputs": [
        {
          "internalType": "address",
          "name": "_gaugeFactory",
          "type": "address"
        }
      ],
      "name": "addFactory",
      "outputs": [],
      "stateMutability": "nonpayable",
      "type": "function"
    },
    {
      "inputs": [],
      "name": "bribeFactory",
      "outputs": [
        {
          "internalType": "address",
          "name": "",
          "type": "address"
        }
      ],
      "stateMutability": "view",
      "type": "function"
    },
    {
      "inputs": [
        {
          "internalType": "address[]",
          "name": "_bribes",
          "type": "address[]"
        },
        {
          "internalType": "address[][]",
          "name": "_tokens",
          "type": "address[][]"
        },
        {
          "internalType": "uint256",
          "name": "_tokenId",
          "type": "uint256"
        }
      ],
      "name": "claimBribes",
      "outputs": [],
      "stateMutability": "nonpayable",
      "type": "function"
    },
    {
      "inputs": [
        {
          "internalType": "address[]",
          "name": "_bribes",
          "type": "address[]"
        },
        {
          "internalType": "address[][]",
          "name": "_tokens",
          "type": "address[][]"
        }
      ],
      "name": "claimBribes",
      "outputs": [],
      "stateMutability": "nonpayable",
      "type": "function"
    },
    {
      "inputs": [
        {
          "internalType": "address[]",
          "name": "_fees",
          "type": "address[]"
        },
        {
          "internalType": "address[][]",
          "name": "_tokens",
          "type": "address[][]"
        },
        {
          "internalType": "uint256",
          "name": "_tokenId",
          "type": "uint256"
        }
      ],
      "name": "claimFees",
      "outputs": [],
      "stateMutability": "nonpayable",
      "type": "function"
    },
    {
      "inputs": [
        {
          "internalType": "address[]",
          "name": "_bribes",
          "type": "address[]"
        },
        {
          "internalType": "address[][]",
          "name": "_tokens",
          "type": "address[][]"
        }
      ],
      "name": "claimFees",
      "outputs": [],
      "stateMutability": "nonpayable",
      "type": "function"
    },
    {
      "inputs": [
        {
          "internalType": "address[]",
          "name": "_gauges",
          "type": "address[]"
        }
      ],
      "name": "claimRewards",
      "outputs": [],
      "stateMutability": "nonpayable",
      "type": "function"
    },
    {
      "inputs": [
        {
          "internalType": "address",
          "name": "",
          "type": "address"
        }
      ],
      "name": "claimable",
      "outputs": [
        {
          "internalType": "uint256",
          "name": "",
          "type": "uint256"
        }
      ],
      "stateMutability": "view",
      "type": "function"
    },
    {
      "inputs": [
        {
          "internalType": "address",
          "name": "_target",
          "type": "address"
        },
        {
          "internalType": "address",
          "name": "_flywheel",
          "type": "address"
        }
      ],
      "name": "createMarketGauge",
      "outputs": [
        {
          "internalType": "address",
          "name": "_gauge",
          "type": "address"
        },
        {
          "internalType": "address",
          "name": "_internal_bribe",
          "type": "address"
        },
        {
          "internalType": "address",
          "name": "_external_bribe",
          "type": "address"
        }
      ],
      "stateMutability": "nonpayable",
      "type": "function"
    },
    {
      "inputs": [
        {
          "internalType": "address[]",
          "name": "_targets",
          "type": "address[]"
        },
        {
          "internalType": "address[]",
          "name": "_flywheels",
          "type": "address[]"
        }
      ],
      "name": "createMarketGauges",
      "outputs": [
        {
          "internalType": "address[]",
          "name": "",
          "type": "address[]"
        },
        {
          "internalType": "address[]",
          "name": "",
          "type": "address[]"
        },
        {
          "internalType": "address[]",
          "name": "",
          "type": "address[]"
        }
      ],
      "stateMutability": "nonpayable",
      "type": "function"
    },
    {
      "inputs": [
        {
          "internalType": "address",
          "name": "_target",
          "type": "address"
        }
      ],
      "name": "createPairGauge",
      "outputs": [
        {
          "internalType": "address",
          "name": "_gauge",
          "type": "address"
        },
        {
          "internalType": "address",
          "name": "_internal_bribe",
          "type": "address"
        },
        {
          "internalType": "address",
          "name": "_external_bribe",
          "type": "address"
        }
      ],
      "stateMutability": "nonpayable",
      "type": "function"
    },
    {
      "inputs": [
        {
          "internalType": "address[]",
          "name": "_targets",
          "type": "address[]"
        }
      ],
      "name": "createPairGauges",
      "outputs": [
        {
          "internalType": "address[]",
          "name": "",
          "type": "address[]"
        },
        {
          "internalType": "address[]",
          "name": "",
          "type": "address[]"
        },
        {
          "internalType": "address[]",
          "name": "",
          "type": "address[]"
        }
      ],
      "stateMutability": "nonpayable",
      "type": "function"
    },
    {
      "inputs": [
        {
          "internalType": "address[]",
          "name": "_gauges",
          "type": "address[]"
        }
      ],
      "name": "distribute",
      "outputs": [],
      "stateMutability": "nonpayable",
      "type": "function"
    },
    {
      "inputs": [
        {
          "internalType": "uint256",
          "name": "start",
          "type": "uint256"
        },
        {
          "internalType": "uint256",
          "name": "finish",
          "type": "uint256"
        }
      ],
      "name": "distribute",
      "outputs": [],
      "stateMutability": "nonpayable",
      "type": "function"
    },
    {
      "inputs": [],
      "name": "distributeAll",
      "outputs": [],
      "stateMutability": "nonpayable",
      "type": "function"
    },
    {
      "inputs": [
        {
          "internalType": "address[]",
          "name": "_gauges",
          "type": "address[]"
        }
      ],
      "name": "distributeFees",
      "outputs": [],
      "stateMutability": "nonpayable",
      "type": "function"
    },
    {
      "inputs": [
        {
          "internalType": "address",
          "name": "",
          "type": "address"
        }
      ],
      "name": "external_bribes",
      "outputs": [
        {
          "internalType": "address",
          "name": "",
          "type": "address"
        }
      ],
      "stateMutability": "view",
      "type": "function"
    },
    {
      "inputs": [
        {
          "internalType": "uint256",
          "name": "",
          "type": "uint256"
        }
      ],
      "name": "gaugeFactories",
      "outputs": [
        {
          "internalType": "address",
          "name": "",
          "type": "address"
        }
      ],
      "stateMutability": "view",
      "type": "function"
    },
    {
      "inputs": [],
      "name": "gaugeFactoriesLength",
      "outputs": [
        {
          "internalType": "uint256",
          "name": "",
          "type": "uint256"
        }
      ],
      "stateMutability": "view",
      "type": "function"
    },
    {
      "inputs": [],
      "name": "gaugeFactory",
      "outputs": [
        {
          "internalType": "address",
          "name": "",
          "type": "address"
        }
      ],
      "stateMutability": "view",
      "type": "function"
    },
    {
      "inputs": [
        {
          "internalType": "address",
          "name": "",
          "type": "address"
        }
      ],
      "name": "gauges",
      "outputs": [
        {
          "internalType": "address",
          "name": "",
          "type": "address"
        }
      ],
      "stateMutability": "view",
      "type": "function"
    },
    {
      "inputs": [
        {
          "internalType": "address",
          "name": "",
          "type": "address"
        }
      ],
      "name": "gaugesDistributionTimestamp",
      "outputs": [
        {
          "internalType": "uint256",
          "name": "",
          "type": "uint256"
        }
      ],
      "stateMutability": "view",
      "type": "function"
    },
    {
      "inputs": [
        {
          "internalType": "address",
          "name": "_gauge",
          "type": "address"
        }
      ],
      "name": "increaseGaugeApprovals",
      "outputs": [],
      "stateMutability": "nonpayable",
      "type": "function"
    },
    {
      "inputs": [
        {
          "internalType": "address",
          "name": "__ve",
          "type": "address"
        },
        {
          "internalType": "address",
          "name": "_gauges",
          "type": "address"
        },
        {
          "internalType": "address",
          "name": "_bribes",
          "type": "address"
        },
        {
          "internalType": "address",
          "name": "_minter",
          "type": "address"
        },
        {
          "internalType": "contract VoterRolesAuthority",
          "name": "_permissionsRegistry",
          "type": "address"
        }
      ],
      "name": "initialize",
      "outputs": [],
      "stateMutability": "nonpayable",
      "type": "function"
    },
    {
      "inputs": [
        {
          "internalType": "address",
          "name": "",
          "type": "address"
        }
      ],
      "name": "internal_bribes",
      "outputs": [
        {
          "internalType": "address",
          "name": "",
          "type": "address"
        }
      ],
      "stateMutability": "view",
      "type": "function"
    },
    {
      "inputs": [
        {
          "internalType": "address",
          "name": "",
          "type": "address"
        }
      ],
      "name": "isAlive",
      "outputs": [
        {
          "internalType": "bool",
          "name": "",
          "type": "bool"
        }
      ],
      "stateMutability": "view",
      "type": "function"
    },
    {
      "inputs": [
        {
          "internalType": "address",
          "name": "",
          "type": "address"
        }
      ],
      "name": "isGauge",
      "outputs": [
        {
          "internalType": "bool",
          "name": "",
          "type": "bool"
        }
      ],
      "stateMutability": "view",
      "type": "function"
    },
    {
      "inputs": [
        {
          "internalType": "address",
          "name": "",
          "type": "address"
        }
      ],
      "name": "isGaugeFactory",
      "outputs": [
        {
          "internalType": "bool",
          "name": "",
          "type": "bool"
        }
      ],
      "stateMutability": "view",
      "type": "function"
    },
    {
      "inputs": [
        {
          "internalType": "address",
          "name": "_gauge",
          "type": "address"
        }
      ],
      "name": "killGauge",
      "outputs": [],
      "stateMutability": "nonpayable",
      "type": "function"
    },
    {
      "inputs": [
        {
          "internalType": "uint256",
          "name": "",
          "type": "uint256"
        }
      ],
      "name": "lastVoted",
      "outputs": [
        {
          "internalType": "uint256",
          "name": "",
          "type": "uint256"
        }
      ],
      "stateMutability": "view",
      "type": "function"
    },
    {
      "inputs": [],
      "name": "length",
      "outputs": [
        {
          "internalType": "uint256",
          "name": "",
          "type": "uint256"
        }
      ],
      "stateMutability": "view",
      "type": "function"
    },
    {
      "inputs": [],
      "name": "minter",
      "outputs": [
        {
          "internalType": "address",
          "name": "",
          "type": "address"
        }
      ],
      "stateMutability": "view",
      "type": "function"
    },
    {
      "inputs": [
        {
          "internalType": "uint256",
          "name": "amount",
          "type": "uint256"
        }
      ],
      "name": "notifyRewardAmount",
      "outputs": [],
      "stateMutability": "nonpayable",
      "type": "function"
    },
    {
      "inputs": [],
      "name": "owner",
      "outputs": [
        {
          "internalType": "address",
          "name": "",
          "type": "address"
        }
      ],
      "stateMutability": "view",
      "type": "function"
    },
    {
      "inputs": [],
      "name": "permissionRegistry",
      "outputs": [
        {
          "internalType": "contract VoterRolesAuthority",
          "name": "",
          "type": "address"
        }
      ],
      "stateMutability": "view",
      "type": "function"
    },
    {
      "inputs": [
        {
          "internalType": "uint256",
          "name": "_tokenId",
          "type": "uint256"
        }
      ],
      "name": "poke",
      "outputs": [],
      "stateMutability": "nonpayable",
      "type": "function"
    },
    {
      "inputs": [
        {
          "internalType": "address",
          "name": "__ve",
          "type": "address"
        }
      ],
      "name": "reinitialize",
      "outputs": [],
      "stateMutability": "nonpayable",
      "type": "function"
    },
    {
      "inputs": [
        {
          "internalType": "uint256",
          "name": "_pos",
          "type": "uint256"
        }
      ],
      "name": "removeFactory",
      "outputs": [],
      "stateMutability": "nonpayable",
      "type": "function"
    },
    {
      "inputs": [],
      "name": "renounceOwnership",
      "outputs": [],
      "stateMutability": "nonpayable",
      "type": "function"
    },
    {
      "inputs": [
        {
          "internalType": "address",
          "name": "_gaugeFactory",
          "type": "address"
        },
        {
          "internalType": "uint256",
          "name": "_pos",
          "type": "uint256"
        }
      ],
      "name": "replaceFactory",
      "outputs": [],
      "stateMutability": "nonpayable",
      "type": "function"
    },
    {
      "inputs": [
        {
          "internalType": "uint256",
          "name": "_tokenId",
          "type": "uint256"
        }
      ],
      "name": "reset",
      "outputs": [],
      "stateMutability": "nonpayable",
      "type": "function"
    },
    {
      "inputs": [
        {
          "internalType": "address",
          "name": "_gauge",
          "type": "address"
        }
      ],
      "name": "reviveGauge",
      "outputs": [],
      "stateMutability": "nonpayable",
      "type": "function"
    },
    {
      "inputs": [
        {
          "internalType": "address",
          "name": "_bribeFactory",
          "type": "address"
        }
      ],
      "name": "setBribeFactory",
      "outputs": [],
      "stateMutability": "nonpayable",
      "type": "function"
    },
    {
      "inputs": [
        {
          "internalType": "address",
          "name": "_gauge",
          "type": "address"
        },
        {
          "internalType": "address",
          "name": "_external",
          "type": "address"
        }
      ],
      "name": "setExternalBribeFor",
      "outputs": [],
      "stateMutability": "nonpayable",
      "type": "function"
    },
    {
      "inputs": [
        {
          "internalType": "address",
          "name": "_gaugeFactory",
          "type": "address"
        }
      ],
      "name": "setGaugeFactory",
      "outputs": [],
      "stateMutability": "nonpayable",
      "type": "function"
    },
    {
      "inputs": [
        {
          "internalType": "address",
          "name": "_gauge",
          "type": "address"
        },
        {
          "internalType": "address",
          "name": "_internal",
          "type": "address"
        }
      ],
      "name": "setInternalBribeFor",
      "outputs": [],
      "stateMutability": "nonpayable",
      "type": "function"
    },
    {
      "inputs": [
        {
          "internalType": "address",
          "name": "_gauge",
          "type": "address"
        },
        {
          "internalType": "address",
          "name": "_internal",
          "type": "address"
        },
        {
          "internalType": "address",
          "name": "_external",
          "type": "address"
        }
      ],
      "name": "setNewBribes",
      "outputs": [],
      "stateMutability": "nonpayable",
      "type": "function"
    },
    {
      "inputs": [
        {
          "internalType": "contract VoterRolesAuthority",
          "name": "_permissionRegistry",
          "type": "address"
        }
      ],
      "name": "setPermissionsRegistry",
      "outputs": [],
      "stateMutability": "nonpayable",
      "type": "function"
    },
    {
      "inputs": [
        {
          "internalType": "uint256",
          "name": "_delay",
          "type": "uint256"
        }
      ],
      "name": "setVoteDelay",
      "outputs": [],
      "stateMutability": "nonpayable",
      "type": "function"
    },
    {
      "inputs": [
        {
          "internalType": "address",
          "name": "",
          "type": "address"
        }
      ],
      "name": "targetForGauge",
      "outputs": [
        {
          "internalType": "address",
          "name": "",
          "type": "address"
        }
      ],
      "stateMutability": "view",
      "type": "function"
    },
    {
      "inputs": [
        {
          "internalType": "uint256",
          "name": "",
          "type": "uint256"
        },
        {
          "internalType": "uint256",
          "name": "",
          "type": "uint256"
        }
      ],
      "name": "targetVote",
      "outputs": [
        {
          "internalType": "address",
          "name": "",
          "type": "address"
        }
      ],
      "stateMutability": "view",
      "type": "function"
    },
    {
      "inputs": [
        {
          "internalType": "uint256",
          "name": "tokenId",
          "type": "uint256"
        }
      ],
      "name": "targetVoteLength",
      "outputs": [
        {
          "internalType": "uint256",
          "name": "",
          "type": "uint256"
        }
      ],
      "stateMutability": "view",
      "type": "function"
    },
    {
      "inputs": [
        {
          "internalType": "uint256",
          "name": "",
          "type": "uint256"
        }
      ],
      "name": "targets",
      "outputs": [
        {
          "internalType": "address",
          "name": "",
          "type": "address"
        }
      ],
      "stateMutability": "view",
      "type": "function"
    },
    {
      "inputs": [],
      "name": "totalWeight",
      "outputs": [
        {
          "internalType": "uint256",
          "name": "",
          "type": "uint256"
        }
      ],
      "stateMutability": "view",
      "type": "function"
    },
    {
      "inputs": [
        {
          "internalType": "uint256",
          "name": "_time",
          "type": "uint256"
        }
      ],
      "name": "totalWeightAt",
      "outputs": [
        {
          "internalType": "uint256",
          "name": "",
          "type": "uint256"
        }
      ],
      "stateMutability": "view",
      "type": "function"
    },
    {
      "inputs": [
        {
          "internalType": "address",
          "name": "newOwner",
          "type": "address"
        }
      ],
      "name": "transferOwnership",
      "outputs": [],
      "stateMutability": "nonpayable",
      "type": "function"
    },
    {
      "inputs": [
        {
          "internalType": "uint256",
          "name": "",
          "type": "uint256"
        }
      ],
      "name": "usedWeights",
      "outputs": [
        {
          "internalType": "uint256",
          "name": "",
          "type": "uint256"
        }
      ],
      "stateMutability": "view",
      "type": "function"
    },
    {
      "inputs": [
        {
          "internalType": "uint256",
          "name": "_tokenId",
          "type": "uint256"
        },
        {
          "internalType": "address[]",
          "name": "_targetVote",
          "type": "address[]"
        },
        {
          "internalType": "uint256[]",
          "name": "_weights",
          "type": "uint256[]"
        }
      ],
      "name": "vote",
      "outputs": [],
      "stateMutability": "nonpayable",
      "type": "function"
    },
    {
      "inputs": [],
      "name": "voteDelay",
      "outputs": [
        {
          "internalType": "uint256",
          "name": "",
          "type": "uint256"
        }
      ],
      "stateMutability": "view",
      "type": "function"
    },
    {
      "inputs": [
        {
          "internalType": "uint256",
          "name": "",
          "type": "uint256"
        },
        {
          "internalType": "address",
          "name": "",
          "type": "address"
        }
      ],
      "name": "votes",
      "outputs": [
        {
          "internalType": "uint256",
          "name": "",
          "type": "uint256"
        }
      ],
      "stateMutability": "view",
      "type": "function"
    },
    {
      "inputs": [
        {
          "internalType": "address",
          "name": "_target",
          "type": "address"
        }
      ],
      "name": "weights",
      "outputs": [
        {
          "internalType": "uint256",
          "name": "",
          "type": "uint256"
        }
      ],
      "stateMutability": "view",
      "type": "function"
    },
    {
      "inputs": [
        {
          "internalType": "address",
          "name": "_target",
          "type": "address"
        },
        {
          "internalType": "uint256",
          "name": "_time",
          "type": "uint256"
        }
      ],
      "name": "weightsAt",
      "outputs": [
        {
          "internalType": "uint256",
          "name": "",
          "type": "uint256"
        }
      ],
      "stateMutability": "view",
      "type": "function"
    }
  ],
  "transactionHash": "0x2d4f29680661c0ea554a5684990764aab2c520a17e53e50de378b192b0e78924",
  "args": [],
  "numDeployments": 3,
  "bytecode": {
    "object": "0x60806040523480156200001157600080fd5b506200001c62000022565b620000e3565b600054610100900460ff16156200008f5760405162461bcd60e51b815260206004820152602760248201527f496e697469616c697a61626c653a20636f6e747261637420697320696e697469604482015266616c697a696e6760c81b606482015260840160405180910390fd5b60005460ff90811614620000e1576000805460ff191660ff9081179091556040519081527f7f26b83ff96e1f2b6a682f133852f6798a09c465da95921460cefb38474024989060200160405180910390a15b565b6152cb80620000f36000396000f3fe608060405234801561001057600080fd5b50600436106103e65760003560e01c80637ac09bf71161020a578063b55a5c1c11610125578063daa168bd116100b8578063f2fde38b11610087578063f2fde38b1461097f578063f3594be014610992578063f7e7d1fd146109b2578063f8803bb6146109c5578063f9f031df146109cd57600080fd5b8063daa168bd14610910578063e6da045714610923578063eae40f2614610943578063eb4a78e01461096c57600080fd5b8063c2b79e98116100f4578063c2b79e98146108ac578063c527ee1f146108bf578063c991866d146108d2578063d23254b4146108e557600080fd5b8063b55a5c1c14610834578063b7c89f9c14610847578063b9a09fd51461085a578063c12944951461088357600080fd5b80639fb5dc051161019d578063aa79979b1161016c578063aa79979b146107cd578063ae21c4cb146107f0578063b0f5027814610819578063b52a31511461082c57600080fd5b80639fb5dc051461077f578063a4388c9714610794578063a7cac846146107a7578063a9b5aa7e146107ba57600080fd5b80638dd598fb116101d95780638dd598fb1461073e57806396c82e5714610751578063992a7933146107595780639f06247b1461076c57600080fd5b80637ac09bf7146106f4578063842eb3a9146107075780638b6fc2471461071a5780638da5cb5b1461072d57600080fd5b80633dfe8c06116103055780636138889b116102985780636c4f2e38116102675780636c4f2e381461069c578063715018a6146106a65780637625391a146106ae5780637715ee75146106c157806379e93824146106d457600080fd5b80636138889b14610640578063636056f214610653578063657021fb14610666578063666256aa1461068957600080fd5b806354944b13116102d457806354944b13146105f4578063556e091d14610607578063577387b51461061a5780635c6c28681461062d57600080fd5b80633dfe8c061461058a578063402914f5146105ac578063436596c4146105cc57806353be568d146105d457600080fd5b806323e1af421161037d57806332145f901161034c57806332145f901461051457806333832a6a146105275780633c6b16ab1461053a5780633df66dd11461054d57600080fd5b806323e1af42146104d2578063292fc979146104e557806329ce1ec5146104ee578063310bd74b1461050157600080fd5b80631459457a116103b95780631459457a1461046f5780631703e5f9146104845780631f7b6d32146104b757806323130d11146104bf57600080fd5b806305118b3b146103eb578063075461721461041e5780630a39ce02146104495780630d52333c1461045c575b600080fd5b61040b6103f9366004614848565b600090815260a8602052604090205490565b6040519081526020015b60405180910390f35b60b054610431906001600160a01b031681565b6040516001600160a01b039091168152602001610415565b610431610457366004614848565b6109e0565b609954610431906001600160a01b031681565b61048261047d366004614876565b610a0a565b005b6104a76104923660046148e7565b60ae6020526000908152604090205460ff1681565b6040519015158152602001610415565b609d5461040b565b6104826104cd3660046148e7565b610c0f565b6104316104e0366004614848565b610ce2565b61040b609f5481565b6104826104fc3660046148e7565b610cf2565b61048261050f366004614848565b610ea0565b610482610522366004614848565b610fd6565b6104826105353660046148e7565b6111ee565b610482610548366004614848565b6112c1565b61056061055b3660046148e7565b6113ff565b604080516001600160a01b0394851681529284166020840152921691810191909152606001610415565b61059d6105983660046149e8565b61142d565b60405161041593929190614a8f565b61040b6105ba3660046148e7565b60a16020526000908152604090205481565b61048261165f565b61040b6105e2366004614848565b600090815260aa602052604090205490565b610560610602366004614ad2565b61175a565b6104826106153660046148e7565b611782565b610482610628366004614848565b61195d565b61048261063b366004614b0b565b611ae0565b61048261064e366004614b37565b611cc7565b61040b610661366004614b0b565b611d94565b6104a76106743660046148e7565b60af6020526000908152604090205460ff1681565b610482610697366004614bf2565b611dbe565b61040b620d2f0081565b610482611f04565b6104826106bc366004614c5e565b611f16565b6104826106cf366004614bf2565b611fd9565b61040b6106e2366004614848565b60ab6020526000908152604090205481565b610482610702366004614ccb565b612119565b61059d610715366004614b37565b612293565b610482610728366004614848565b612468565b6033546001600160a01b0316610431565b609754610431906001600160a01b031681565b61040b6125a2565b6104826107673660046148e7565b6125c2565b61048261077a3660046148e7565b6126bb565b61078761281c565b6040516104159190614d44565b6104316107a2366004614c5e565b61287e565b61040b6107b53660046148e7565b6128b6565b6104826107c83660046148e7565b6128ed565b6104a76107db3660046148e7565b60ad6020526000908152604090205460ff1681565b6104316107fe3660046148e7565b60a6602052600090815260409020546001600160a01b031681565b610482610827366004614d57565b6129c0565b609a5461040b565b609c54610431906001600160a01b031681565b610482610855366004614ad2565b612aed565b6104316108683660046148e7565b60a2602052600090815260409020546001600160a01b031681565b6104316108913660046148e7565b60a4602052600090815260409020546001600160a01b031681565b6104826108ba366004614da2565b612c04565b6104826108cd366004614b37565b612cba565b6104826108e0366004614da2565b612dcc565b61040b6108f3366004614dfb565b60a760209081526000928352604080842090915290825290205481565b61048261091e366004614ad2565b612e7d565b61040b6109313660046148e7565b60a36020526000908152604090205481565b6104316109513660046148e7565b60a5602052600090815260409020546001600160a01b031681565b609b54610431906001600160a01b031681565b61048261098d3660046148e7565b612f94565b61040b6109a0366004614848565b60ac6020526000908152604090205481565b6104826109c03660046148e7565b61300a565b61040b6130b7565b6104826109db366004614b37565b61312a565b609d81815481106109f057600080fd5b6000918252602090912001546001600160a01b0316905081565b600054610100900460ff1615808015610a2a5750600054600160ff909116105b80610a445750303b158015610a44575060005460ff166001145b610a695760405162461bcd60e51b8152600401610a6090614e20565b60405180910390fd5b6000805460ff191660011790558015610a8c576000805461ff0019166101001790555b610a946131c0565b610a9c6131ef565b609780546001600160a01b0319166001600160a01b03881690811790915560408051637e062a3560e11b8152905163fc0c546a916004808201926020929091908290030181865afa158015610af5573d6000803e3d6000fd5b505050506040513d601f19601f82011682018060405250810190610b199190614e6e565b609880546001600160a01b03199081166001600160a01b0393841617909155609980548216888416908117909155609a805460018181019092557f44da158ba27f9252712a74ff6a55c5d531f69609f1f6e7f17c4443a8e2089be4018054841683179055600091825260af60205260408220805460ff19169091179055609b8054831688851617905560b080548316878516179055609c8054909216928516929092179055609f558015610c07576000805461ff0019169055604051600181527f7f26b83ff96e1f2b6a682f133852f6798a09c465da95921460cefb38474024989060200160405180910390a15b505050505050565b6033546001600160a01b0316331480610ca45750609c5460405163b700961360e01b81526001600160a01b039091169063b700961390610c6390339030906001600160e01b03196000351690600401614e8b565b602060405180830381865afa158015610c80573d6000803e3d6000fd5b505050506040513d601f19601f82011682018060405250810190610ca49190614eb8565b610cc05760405162461bcd60e51b8152600401610a6090614eda565b609980546001600160a01b0319166001600160a01b0392909216919091179055565b609a81815481106109f057600080fd5b6033546001600160a01b0316331480610d875750609c5460405163b700961360e01b81526001600160a01b039091169063b700961390610d4690339030906001600160e01b03196000351690600401614e8b565b602060405180830381865afa158015610d63573d6000803e3d6000fd5b505050506040513d601f19601f82011682018060405250810190610d879190614eb8565b610da35760405162461bcd60e51b8152600401610a6090614eda565b6001600160a01b038116610de25760405162461bcd60e51b815260206004820152600660248201526506164647220360d41b6044820152606401610a60565b6001600160a01b038116600090815260af602052604090205460ff1615610e395760405162461bcd60e51b815260206004820152600b60248201526a672e66616374207472756560a81b6044820152606401610a60565b609a805460018181019092557f44da158ba27f9252712a74ff6a55c5d531f69609f1f6e7f17c4443a8e2089be40180546001600160a01b039093166001600160a01b031990931683179055600091825260af6020526040909120805460ff19169091179055565b610ea861321e565b610eb181613277565b60975460405163430c208160e01b81526001600160a01b039091169063430c208190610ee39033908590600401614f04565b602060405180830381865afa158015610f00573d6000803e3d6000fd5b505050506040513d601f19601f82011682018060405250810190610f249190614eb8565b610f405760405162461bcd60e51b8152600401610a6090614f1d565b610f49816132d3565b60975460405163c1f0fb9f60e01b8152600481018390526001600160a01b039091169063c1f0fb9f90602401600060405180830381600087803b158015610f8f57600080fd5b505af1158015610fa3573d6000803e3d6000fd5b50505050610faf6130b7565b610fba906001614f62565b600082815260ac6020526040902055610fd36001606555565b50565b610fde61321e565b610fe781613277565b60975460405163430c208160e01b81526001600160a01b039091169063430c2081906110199033908590600401614f04565b602060405180830381865afa158015611036573d6000803e3d6000fd5b505050506040513d601f19601f8201168201806040525081019061105a9190614eb8565b6110765760405162461bcd60e51b8152600401610a6090614f1d565b600081815260a860209081526040808320805482518185028101850190935280835291929091908301828280156110d657602002820191906000526020600020905b81546001600160a01b031681526001909101906020018083116110b8575b505050505090506000815190506000816001600160401b038111156110fd576110fd61490b565b604051908082528060200260200182016040528015611126578160200160208202803683370190505b50905060005b828110156111b35760a76000868152602001908152602001600020600085838151811061115b5761115b614f75565b60200260200101516001600160a01b03166001600160a01b031681526020019081526020016000205482828151811061119657611196614f75565b6020908102919091010152806111ab81614f8b565b91505061112c565b506111bf8484836134a1565b6111c76130b7565b6111d2906001614f62565b600085815260ac602052604090205550610fd3915061349a9050565b6033546001600160a01b03163314806112835750609c5460405163b700961360e01b81526001600160a01b039091169063b70096139061124290339030906001600160e01b03196000351690600401614e8b565b602060405180830381865afa15801561125f573d6000803e3d6000fd5b505050506040513d601f19601f820116820180604052508101906112839190614eb8565b61129f5760405162461bcd60e51b8152600401610a6090614eda565b609c80546001600160a01b0319166001600160a01b0392909216919091179055565b60b060009054906101000a90046001600160a01b03166001600160a01b031663ed29fc116040518163ffffffff1660e01b81526004016020604051808303816000875af1158015611316573d6000803e3d6000fd5b505050506040513d601f19601f8201168201806040525081019061133a9190614fa4565b50609854611353906001600160a01b0316333084613880565b600061136e621275006113646130b7565b6105e29190614fbd565b905060008115611398578161138b84670de0b6b3a7640000614fd0565b6113959190614fe7565b90505b80156113b65780609e60008282546113b09190614f62565b90915550505b6098546040518481526001600160a01b039091169033907ff70d5c697de7ea828df48e5c4573cb2194c659f1901f70110c52b066dcf508269060200160405180910390a3505050565b600080600061140c61321e565b611415846139d1565b919450925090506114266001606555565b9193909250565b606080606061143a61321e565b83518551146114765760405162461bcd60e51b81526020600482015260086024820152673632b7103234b33360c11b6044820152606401610a60565b600a855111156114b15760405162461bcd60e51b815260206004820152600660248201526506d61782031360d41b6044820152606401610a60565b600085516001600160401b038111156114cc576114cc61490b565b6040519080825280602002602001820160405280156114f5578160200160208202803683370190505b509050600086516001600160401b038111156115135761151361490b565b60405190808252806020026020018201604052801561153c578160200160208202803683370190505b509050600087516001600160401b0381111561155a5761155a61490b565b604051908082528060200260200182016040528015611583578160200160208202803683370190505b50905060005b8851811015611646576115ce8982815181106115a7576115a7614f75565b60200260200101518983815181106115c1576115c1614f75565b6020026020010151613fe4565b8684815181106115e0576115e0614f75565b602002602001018685815181106115f9576115f9614f75565b6020026020010186868151811061161257611612614f75565b6001600160a01b0394851660209182029290920101529282169092529190911690528061163e81614f8b565b915050611589565b50919450925090506116586001606555565b9250925092565b61166761321e565b60b060009054906101000a90046001600160a01b03166001600160a01b031663ed29fc116040518163ffffffff1660e01b81526004016020604051808303816000875af11580156116bc573d6000803e3d6000fd5b505050506040513d601f19601f820116820180604052508101906116e09190614fa4565b50609d546000905b8082101561174c5761173a60a26000609d858154811061170a5761170a614f75565b60009182526020808320909101546001600160a01b039081168452908301939093526040909101902054166143ed565b8161174481614f8b565b9250506116e8565b50506117586001606555565b565b600080600061176761321e565b6117718585613fe4565b919450925090506116586001606555565b6033546001600160a01b03163314806118175750609c5460405163b700961360e01b81526001600160a01b039091169063b7009613906117d690339030906001600160e01b03196000351690600401614e8b565b602060405180830381865afa1580156117f3573d6000803e3d6000fd5b505050506040513d601f19601f820116820180604052508101906118179190614eb8565b6118335760405162461bcd60e51b8152600401610a6090614eda565b6001600160a01b038116600090815260ad602052604090205460ff1661186b5760405162461bcd60e51b8152600401610a6090615009565b60985460405163095ea7b360e01b81526001600160a01b039091169063095ea7b39061189e908490600090600401614f04565b6020604051808303816000875af11580156118bd573d6000803e3d6000fd5b505050506040513d601f19601f820116820180604052508101906118e19190614eb8565b5060985460405163095ea7b360e01b81526001600160a01b039091169063095ea7b39061191690849060001990600401614f04565b6020604051808303816000875af1158015611935573d6000803e3d6000fd5b505050506040513d601f19601f820116820180604052508101906119599190614eb8565b5050565b6033546001600160a01b03163314806119f25750609c5460405163b700961360e01b81526001600160a01b039091169063b7009613906119b190339030906001600160e01b03196000351690600401614e8b565b602060405180830381865afa1580156119ce573d6000803e3d6000fd5b505050506040513d601f19601f820116820180604052508101906119f29190614eb8565b611a0e5760405162461bcd60e51b8152600401610a6090614eda565b6000609a8281548110611a2357611a23614f75565b60009182526020808320909101546001600160a01b031680835260af90915260409091205490915060ff16611a895760405162461bcd60e51b815260206004820152600c60248201526b672e666163742066616c736560a01b6044820152606401610a60565b6000609a8381548110611a9e57611a9e614f75565b600091825260208083209190910180546001600160a01b0319166001600160a01b0394851617905592909116815260af90915260409020805460ff1916905550565b6033546001600160a01b0316331480611b755750609c5460405163b700961360e01b81526001600160a01b039091169063b700961390611b3490339030906001600160e01b03196000351690600401614e8b565b602060405180830381865afa158015611b51573d6000803e3d6000fd5b505050506040513d601f19601f82011682018060405250810190611b759190614eb8565b611b915760405162461bcd60e51b8152600401610a6090614eda565b6001600160a01b038216611bd05760405162461bcd60e51b815260206004820152600660248201526506164647220360d41b6044820152606401610a60565b6001600160a01b038216600090815260af602052604090205460ff16611c275760405162461bcd60e51b815260206004820152600c60248201526b672e666163742066616c736560a01b6044820152606401610a60565b6000609a8281548110611c3c57611c3c614f75565b60009182526020808320909101546001600160a01b031680835260af9091526040909120805460ff19169055609a8054919250849184908110611c8157611c81614f75565b600091825260208083209190910180546001600160a01b0319166001600160a01b0394851617905594909116815260af909352505060409020805460ff19166001179055565b611ccf61321e565b60b060009054906101000a90046001600160a01b03166001600160a01b031663ed29fc116040518163ffffffff1660e01b81526004016020604051808303816000875af1158015611d24573d6000803e3d6000fd5b505050506040513d601f19601f82011682018060405250810190611d489190614fa4565b5060005b8151811015611d8957611d77828281518110611d6a57611d6a614f75565b60200260200101516143ed565b80611d8181614f8b565b915050611d4c565b50610fd36001606555565b600081815260a9602090815260408083206001600160a01b03861684529091529020545b92915050565b60975460405163430c208160e01b81526001600160a01b039091169063430c208190611df09033908590600401614f04565b602060405180830381865afa158015611e0d573d6000803e3d6000fd5b505050506040513d601f19601f82011682018060405250810190611e319190614eb8565b611e4d5760405162461bcd60e51b8152600401610a6090614f1d565b60005b8351811015611efe57838181518110611e6b57611e6b614f75565b60200260200101516001600160a01b031663a7852afa83858481518110611e9457611e94614f75565b60200260200101516040518363ffffffff1660e01b8152600401611eb992919061502e565b600060405180830381600087803b158015611ed357600080fd5b505af1158015611ee7573d6000803e3d6000fd5b505050508080611ef690614f8b565b915050611e50565b50505050565b611f0c614533565b611758600061458d565b611f1e61321e565b60b060009054906101000a90046001600160a01b03166001600160a01b031663ed29fc116040518163ffffffff1660e01b81526004016020604051808303816000875af1158015611f73573d6000803e3d6000fd5b505050506040513d601f19601f82011682018060405250810190611f979190614fa4565b50815b81811015611fce57611fbc60a26000609d848154811061170a5761170a614f75565b80611fc681614f8b565b915050611f9a565b506119596001606555565b60975460405163430c208160e01b81526001600160a01b039091169063430c20819061200b9033908590600401614f04565b602060405180830381865afa158015612028573d6000803e3d6000fd5b505050506040513d601f19601f8201168201806040525081019061204c9190614eb8565b6120685760405162461bcd60e51b8152600401610a6090614f1d565b60005b8351811015611efe5783818151811061208657612086614f75565b60200260200101516001600160a01b031663a7852afa838584815181106120af576120af614f75565b60200260200101516040518363ffffffff1660e01b81526004016120d492919061502e565b600060405180830381600087803b1580156120ee57600080fd5b505af1158015612102573d6000803e3d6000fd5b50505050808061211190614f8b565b91505061206b565b61212161321e565b61212a85613277565b60975460405163430c208160e01b81526001600160a01b039091169063430c20819061215c9033908990600401614f04565b602060405180830381865afa158015612179573d6000803e3d6000fd5b505050506040513d601f19601f8201168201806040525081019061219d9190614eb8565b6121b95760405162461bcd60e51b8152600401610a6090614f1d565b8281146121f25760405162461bcd60e51b815260206004820152600760248201526630b939103632b760c91b6044820152606401610a60565b61226085858580806020026020016040519081016040528093929190818152602001838360200280828437600092019190915250506040805160208089028281018201909352888252909350889250879182918501908490808284376000920191909152506134a192505050565b6122686130b7565b612273906001614f62565b600086815260ac602052604090205561228c6001606555565b5050505050565b60608060606122a061321e565b600a845111156122db5760405162461bcd60e51b815260206004820152600660248201526506d61782031360d41b6044820152606401610a60565b600084516001600160401b038111156122f6576122f661490b565b60405190808252806020026020018201604052801561231f578160200160208202803683370190505b509050600085516001600160401b0381111561233d5761233d61490b565b604051908082528060200260200182016040528015612366578160200160208202803683370190505b509050600086516001600160401b038111156123845761238461490b565b6040519080825280602002602001820160405280156123ad578160200160208202803683370190505b50905060005b8751811015612456576123de8882815181106123d1576123d1614f75565b60200260200101516139d1565b8684815181106123f0576123f0614f75565b6020026020010186858151811061240957612409614f75565b6020026020010186868151811061242257612422614f75565b6001600160a01b0394851660209182029290920101529282169092529190911690528061244e81614f8b565b9150506123b3565b50919450925090506114266001606555565b6033546001600160a01b03163314806124fd5750609c5460405163b700961360e01b81526001600160a01b039091169063b7009613906124bc90339030906001600160e01b03196000351690600401614e8b565b602060405180830381865afa1580156124d9573d6000803e3d6000fd5b505050506040513d601f19601f820116820180604052508101906124fd9190614eb8565b6125195760405162461bcd60e51b8152600401610a6090614eda565b609f5481036125585760405162461bcd60e51b815260206004820152600b60248201526a2173616d652064656c617960a81b6044820152606401610a60565b620d2f0081111561259d5760405162461bcd60e51b815260206004820152600f60248201526e216f766572206d61782064656c617960881b6044820152606401610a60565b609f55565b6000806125ad6130b7565b600090815260aa602052604090205492915050565b6125ca6145df565b6126085760405162461bcd60e51b815260206004820152600f60248201526e4552523a20474f5645524e414e434560881b6044820152606401610a60565b6001600160a01b038116600090815260ae602052604090205460ff166126655760405162461bcd60e51b815260206004820152601260248201527119d85d59d948185b1c9958591e481919585960721b6044820152606401610a60565b6001600160a01b038116600081815260ae60209081526040808320805460ff1916905560a1909152808220829055517f04a5d3f5d80d22d9345acc80618f4a4e7e663cf9e1aed23b57d975acec002ba79190a250565b6126c36145df565b6127015760405162461bcd60e51b815260206004820152600f60248201526e4552523a20474f5645524e414e434560881b6044820152606401610a60565b6001600160a01b038116600090815260ae602052604090205460ff16156127605760405162461bcd60e51b8152602060048201526013602482015272676175676520616c726561647920616c69766560681b6044820152606401610a60565b6001600160a01b038116600090815260ad602052604090205460ff166127bf5760405162461bcd60e51b81526020600482015260146024820152736761756765206b696c6c656420746f74616c6c7960601b6044820152606401610a60565b6001600160a01b038116600081815260ae60209081526040808320805460ff19166001179055609e5460a090925280832091909155517fed18e9faa3dccfd8aa45f69c4de40546b2ca9cccc4538a2323531656516db1aa9190a250565b6060609a80548060200260200160405190810160405280929190818152602001828054801561287457602002820191906000526020600020905b81546001600160a01b03168152600190910190602001808311612856575b5050505050905090565b60a8602052816000526040600020818154811061289a57600080fd5b6000918252602090912001546001600160a01b03169150829050565b6000806128c16130b7565b600090815260a9602090815260408083206001600160a01b039096168352949052929092205492915050565b6033546001600160a01b03163314806129825750609c5460405163b700961360e01b81526001600160a01b039091169063b70096139061294190339030906001600160e01b03196000351690600401614e8b565b602060405180830381865afa15801561295e573d6000803e3d6000fd5b505050506040513d601f19601f820116820180604052508101906129829190614eb8565b61299e5760405162461bcd60e51b8152600401610a6090614eda565b609b80546001600160a01b0319166001600160a01b0392909216919091179055565b6033546001600160a01b0316331480612a555750609c5460405163b700961360e01b81526001600160a01b039091169063b700961390612a1490339030906001600160e01b03196000351690600401614e8b565b602060405180830381865afa158015612a31573d6000803e3d6000fd5b505050506040513d601f19601f82011682018060405250810190612a559190614eb8565b612a715760405162461bcd60e51b8152600401610a6090614eda565b6001600160a01b038316600090815260ad602052604090205460ff16612aa95760405162461bcd60e51b8152600401610a6090615009565b6001600160a01b03928316600090815260a56020908152604080832080549587166001600160a01b031996871617905560a690915290208054919093169116179055565b6033546001600160a01b0316331480612b825750609c5460405163b700961360e01b81526001600160a01b039091169063b700961390612b4190339030906001600160e01b03196000351690600401614e8b565b602060405180830381865afa158015612b5e573d6000803e3d6000fd5b505050506040513d601f19601f82011682018060405250810190612b829190614eb8565b612b9e5760405162461bcd60e51b8152600401610a6090614eda565b6001600160a01b038216600090815260ad602052604090205460ff16612bd65760405162461bcd60e51b8152600401610a6090615009565b6001600160a01b03918216600090815260a56020526040902080546001600160a01b03191691909216179055565b60005b8251811015612cb557828181518110612c2257612c22614f75565b60200260200101516001600160a01b031663db0ea98433848481518110612c4b57612c4b614f75565b60200260200101516040518363ffffffff1660e01b8152600401612c70929190615047565b600060405180830381600087803b158015612c8a57600080fd5b505af1158015612c9e573d6000803e3d6000fd5b505050508080612cad90614f8b565b915050612c07565b505050565b60005b81518110156119595760ad6000838381518110612cdc57612cdc614f75565b6020908102919091018101516001600160a01b031682528101919091526040016000205460ff168015612d48575060ae6000838381518110612d2057612d20614f75565b6020908102919091018101516001600160a01b031682528101919091526040016000205460ff165b15612dba57818181518110612d5f57612d5f614f75565b60200260200101516001600160a01b031663d294f0936040518163ffffffff1660e01b8152600401600060405180830381600087803b158015612da157600080fd5b505af1158015612db5573d6000803e3d6000fd5b505050505b80612dc481614f8b565b915050612cbd565b60005b8251811015612cb557828181518110612dea57612dea614f75565b60200260200101516001600160a01b031663db0ea98433848481518110612e1357612e13614f75565b60200260200101516040518363ffffffff1660e01b8152600401612e38929190615047565b600060405180830381600087803b158015612e5257600080fd5b505af1158015612e66573d6000803e3d6000fd5b505050508080612e7590614f8b565b915050612dcf565b6033546001600160a01b0316331480612f125750609c5460405163b700961360e01b81526001600160a01b039091169063b700961390612ed190339030906001600160e01b03196000351690600401614e8b565b602060405180830381865afa158015612eee573d6000803e3d6000fd5b505050506040513d601f19601f82011682018060405250810190612f129190614eb8565b612f2e5760405162461bcd60e51b8152600401610a6090614eda565b6001600160a01b038216600090815260ad602052604090205460ff16612f665760405162461bcd60e51b8152600401610a6090615009565b6001600160a01b03918216600090815260a66020526040902080546001600160a01b03191691909216179055565b612f9c614533565b6001600160a01b0381166130015760405162461bcd60e51b815260206004820152602660248201527f4f776e61626c653a206e6577206f776e657220697320746865207a65726f206160448201526564647265737360d01b6064820152608401610a60565b610fd38161458d565b600054600290610100900460ff1615801561302c575060005460ff8083169116105b6130485760405162461bcd60e51b8152600401610a6090614e20565b60008054609780546001600160a01b0319166001600160a01b03861617905561ff001961010060ff851661ffff19909316831717169091556040519081527f7f26b83ff96e1f2b6a682f133852f6798a09c465da95921460cefb38474024989060200160405180910390a15050565b60b05460408051631a2732c160e31b815290516000926001600160a01b03169163d13996089160048083019260209291908290030181865afa158015613101573d6000803e3d6000fd5b505050506040513d601f19601f820116820180604052508101906131259190614fa4565b905090565b60005b81518110156119595781818151811061314857613148614f75565b6020908102919091010151604051630c00007b60e41b81523360048201526001600160a01b039091169063c00007b090602401600060405180830381600087803b15801561319557600080fd5b505af11580156131a9573d6000803e3d6000fd5b5050505080806131b890614f8b565b91505061312d565b600054610100900460ff166131e75760405162461bcd60e51b8152600401610a609061506b565b61175861468e565b600054610100900460ff166132165760405162461bcd60e51b8152600401610a609061506b565b6117586146be565b6002606554036132705760405162461bcd60e51b815260206004820152601f60248201527f5265656e7472616e637947756172643a207265656e7472616e742063616c6c006044820152606401610a60565b6002606555565b609f54600082815260ac60205260409020546132939190614f62565b4211610fd35760405162461bcd60e51b815260206004820152600f60248201526e4552523a20564f54455f44454c415960881b6044820152606401610a60565b600081815260a86020526040812080549091806132ee6130b7565b905060005b8381101561343057600085828154811061330f5761330f614f75565b600091825260208083209091015489835260a7825260408084206001600160a01b0390921680855291909252912054909150801561341b5761334f6130b7565b600089815260ac6020526040902054111561339c57600084815260a9602090815260408083206001600160a01b038616845290915281208054839290613396908490614fbd565b90915550505b600088815260a7602090815260408083206001600160a01b0386168452909152812080548392906133ce908490614fbd565b909155506133de90508186614f62565b604080518a8152602081018490529196507fa9f3ca5f8a9e1580edb2741e0ba560084ec72e0067ba3423f9e9327a176882db910160405180910390a15b5050808061342890614f8b565b9150506132f3565b506134396130b7565b600086815260ac6020526040902054101561345357600091505b600081815260aa602052604081208054849290613471908490614fbd565b9091555050600085815260ab6020908152604080832083905560a8909152812061228c91614816565b6001606555565b6134aa836132d3565b81516097546040516339f890b560e21b8152600481018690526000916001600160a01b03169063e7e242d490602401602060405180830381865afa1580156134f6573d6000803e3d6000fd5b505050506040513d601f19601f8201168201806040525081019061351a9190614fa4565b905060008060008061352a6130b7565b905060005b868110156135705787818151811061354957613549614f75565b60200260200101518561355c9190614f62565b94508061356881614f8b565b91505061352f565b5060005b868110156137db57600089828151811061359057613590614f75565b6020908102919091018101516001600160a01b03808216600090815260a2845260408082205490921680825260ad909452205490925060ff1680156135ed57506001600160a01b038116600090815260ae602052604090205460ff165b156137c657600087898c868151811061360857613608614f75565b602002602001015161361a9190614fd0565b6136249190614fe7565b60008e815260a7602090815260408083206001600160a01b0388168452909152902054909150156136975760405162461bcd60e51b815260206004820152601860248201527f616c726561647920766f74656420666f722074617267657400000000000000006044820152606401610a60565b806000036136d55760405162461bcd60e51b815260206004820152600b60248201526a7a65726f20766f7465207760a81b6044820152606401610a60565b60008d815260a86020908152604080832080546001810182559084528284200180546001600160a01b0319166001600160a01b03881690811790915588845260a9835281842090845290915281208054839290613733908490614f62565b909155505060008d815260a7602090815260408083206001600160a01b03871684529091528120805483929061376a908490614f62565b9091555061377a90508187614f62565b95506137868188614f62565b604080518f81526020810184905291985033917fea66f58e474bc09f580000e81f31b334d171db387d0c6098ba47bd897741679b910160405180910390a2505b505080806137d390614f8b565b915050613574565b5081156138415760975460405163fd4a77f160e01b8152600481018b90526001600160a01b039091169063fd4a77f190602401600060405180830381600087803b15801561382857600080fd5b505af115801561383c573d6000803e3d6000fd5b505050505b600081815260aa60205260408120805485929061385f908490614f62565b909155505050600097885260ab602052604090972096909655505050505050565b6000846001600160a01b03163b116138c95760405162461bcd60e51b815260206004820152600c60248201526b1b9bdd0818dbdb9d1c9858dd60a21b6044820152606401610a60565b604080516001600160a01b0385811660248301528481166044830152606480830185905283518084039091018152608490920183526020820180516001600160e01b03166323b872dd60e01b179052915160009283929088169161392d91906150da565b6000604051808303816000865af19150503d806000811461396a576040519150601f19603f3d011682016040523d82523d6000602084013e61396f565b606091505b50915091508180156139995750805115806139995750808060200190518101906139999190614eb8565b610c075760405162461bcd60e51b815260206004820152600960248201526818d85b1b0819985a5b60ba1b6044820152606401610a60565b60008060006139e86033546001600160a01b031690565b6001600160a01b0316336001600160a01b03161480613a835750609c5460405163b700961360e01b81526001600160a01b039091169063b700961390613a4290339030906001600160e01b03196000351690600401614e8b565b602060405180830381865afa158015613a5f573d6000803e3d6000fd5b505050506040513d601f19601f82011682018060405250810190613a839190614eb8565b613a9f5760405162461bcd60e51b8152600401610a6090614eda565b6001600160a01b03848116600090815260a260205260409020541615613af15760405162461bcd60e51b81526020600482015260076024820152662165786973747360c81b6044820152606401610a60565b6000609a600081548110613b0757613b07614f75565b6000918252602090912001546001600160a01b0316905080613b5f5760405162461bcd60e51b81526020600482015260116024820152703d32b9379030b232391033b0bab3b2903360791b6044820152606401610a60565b613b676145df565b613b835760405162461bcd60e51b8152600401610a60906150f6565b609b546001600160a01b031615613dba576000856001600160a01b03166395d89b416040518163ffffffff1660e01b8152600401600060405180830381865afa158015613bd4573d6000803e3d6000fd5b505050506040513d6000823e601f3d908101601f19168201604052613bfc919081019061516d565b604051602001613c0c9190615200565b60408051601f19818403018152919052609b549091506001600160a01b0316635cbaa126613c426033546001600160a01b031690565b88846040518463ffffffff1660e01b8152600401613c629392919061523b565b6020604051808303816000875af1158015613c81573d6000803e3d6000fd5b505050506040513d601f19601f82011682018060405250810190613ca59190614e6e565b9350856001600160a01b03166395d89b416040518163ffffffff1660e01b8152600401600060405180830381865afa158015613ce5573d6000803e3d6000fd5b505050506040513d6000823e601f3d908101601f19168201604052613d0d919081019061516d565b604051602001613d1d9190615288565b60408051601f19818403018152919052609b549091506001600160a01b0316635cbaa126613d536033546001600160a01b031690565b88846040518463ffffffff1660e01b8152600401613d739392919061523b565b6020604051808303816000875af1158015613d92573d6000803e3d6000fd5b505050506040513d601f19601f82011682018060405250810190613db69190614e6e565b9250505b609854609754604051630e1e9f4760e41b81526001600160a01b03928316600482015290821660248201528682166044820152306064820152848216608482015283821660a48201529082169063e1e9f4709060c4016020604051808303816000875af1158015613e2f573d6000803e3d6000fd5b505050506040513d601f19601f82011682018060405250810190613e539190614e6e565b60985460405163095ea7b360e01b81529195506001600160a01b03169063095ea7b390613e8890879060001990600401614f04565b6020604051808303816000875af1158015613ea7573d6000803e3d6000fd5b505050506040513d601f19601f82011682018060405250810190613ecb9190614eb8565b506001600160a01b03848116600081815260a56020908152604080832080548987166001600160a01b0319918216811790925560a6845282852080548a89169083168117909155968c1680865260a28552838620805483168817905586865260a48552838620805483168217905560ad8552838620805460ff19908116600190811790925560ae8752858820805490911682179055609d805491820190557fd26e832454299e9fabb89e0e5fffdc046d4e14431bc1bf607ffb2e8a1ddecf7b0180549092168117909155609e5460a085529483902094909455815133815292830152919392917fed3b9172e8e6e99601d7718a5674363fc0f40c74cbfc20fd843bcac1f221f76c910160405180910390a4509193909250565b6000806000613ffb6033546001600160a01b031690565b6001600160a01b0316336001600160a01b031614806140965750609c5460405163b700961360e01b81526001600160a01b039091169063b70096139061405590339030906001600160e01b03196000351690600401614e8b565b602060405180830381865afa158015614072573d6000803e3d6000fd5b505050506040513d601f19601f820116820180604052508101906140969190614eb8565b6140b25760405162461bcd60e51b8152600401610a6090614eda565b6001600160a01b03858116600090815260a2602052604090205416156141045760405162461bcd60e51b81526020600482015260076024820152662165786973747360c81b6044820152606401610a60565b6000609a60008154811061411a5761411a614f75565b6000918252602090912001546001600160a01b03169050806141725760405162461bcd60e51b81526020600482015260116024820152703d32b9379030b232391033b0bab3b2903360791b6044820152606401610a60565b61417a6145df565b6141965760405162461bcd60e51b8152600401610a60906150f6565b60985460975460405163386a5bf360e21b81526001600160a01b038881166004830152928316602482015290821660448201528782166064820152306084820152600060a4820181905260c48201819052918291829185169063e1a96fcc9060e4016020604051808303816000875af1158015614217573d6000803e3d6000fd5b505050506040513d601f19601f8201168201806040525081019061423b9190614e6e565b60985460405163095ea7b360e01b81529192506001600160a01b03169063095ea7b39061427090849060001990600401614f04565b6020604051808303816000875af115801561428f573d6000803e3d6000fd5b505050506040513d601f19601f820116820180604052508101906142b39190614eb8565b506001600160a01b03808216600081815260a5602090815260408083208054868a166001600160a01b03199182161790915560a6835281842080548988169083168117909155958f1680855260a28452828520805483168717905585855260a48452828520805483168217905560ad8452828520805460ff19908116600190811790925560ae8652848720805490911682179055609d805491820190557fd26e832454299e9fabb89e0e5fffdc046d4e14431bc1bf607ffb2e8a1ddecf7b0180549092168117909155609e5485855260a0909352928190209190915551909291907f789525eca048c1f1ac4968a0f9c2ba07534aa2c34c31813db303f702a687f808906143d890339089906001600160a01b0392831681529116602082015260400190565b60405180910390a49891975095509350505050565b6001600160a01b038116600090815260a360205260408120549061440f6130b7565b905080821015612cb557614422836146e5565b6001600160a01b038316600090815260a16020526040902054801580159061446257506001600160a01b038416600090815260ae602052604090205460ff165b15611efe576001600160a01b03808516600081815260a16020908152604080832083905560a390915290819020859055609854905163b66503cf60e01b8152919263b66503cf926144bb92909116908590600401614f04565b600060405180830381600087803b1580156144d557600080fd5b505af11580156144e9573d6000803e3d6000fd5b50506040518381526001600160a01b03871692503391507f4fa9693cae526341d334e2862ca2413b2e503f1266255f9e0869fb36e6d89b179060200160405180910390a350505050565b6033546001600160a01b031633146117585760405162461bcd60e51b815260206004820181905260248201527f4f776e61626c653a2063616c6c6572206973206e6f7420746865206f776e65726044820152606401610a60565b603380546001600160a01b038381166001600160a01b0319831681179093556040519116919082907f8be0079c531659141344cd1fd0a4f28419497f9722a3daafe3b4186f6b6457e090600090a35050565b60006145f36033546001600160a01b031690565b6001600160a01b0316336001600160a01b031614806131255750609c5460405163b700961360e01b81526001600160a01b039091169063b70096139061464d90339030906001600160e01b03196000351690600401614e8b565b602060405180830381865afa15801561466a573d6000803e3d6000fd5b505050506040513d601f19601f820116820180604052508101906131259190614eb8565b600054610100900460ff166146b55760405162461bcd60e51b8152600401610a609061506b565b6117583361458d565b600054610100900460ff1661349a5760405162461bcd60e51b8152600401610a609061506b565b6001600160a01b03808216600090815260a46020526040812054909116906212750061470f6130b7565b6147199190614fbd565b600081815260a9602090815260408083206001600160a01b038716845290915290205490915080156147f4576001600160a01b038416600090815260a0602052604081208054609e5491829055916147718383614fbd565b905080156147ec576000670de0b6b3a764000061478e8387614fd0565b6147989190614fe7565b6001600160a01b038916600090815260ae602052604090205490915060ff16156147ea576001600160a01b038816600090815260a16020526040812080548392906147e4908490614f62565b90915550505b505b505050611efe565b609e546001600160a01b038516600090815260a0602052604090205550505050565b5080546000825590600052602060002090810190610fd391905b808211156148445760008155600101614830565b5090565b60006020828403121561485a57600080fd5b5035919050565b6001600160a01b0381168114610fd357600080fd5b600080600080600060a0868803121561488e57600080fd5b853561489981614861565b945060208601356148a981614861565b935060408601356148b981614861565b925060608601356148c981614861565b915060808601356148d981614861565b809150509295509295909350565b6000602082840312156148f957600080fd5b813561490481614861565b9392505050565b634e487b7160e01b600052604160045260246000fd5b604051601f8201601f191681016001600160401b03811182821017156149495761494961490b565b604052919050565b60006001600160401b0382111561496a5761496a61490b565b5060051b60200190565b600082601f83011261498557600080fd5b8135602061499a61499583614951565b614921565b82815260059290921b840181019181810190868411156149b957600080fd5b8286015b848110156149dd5780356149d081614861565b83529183019183016149bd565b509695505050505050565b600080604083850312156149fb57600080fd5b82356001600160401b0380821115614a1257600080fd5b614a1e86838701614974565b93506020850135915080821115614a3457600080fd5b50614a4185828601614974565b9150509250929050565b600081518084526020808501945080840160005b83811015614a845781516001600160a01b031687529582019590820190600101614a5f565b509495945050505050565b606081526000614aa26060830186614a4b565b8281036020840152614ab48186614a4b565b90508281036040840152614ac88185614a4b565b9695505050505050565b60008060408385031215614ae557600080fd5b8235614af081614861565b91506020830135614b0081614861565b809150509250929050565b60008060408385031215614b1e57600080fd5b8235614b2981614861565b946020939093013593505050565b600060208284031215614b4957600080fd5b81356001600160401b03811115614b5f57600080fd5b614b6b84828501614974565b949350505050565b600082601f830112614b8457600080fd5b81356020614b9461499583614951565b82815260059290921b84018101918181019086841115614bb357600080fd5b8286015b848110156149dd5780356001600160401b03811115614bd65760008081fd5b614be48986838b0101614974565b845250918301918301614bb7565b600080600060608486031215614c0757600080fd5b83356001600160401b0380821115614c1e57600080fd5b614c2a87838801614974565b94506020860135915080821115614c4057600080fd5b50614c4d86828701614b73565b925050604084013590509250925092565b60008060408385031215614c7157600080fd5b50508035926020909101359150565b60008083601f840112614c9257600080fd5b5081356001600160401b03811115614ca957600080fd5b6020830191508360208260051b8501011115614cc457600080fd5b9250929050565b600080600080600060608688031215614ce357600080fd5b8535945060208601356001600160401b0380821115614d0157600080fd5b614d0d89838a01614c80565b90965094506040880135915080821115614d2657600080fd5b50614d3388828901614c80565b969995985093965092949392505050565b6020815260006149046020830184614a4b565b600080600060608486031215614d6c57600080fd5b8335614d7781614861565b92506020840135614d8781614861565b91506040840135614d9781614861565b809150509250925092565b60008060408385031215614db557600080fd5b82356001600160401b0380821115614dcc57600080fd5b614dd886838701614974565b93506020850135915080821115614dee57600080fd5b50614a4185828601614b73565b60008060408385031215614e0e57600080fd5b823591506020830135614b0081614861565b6020808252602e908201527f496e697469616c697a61626c653a20636f6e747261637420697320616c72656160408201526d191e481a5b9a5d1a585b1a5e995960921b606082015260800190565b600060208284031215614e8057600080fd5b815161490481614861565b6001600160a01b0393841681529190921660208201526001600160e01b0319909116604082015260600190565b600060208284031215614eca57600080fd5b8151801515811461490457600080fd5b60208082526010908201526f22a9291d102b27aa22a92fa0a226a4a760811b604082015260600190565b6001600160a01b03929092168252602082015260400190565b6020808252601590820152741b9bdd081bdddb995c881bdc88185c1c1c9bdd9959605a1b604082015260600190565b634e487b7160e01b600052601160045260246000fd5b80820180821115611db857611db8614f4c565b634e487b7160e01b600052603260045260246000fd5b600060018201614f9d57614f9d614f4c565b5060010190565b600060208284031215614fb657600080fd5b5051919050565b81810381811115611db857611db8614f4c565b8082028115828204841417611db857611db8614f4c565b60008261500457634e487b7160e01b600052601260045260246000fd5b500490565b6020808252600b908201526a6e6f74206120676175676560a81b604082015260600190565b828152604060208201526000614b6b6040830184614a4b565b6001600160a01b0383168152604060208201819052600090614b6b90830184614a4b565b6020808252602b908201527f496e697469616c697a61626c653a20636f6e7472616374206973206e6f74206960408201526a6e697469616c697a696e6760a81b606082015260800190565b60005b838110156150d15781810151838201526020016150b9565b50506000910152565b600082516150ec8184602087016150b6565b9190910192915050565b60208082526051908201527f544f444f2076657269667920746861742074686520746172676574206973206160408201527f6e20496f6e6963206d61726b657420696e2063617365207468652063616c6c65606082015270391034b9903737ba1030b71030b236b4b760791b608082015260a00190565b60006020828403121561517f57600080fd5b81516001600160401b038082111561519657600080fd5b818401915084601f8301126151aa57600080fd5b8151818111156151bc576151bc61490b565b6151cf601f8201601f1916602001614921565b91508082528560208285010111156151e657600080fd5b6151f78160208401602086016150b6565b50949350505050565b72024b7b734b19036b0b935b2ba103332b2b99d1606d1b81526000825161522e8160138501602087016150b6565b9190910160130192915050565b600060018060a01b0380861683528085166020840152506060604083015282518060608401526152728160808501602087016150b6565b601f01601f191691909101608001949350505050565b6d024b7b734b190213934b132b99d160951b8152600082516152b181600e8501602087016150b6565b91909101600e019291505056fea164736f6c6343000813000a",
    "linkReferences": {}
  },
  "methodIdentifiers": {
    "MAX_VOTE_DELAY()": "6c4f2e38",
    "_epochTimestamp()": "f8803bb6",
    "_gaugeFactories()": "9fb5dc05",
    "_ve()": "8dd598fb",
    "addFactory(address)": "29ce1ec5",
    "bribeFactory()": "eb4a78e0",
    "claimBribes(address[],address[][])": "c2b79e98",
    "claimBribes(address[],address[][],uint256)": "7715ee75",
    "claimFees(address[],address[][])": "c991866d",
    "claimFees(address[],address[][],uint256)": "666256aa",
    "claimRewards(address[])": "f9f031df",
    "claimable(address)": "402914f5",
    "createMarketGauge(address,address)": "54944b13",
    "createMarketGauges(address[],address[])": "3dfe8c06",
    "createPairGauge(address)": "3df66dd1",
    "createPairGauges(address[])": "842eb3a9",
    "distribute(address[])": "6138889b",
    "distribute(uint256,uint256)": "7625391a",
    "distributeAll()": "436596c4",
    "distributeFees(address[])": "c527ee1f",
    "external_bribes(address)": "ae21c4cb",
    "gaugeFactories(uint256)": "23e1af42",
    "gaugeFactoriesLength()": "b52a3151",
    "gaugeFactory()": "0d52333c",
    "gauges(address)": "b9a09fd5",
    "gaugesDistributionTimestamp(address)": "e6da0457",
    "increaseGaugeApprovals(address)": "556e091d",
    "initialize(address,address,address,address,address)": "1459457a",
    "internal_bribes(address)": "eae40f26",
    "isAlive(address)": "1703e5f9",
    "isGauge(address)": "aa79979b",
    "isGaugeFactory(address)": "657021fb",
    "killGauge(address)": "992a7933",
    "lastVoted(uint256)": "f3594be0",
    "length()": "1f7b6d32",
    "minter()": "07546172",
    "notifyRewardAmount(uint256)": "3c6b16ab",
    "owner()": "8da5cb5b",
    "permissionRegistry()": "b55a5c1c",
    "poke(uint256)": "32145f90",
    "reinitialize(address)": "f7e7d1fd",
    "removeFactory(uint256)": "577387b5",
    "renounceOwnership()": "715018a6",
    "replaceFactory(address,uint256)": "5c6c2868",
    "reset(uint256)": "310bd74b",
    "reviveGauge(address)": "9f06247b",
    "setBribeFactory(address)": "a9b5aa7e",
    "setExternalBribeFor(address,address)": "daa168bd",
    "setGaugeFactory(address)": "23130d11",
    "setInternalBribeFor(address,address)": "b7c89f9c",
    "setNewBribes(address,address,address)": "b0f50278",
    "setPermissionsRegistry(address)": "33832a6a",
    "setVoteDelay(uint256)": "8b6fc247",
    "targetForGauge(address)": "c1294495",
    "targetVote(uint256,uint256)": "a4388c97",
    "targetVoteLength(uint256)": "05118b3b",
    "targets(uint256)": "0a39ce02",
    "totalWeight()": "96c82e57",
    "totalWeightAt(uint256)": "53be568d",
    "transferOwnership(address)": "f2fde38b",
    "usedWeights(uint256)": "79e93824",
    "vote(uint256,address[],uint256[])": "7ac09bf7",
    "voteDelay()": "292fc979",
    "votes(uint256,address)": "d23254b4",
    "weights(address)": "a7cac846",
    "weightsAt(address,uint256)": "636056f2"
  }
}