{
  "address": "0x2159F5dF1A2C06962612E99034285EC70200196D",
  "abi": [
    {
      "inputs": [],
      "stateMutability": "nonpayable",
      "type": "constructor"
    },
    {
      "inputs": [],
      "name": "XERC721__addBridge_alreadyAdded",
      "type": "error"
    },
    {
      "inputs": [],
      "name": "XERC721__onlyBridge_notBridge",
      "type": "error"
    },
    {
      "inputs": [],
      "name": "XERC721__removeBridge_alreadyRemoved",
      "type": "error"
    },
    {
      "anonymous": false,
      "inputs": [
        {
          "indexed": true,
          "internalType": "address",
          "name": "owner",
          "type": "address"
        },
        {
          "indexed": true,
          "internalType": "address",
          "name": "approved",
          "type": "address"
        },
        {
          "indexed": true,
          "internalType": "uint256",
          "name": "tokenId",
          "type": "uint256"
        }
      ],
      "name": "Approval",
      "type": "event"
    },
    {
      "anonymous": false,
      "inputs": [
        {
          "indexed": true,
          "internalType": "address",
          "name": "owner",
          "type": "address"
        },
        {
          "indexed": true,
          "internalType": "address",
          "name": "operator",
          "type": "address"
        },
        {
          "indexed": false,
          "internalType": "bool",
          "name": "approved",
          "type": "bool"
        }
      ],
      "name": "ApprovalForAll",
      "type": "event"
    },
    {
      "anonymous": false,
      "inputs": [
        {
          "indexed": true,
          "internalType": "address",
          "name": "bridge",
          "type": "address"
        }
      ],
      "name": "BridgeAdded",
      "type": "event"
    },
    {
      "anonymous": false,
      "inputs": [
        {
          "indexed": true,
          "internalType": "address",
          "name": "bridge",
          "type": "address"
        }
      ],
      "name": "BridgeRemoved",
      "type": "event"
    },
    {
      "anonymous": false,
      "inputs": [
        {
          "indexed": false,
          "internalType": "uint256",
          "name": "_tokenId",
          "type": "uint256"
        },
        {
          "indexed": false,
          "internalType": "bytes",
          "name": "_metadata",
          "type": "bytes"
        }
      ],
      "name": "BurnAsBridge",
      "type": "event"
    },
    {
      "anonymous": false,
      "inputs": [
        {
          "indexed": true,
          "internalType": "address",
          "name": "delegator",
          "type": "address"
        },
        {
          "indexed": true,
          "internalType": "address",
          "name": "fromDelegate",
          "type": "address"
        },
        {
          "indexed": true,
          "internalType": "address",
          "name": "toDelegate",
          "type": "address"
        }
      ],
      "name": "DelegateChanged",
      "type": "event"
    },
    {
      "anonymous": false,
      "inputs": [
        {
          "indexed": true,
          "internalType": "address",
          "name": "delegate",
          "type": "address"
        },
        {
          "indexed": false,
          "internalType": "uint256",
          "name": "previousBalance",
          "type": "uint256"
        },
        {
          "indexed": false,
          "internalType": "uint256",
          "name": "newBalance",
          "type": "uint256"
        }
      ],
      "name": "DelegateVotesChanged",
      "type": "event"
    },
    {
      "anonymous": false,
      "inputs": [
        {
          "indexed": true,
          "internalType": "address",
          "name": "provider",
          "type": "address"
        },
        {
          "indexed": false,
          "internalType": "uint256",
          "name": "tokenId",
          "type": "uint256"
        },
        {
          "indexed": false,
          "internalType": "uint256",
          "name": "value",
          "type": "uint256"
        },
        {
          "indexed": true,
          "internalType": "uint256",
          "name": "locktime",
          "type": "uint256"
        },
        {
          "indexed": false,
          "internalType": "enum VoteEscrow.DepositType",
          "name": "deposit_type",
          "type": "uint8"
        },
        {
          "indexed": false,
          "internalType": "uint256",
          "name": "ts",
          "type": "uint256"
        }
      ],
      "name": "Deposit",
      "type": "event"
    },
    {
      "anonymous": false,
      "inputs": [
        {
          "indexed": false,
          "internalType": "uint8",
          "name": "version",
          "type": "uint8"
        }
      ],
      "name": "Initialized",
      "type": "event"
    },
    {
      "anonymous": false,
      "inputs": [
        {
          "indexed": false,
          "internalType": "uint256",
          "name": "_tokenId",
          "type": "uint256"
        },
        {
          "indexed": false,
          "internalType": "bytes",
          "name": "_metadata",
          "type": "bytes"
        }
      ],
      "name": "MintAsBridge",
      "type": "event"
    },
    {
      "anonymous": false,
      "inputs": [
        {
          "indexed": true,
          "internalType": "address",
          "name": "previousOwner",
          "type": "address"
        },
        {
          "indexed": true,
          "internalType": "address",
          "name": "newOwner",
          "type": "address"
        }
      ],
      "name": "OwnershipTransferStarted",
      "type": "event"
    },
    {
      "anonymous": false,
      "inputs": [
        {
          "indexed": true,
          "internalType": "address",
          "name": "previousOwner",
          "type": "address"
        },
        {
          "indexed": true,
          "internalType": "address",
          "name": "newOwner",
          "type": "address"
        }
      ],
      "name": "OwnershipTransferred",
      "type": "event"
    },
    {
      "anonymous": false,
      "inputs": [
        {
          "indexed": false,
          "internalType": "uint256",
          "name": "prevSupply",
          "type": "uint256"
        },
        {
          "indexed": false,
          "internalType": "uint256",
          "name": "supply",
          "type": "uint256"
        }
      ],
      "name": "Supply",
      "type": "event"
    },
    {
      "anonymous": false,
      "inputs": [
        {
          "indexed": true,
          "internalType": "address",
          "name": "from",
          "type": "address"
        },
        {
          "indexed": true,
          "internalType": "address",
          "name": "to",
          "type": "address"
        },
        {
          "indexed": true,
          "internalType": "uint256",
          "name": "tokenId",
          "type": "uint256"
        }
      ],
      "name": "Transfer",
      "type": "event"
    },
    {
      "anonymous": false,
      "inputs": [
        {
          "indexed": true,
          "internalType": "address",
          "name": "provider",
          "type": "address"
        },
        {
          "indexed": false,
          "internalType": "uint256",
          "name": "tokenId",
          "type": "uint256"
        },
        {
          "indexed": false,
          "internalType": "uint256",
          "name": "value",
          "type": "uint256"
        },
        {
          "indexed": false,
          "internalType": "uint256",
          "name": "ts",
          "type": "uint256"
        }
      ],
      "name": "Withdraw",
      "type": "event"
    },
    {
      "inputs": [],
      "name": "ARBITRUM_ONE",
      "outputs": [
        {
          "internalType": "uint128",
          "name": "",
          "type": "uint128"
        }
      ],
      "stateMutability": "view",
      "type": "function"
    },
    {
      "inputs": [],
      "name": "DELEGATION_TYPEHASH",
      "outputs": [
        {
          "internalType": "bytes32",
          "name": "",
          "type": "bytes32"
        }
      ],
      "stateMutability": "view",
      "type": "function"
    },
    {
      "inputs": [],
      "name": "DOMAIN_TYPEHASH",
      "outputs": [
        {
          "internalType": "bytes32",
          "name": "",
          "type": "bytes32"
        }
      ],
      "stateMutability": "view",
      "type": "function"
    },
    {
      "inputs": [],
      "name": "MAX_DELEGATES",
      "outputs": [
        {
          "internalType": "uint256",
          "name": "",
          "type": "uint256"
        }
      ],
      "stateMutability": "view",
      "type": "function"
    },
    {
      "inputs": [
        {
          "internalType": "uint256",
          "name": "_tokenId",
          "type": "uint256"
        }
      ],
      "name": "abstain",
      "outputs": [],
      "stateMutability": "nonpayable",
      "type": "function"
    },
    {
      "inputs": [],
      "name": "acceptOwnership",
      "outputs": [],
      "stateMutability": "nonpayable",
      "type": "function"
    },
    {
      "inputs": [
        {
          "internalType": "address",
          "name": "_bridge",
          "type": "address"
        }
      ],
      "name": "addBridge",
      "outputs": [],
      "stateMutability": "nonpayable",
      "type": "function"
    },
    {
      "inputs": [
        {
          "internalType": "address",
          "name": "to",
          "type": "address"
        },
        {
          "internalType": "uint256",
          "name": "tokenId",
          "type": "uint256"
        }
      ],
      "name": "approve",
      "outputs": [],
      "stateMutability": "nonpayable",
      "type": "function"
    },
    {
      "inputs": [
        {
          "internalType": "address",
          "name": "owner",
          "type": "address"
        }
      ],
      "name": "balanceOf",
      "outputs": [
        {
          "internalType": "uint256",
          "name": "",
          "type": "uint256"
        }
      ],
      "stateMutability": "view",
      "type": "function"
    },
    {
      "inputs": [
        {
          "internalType": "uint256",
          "name": "_tokenId",
          "type": "uint256"
        },
        {
          "internalType": "uint256",
          "name": "_block",
          "type": "uint256"
        }
      ],
      "name": "balanceOfAtNFT",
      "outputs": [
        {
          "internalType": "uint256",
          "name": "",
          "type": "uint256"
        }
      ],
      "stateMutability": "view",
      "type": "function"
    },
    {
      "inputs": [
        {
          "internalType": "uint256",
          "name": "_tokenId",
          "type": "uint256"
        }
      ],
      "name": "balanceOfNFT",
      "outputs": [
        {
          "internalType": "uint256",
          "name": "",
          "type": "uint256"
        }
      ],
      "stateMutability": "view",
      "type": "function"
    },
    {
      "inputs": [
        {
          "internalType": "uint256",
          "name": "_tokenId",
          "type": "uint256"
        },
        {
          "internalType": "uint256",
          "name": "_t",
          "type": "uint256"
        }
      ],
      "name": "balanceOfNFTAt",
      "outputs": [
        {
          "internalType": "uint256",
          "name": "",
          "type": "uint256"
        }
      ],
      "stateMutability": "view",
      "type": "function"
    },
    {
      "inputs": [],
      "name": "block_number",
      "outputs": [
        {
          "internalType": "uint256",
          "name": "",
          "type": "uint256"
        }
      ],
      "stateMutability": "view",
      "type": "function"
    },
    {
      "inputs": [
        {
          "internalType": "uint256",
          "name": "_tokenId",
          "type": "uint256"
        }
      ],
      "name": "burn",
      "outputs": [
        {
          "internalType": "bytes",
          "name": "_metadata",
          "type": "bytes"
        }
      ],
      "stateMutability": "nonpayable",
      "type": "function"
    },
    {
      "inputs": [],
      "name": "checkpoint",
      "outputs": [],
      "stateMutability": "nonpayable",
      "type": "function"
    },
    {
      "inputs": [
        {
          "internalType": "address",
          "name": "",
          "type": "address"
        },
        {
          "internalType": "uint32",
          "name": "",
          "type": "uint32"
        }
      ],
      "name": "checkpoints",
      "outputs": [
        {
          "internalType": "uint256",
          "name": "timestamp",
          "type": "uint256"
        }
      ],
      "stateMutability": "view",
      "type": "function"
    },
    {
      "inputs": [
        {
          "internalType": "uint256",
          "name": "_value",
          "type": "uint256"
        },
        {
          "internalType": "uint256",
          "name": "_lock_duration",
          "type": "uint256"
        }
      ],
      "name": "create_lock",
      "outputs": [
        {
          "internalType": "uint256",
          "name": "",
          "type": "uint256"
        }
      ],
      "stateMutability": "nonpayable",
      "type": "function"
    },
    {
      "inputs": [
        {
          "internalType": "uint256",
          "name": "_value",
          "type": "uint256"
        },
        {
          "internalType": "uint256",
          "name": "_lock_duration",
          "type": "uint256"
        },
        {
          "internalType": "address",
          "name": "_to",
          "type": "address"
        }
      ],
      "name": "create_lock_for",
      "outputs": [
        {
          "internalType": "uint256",
          "name": "",
          "type": "uint256"
        }
      ],
      "stateMutability": "nonpayable",
      "type": "function"
    },
    {
      "inputs": [
        {
          "internalType": "address",
          "name": "delegatee",
          "type": "address"
        }
      ],
      "name": "delegate",
      "outputs": [],
      "stateMutability": "nonpayable",
      "type": "function"
    },
    {
      "inputs": [
        {
          "internalType": "address",
          "name": "delegatee",
          "type": "address"
        },
        {
          "internalType": "uint256",
          "name": "nonce",
          "type": "uint256"
        },
        {
          "internalType": "uint256",
          "name": "expiry",
          "type": "uint256"
        },
        {
          "internalType": "uint8",
          "name": "v",
          "type": "uint8"
        },
        {
          "internalType": "bytes32",
          "name": "r",
          "type": "bytes32"
        },
        {
          "internalType": "bytes32",
          "name": "s",
          "type": "bytes32"
        }
      ],
      "name": "delegateBySig",
      "outputs": [],
      "stateMutability": "nonpayable",
      "type": "function"
    },
    {
      "inputs": [
        {
          "internalType": "address",
          "name": "delegator",
          "type": "address"
        }
      ],
      "name": "delegates",
      "outputs": [
        {
          "internalType": "address",
          "name": "",
          "type": "address"
        }
      ],
      "stateMutability": "view",
      "type": "function"
    },
    {
      "inputs": [
        {
          "internalType": "uint256",
          "name": "_tokenId",
          "type": "uint256"
        },
        {
          "internalType": "uint256",
          "name": "_value",
          "type": "uint256"
        }
      ],
      "name": "deposit_for",
      "outputs": [],
      "stateMutability": "nonpayable",
      "type": "function"
    },
    {
      "inputs": [],
      "name": "epoch",
      "outputs": [
        {
          "internalType": "uint256",
          "name": "",
          "type": "uint256"
        }
      ],
      "stateMutability": "view",
      "type": "function"
    },
    {
      "inputs": [
        {
          "internalType": "uint256",
          "name": "tokenId",
          "type": "uint256"
        }
      ],
      "name": "getApproved",
      "outputs": [
        {
          "internalType": "address",
          "name": "",
          "type": "address"
        }
      ],
      "stateMutability": "view",
      "type": "function"
    },
    {
      "inputs": [
        {
          "internalType": "uint256",
          "name": "timestamp",
          "type": "uint256"
        }
      ],
      "name": "getPastTotalSupply",
      "outputs": [
        {
          "internalType": "uint256",
          "name": "",
          "type": "uint256"
        }
      ],
      "stateMutability": "view",
      "type": "function"
    },
    {
      "inputs": [
        {
          "internalType": "address",
          "name": "account",
          "type": "address"
        },
        {
          "internalType": "uint256",
          "name": "timestamp",
          "type": "uint256"
        }
      ],
      "name": "getPastVotes",
      "outputs": [
        {
          "internalType": "uint256",
          "name": "",
          "type": "uint256"
        }
      ],
      "stateMutability": "view",
      "type": "function"
    },
    {
      "inputs": [
        {
          "internalType": "address",
          "name": "account",
          "type": "address"
        },
        {
          "internalType": "uint256",
          "name": "timestamp",
          "type": "uint256"
        }
      ],
      "name": "getPastVotesIndex",
      "outputs": [
        {
          "internalType": "uint32",
          "name": "",
          "type": "uint32"
        }
      ],
      "stateMutability": "view",
      "type": "function"
    },
    {
      "inputs": [
        {
          "internalType": "address",
          "name": "account",
          "type": "address"
        }
      ],
      "name": "getVotes",
      "outputs": [
        {
          "internalType": "uint256",
          "name": "",
          "type": "uint256"
        }
      ],
      "stateMutability": "view",
      "type": "function"
    },
    {
      "inputs": [
        {
          "internalType": "uint256",
          "name": "_tokenId",
          "type": "uint256"
        }
      ],
      "name": "get_last_user_slope",
      "outputs": [
        {
          "internalType": "int128",
          "name": "",
          "type": "int128"
        }
      ],
      "stateMutability": "view",
      "type": "function"
    },
    {
      "inputs": [
        {
          "internalType": "uint256",
          "name": "_tokenId",
          "type": "uint256"
        },
        {
          "internalType": "uint256",
          "name": "_value",
          "type": "uint256"
        }
      ],
      "name": "increase_amount",
      "outputs": [],
      "stateMutability": "nonpayable",
      "type": "function"
    },
    {
      "inputs": [
        {
          "internalType": "uint256",
          "name": "_tokenId",
          "type": "uint256"
        },
        {
          "internalType": "uint256",
          "name": "_lock_duration",
          "type": "uint256"
        }
      ],
      "name": "increase_unlock_time",
      "outputs": [],
      "stateMutability": "nonpayable",
      "type": "function"
    },
    {
      "inputs": [
        {
          "internalType": "string",
          "name": "name_",
          "type": "string"
        },
        {
          "internalType": "string",
          "name": "symbol_",
          "type": "string"
        },
        {
          "internalType": "address",
          "name": "token_addr",
          "type": "address"
        }
      ],
      "name": "initialize",
      "outputs": [],
      "stateMutability": "nonpayable",
      "type": "function"
    },
    {
      "inputs": [
        {
          "internalType": "address",
          "name": "_owner",
          "type": "address"
        },
        {
          "internalType": "address",
          "name": "_operator",
          "type": "address"
        }
      ],
      "name": "isApprovedForAll",
      "outputs": [
        {
          "internalType": "bool",
          "name": "",
          "type": "bool"
        }
      ],
      "stateMutability": "view",
      "type": "function"
    },
    {
      "inputs": [
        {
          "internalType": "address",
          "name": "_spender",
          "type": "address"
        },
        {
          "internalType": "uint256",
          "name": "_tokenId",
          "type": "uint256"
        }
      ],
      "name": "isApprovedOrOwner",
      "outputs": [
        {
          "internalType": "bool",
          "name": "",
          "type": "bool"
        }
      ],
      "stateMutability": "view",
      "type": "function"
    },
    {
      "inputs": [
        {
          "internalType": "address",
          "name": "_bridge",
          "type": "address"
        }
      ],
      "name": "isBridge",
      "outputs": [
        {
          "internalType": "bool",
          "name": "",
          "type": "bool"
        }
      ],
      "stateMutability": "view",
      "type": "function"
    },
    {
      "inputs": [
        {
          "internalType": "uint256",
          "name": "",
          "type": "uint256"
        }
      ],
      "name": "locked",
      "outputs": [
        {
          "internalType": "int128",
          "name": "amount",
          "type": "int128"
        },
        {
          "internalType": "uint256",
          "name": "end",
          "type": "uint256"
        }
      ],
      "stateMutability": "view",
      "type": "function"
    },
    {
      "inputs": [
        {
          "internalType": "uint256",
          "name": "_tokenId",
          "type": "uint256"
        }
      ],
      "name": "locked__end",
      "outputs": [
        {
          "internalType": "uint256",
          "name": "",
          "type": "uint256"
        }
      ],
      "stateMutability": "view",
      "type": "function"
    },
    {
      "inputs": [],
      "name": "masterChainId",
      "outputs": [
        {
          "internalType": "uint256",
          "name": "",
          "type": "uint256"
        }
      ],
      "stateMutability": "view",
      "type": "function"
    },
    {
      "inputs": [
        {
          "internalType": "uint256",
          "name": "_from",
          "type": "uint256"
        },
        {
          "internalType": "uint256",
          "name": "_to",
          "type": "uint256"
        }
      ],
      "name": "merge",
      "outputs": [],
      "stateMutability": "nonpayable",
      "type": "function"
    },
    {
      "inputs": [
        {
          "internalType": "address",
          "name": "_to",
          "type": "address"
        },
        {
          "internalType": "uint256",
          "name": "_tokenId",
          "type": "uint256"
        },
        {
          "internalType": "bytes",
          "name": "_metadata",
          "type": "bytes"
        }
      ],
      "name": "mint",
      "outputs": [],
      "stateMutability": "nonpayable",
      "type": "function"
    },
    {
      "inputs": [],
      "name": "name",
      "outputs": [
        {
          "internalType": "string",
          "name": "",
          "type": "string"
        }
      ],
      "stateMutability": "view",
      "type": "function"
    },
    {
      "inputs": [
        {
          "internalType": "address",
          "name": "",
          "type": "address"
        }
      ],
      "name": "nonces",
      "outputs": [
        {
          "internalType": "uint256",
          "name": "",
          "type": "uint256"
        }
      ],
      "stateMutability": "view",
      "type": "function"
    },
    {
      "inputs": [
        {
          "internalType": "address",
          "name": "",
          "type": "address"
        }
      ],
      "name": "numCheckpoints",
      "outputs": [
        {
          "internalType": "uint32",
          "name": "",
          "type": "uint32"
        }
      ],
      "stateMutability": "view",
      "type": "function"
    },
    {
      "inputs": [],
      "name": "owner",
      "outputs": [
        {
          "internalType": "address",
          "name": "",
          "type": "address"
        }
      ],
      "stateMutability": "view",
      "type": "function"
    },
    {
      "inputs": [
        {
          "internalType": "uint256",
          "name": "tokenId",
          "type": "uint256"
        }
      ],
      "name": "ownerOf",
      "outputs": [
        {
          "internalType": "address",
          "name": "",
          "type": "address"
        }
      ],
      "stateMutability": "view",
      "type": "function"
    },
    {
      "inputs": [
        {
          "internalType": "uint256",
          "name": "",
          "type": "uint256"
        }
      ],
      "name": "ownership_change",
      "outputs": [
        {
          "internalType": "uint256",
          "name": "",
          "type": "uint256"
        }
      ],
      "stateMutability": "view",
      "type": "function"
    },
    {
      "inputs": [],
      "name": "pendingOwner",
      "outputs": [
        {
          "internalType": "address",
          "name": "",
          "type": "address"
        }
      ],
      "stateMutability": "view",
      "type": "function"
    },
    {
      "inputs": [
        {
          "internalType": "uint256",
          "name": "",
          "type": "uint256"
        }
      ],
      "name": "point_history",
      "outputs": [
        {
          "internalType": "int128",
          "name": "bias",
          "type": "int128"
        },
        {
          "internalType": "int128",
          "name": "slope",
          "type": "int128"
        },
        {
          "internalType": "uint256",
          "name": "ts",
          "type": "uint256"
        },
        {
          "internalType": "uint256",
          "name": "blk",
          "type": "uint256"
        }
      ],
      "stateMutability": "view",
      "type": "function"
    },
    {
      "inputs": [
        {
          "internalType": "address",
          "name": "_bridge",
          "type": "address"
        }
      ],
      "name": "removeBridge",
      "outputs": [],
      "stateMutability": "nonpayable",
      "type": "function"
    },
    {
      "inputs": [],
      "name": "renounceOwnership",
      "outputs": [],
      "stateMutability": "nonpayable",
      "type": "function"
    },
    {
      "inputs": [
        {
          "internalType": "address",
          "name": "from",
          "type": "address"
        },
        {
          "internalType": "address",
          "name": "to",
          "type": "address"
        },
        {
          "internalType": "uint256",
          "name": "tokenId",
          "type": "uint256"
        }
      ],
      "name": "safeTransferFrom",
      "outputs": [],
      "stateMutability": "nonpayable",
      "type": "function"
    },
    {
      "inputs": [
        {
          "internalType": "address",
          "name": "from",
          "type": "address"
        },
        {
          "internalType": "address",
          "name": "to",
          "type": "address"
        },
        {
          "internalType": "uint256",
          "name": "tokenId",
          "type": "uint256"
        },
        {
          "internalType": "bytes",
          "name": "data",
          "type": "bytes"
        }
      ],
      "name": "safeTransferFrom",
      "outputs": [],
      "stateMutability": "nonpayable",
      "type": "function"
    },
    {
      "inputs": [
        {
          "internalType": "address",
          "name": "operator",
          "type": "address"
        },
        {
          "internalType": "bool",
          "name": "approved",
          "type": "bool"
        }
      ],
      "name": "setApprovalForAll",
      "outputs": [],
      "stateMutability": "nonpayable",
      "type": "function"
    },
    {
      "inputs": [],
      "name": "setMasterChain",
      "outputs": [],
      "stateMutability": "nonpayable",
      "type": "function"
    },
    {
      "inputs": [
        {
          "internalType": "address",
          "name": "_team",
          "type": "address"
        }
      ],
      "name": "setTeam",
      "outputs": [],
      "stateMutability": "nonpayable",
      "type": "function"
    },
    {
      "inputs": [
        {
          "internalType": "address",
          "name": "_token",
          "type": "address"
        }
      ],
      "name": "setToken",
      "outputs": [],
      "stateMutability": "nonpayable",
      "type": "function"
    },
    {
      "inputs": [
        {
          "internalType": "address",
          "name": "_voter",
          "type": "address"
        }
      ],
      "name": "setVoter",
      "outputs": [],
      "stateMutability": "nonpayable",
      "type": "function"
    },
    {
      "inputs": [
        {
          "internalType": "uint256",
          "name": "",
          "type": "uint256"
        }
      ],
      "name": "slope_changes",
      "outputs": [
        {
          "internalType": "int128",
          "name": "",
          "type": "int128"
        }
      ],
      "stateMutability": "view",
      "type": "function"
    },
    {
      "inputs": [
        {
          "internalType": "uint256[]",
          "name": "amounts",
          "type": "uint256[]"
        },
        {
          "internalType": "uint256",
          "name": "_tokenId",
          "type": "uint256"
        }
      ],
      "name": "split",
      "outputs": [],
      "stateMutability": "nonpayable",
      "type": "function"
    },
    {
      "inputs": [],
      "name": "supply",
      "outputs": [
        {
          "internalType": "uint256",
          "name": "",
          "type": "uint256"
        }
      ],
      "stateMutability": "view",
      "type": "function"
    },
    {
      "inputs": [
        {
          "internalType": "bytes4",
          "name": "interfaceId",
          "type": "bytes4"
        }
      ],
      "name": "supportsInterface",
      "outputs": [
        {
          "internalType": "bool",
          "name": "",
          "type": "bool"
        }
      ],
      "stateMutability": "view",
      "type": "function"
    },
    {
      "inputs": [],
      "name": "symbol",
      "outputs": [
        {
          "internalType": "string",
          "name": "",
          "type": "string"
        }
      ],
      "stateMutability": "view",
      "type": "function"
    },
    {
      "inputs": [],
      "name": "team",
      "outputs": [
        {
          "internalType": "address",
          "name": "",
          "type": "address"
        }
      ],
      "stateMutability": "view",
      "type": "function"
    },
    {
      "inputs": [],
      "name": "token",
      "outputs": [
        {
          "internalType": "address",
          "name": "",
          "type": "address"
        }
      ],
      "stateMutability": "view",
      "type": "function"
    },
    {
      "inputs": [
        {
          "internalType": "address",
          "name": "_owner",
          "type": "address"
        },
        {
          "internalType": "uint256",
          "name": "_tokenIndex",
          "type": "uint256"
        }
      ],
      "name": "tokenOfOwnerByIndex",
      "outputs": [
        {
          "internalType": "uint256",
          "name": "",
          "type": "uint256"
        }
      ],
      "stateMutability": "view",
      "type": "function"
    },
    {
      "inputs": [
        {
          "internalType": "uint256",
          "name": "_tokenId",
          "type": "uint256"
        }
      ],
      "name": "tokenURI",
      "outputs": [
        {
          "internalType": "string",
          "name": "",
          "type": "string"
        }
      ],
      "stateMutability": "view",
      "type": "function"
    },
    {
      "inputs": [],
      "name": "totalSupply",
      "outputs": [
        {
          "internalType": "uint256",
          "name": "",
          "type": "uint256"
        }
      ],
      "stateMutability": "view",
      "type": "function"
    },
    {
      "inputs": [
        {
          "internalType": "uint256",
          "name": "_block",
          "type": "uint256"
        }
      ],
      "name": "totalSupplyAt",
      "outputs": [
        {
          "internalType": "uint256",
          "name": "",
          "type": "uint256"
        }
      ],
      "stateMutability": "view",
      "type": "function"
    },
    {
      "inputs": [
        {
          "internalType": "uint256",
          "name": "t",
          "type": "uint256"
        }
      ],
      "name": "totalSupplyAtT",
      "outputs": [
        {
          "internalType": "uint256",
          "name": "",
          "type": "uint256"
        }
      ],
      "stateMutability": "view",
      "type": "function"
    },
    {
      "inputs": [
        {
          "internalType": "address",
          "name": "from",
          "type": "address"
        },
        {
          "internalType": "address",
          "name": "to",
          "type": "address"
        },
        {
          "internalType": "uint256",
          "name": "tokenId",
          "type": "uint256"
        }
      ],
      "name": "transferFrom",
      "outputs": [],
      "stateMutability": "nonpayable",
      "type": "function"
    },
    {
      "inputs": [
        {
          "internalType": "address",
          "name": "newOwner",
          "type": "address"
        }
      ],
      "name": "transferOwnership",
      "outputs": [],
      "stateMutability": "nonpayable",
      "type": "function"
    },
    {
      "inputs": [
        {
          "internalType": "uint256",
          "name": "",
          "type": "uint256"
        }
      ],
      "name": "user_point_epoch",
      "outputs": [
        {
          "internalType": "uint256",
          "name": "",
          "type": "uint256"
        }
      ],
      "stateMutability": "view",
      "type": "function"
    },
    {
      "inputs": [
        {
          "internalType": "uint256",
          "name": "",
          "type": "uint256"
        },
        {
          "internalType": "uint256",
          "name": "",
          "type": "uint256"
        }
      ],
      "name": "user_point_history",
      "outputs": [
        {
          "internalType": "int128",
          "name": "bias",
          "type": "int128"
        },
        {
          "internalType": "int128",
          "name": "slope",
          "type": "int128"
        },
        {
          "internalType": "uint256",
          "name": "ts",
          "type": "uint256"
        },
        {
          "internalType": "uint256",
          "name": "blk",
          "type": "uint256"
        }
      ],
      "stateMutability": "view",
      "type": "function"
    },
    {
      "inputs": [
        {
          "internalType": "uint256",
          "name": "_tokenId",
          "type": "uint256"
        },
        {
          "internalType": "uint256",
          "name": "_idx",
          "type": "uint256"
        }
      ],
      "name": "user_point_history__ts",
      "outputs": [
        {
          "internalType": "uint256",
          "name": "",
          "type": "uint256"
        }
      ],
      "stateMutability": "view",
      "type": "function"
    },
    {
      "inputs": [],
      "name": "version",
      "outputs": [
        {
          "internalType": "string",
          "name": "",
          "type": "string"
        }
      ],
      "stateMutability": "view",
      "type": "function"
    },
    {
      "inputs": [
        {
          "internalType": "uint256",
          "name": "",
          "type": "uint256"
        }
      ],
      "name": "voted",
      "outputs": [
        {
          "internalType": "bool",
          "name": "",
          "type": "bool"
        }
      ],
      "stateMutability": "view",
      "type": "function"
    },
    {
      "inputs": [],
      "name": "voter",
      "outputs": [
        {
          "internalType": "address",
          "name": "",
          "type": "address"
        }
      ],
      "stateMutability": "view",
      "type": "function"
    },
    {
      "inputs": [
        {
          "internalType": "uint256",
          "name": "_tokenId",
          "type": "uint256"
        }
      ],
      "name": "voting",
      "outputs": [],
      "stateMutability": "nonpayable",
      "type": "function"
    },
    {
      "inputs": [
        {
          "internalType": "uint256",
          "name": "_tokenId",
          "type": "uint256"
        }
      ],
      "name": "withdraw",
      "outputs": [],
      "stateMutability": "nonpayable",
      "type": "function"
    }
  ],
  "transactionHash": "0x82207d99ac820a61d7a0f63b26a7af28e25ab9c46177e9423b1ca07e91bc6b58",
  "args": [],
  "numDeployments": 7,
  "bytecode": {
    "object": "0x60806040523480156200001157600080fd5b506200001c62000022565b620000e3565b600054610100900460ff16156200008f5760405162461bcd60e51b815260206004820152602760248201527f496e697469616c697a61626c653a20636f6e747261637420697320696e697469604482015266616c697a696e6760c81b606482015260840160405180910390fd5b60005460ff90811614620000e1576000805460ff191660ff9081179091556040519081527f7f26b83ff96e1f2b6a682f133852f6798a09c465da95921460cefb38474024989060200160405180910390a15b565b615bdb80620000f36000396000f3fe608060405234801561001057600080fd5b50600436106104755760003560e01c8063715018a611610257578063b88d4fde11610146578063e441135c116100c3578063f1127ed811610087578063f1127ed814610b57578063f2fde38b14610b83578063f8a0576314610b96578063fc0c546a14610bba578063fd4a77f114610bce57600080fd5b8063e441135c14610ad6578063e7a324dc14610af7578063e7e242d414610b1e578063e985e9c514610b31578063ee99fe2814610b4457600080fd5b8063d1c2babb1161010a578063d1c2babb14610a4d578063d1febfb914610a60578063d4e54c3b14610a9f578063e0514aba14610ab2578063e30c397814610ac557600080fd5b8063b88d4fde146109f9578063c1f0fb9f14610a0c578063c2c4c5c114610a1f578063c3cda52014610a27578063c87b56dd14610a3a57600080fd5b8063901a251d116101d45780639ab24eb0116101985780639ab24eb014610964578063a183af5214610977578063a22cb4651461098a578063a4d855df1461099d578063b45a3c0e146109b057600080fd5b8063901a251d1461091b57806394d008ef1461092357806395d89b41146109365780639712fdf81461093e578063981b24d01461095157600080fd5b80638c2c9baf1161021b5780638c2c9baf146108b65780638da5cb5b146108c95780638e539e8c146108da5780638fbb38ff146108ed578063900cf0cf1461091157600080fd5b8063715018a614610845578063726600ce1461084d57806379ba5097146108795780637ecebe001461088157806385f2aef2146108a257600080fd5b80632f745c5911610373578063587cde1e116102f05780636f548837116102b45780636f548837146107b35780636fcfff45146107d457806370a08231146107fb5780637116c60c1461080e578063711974841461082157600080fd5b8063587cde1e1461075e5780635c19a95c146107715780635f5b0c32146107845780636352211e1461078d57806365fc3873146107a057600080fd5b8063461f711c11610337578063461f711c146106da57806346c96aac146107005780634bc2a6571461071457806354fd4d501461072757806356afe7441461074b57600080fd5b80632f745c59146106575780633a46b1a81461068e57806342842e0e146106a157806342966c68146106b4578063430c2081146106c757600080fd5b806310c3cf061161040157806320606b70116103c557806320606b70146105e35780632168ca0f1461060a57806323b872dd1461062b57806325a58b561461063e5780632e1a7d4d1461064457600080fd5b806310c3cf06146105705780631376f3da1461057a578063144fa6d7146105b557806318160ddd146105c85780631c984bc3146105d057600080fd5b80630758c7d8116104485780630758c7d8146104e4578063077f224a1461050c578063081812fc1461051f578063095cf5c61461054a578063095ea7b31461055d57600080fd5b806301ffc9a71461047a578063047fc9aa146104a257806304df017d146104ba57806306fdde03146104cf575b600080fd5b61048d610488366004614fb8565b610be1565b60405190151581526020015b60405180910390f35b6104ac61016a5481565b604051908152602001610499565b6104cd6104c8366004614ff1565b610c33565b005b6104d7610cc9565b6040516104999190615052565b6104f76104f2366004615065565b610d5b565b60405163ffffffff9091168152602001610499565b6104cd61051a366004615146565b610ed0565b61053261052d3660046151ba565b611139565b6040516001600160a01b039091168152602001610499565b6104cd610558366004614ff1565b611160565b6104cd61056b366004615065565b6111c6565b6104ac6101635481565b61058d6105883660046151d3565b6112db565b60408051600f95860b81529390940b6020840152928201526060810191909152608001610499565b6104cd6105c3366004614ff1565b611323565b6104ac61134e565b6104ac6105de3660046151d3565b61135e565b6104ac7f8cad95687ba82c2ce50e74f7b754645e5117c3a5bec8151c0726d5857980a86681565b61061361a4b181565b6040516001600160801b039091168152602001610499565b6104cd6106393660046151f5565b611391565b436104ac565b6104cd6106523660046151ba565b6113c2565b6104ac610665366004615065565b6001600160a01b0391909116600090815261016c60209081526040808320938352929052205490565b6104ac61069c366004615065565b6115ed565b6104cd6106af3660046151f5565b61168d565b6104d76106c23660046151ba565b6116a8565b61048d6106d5366004615065565b61172d565b6106ed6106e83660046151ba565b611740565b604051600f9190910b8152602001610499565b61016054610532906001600160a01b031681565b6104cd610722366004614ff1565b611785565b6104d7604051806040016040528060058152602001640312e302e360dc1b81525081565b6104cd610759366004615231565b6117eb565b61053261076c366004614ff1565b611a96565b6104cd61077f366004614ff1565b611ac7565b6104ac61040081565b61053261079b3660046151ba565b611ae2565b6104ac6107ae3660046151d3565b611b42565b6104ac6107c13660046151ba565b61016b6020526000908152604090205481565b6104f76107e2366004614ff1565b6101706020526000908152604090205463ffffffff1681565b6104ac610809366004614ff1565b611b64565b6104ac61081c3660046151ba565b611bea565b6106ed61082f3660046151ba565b61016960205260009081526040902054600f0b81565b6104cd611c4c565b61048d61085b366004614ff1565b6001600160a01b0316600090815260fb602052604090205460ff1690565b6104cd611c60565b6104ac61088f366004614ff1565b6101716020526000908152604090205481565b61016154610532906001600160a01b031681565b6104ac6108c43660046151d3565b611cd7565b6097546001600160a01b0316610532565b6104ac6108e83660046151ba565b611ce3565b61048d6108fb3660046151ba565b6101726020526000908152604090205460ff1681565b6104ac6101685481565b6104cd611cee565b6104cd6109313660046152dd565b611d18565b6104d7611d9a565b6104cd61094c366004614ff1565b611da9565b6104ac61095f3660046151ba565b611e43565b6104ac610972366004614ff1565b611fe8565b6104cd6109853660046151d3565b6120b4565b6104cd610998366004615342565b61219b565b6104cd6109ab3660046151d3565b6121a6565b6109df6109be3660046151ba565b6101676020526000908152604090208054600190910154600f9190910b9082565b60408051600f9390930b8352602083019190915201610499565b6104cd610a07366004615379565b61233f565b6104cd610a1a3660046151ba565b612371565b6104cd6123ce565b6104cd610a353660046153e1565b61240c565b6104d7610a483660046151ba565b6127a9565b6104cd610a5b3660046151d3565b61283f565b61058d610a6e3660046151ba565b61016460205260009081526040902080546001820154600290920154600f82810b93600160801b909304900b919084565b6104ac610aad366004615441565b6129e2565b6104ac610ac03660046151d3565b612a04565b60c9546001600160a01b0316610532565b6104ac610ae43660046151ba565b6101656020526000908152604090205481565b6104ac7fe48329057bfd03d55e49b547132e39cffd9c1820ad7b9d4c5307691425d15adf81565b6104ac610b2c3660046151ba565b612a10565b61048d610b3f36600461546d565b612a39565b6104cd610b523660046151d3565b612a89565b6104ac610b653660046154a0565b61016f60209081526000928352604080842090915290825290205481565b6104cd610b91366004614ff1565b612b5a565b6104ac610ba43660046151ba565b6000908152610167602052604090206001015490565b61015f54610532906001600160a01b031681565b6104cd610bdc3660046151ba565b612bcb565b60006001600160e01b031982166380ac58cd60e01b1480610c1257506001600160e01b03198216635b5e139f60e01b145b80610c2d57506301ffc9a760e01b6001600160e01b03198316145b92915050565b610c3b612c2b565b6001600160a01b038116600090815260fb602052604090205460ff16610c7457604051632655e85f60e01b815260040160405180910390fd5b6040516001600160a01b038216907f5d9d5034656cb3ebfb0655057cd7f9b4077a9b42ff42ce223cbac5bc586d212690600090a26001600160a01b0316600090815260fb60205260409020805460ff19169055565b606060658054610cd8906154d5565b80601f0160208091040260200160405190810160405280929190818152602001828054610d04906154d5565b8015610d515780601f10610d2657610100808354040283529160200191610d51565b820191906000526020600020905b815481529060010190602001808311610d3457829003601f168201915b5050505050905090565b6001600160a01b0382166000908152610170602052604081205463ffffffff16808203610d8c576000915050610c2d565b6001600160a01b038416600090815261016f602052604081208491610db260018561551f565b63ffffffff16815260208101919091526040016000205411610de157610dd960018261551f565b915050610c2d565b6001600160a01b038416600090815261016f60209081526040808320838052909152902054831015610e17576000915050610c2d565b600080610e2560018461551f565b90505b8163ffffffff168163ffffffff161115610ec75760006002610e4a848461551f565b610e549190615552565b610e5e908361551f565b6001600160a01b038816600090815261016f6020908152604080832063ffffffff851684529091529020805491925090879003610ea157509350610c2d92505050565b8054871115610eb257819350610ec0565b610ebd60018361551f565b92505b5050610e28565b50949350505050565b600054610100900460ff1615808015610ef05750600054600160ff909116105b80610f0a5750303b158015610f0a575060005460ff166001145b610f725760405162461bcd60e51b815260206004820152602e60248201527f496e697469616c697a61626c653a20636f6e747261637420697320616c72656160448201526d191e481a5b9a5d1a585b1a5e995960921b60648201526084015b60405180910390fd5b6000805460ff191660011790558015610f95576000805461ff0019166101001790555b610f9d612c85565b610fa5612cb4565b610fad612cb4565b610fb78484612ce3565b610fbf612d14565b610fc833612d43565b46606114610fd85761a4b1610fdb565b60615b6001600160801b0316610163556001600160a01b0382166110275760405162461bcd60e51b815260206004820152600660248201526510ba37b5b2b760d11b6044820152606401610f69565b61015f80546001600160a01b0384166001600160a01b031991821617909155610160805482163390811790915561016180549092161790556000808052610164602052437f982a45c0d657ffdc04d7f0ba3fddd3312473ad5e129c54434a0935688d2bb23355427f982a45c0d657ffdc04d7f0ba3fddd3312473ad5e129c54434a0935688d2bb232556101625460405190913091600080516020615baf833981519152908290a4610162546040516000903090600080516020615baf833981519152908390a48015611133576000805461ff0019169055604051600181527f7f26b83ff96e1f2b6a682f133852f6798a09c465da95921460cefb38474024989060200160405180910390a15b50505050565b600061114482612d5c565b506000908152606960205260409020546001600160a01b031690565b610161546001600160a01b031633146111a35760405162461bcd60e51b8152602060048201526005602482015264217465616d60d81b6044820152606401610f69565b61016180546001600160a01b0319166001600160a01b0392909216919091179055565b60006111d182611ae2565b9050806001600160a01b0316836001600160a01b03160361123e5760405162461bcd60e51b815260206004820152602160248201527f4552433732313a20617070726f76616c20746f2063757272656e74206f776e656044820152603960f91b6064820152608401610f69565b336001600160a01b038216148061125a575061125a8133612a39565b6112cc5760405162461bcd60e51b815260206004820152603d60248201527f4552433732313a20617070726f76652063616c6c6572206973206e6f7420746f60448201527f6b656e206f776e6572206f7220617070726f76656420666f7220616c6c0000006064820152608401610f69565b6112d68383612dbb565b505050565b61016660205281600052604060002081633b9aca0081106112fb57600080fd5b6003020180546001820154600290920154600f82810b9550600160801b90920490910b925084565b61132b612c2b565b61015f80546001600160a01b0319166001600160a01b0392909216919091179055565b600061135942611bea565b905090565b60008281526101666020526040812082633b9aca00811061138157611381615575565b6003020160010154905092915050565b61139b3382612e29565b6113b75760405162461bcd60e51b8152600401610f699061558b565b6112d6838383612e87565b6113ca612f07565b6101635446146113ec5760405162461bcd60e51b8152600401610f69906155d8565b6113f63382612e29565b61140257611402615600565b6000818152610172602052604090205460ff16156114325760405162461bcd60e51b8152600401610f6990615616565b6000818152610167602090815260409182902082518084019093528054600f0b8352600101549082018190524210156114a65760405162461bcd60e51b8152602060048201526016602482015275546865206c6f636b206469646e27742065787069726560501b6044820152606401610f69565b805161016a54600f9190910b906114bd8282615636565b61016a556114ca84612f62565b506114d48461300d565b61015f5460405163a9059cbb60e01b8152336004820152602481018490526001600160a01b039091169063a9059cbb906044016020604051808303816000875af1158015611526573d6000803e3d6000fd5b505050506040513d601f19601f8201168201806040525081019061154a9190615649565b61155657611556615600565b60408051858152602081018490524281830152905133917f02f25270a4d87bea75db541cdfe559334a275b4a233520ed6c0a2429667cca94919081900360600190a27f5e2aa66efd74cce82b21852e317e5490d9ecc9e6bb953ae24d90851258cc2f5c816115c48482615636565b6040805192835260208301919091520160405180910390a15050506115ea600161012d55565b50565b6000806115fa8484610d5b565b6001600160a01b038516600090815261016f6020908152604080832063ffffffff851684529091528120919250600190910190805b825481101561168357600083828154811061164c5761164c615575565b90600052602060002001549050611663818861309f565b61166d9084615666565b925050808061167b90615679565b91505061162f565b5095945050505050565b6112d68383836040518060200160405280600081525061233f565b33600090815260fb602052604090205460609060ff166116db576040516378f18ee960e11b815260040160405180910390fd5b6116e482612f62565b90506116ef8261300d565b7f5747a69bb6c2c54b5c628298d364a5cc5066b4db09369ad6a2cfca362f0a023f8282604051611720929190615692565b60405180910390a1919050565b60006117398383612e29565b9392505050565b60008181526101656020908152604080832054610166909252822081633b9aca00811061176f5761176f615575565b6003020154600160801b9004600f0b9392505050565b610161546001600160a01b031633146117c85760405162461bcd60e51b8152602060048201526005602482015264217465616d60d81b6044820152606401610f69565b61016080546001600160a01b0319166001600160a01b0392909216919091179055565b60008251116118355760405162461bcd60e51b81526020600482015260166024820152751e995c9bc81b195b88185b5bdd5b9d1cc81a5b9c1d5d60521b6044820152606401610f69565b6000818152610172602052604090205460ff16156118655760405162461bcd60e51b8152600401610f6990615616565b61186f3382612e29565b6118bb5760405162461bcd60e51b815260206004820152601960248201527f2173656e64657220617070726f766564206f72206f776e6572000000000000006044820152606401610f69565b60008181526067602090815260408083205461016783529281902081518083019092528054600f0b8083526001909101549282018390526001600160a01b03909316929091908061191e5760405162461bcd60e51b8152600401610f69906156ab565b8061016a5461192d9190615636565b61016a556000805b87518210156119775787828151811061195057611950615575565b6020026020010151816119639190615666565b90508161196f81615679565b925050611935565b61198087612f62565b5061198a8761300d565b834281116119aa5760405162461bcd60e51b8152600401610f69906156ca565b6119b86301dfe20042615666565b8111156119d75760405162461bcd60e51b8152600401610f6990615710565b60008093505b8951841015611a8a57610162600081546119f690615679565b90915550610162549850611a0a888a61317c565b828a8581518110611a1d57611a1d615575565b602002602001015186611a309190615747565b611a3a919061575e565b60008a8152610167602090815260409182902082518084019093528054600f0b83526001015490820152909150611a78908a908390859060056131b4565b83611a8281615679565b9450506119dd565b50505050505050505050565b6001600160a01b03808216600090815261016e60205260408120549091168015611ac05780611739565b5090919050565b6001600160a01b038116611ad85750335b6115ea33826133e1565b6000818152606760205260408120546001600160a01b031680610c2d5760405162461bcd60e51b8152602060048201526018602482015277115490cdcc8c4e881a5b9d985b1a59081d1bdad95b88125160421b6044820152606401610f69565b6000611b4c612f07565b611b57838333613477565b9050610c2d600161012d55565b60006001600160a01b038216611bce5760405162461bcd60e51b815260206004820152602960248201527f4552433732313a2061646472657373207a65726f206973206e6f7420612076616044820152683634b21037bbb732b960b91b6064820152608401610f69565b506001600160a01b031660009081526068602052604090205490565b6101685460008181526101646020908152604080832081516080810183528154600f81810b8352600160801b909104900b93810193909352600181015491830191909152600201546060820152909190611c448185613574565b949350505050565b611c54612c2b565b611c5e6000612d43565b565b60c95433906001600160a01b03168114611cce5760405162461bcd60e51b815260206004820152602960248201527f4f776e61626c6532537465703a2063616c6c6572206973206e6f7420746865206044820152683732bb9037bbb732b960b91b6064820152608401610f69565b6115ea81612d43565b60006117398383613676565b6000610c2d82611bea565b611cf6612c2b565b46606114611d065761a4b1611d09565b60615b6001600160801b031661016355565b33600090815260fb602052604090205460ff16611d48576040516378f18ee960e11b815260040160405180910390fd5b611d52838361317c565b611d5c8282613955565b7fc8ffd8a5cadf5f377038eb6cb621455f9673dc07f502ac1580838d85f2df001a8282604051611d8d929190615692565b60405180910390a1505050565b606060668054610cd8906154d5565b611db1612c2b565b6001600160a01b038116600090815260fb602052604090205460ff1615611deb5760405163f74c45bf60e01b815260040160405180910390fd5b6040516001600160a01b038216907f3cda433c5679ae4c6a5dea50840e222a42cba3695e4663de4366be899348422190600090a26001600160a01b0316600090815260fb60205260409020805460ff19166001179055565b600043821115611e5557611e55615600565b610168546000611e6584836139d8565b60008181526101646020908152604080832081516080810183528154600f81810b8352600160801b909104900b9381019390935260018101549183019190915260020154606082015291925083831015611f7657600061016481611eca866001615666565b8152602080820192909252604090810160002081516080810183528154600f81810b8352600160801b909104900b9381019390935260018101549183019190915260020154606080830182905285015191925014611f705782606001518160600151611f369190615636565b83604001518260400151611f4a9190615636565b6060850151611f59908a615636565b611f639190615747565b611f6d919061575e565b91505b50611fc5565b43826060015114611fc5576060820151611f909043615636565b6040830151611f9f9042615636565b6060840151611fae9089615636565b611fb89190615747565b611fc2919061575e565b90505b611fde82828460400151611fd99190615666565b613574565b9695505050505050565b6001600160a01b0381166000908152610170602052604081205463ffffffff168082036120185750600092915050565b6001600160a01b038316600090815261016f602052604081208161203d60018561551f565b63ffffffff1663ffffffff16815260200190815260200160002060010190506000805b8254811015610ec757600083828154811061207d5761207d615575565b90600052602060002001549050612094814261309f565b61209e9084615666565b92505080806120ac90615679565b915050612060565b6120bc612f07565b6120c63383612e29565b6120d2576120d2615600565b6000828152610167602090815260409182902082518084019093528054600f0b835260010154908201528161210957612109615600565b60008160000151600f0b136121595760405162461bcd60e51b8152602060048201526016602482015275139bc8195e1a5cdd1a5b99c81b1bd8dac8199bdd5b9960521b6044820152606401610f69565b4281602001511161217c5760405162461bcd60e51b8152600401610f6990615772565b61218b838360008460026131b4565b50612197600161012d55565b5050565b612197338383613a5f565b6121ae612f07565b6121b83383612e29565b6121c4576121c4615600565b60008281526101676020908152604080832081518083019092528054600f0b825260010154918101919091529062127500806122008542615666565b61220a919061575e565b6122149190615747565b9050428260200151116122585760405162461bcd60e51b815260206004820152600c60248201526b131bd8dac8195e1c1a5c995960a21b6044820152606401610f69565b60008260000151600f0b136122a35760405162461bcd60e51b8152602060048201526011602482015270139bdd1a1a5b99c81a5cc81b1bd8dad959607a1b6044820152606401610f69565b816020015181116122f65760405162461bcd60e51b815260206004820152601f60248201527f43616e206f6e6c7920696e637265617365206c6f636b206475726174696f6e006044820152606401610f69565b6123046301dfe20042615666565b8111156123235760405162461bcd60e51b8152600401610f6990615710565b612332846000838560036131b4565b5050612197600161012d55565b6123493383612e29565b6123655760405162461bcd60e51b8152600401610f699061558b565b61113384848484613b2d565b610160546001600160a01b031633146123b55760405162461bcd60e51b815260206004820152600660248201526510bb37ba32b960d11b6044820152606401610f69565b600090815261017260205260409020805460ff19169055565b611c5e600060405180604001604052806000600f0b8152602001600081525060405180604001604052806000600f0b81526020016000815250613b60565b336001600160a01b0387160361244e5760405162461bcd60e51b815260206004820152600760248201526610b9b2b73232b960c91b6044820152606401610f69565b6001600160a01b0386166124915760405162461bcd60e51b815260206004820152600a60248201526910bd32b9379030b2323960b11b6044820152606401610f69565b60007f8cad95687ba82c2ce50e74f7b754645e5117c3a5bec8151c0726d5857980a8666124bc610cc9565b805160209182012060408051808201825260058152640312e302e360dc1b90840152805180840194909452838101919091527f06c015bd22b4c69690933c1058878ebdfef31f9aaae40bbe86d8a09fe1b2972c60608401524660808401523060a0808501919091528151808503909101815260c0840182528051908301207fe48329057bfd03d55e49b547132e39cffd9c1820ad7b9d4c5307691425d15adf60e08501526001600160a01b038b1661010085015261012084018a90526101408085018a90528251808603909101815261016085019092528151919092012061190160f01b61018084015261018283018290526101a28301819052909250906000906101c20160408051601f198184030181528282528051602091820120600080855291840180845281905260ff8a169284019290925260608301889052608083018790529092509060019060a0016020604051602081039080840390855afa15801561262c573d6000803e3d6000fd5b5050604051601f1901519150506001600160a01b0381166126a65760405162461bcd60e51b815260206004820152602e60248201527f566f74696e67457363726f773a3a64656c656761746542795369673a20696e7660448201526d616c6964207369676e617475726560901b6064820152608401610f69565b6001600160a01b0381166000908152610171602052604081208054916126cb83615679565b9190505589146127305760405162461bcd60e51b815260206004820152602a60248201527f566f74696e67457363726f773a3a64656c656761746542795369673a20696e76604482015269616c6964206e6f6e636560b01b6064820152608401610f69565b874211156127975760405162461bcd60e51b815260206004820152602e60248201527f566f74696e67457363726f773a3a64656c656761746542795369673a2073696760448201526d1b985d1d5c9948195e1c1a5c995960921b6064820152608401610f69565b611a8a818b6133e1565b505050505050565b6000818152606760205260409020546060906001600160a01b03166128105760405162461bcd60e51b815260206004820152601b60248201527f517565727920666f72206e6f6e6578697374656e7420746f6b656e00000000006044820152606401610f69565b6000918252610167602090815260409283902083518085019094528054600f0b84526001015492019190915290565b6000828152610172602052604090205460ff161561286f5760405162461bcd60e51b8152600401610f6990615616565b8082036128aa5760405162461bcd60e51b81526020600482015260096024820152682166726f6d3d3d746f60b81b6044820152606401610f69565b6128b43383612e29565b6129005760405162461bcd60e51b815260206004820152601760248201527f2166726f6d20617070726f766564206f72206f776e65720000000000000000006044820152606401610f69565b61290a3382612e29565b61294e5760405162461bcd60e51b815260206004820152601560248201527410ba379030b8383937bb32b21037b91037bbb732b960591b6044820152606401610f69565b600082815261016760208181526040808420815180830183528154600f90810b825260019283015482860190815288885295855283872084518086019095528054820b855290920154938301849052805194519095929490910b9211156129b95782602001516129bf565b83602001515b90506129ca86612f62565b506129d48661300d565b6127a18583838660046131b4565b60006129ec612f07565b6129f7848484613477565b9050611739600161012d55565b6000611739838361309f565b600081815261016b6020526040812054439003612a2f57506000919050565b610c2d824261309f565b6001600160a01b038116600090815260fb602052604081205460ff168061173957506001600160a01b038084166000908152606a602090815260408083209386168352929052205460ff16611739565b612a91612f07565b6000828152610167602090815260409182902082518084019093528054600f0b8352600101549082015281612ad85760405162461bcd60e51b8152600401610f69906156ab565b60008160000151600f0b13612b285760405162461bcd60e51b8152602060048201526016602482015275139bc8195e1a5cdd1a5b99c81b1bd8dac8199bdd5b9960521b6044820152606401610f69565b42816020015111612b4b5760405162461bcd60e51b8152600401610f6990615772565b61218b838360008460006131b4565b612b62612c2b565b60c980546001600160a01b0383166001600160a01b03199091168117909155612b936097546001600160a01b031690565b6001600160a01b03167f38d16b8cac22d99fc7c124b9cd0de2d3fa1faef420bfe791d8c362d765e2270060405160405180910390a350565b610160546001600160a01b03163314612c0f5760405162461bcd60e51b815260206004820152600660248201526510bb37ba32b960d11b6044820152606401610f69565b600090815261017260205260409020805460ff19166001179055565b6097546001600160a01b03163314611c5e5760405162461bcd60e51b815260206004820181905260248201527f4f776e61626c653a2063616c6c6572206973206e6f7420746865206f776e65726044820152606401610f69565b600054610100900460ff16612cac5760405162461bcd60e51b8152600401610f69906157b6565b611c5e614189565b600054610100900460ff16612cdb5760405162461bcd60e51b8152600401610f69906157b6565b611c5e6141b0565b600054610100900460ff16612d0a5760405162461bcd60e51b8152600401610f69906157b6565b61219782826141e0565b600054610100900460ff16612d3b5760405162461bcd60e51b8152600401610f69906157b6565b611c5e614220565b60c980546001600160a01b03191690556115ea81614247565b6000818152606760205260409020546001600160a01b03166115ea5760405162461bcd60e51b8152602060048201526018602482015277115490cdcc8c4e881a5b9d985b1a59081d1bdad95b88125160421b6044820152606401610f69565b600081815260696020526040902080546001600160a01b0319166001600160a01b0384169081179091558190612df082611ae2565b6001600160a01b03167f8c5be1e5ebec7d5bd14f71427d1e84f3dd0314c0f7b2291e5b200ac8c7c3b92560405160405180910390a45050565b600080612e3583611ae2565b9050806001600160a01b0316846001600160a01b03161480612e5c5750612e5c8185612a39565b80611c445750836001600160a01b0316612e7584611139565b6001600160a01b031614949350505050565b6000818152610172602052604090205460ff1615612eb75760405162461bcd60e51b8152600401610f6990615616565b612ec18382614299565b612edc612ecd84611a96565b612ed684611a96565b8361434f565b612ee682826146bb565b612ef1838383614701565b600090815261016b602052604090204390555050565b600261012d5403612f5a5760405162461bcd60e51b815260206004820152601f60248201527f5265656e7472616e637947756172643a207265656e7472616e742063616c6c006044820152606401610f69565b600261012d55565b60008181526101676020818152604080842080546001820180548451600f84900b81880181905281870183905286518083038801815260a08301885260608301918252608090920192909252855180870187528981528088018a81528b8b52988852516001600160801b03166001600160801b031990941693909317909355945190945581518083019092528482529181019390935290916130079084908390613b60565b50919050565b6130173382612e29565b6130585760405162461bcd60e51b8152602060048201526012602482015271085bdddb995c881bdc88185c1c1c9bdd995960721b6044820152606401610f69565b600061306382611ae2565b90506130706000836111c6565b61308461307c82611a96565b60008461434f565b61308e8183614299565b61219782614853565b600161012d55565b600082815261016560205260408120548082036130c0576000915050610c2d565b60008481526101666020526040812082633b9aca0081106130e3576130e3615575565b60408051608081018252600392909202929092018054600f81810b8452600160801b909104900b60208301526001810154928201839052600201546060820152915061312f9085615801565b816020015161313e9190615821565b8151829061314d908390615841565b600f90810b90915282516000910b1215905061316857600081525b51600f0b9150610c2d9050565b5092915050565b6001600160a01b03821661319257613192615600565b6131a06000612ed684611a96565b6131aa82826146bb565b61219782826148d6565b6101635446146131d65760405162461bcd60e51b8152600401610f69906155d8565b61016a5482906131e68682615666565b61016a556040805180820190915260008082526020820152825160208085015190830152600f0b815282518790849061322090839061586e565b600f0b905250851561323457602083018690525b600088815261016760209081526040909120845181546001600160801b0319166001600160801b0390911617815590840151600190910155613277888285613b60565b338715801590613299575060048560058111156132965761329661589b565b14155b80156132b7575060058560058111156132b4576132b461589b565b14155b156133465761015f546040516323b872dd60e01b81526001600160a01b038381166004830152306024830152604482018b9052909116906323b872dd906064016020604051808303816000875af1158015613316573d6000803e3d6000fd5b505050506040513d601f19601f8201168201806040525081019061333a9190615649565b61334657613346615600565b8360200151816001600160a01b03167fff04ccafc360e16b67d682d17bd9503c4c6b9a131f6be6325762dc9ffc7de6248b8b894260405161338a94939291906158b1565b60405180910390a37f5e2aa66efd74cce82b21852e317e5490d9ecc9e6bb953ae24d90851258cc2f5c836133be8a82615666565b6040805192835260208301919091520160405180910390a1505050505050505050565b6101635446146134035760405162461bcd60e51b8152600401610f69906155d8565b600061340e83611a96565b6001600160a01b03848116600081815261016e602052604080822080546001600160a01b031916888616908117909155905194955093928516927f3134e8a2e6d97e929a7e54011ea5485d7d196dd5f0ba4d4ef95803e8e3fc257f9190a46112d6838284614a4f565b60008062127500806134898642615666565b613493919061575e565b61349d9190615747565b9050600085116134bf5760405162461bcd60e51b8152600401610f69906156ab565b4281116134de5760405162461bcd60e51b8152600401610f69906156ca565b6134ec6301dfe20042615666565b81111561350b5760405162461bcd60e51b8152600401610f6990615710565b6101626000815461351b90615679565b909155506101625461352d848261317c565b6000818152610167602090815260409182902082518084019093528054600f0b83526001908101549183019190915261356b918391899186916131b4565b95945050505050565b600080839050600062127500808360400151613590919061575e565b61359a9190615747565b905060005b60ff81101561364e576135b56212750083615666565b91506000858311156135c9578592506135de565b5060008281526101696020526040902054600f0b5b60408401516135ed9084615636565b84602001516135fc9190615821565b8451859061360b908390615841565b600f0b90525085830361361e575061364e565b8084602001818151613630919061586e565b600f0b905250506040830182905261364781615679565b905061359f565b5060008260000151600f0b121561366457600082525b50516001600160801b03169392505050565b60004382111561368857613688615600565b60008381526101656020526040812054815b608081101561372a578183101561372a57600060026136b98486615666565b6136c4906001615666565b6136ce919061575e565b600088815261016660205260409020909150869082633b9aca0081106136f6576136f6615575565b60030201600201541161370b57809350613719565b613716600182615636565b92505b5061372381615679565b905061369a565b5060008581526101666020526040812083633b9aca00811061374e5761374e615575565b60408051608081018252600392909202929092018054600f81810b8452600160801b909104900b602083015260018101549282019290925260029091015460608201526101685490915060006137a487836139d8565b60008181526101646020908152604080832081516080810183528154600f81810b8352600160801b909104900b9381019390935260018101549183019190915260020154606082015291925080848410156138855760006101648161380a876001615666565b8152602080820192909252604090810160002081516080810183528154600f81810b8352600160801b909104900b938101939093526001810154918301919091526002015460608083018290528601519192506138679190615636565b92508360400151816040015161387d9190615636565b9150506138a9565b60608301516138949043615636565b91508260400151426138a69190615636565b90505b604083015182156138e6578284606001518c6138c59190615636565b6138cf9084615747565b6138d9919061575e565b6138e39082615666565b90505b60408701516138f59082615636565b87602001516139049190615821565b87518890613913908390615841565b600f90810b90915288516000910b12905061394357505093516001600160801b03169650610c2d95505050505050565b60009950505050505050505050610c2d565b6000808280602001905181019061396c91906158ef565b604080518082018252600f84900b8152602080820184815260008a81526101678352848120845181546001600160801b0319166001600160801b0390911617815591516001909201919091558351808501909452808452908301529294509092506127a1868284613b60565b60008082815b6080811015613a555781831015613a5557600060026139fd8486615666565b613a08906001615666565b613a12919061575e565b600081815261016460205260409020600201549091508710613a3657809350613a44565b613a41600182615636565b92505b50613a4e81615679565b90506139de565b5090949350505050565b816001600160a01b0316836001600160a01b031603613ac05760405162461bcd60e51b815260206004820152601960248201527f4552433732313a20617070726f766520746f2063616c6c6572000000000000006044820152606401610f69565b6001600160a01b038381166000818152606a6020908152604080832094871680845294825291829020805460ff191686151590811790915591519182527f17307eab39ab6107e8899845ad3d59bd9653f200f220920489ca2b5937696c31910160405180910390a3505050565b613b38848484612e87565b613b4484848484614e26565b6111335760405162461bcd60e51b8152600401610f6990615923565b6040805160808101825260008082526020820181905291810182905260608101919091526040805160808101825260008082526020820181905291810182905260608101919091526101685460009081908715613cce57428760200151118015613bd1575060008760000151600f0b135b15613c16578651613be7906301dfe20090615975565b600f0b602080870191909152870151613c01904290615636565b8560200151613c109190615821565b600f0b85525b428660200151118015613c30575060008660000151600f0b135b15613c75578551613c46906301dfe20090615975565b600f0b602080860191909152860151613c60904290615636565b8460200151613c6f9190615821565b600f0b84525b60208088015160009081526101698252604090205490870151600f9190910b935015613cce578660200151866020015103613cb257829150613cce565b60208087015160009081526101699091526040902054600f0b91505b604080516080810182526000808252602082015242918101919091524360608201528115613d4457506000818152610164602090815260409182902082516080810184528154600f81810b8352600160801b909104900b9281019290925260018101549282019290925260029091015460608201525b604081015181600042831015613d91576040840151613d639042615636565b6060850151613d729043615636565b613d8490670de0b6b3a7640000615747565b613d8e919061575e565b90505b600062127500613da1818661575e565b613dab9190615747565b905060005b60ff811015613f2757613dc66212750083615666565b9150600042831115613dda57429250613def565b5060008281526101696020526040902054600f0b5b613df98684615636565b8760200151613e089190615821565b87518890613e17908390615841565b600f0b905250602087018051829190613e3190839061586e565b600f90810b90915288516000910b12159050613e4c57600087525b60008760200151600f0b1215613e6457600060208801525b60408088018490528501519295508592670de0b6b3a764000090613e889085615636565b613e929086615747565b613e9c919061575e565b8560600151613eab9190615666565b6060880152613ebb600189615666565b9750428303613ed05750436060870152613f27565b600088815261016460209081526040918290208951918a01516001600160801b03908116600160801b029216919091178155908801516001820155606088015160029091015550613f2081615679565b9050613db0565b50506101688590558b15613fb35788602001518860200151613f499190615841565b84602001818151613f5a919061586e565b600f0b90525088518851613f6e9190615841565b84518590613f7d90839061586e565b600f90810b90915260208601516000910b12159050613f9e57600060208501525b60008460000151600f0b1215613fb357600084525b600085815261016460209081526040918290208651918701516001600160801b03908116600160801b02921691909117815590850151600182015560608501516002909101558b1561417b57428b60200151111561406c57602089015161401a908861586e565b96508a602001518a602001510361403d57602088015161403a9088615841565b96505b60208b81015160009081526101699091526040902080546001600160801b0319166001600160801b0389161790555b428a6020015111156140c8578a602001518a6020015111156140c85760208801516140979087615841565b60208b81015160009081526101699091526040902080546001600160801b0319166001600160801b03831617905595505b60008c815261016560205260408120546140e3906001615666565b90508061016560008f81526020019081526020016000208190555042896040018181525050438960600181815250508861016660008f815260200190815260200160002082633b9aca00811061413b5761413b615575565b825160208401516001600160801b03908116600160801b029116176003919091029190910190815560408201516001820155606090910151600290910155505b505050505050505050505050565b600054610100900460ff166130975760405162461bcd60e51b8152600401610f69906157b6565b600054610100900460ff166141d75760405162461bcd60e51b8152600401610f69906157b6565b611c5e33612d43565b600054610100900460ff166142075760405162461bcd60e51b8152600401610f69906157b6565b606561421383826159f9565b5060666112d682826159f9565b600054610100900460ff16611c5e5760405162461bcd60e51b8152600401610f69906157b6565b609780546001600160a01b038381166001600160a01b0319831681179093556040519116919082907f8be0079c531659141344cd1fd0a4f28419497f9722a3daafe3b4186f6b6457e090600090a35050565b600060016142a684611b64565b6142b09190615636565b600083815261016d6020526040902054909150808203614302576001600160a01b038416600090815261016c60209081526040808320858452825280832083905585835261016d909152812055611133565b6001600160a01b0393909316600090815261016c602090815260408083209383529281528282208054868452848420819055835261016d9091528282209490945592839055908252812055565b816001600160a01b0316836001600160a01b0316141580156143715750600081115b156112d6576001600160a01b038316156144f7576001600160a01b0383166000908152610170602052604081205463ffffffff1690816143d7576001600160a01b038516600090815261016f60209081526040808320838052909152902060010161441a565b6001600160a01b038516600090815261016f60205260408120906143fc60018561551f565b63ffffffff1663ffffffff1681526020019081526020016000206001015b9050600061442786614f27565b6001600160a01b038716600090815261016f6020908152604080832063ffffffff8516845290915281209192506001909101905b83548110156144b557600084828154811061447857614478615575565b906000526020600020015490508681146144a2578254600181018455600084815260209020018190555b50806144ad81615679565b91505061445b565b506144c1846001615ab9565b6001600160a01b038816600090815261017060205260409020805463ffffffff191663ffffffff92909216919091179055505050505b6001600160a01b038216156112d6576001600160a01b0382166000908152610170602052604081205463ffffffff169081614558576001600160a01b038416600090815261016f60209081526040808320838052909152902060010161459b565b6001600160a01b038416600090815261016f602052604081209061457d60018561551f565b63ffffffff1663ffffffff1681526020019081526020016000206001015b905060006145a885614f27565b6001600160a01b038616600090815261016f6020908152604080832063ffffffff8516845290915290208354919250600190810191610400916145eb9190615666565b11156146095760405162461bcd60e51b8152600401610f6990615ad6565b60005b835481101561465b57600084828154811061462957614629615575565b60009182526020808320909101548554600181018755868452919092200155508061465381615679565b91505061460c565b5080546001818101835560008381526020902090910186905561467f908590615ab9565b6001600160a01b038716600090815261017060205260409020805463ffffffff9290921663ffffffff1990921691909117905550505050505050565b60006146c683611b64565b6001600160a01b03909316600090815261016c60209081526040808320868452825280832085905593825261016d9052919091209190915550565b826001600160a01b031661471482611ae2565b6001600160a01b03161461473a5760405162461bcd60e51b8152600401610f6990615b19565b6001600160a01b03821661479c5760405162461bcd60e51b8152602060048201526024808201527f4552433732313a207472616e7366657220746f20746865207a65726f206164646044820152637265737360e01b6064820152608401610f69565b826001600160a01b03166147af82611ae2565b6001600160a01b0316146147d55760405162461bcd60e51b8152600401610f6990615b19565b600081815260696020908152604080832080546001600160a01b03199081169091556001600160a01b038781168086526068855283862080546000190190559087168086528386208054600101905586865260679094528285208054909216841790915590518493600080516020615baf83398151915291a4505050565b600061485e82611ae2565b905061486982611ae2565b600083815260696020908152604080832080546001600160a01b03199081169091556001600160a01b038516808552606884528285208054600019019055878552606790935281842080549091169055519293508492600080516020615baf833981519152908390a45050565b6001600160a01b03821661492c5760405162461bcd60e51b815260206004820181905260248201527f4552433732313a206d696e7420746f20746865207a65726f20616464726573736044820152606401610f69565b6000818152606760205260409020546001600160a01b0316156149915760405162461bcd60e51b815260206004820152601c60248201527f4552433732313a20746f6b656e20616c7265616479206d696e746564000000006044820152606401610f69565b6000818152606760205260409020546001600160a01b0316156149f65760405162461bcd60e51b815260206004820152601c60248201527f4552433732313a20746f6b656e20616c7265616479206d696e746564000000006044820152606401610f69565b6001600160a01b038216600081815260686020908152604080832080546001019055848352606790915280822080546001600160a01b031916841790555183929190600080516020615baf833981519152908290a45050565b806001600160a01b0316826001600160a01b0316146112d6576001600160a01b03821615614c19576001600160a01b0382166000908152610170602052604081205463ffffffff169081614ac9576001600160a01b038416600090815261016f602090815260408083208380529091529020600101614b0c565b6001600160a01b038416600090815261016f6020526040812090614aee60018561551f565b63ffffffff1663ffffffff1681526020019081526020016000206001015b90506000614b1985614f27565b6001600160a01b038616600090815261016f6020908152604080832063ffffffff8516845290915281209192506001909101905b8354811015614bd7576000848281548110614b6a57614b6a615575565b90600052602060002001549050886001600160a01b0316614ba0826000908152606760205260409020546001600160a01b031690565b6001600160a01b031614614bc4578254600181018455600084815260209020018190555b5080614bcf81615679565b915050614b4d565b50614be3846001615ab9565b6001600160a01b038716600090815261017060205260409020805463ffffffff191663ffffffff92909216919091179055505050505b6001600160a01b038116156112d6576001600160a01b0381166000908152610170602052604081205463ffffffff169081614c7a576001600160a01b038316600090815261016f602090815260408083208380529091529020600101614cbd565b6001600160a01b038316600090815261016f6020526040812090614c9f60018561551f565b63ffffffff1663ffffffff1681526020019081526020016000206001015b90506000614cca84614f27565b6001600160a01b038516600090815261016f6020908152604080832063ffffffff851684529091528120919250600190910190614d0688611b64565b845490915061040090614d1a908390615666565b1115614d385760405162461bcd60e51b8152600401610f6990615ad6565b60005b8454811015614d8a576000858281548110614d5857614d58615575565b600091825260208083209091015486546001810188558784529190922001555080614d8281615679565b915050614d3b565b5060005b81811015614ddd576001600160a01b038916600090815261016c602090815260408083208484528252822054855460018101875586845291909220015580614dd581615679565b915050614d8e565b50614de9856001615ab9565b6001600160a01b038716600090815261017060205260409020805463ffffffff9290921663ffffffff199092169190911790555050505050505050565b60006001600160a01b0384163b15614f1c57604051630a85bd0160e11b81526001600160a01b0385169063150b7a0290614e6a903390899088908890600401615b5e565b6020604051808303816000875af1925050508015614ea5575060408051601f3d908101601f19168201909252614ea291810190615b91565b60015b614f02573d808015614ed3576040519150601f19603f3d011682016040523d82523d6000602084013e614ed8565b606091505b508051600003614efa5760405162461bcd60e51b8152600401610f6990615923565b805181602001fd5b6001600160e01b031916630a85bd0160e11b149050611c44565b506001949350505050565b6001600160a01b03811660009081526101706020526040812054429063ffffffff168015801590614f9257506001600160a01b038416600090815261016f602052604081208391614f7960018561551f565b63ffffffff168152602081019190915260400160002054145b1561173957611c4460018261551f565b6001600160e01b0319811681146115ea57600080fd5b600060208284031215614fca57600080fd5b813561173981614fa2565b80356001600160a01b0381168114614fec57600080fd5b919050565b60006020828403121561500357600080fd5b61173982614fd5565b6000815180845260005b8181101561503257602081850181015186830182015201615016565b506000602082860101526020601f19601f83011685010191505092915050565b602081526000611739602083018461500c565b6000806040838503121561507857600080fd5b61508183614fd5565b946020939093013593505050565b634e487b7160e01b600052604160045260246000fd5b604051601f8201601f1916810167ffffffffffffffff811182821017156150ce576150ce61508f565b604052919050565b600082601f8301126150e757600080fd5b813567ffffffffffffffff8111156151015761510161508f565b615114601f8201601f19166020016150a5565b81815284602083860101111561512957600080fd5b816020850160208301376000918101602001919091529392505050565b60008060006060848603121561515b57600080fd5b833567ffffffffffffffff8082111561517357600080fd5b61517f878388016150d6565b9450602086013591508082111561519557600080fd5b506151a2868287016150d6565b9250506151b160408501614fd5565b90509250925092565b6000602082840312156151cc57600080fd5b5035919050565b600080604083850312156151e657600080fd5b50508035926020909101359150565b60008060006060848603121561520a57600080fd5b61521384614fd5565b925061522160208501614fd5565b9150604084013590509250925092565b6000806040838503121561524457600080fd5b823567ffffffffffffffff8082111561525c57600080fd5b818501915085601f83011261527057600080fd5b81356020828211156152845761528461508f565b8160051b92506152958184016150a5565b82815292840181019281810190898511156152af57600080fd5b948201945b848610156152cd578535825294820194908201906152b4565b9997909101359750505050505050565b6000806000606084860312156152f257600080fd5b6152fb84614fd5565b925060208401359150604084013567ffffffffffffffff81111561531e57600080fd5b61532a868287016150d6565b9150509250925092565b80151581146115ea57600080fd5b6000806040838503121561535557600080fd5b61535e83614fd5565b9150602083013561536e81615334565b809150509250929050565b6000806000806080858703121561538f57600080fd5b61539885614fd5565b93506153a660208601614fd5565b925060408501359150606085013567ffffffffffffffff8111156153c957600080fd5b6153d5878288016150d6565b91505092959194509250565b60008060008060008060c087890312156153fa57600080fd5b61540387614fd5565b95506020870135945060408701359350606087013560ff8116811461542757600080fd5b9598949750929560808101359460a0909101359350915050565b60008060006060848603121561545657600080fd5b83359250602084013591506151b160408501614fd5565b6000806040838503121561548057600080fd5b61548983614fd5565b915061549760208401614fd5565b90509250929050565b600080604083850312156154b357600080fd5b6154bc83614fd5565b9150602083013563ffffffff8116811461536e57600080fd5b600181811c908216806154e957607f821691505b60208210810361300757634e487b7160e01b600052602260045260246000fd5b634e487b7160e01b600052601160045260246000fd5b63ffffffff82811682821603908082111561317557613175615509565b634e487b7160e01b600052601260045260246000fd5b600063ffffffff808416806155695761556961553c565b92169190910492915050565b634e487b7160e01b600052603260045260246000fd5b6020808252602d908201527f4552433732313a2063616c6c6572206973206e6f7420746f6b656e206f776e6560408201526c1c881bdc88185c1c1c9bdd9959609a1b606082015260800190565b6020808252600e908201526d1ddc9bdb99c818da185a5b881a5960921b604082015260600190565b634e487b7160e01b600052600160045260246000fd5b602080825260069082015265085d9bdd195960d21b604082015260600190565b81810381811115610c2d57610c2d615509565b60006020828403121561565b57600080fd5b815161173981615334565b80820180821115610c2d57610c2d615509565b60006001820161568b5761568b615509565b5060010190565b828152604060208201526000611c44604083018461500c565b602080825260059082015264217a65726f60d81b604082015260600190565b60208082526026908201527f43616e206f6e6c79206c6f636b20756e74696c2074696d6520696e207468652060408201526566757475726560d01b606082015260800190565b6020808252601e908201527f566f74696e67206c6f636b2063616e2062652031207965617273206d61780000604082015260600190565b8082028115828204841417610c2d57610c2d615509565b60008261576d5761576d61553c565b500490565b60208082526024908201527f43616e6e6f742061646420746f2065787069726564206c6f636b2e20576974686040820152636472617760e01b606082015260800190565b6020808252602b908201527f496e697469616c697a61626c653a20636f6e7472616374206973206e6f74206960408201526a6e697469616c697a696e6760a81b606082015260800190565b818103600083128015838313168383128216171561317557613175615509565b600082600f0b82600f0b0280600f0b915080821461317557613175615509565b600f82810b9082900b0360016001607f1b0319811260016001607f1b0382131715610c2d57610c2d615509565b600f81810b9083900b0160016001607f1b03811360016001607f1b031982121715610c2d57610c2d615509565b634e487b7160e01b600052602160045260246000fd5b8481526020810184905260808101600684106158dd57634e487b7160e01b600052602160045260246000fd5b60408201939093526060015292915050565b6000806040838503121561590257600080fd5b825180600f0b811461591357600080fd5b6020939093015192949293505050565b60208082526032908201527f4552433732313a207472616e7366657220746f206e6f6e20455243373231526560408201527131b2b4bb32b91034b6b83632b6b2b73a32b960711b606082015260800190565b600081600f0b83600f0b8061598c5761598c61553c565b60016001607f1b03198214600019821416156159aa576159aa615509565b90059392505050565b601f8211156112d657600081815260208120601f850160051c810160208610156159da5750805b601f850160051c820191505b818110156127a1578281556001016159e6565b815167ffffffffffffffff811115615a1357615a1361508f565b615a2781615a2184546154d5565b846159b3565b602080601f831160018114615a5c5760008415615a445750858301515b600019600386901b1c1916600185901b1785556127a1565b600085815260208120601f198616915b82811015615a8b57888601518255948401946001909101908401615a6c565b5085821015615aa95787850151600019600388901b60f8161c191681555b5050505050600190811b01905550565b63ffffffff81811683821601908082111561317557613175615509565b60208082526023908201527f64737452657020776f756c64206861766520746f6f206d616e7920746f6b656e60408201526249647360e81b606082015260800190565b60208082526025908201527f4552433732313a207472616e736665722066726f6d20696e636f72726563742060408201526437bbb732b960d91b606082015260800190565b6001600160a01b0385811682528416602082015260408101839052608060608201819052600090611fde9083018461500c565b600060208284031215615ba357600080fd5b815161173981614fa256feddf252ad1be2c89b69c2b068fc378daa952ba7f163c4a11628f55a4df523b3efa164736f6c6343000813000a",
    "linkReferences": {}
  },
  "methodIdentifiers": {
    "ARBITRUM_ONE()": "2168ca0f",
    "DELEGATION_TYPEHASH()": "e7a324dc",
    "DOMAIN_TYPEHASH()": "20606b70",
    "MAX_DELEGATES()": "5f5b0c32",
    "abstain(uint256)": "c1f0fb9f",
    "acceptOwnership()": "79ba5097",
    "addBridge(address)": "9712fdf8",
    "approve(address,uint256)": "095ea7b3",
    "balanceOf(address)": "70a08231",
    "balanceOfAtNFT(uint256,uint256)": "8c2c9baf",
    "balanceOfNFT(uint256)": "e7e242d4",
    "balanceOfNFTAt(uint256,uint256)": "e0514aba",
    "block_number()": "25a58b56",
    "burn(uint256)": "42966c68",
    "checkpoint()": "c2c4c5c1",
    "checkpoints(address,uint32)": "f1127ed8",
    "create_lock(uint256,uint256)": "65fc3873",
    "create_lock_for(uint256,uint256,address)": "d4e54c3b",
    "delegate(address)": "5c19a95c",
    "delegateBySig(address,uint256,uint256,uint8,bytes32,bytes32)": "c3cda520",
    "delegates(address)": "587cde1e",
    "deposit_for(uint256,uint256)": "ee99fe28",
    "epoch()": "900cf0cf",
    "getApproved(uint256)": "081812fc",
    "getPastTotalSupply(uint256)": "8e539e8c",
    "getPastVotes(address,uint256)": "3a46b1a8",
    "getPastVotesIndex(address,uint256)": "0758c7d8",
    "getVotes(address)": "9ab24eb0",
    "get_last_user_slope(uint256)": "461f711c",
    "increase_amount(uint256,uint256)": "a183af52",
    "increase_unlock_time(uint256,uint256)": "a4d855df",
    "initialize(string,string,address)": "077f224a",
    "isApprovedForAll(address,address)": "e985e9c5",
    "isApprovedOrOwner(address,uint256)": "430c2081",
    "isBridge(address)": "726600ce",
    "locked(uint256)": "b45a3c0e",
    "locked__end(uint256)": "f8a05763",
    "masterChainId()": "10c3cf06",
    "merge(uint256,uint256)": "d1c2babb",
    "mint(address,uint256,bytes)": "94d008ef",
    "name()": "06fdde03",
    "nonces(address)": "7ecebe00",
    "numCheckpoints(address)": "6fcfff45",
    "owner()": "8da5cb5b",
    "ownerOf(uint256)": "6352211e",
    "ownership_change(uint256)": "6f548837",
    "pendingOwner()": "e30c3978",
    "point_history(uint256)": "d1febfb9",
    "removeBridge(address)": "04df017d",
    "renounceOwnership()": "715018a6",
    "safeTransferFrom(address,address,uint256)": "42842e0e",
    "safeTransferFrom(address,address,uint256,bytes)": "b88d4fde",
    "setApprovalForAll(address,bool)": "a22cb465",
    "setMasterChain()": "901a251d",
    "setTeam(address)": "095cf5c6",
    "setToken(address)": "144fa6d7",
    "setVoter(address)": "4bc2a657",
    "slope_changes(uint256)": "71197484",
    "split(uint256[],uint256)": "56afe744",
    "supply()": "047fc9aa",
    "supportsInterface(bytes4)": "01ffc9a7",
    "symbol()": "95d89b41",
    "team()": "85f2aef2",
    "token()": "fc0c546a",
    "tokenOfOwnerByIndex(address,uint256)": "2f745c59",
    "tokenURI(uint256)": "c87b56dd",
    "totalSupply()": "18160ddd",
    "totalSupplyAt(uint256)": "981b24d0",
    "totalSupplyAtT(uint256)": "7116c60c",
    "transferFrom(address,address,uint256)": "23b872dd",
    "transferOwnership(address)": "f2fde38b",
    "user_point_epoch(uint256)": "e441135c",
    "user_point_history(uint256,uint256)": "1376f3da",
    "user_point_history__ts(uint256,uint256)": "1c984bc3",
    "version()": "54fd4d50",
    "voted(uint256)": "8fbb38ff",
    "voter()": "46c96aac",
    "voting(uint256)": "fd4a77f1",
    "withdraw(uint256)": "2e1a7d4d"
  }
}