{
  "address": "0x1800bf8c4D87746857207f56fB522f689551AFFf",
  "abi": [
    {
      "inputs": [],
      "name": "XERC20__addBridge_alreadyAdded",
      "type": "error"
    },
    {
      "inputs": [],
      "name": "XERC20__onlyBridge_notBridge",
      "type": "error"
    },
    {
      "inputs": [],
      "name": "XERC20__removeBridge_alreadyRemoved",
      "type": "error"
    },
    {
      "anonymous": false,
      "inputs": [
        {
          "indexed": true,
          "internalType": "address",
          "name": "owner",
          "type": "address"
        },
        {
          "indexed": true,
          "internalType": "address",
          "name": "spender",
          "type": "address"
        },
        {
          "indexed": false,
          "internalType": "uint256",
          "name": "value",
          "type": "uint256"
        }
      ],
      "name": "Approval",
      "type": "event"
    },
    {
      "anonymous": false,
      "inputs": [
        {
          "indexed": true,
          "internalType": "address",
          "name": "bridge",
          "type": "address"
        }
      ],
      "name": "BridgeAdded",
      "type": "event"
    },
    {
      "anonymous": false,
      "inputs": [
        {
          "indexed": true,
          "internalType": "address",
          "name": "bridge",
          "type": "address"
        }
      ],
      "name": "BridgeRemoved",
      "type": "event"
    },
    {
      "anonymous": false,
      "inputs": [],
      "name": "EIP712DomainChanged",
      "type": "event"
    },
    {
      "anonymous": false,
      "inputs": [
        {
          "indexed": false,
          "internalType": "uint8",
          "name": "version",
          "type": "uint8"
        }
      ],
      "name": "Initialized",
      "type": "event"
    },
    {
      "anonymous": false,
      "inputs": [
        {
          "indexed": true,
          "internalType": "address",
          "name": "proposedOwner",
          "type": "address"
        }
      ],
      "name": "OwnershipProposed",
      "type": "event"
    },
    {
      "anonymous": false,
      "inputs": [
        {
          "indexed": true,
          "internalType": "address",
          "name": "previousOwner",
          "type": "address"
        },
        {
          "indexed": true,
          "internalType": "address",
          "name": "newOwner",
          "type": "address"
        }
      ],
      "name": "OwnershipTransferred",
      "type": "event"
    },
    {
      "anonymous": false,
      "inputs": [
        {
          "indexed": true,
          "internalType": "address",
          "name": "from",
          "type": "address"
        },
        {
          "indexed": true,
          "internalType": "address",
          "name": "to",
          "type": "address"
        },
        {
          "indexed": false,
          "internalType": "uint256",
          "name": "value",
          "type": "uint256"
        }
      ],
      "name": "Transfer",
      "type": "event"
    },
    {
      "inputs": [],
      "name": "DOMAIN_SEPARATOR",
      "outputs": [
        {
          "internalType": "bytes32",
          "name": "",
          "type": "bytes32"
        }
      ],
      "stateMutability": "view",
      "type": "function"
    },
    {
      "inputs": [],
      "name": "acceptProposedOwner",
      "outputs": [],
      "stateMutability": "nonpayable",
      "type": "function"
    },
    {
      "inputs": [
        {
          "internalType": "address",
          "name": "_bridge",
          "type": "address"
        }
      ],
      "name": "addBridge",
      "outputs": [],
      "stateMutability": "nonpayable",
      "type": "function"
    },
    {
      "inputs": [
        {
          "internalType": "address",
          "name": "owner",
          "type": "address"
        },
        {
          "internalType": "address",
          "name": "spender",
          "type": "address"
        }
      ],
      "name": "allowance",
      "outputs": [
        {
          "internalType": "uint256",
          "name": "",
          "type": "uint256"
        }
      ],
      "stateMutability": "view",
      "type": "function"
    },
    {
      "inputs": [
        {
          "internalType": "address",
          "name": "spender",
          "type": "address"
        },
        {
          "internalType": "uint256",
          "name": "amount",
          "type": "uint256"
        }
      ],
      "name": "approve",
      "outputs": [
        {
          "internalType": "bool",
          "name": "",
          "type": "bool"
        }
      ],
      "stateMutability": "nonpayable",
      "type": "function"
    },
    {
      "inputs": [
        {
          "internalType": "address",
          "name": "account",
          "type": "address"
        }
      ],
      "name": "balanceOf",
      "outputs": [
        {
          "internalType": "uint256",
          "name": "",
          "type": "uint256"
        }
      ],
      "stateMutability": "view",
      "type": "function"
    },
    {
      "inputs": [
        {
          "internalType": "address",
          "name": "_from",
          "type": "address"
        },
        {
          "internalType": "uint256",
          "name": "_amount",
          "type": "uint256"
        }
      ],
      "name": "burn",
      "outputs": [],
      "stateMutability": "nonpayable",
      "type": "function"
    },
    {
      "inputs": [],
      "name": "decimals",
      "outputs": [
        {
          "internalType": "uint8",
          "name": "",
          "type": "uint8"
        }
      ],
      "stateMutability": "view",
      "type": "function"
    },
    {
      "inputs": [
        {
          "internalType": "address",
          "name": "spender",
          "type": "address"
        },
        {
          "internalType": "uint256",
          "name": "subtractedValue",
          "type": "uint256"
        }
      ],
      "name": "decreaseAllowance",
      "outputs": [
        {
          "internalType": "bool",
          "name": "",
          "type": "bool"
        }
      ],
      "stateMutability": "nonpayable",
      "type": "function"
    },
    {
      "inputs": [],
      "name": "delay",
      "outputs": [
        {
          "internalType": "uint256",
          "name": "",
          "type": "uint256"
        }
      ],
      "stateMutability": "view",
      "type": "function"
    },
    {
      "inputs": [],
      "name": "eip712Domain",
      "outputs": [
        {
          "internalType": "bytes1",
          "name": "fields",
          "type": "bytes1"
        },
        {
          "internalType": "string",
          "name": "name",
          "type": "string"
        },
        {
          "internalType": "string",
          "name": "version",
          "type": "string"
        },
        {
          "internalType": "uint256",
          "name": "chainId",
          "type": "uint256"
        },
        {
          "internalType": "address",
          "name": "verifyingContract",
          "type": "address"
        },
        {
          "internalType": "bytes32",
          "name": "salt",
          "type": "bytes32"
        },
        {
          "internalType": "uint256[]",
          "name": "extensions",
          "type": "uint256[]"
        }
      ],
      "stateMutability": "view",
      "type": "function"
    },
    {
      "inputs": [],
      "name": "getProxyAdmin",
      "outputs": [
        {
          "internalType": "address",
          "name": "",
          "type": "address"
        }
      ],
      "stateMutability": "view",
      "type": "function"
    },
    {
      "inputs": [
        {
          "internalType": "address",
          "name": "spender",
          "type": "address"
        },
        {
          "internalType": "uint256",
          "name": "addedValue",
          "type": "uint256"
        }
      ],
      "name": "increaseAllowance",
      "outputs": [
        {
          "internalType": "bool",
          "name": "",
          "type": "bool"
        }
      ],
      "stateMutability": "nonpayable",
      "type": "function"
    },
    {
      "inputs": [
        {
          "internalType": "address",
          "name": "_owner",
          "type": "address"
        },
        {
          "internalType": "string",
          "name": "_name",
          "type": "string"
        },
        {
          "internalType": "string",
          "name": "_symbol",
          "type": "string"
        }
      ],
      "name": "initialize",
      "outputs": [],
      "stateMutability": "nonpayable",
      "type": "function"
    },
    {
      "inputs": [],
      "name": "initializeIon",
      "outputs": [],
      "stateMutability": "nonpayable",
      "type": "function"
    },
    {
      "inputs": [
        {
          "internalType": "address",
          "name": "_bridge",
          "type": "address"
        }
      ],
      "name": "isBridge",
      "outputs": [
        {
          "internalType": "bool",
          "name": "",
          "type": "bool"
        }
      ],
      "stateMutability": "view",
      "type": "function"
    },
    {
      "inputs": [
        {
          "internalType": "address",
          "name": "_to",
          "type": "address"
        },
        {
          "internalType": "uint256",
          "name": "_amount",
          "type": "uint256"
        }
      ],
      "name": "mint",
      "outputs": [],
      "stateMutability": "nonpayable",
      "type": "function"
    },
    {
      "inputs": [],
      "name": "name",
      "outputs": [
        {
          "internalType": "string",
          "name": "",
          "type": "string"
        }
      ],
      "stateMutability": "view",
      "type": "function"
    },
    {
      "inputs": [
        {
          "internalType": "address",
          "name": "owner",
          "type": "address"
        }
      ],
      "name": "nonces",
      "outputs": [
        {
          "internalType": "uint256",
          "name": "",
          "type": "uint256"
        }
      ],
      "stateMutability": "view",
      "type": "function"
    },
    {
      "inputs": [],
      "name": "owner",
      "outputs": [
        {
          "internalType": "address",
          "name": "",
          "type": "address"
        }
      ],
      "stateMutability": "view",
      "type": "function"
    },
    {
      "inputs": [
        {
          "internalType": "address",
          "name": "owner",
          "type": "address"
        },
        {
          "internalType": "address",
          "name": "spender",
          "type": "address"
        },
        {
          "internalType": "uint256",
          "name": "value",
          "type": "uint256"
        },
        {
          "internalType": "uint256",
          "name": "deadline",
          "type": "uint256"
        },
        {
          "internalType": "uint8",
          "name": "v",
          "type": "uint8"
        },
        {
          "internalType": "bytes32",
          "name": "r",
          "type": "bytes32"
        },
        {
          "internalType": "bytes32",
          "name": "s",
          "type": "bytes32"
        }
      ],
      "name": "permit",
      "outputs": [],
      "stateMutability": "nonpayable",
      "type": "function"
    },
    {
      "inputs": [
        {
          "internalType": "address",
          "name": "newlyProposed",
          "type": "address"
        }
      ],
      "name": "proposeNewOwner",
      "outputs": [],
      "stateMutability": "nonpayable",
      "type": "function"
    },
    {
      "inputs": [],
      "name": "proposed",
      "outputs": [
        {
          "internalType": "address",
          "name": "",
          "type": "address"
        }
      ],
      "stateMutability": "view",
      "type": "function"
    },
    {
      "inputs": [],
      "name": "proposedTimestamp",
      "outputs": [
        {
          "internalType": "uint256",
          "name": "",
          "type": "uint256"
        }
      ],
      "stateMutability": "view",
      "type": "function"
    },
    {
      "inputs": [
        {
          "internalType": "address",
          "name": "_bridge",
          "type": "address"
        }
      ],
      "name": "removeBridge",
      "outputs": [],
      "stateMutability": "nonpayable",
      "type": "function"
    },
    {
      "inputs": [],
      "name": "renounceOwnership",
      "outputs": [],
      "stateMutability": "nonpayable",
      "type": "function"
    },
    {
      "inputs": [],
      "name": "renounced",
      "outputs": [
        {
          "internalType": "bool",
          "name": "",
          "type": "bool"
        }
      ],
      "stateMutability": "view",
      "type": "function"
    },
    {
      "inputs": [],
      "name": "symbol",
      "outputs": [
        {
          "internalType": "string",
          "name": "",
          "type": "string"
        }
      ],
      "stateMutability": "view",
      "type": "function"
    },
    {
      "inputs": [],
      "name": "totalSupply",
      "outputs": [
        {
          "internalType": "uint256",
          "name": "",
          "type": "uint256"
        }
      ],
      "stateMutability": "view",
      "type": "function"
    },
    {
      "inputs": [
        {
          "internalType": "address",
          "name": "to",
          "type": "address"
        },
        {
          "internalType": "uint256",
          "name": "amount",
          "type": "uint256"
        }
      ],
      "name": "transfer",
      "outputs": [
        {
          "internalType": "bool",
          "name": "",
          "type": "bool"
        }
      ],
      "stateMutability": "nonpayable",
      "type": "function"
    },
    {
      "inputs": [
        {
          "internalType": "address",
          "name": "from",
          "type": "address"
        },
        {
          "internalType": "address",
          "name": "to",
          "type": "address"
        },
        {
          "internalType": "uint256",
          "name": "amount",
          "type": "uint256"
        }
      ],
      "name": "transferFrom",
      "outputs": [
        {
          "internalType": "bool",
          "name": "",
          "type": "bool"
        }
      ],
      "stateMutability": "nonpayable",
      "type": "function"
    }
  ],
  "transactionHash": "0x363e9f014872a3a90861b2f0fb5d9007509b2f96bcb9ad1a2a0d4aa0f47ad848",
  "args": [],
  "numDeployments": 1,
  "bytecode": {
    "object": "0x608060405234801561001057600080fd5b50611fef806100206000396000f3fe608060405234801561001057600080fd5b50600436106101e55760003560e01c80637ecebe001161010f578063a457c2d7116100a2578063d1851c9211610071578063d1851c92146103f9578063d232c2201461040a578063d505accf1461041c578063dd62ed3e1461042f57600080fd5b8063a457c2d7146103b8578063a9059cbb146103cb578063b1f8100d146103de578063c5b350df146103f157600080fd5b806390657147116100de578063906571471461037757806395d89b411461038a5780639712fdf8146103925780639dc29fac146103a557600080fd5b80637ecebe001461031857806384b0196e1461032b5780638b3240a0146103465780638da5cb5b1461036657600080fd5b8063395093511161018757806370a082311161015657806370a08231146102b3578063715018a6146102dc578063726600ce146102e45780637b4ed7a11461031057600080fd5b8063395093511461027c5780633cf52ffb1461028f57806340c10f19146102975780636a42b8f8146102aa57600080fd5b806318160ddd116101c357806318160ddd1461024057806323b872dd14610252578063313ce567146102655780633644e5151461027457600080fd5b806304df017d146101ea57806306fdde03146101ff578063095ea7b31461021d575b600080fd5b6101fd6101f8366004611a3e565b610442565b005b610207610503565b6040516102149190611aa6565b60405180910390f35b61023061022b366004611ab9565b610595565b6040519015158152602001610214565b6035545b604051908152602001610214565b610230610260366004611ae3565b6105af565b60405160128152602001610214565b6102446105d3565b61023061028a366004611ab9565b6105e2565b60ce54610244565b6101fd6102a5366004611ab9565b610604565b62093a80610244565b6102446102c1366004611a3e565b6001600160a01b031660009081526033602052604090205490565b6101fd610642565b6102306102f2366004611a3e565b6001600160a01b0316600090815260fe602052604090205460ff1690565b6101fd610733565b610244610326366004611a3e565b610860565b61033361087e565b6040516102149796959493929190611b1f565b61034e61091c565b6040516001600160a01b039091168152602001610214565b60cc546001600160a01b031661034e565b6101fd610385366004611c58565b61094f565b610207610a40565b6101fd6103a0366004611a3e565b610a4f565b6101fd6103b3366004611ab9565b610b0b565b6102306103c6366004611ab9565b610b45565b6102306103d9366004611ab9565b610bc0565b6101fd6103ec366004611a3e565b610bce565b6101fd610c88565b60cd546001600160a01b031661034e565b60cc546001600160a01b031615610230565b6101fd61042a366004611ccc565b610d46565b61024461043d366004611d3f565b610eaa565b60cc546001600160a01b031633146104755760405162461bcd60e51b815260040161046c90611d72565b60405180910390fd5b6001600160a01b038116600090815260fe602052604090205460ff166104ae5760405163292574f360e21b815260040160405180910390fd5b6040516001600160a01b038216907f5d9d5034656cb3ebfb0655057cd7f9b4077a9b42ff42ce223cbac5bc586d212690600090a26001600160a01b0316600090815260fe60205260409020805460ff19169055565b60606036805461051290611d92565b80601f016020809104026020016040519081016040528092919081815260200182805461053e90611d92565b801561058b5780601f106105605761010080835404028352916020019161058b565b820191906000526020600020905b81548152906001019060200180831161056e57829003601f168201915b5050505050905090565b6000336105a3818585610ed5565b60019150505b92915050565b6000336105bd858285610ffa565b6105c885858561106e565b506001949350505050565b60006105dd611219565b905090565b6000336105a38185856105f58383610eaa565b6105ff9190611ddc565b610ed5565b33600090815260fe602052604090205460ff1661063457604051635c57712b60e01b815260040160405180910390fd5b61063e8282611223565b5050565b60cc546001600160a01b0316331461066c5760405162461bcd60e51b815260040161046c90611d72565b600060ce54116106a95760405162461bcd60e51b8152602060048201526008602482015267085cdd185c9d195960c21b604482015260640161046c565b62093a8060ce54426106bb9190611def565b116106f35760405162461bcd60e51b815260206004820152600860248201526708595b185c1cd95960c21b604482015260640161046c565b60cd546001600160a01b03161561071c5760405162461bcd60e51b815260040161046c90611e02565b60cd54610731906001600160a01b03166112e4565b565b600054610100900460ff16158080156107535750600054600160ff909116105b8061076d5750303b15801561076d575060005460ff166001145b6107895760405162461bcd60e51b815260040161046c90611e25565b6000805460ff1916600117905580156107ac576000805461ff0019166101001790555b604080518082018252600b81526a24b7b734b1902a37b5b2b760a91b6020808301919091528251808401909352600383526224a7a760e91b90830152906107f161133d565b6107fb828261136c565b6108048261139d565b61080c6113e7565b610815336112e4565b5050801561085d576000805461ff0019169055604051600181527f7f26b83ff96e1f2b6a682f133852f6798a09c465da95921460cefb38474024989060200160405180910390a15b50565b6001600160a01b0381166000908152609960205260408120546105a9565b6000606080600080600060606065546000801b14801561089e5750606654155b6108e25760405162461bcd60e51b81526020600482015260156024820152741152540dcc4c8e88155b9a5b9a5d1a585b1a5e9959605a1b604482015260640161046c565b6108ea611416565b6108f2611425565b60408051600080825260208201909252600f60f81b9b939a50919850469750309650945092509050565b60006105dd7fb53127684a568b3173ae13b9f8a6016e243e63b6e8ee1178d6a717850b5d6103546001600160a01b031690565b600054610100900460ff161580801561096f5750600054600160ff909116105b806109895750303b158015610989575060005460ff166001145b6109a55760405162461bcd60e51b815260040161046c90611e25565b6000805460ff1916600117905580156109c8576000805461ff0019166101001790555b6109d061133d565b6109da838361136c565b6109e38361139d565b6109eb6113e7565b6109f4846112e4565b8015610a3a576000805461ff0019169055604051600181527f7f26b83ff96e1f2b6a682f133852f6798a09c465da95921460cefb38474024989060200160405180910390a15b50505050565b60606037805461051290611d92565b60cc546001600160a01b03163314610a795760405162461bcd60e51b815260040161046c90611d72565b6001600160a01b038116600090815260fe602052604090205460ff1615610ab35760405163371e828760e01b815260040160405180910390fd5b6040516001600160a01b038216907f3cda433c5679ae4c6a5dea50840e222a42cba3695e4663de4366be899348422190600090a26001600160a01b0316600090815260fe60205260409020805460ff19166001179055565b33600090815260fe602052604090205460ff16610b3b57604051635c57712b60e01b815260040160405180910390fd5b61063e8282611434565b60003381610b538286610eaa565b905083811015610bb35760405162461bcd60e51b815260206004820152602560248201527f45524332303a2064656372656173656420616c6c6f77616e63652062656c6f77604482015264207a65726f60d81b606482015260840161046c565b6105c88286868403610ed5565b6000336105a381858561106e565b60cc546001600160a01b03163314610bf85760405162461bcd60e51b815260040161046c90611d72565b60cd546001600160a01b038281169116141580610c1c57506001600160a01b038116155b610c385760405162461bcd60e51b815260040161046c90611e02565b60cc546001600160a01b03808316911603610c7f5760405162461bcd60e51b8152602060048201526007602482015266216368616e676560c81b604482015260640161046c565b61085d81611565565b60cd546001600160a01b03163314610cb25760405162461bcd60e51b815260040161046c90611e02565b60cd5460cc546001600160a01b03918216911603610cfc5760405162461bcd60e51b8152602060048201526007602482015266216368616e676560c81b604482015260640161046c565b62093a8060ce5442610d0e9190611def565b1161071c5760405162461bcd60e51b815260206004820152600860248201526708595b185c1cd95960c21b604482015260640161046c565b83421115610d965760405162461bcd60e51b815260206004820152601d60248201527f45524332305065726d69743a206578706972656420646561646c696e65000000604482015260640161046c565b60007f6e71edae12b1b97f4d1f60370fef10105fa2faae0126114a169c64845d6126c9888888610dc58c6115b3565b6040805160208101969096526001600160a01b0394851690860152929091166060840152608083015260a082015260c0810186905260e0016040516020818303038152906040528051906020012090506000610e20826115db565b90506000610e3082878787611608565b9050896001600160a01b0316816001600160a01b031614610e935760405162461bcd60e51b815260206004820152601e60248201527f45524332305065726d69743a20696e76616c6964207369676e61747572650000604482015260640161046c565b610e9e8a8a8a610ed5565b50505050505050505050565b6001600160a01b03918216600090815260346020908152604080832093909416825291909152205490565b6001600160a01b038316610f375760405162461bcd60e51b8152602060048201526024808201527f45524332303a20617070726f76652066726f6d20746865207a65726f206164646044820152637265737360e01b606482015260840161046c565b6001600160a01b038216610f985760405162461bcd60e51b815260206004820152602260248201527f45524332303a20617070726f766520746f20746865207a65726f206164647265604482015261737360f01b606482015260840161046c565b6001600160a01b0383811660008181526034602090815260408083209487168084529482529182902085905590518481527f8c5be1e5ebec7d5bd14f71427d1e84f3dd0314c0f7b2291e5b200ac8c7c3b92591015b60405180910390a3505050565b60006110068484610eaa565b90506000198114610a3a57818110156110615760405162461bcd60e51b815260206004820152601d60248201527f45524332303a20696e73756666696369656e7420616c6c6f77616e6365000000604482015260640161046c565b610a3a8484848403610ed5565b6001600160a01b0383166110d25760405162461bcd60e51b815260206004820152602560248201527f45524332303a207472616e736665722066726f6d20746865207a65726f206164604482015264647265737360d81b606482015260840161046c565b6001600160a01b0382166111345760405162461bcd60e51b815260206004820152602360248201527f45524332303a207472616e7366657220746f20746865207a65726f206164647260448201526265737360e81b606482015260840161046c565b6001600160a01b038316600090815260336020526040902054818110156111ac5760405162461bcd60e51b815260206004820152602660248201527f45524332303a207472616e7366657220616d6f756e7420657863656564732062604482015265616c616e636560d01b606482015260840161046c565b6001600160a01b0380851660008181526033602052604080822086860390559286168082529083902080548601905591517fddf252ad1be2c89b69c2b068fc378daa952ba7f163c4a11628f55a4df523b3ef9061120c9086815260200190565b60405180910390a3610a3a565b60006105dd611630565b6001600160a01b0382166112795760405162461bcd60e51b815260206004820152601f60248201527f45524332303a206d696e7420746f20746865207a65726f206164647265737300604482015260640161046c565b806035600082825461128b9190611ddc565b90915550506001600160a01b0382166000818152603360209081526040808320805486019055518481527fddf252ad1be2c89b69c2b068fc378daa952ba7f163c4a11628f55a4df523b3ef910160405180910390a35050565b60cc80546001600160a01b038381166001600160a01b031983168117909355600060ce81905560405191909216929183917f8be0079c531659141344cd1fd0a4f28419497f9722a3daafe3b4186f6b6457e09190a35050565b600054610100900460ff166113645760405162461bcd60e51b815260040161046c90611e73565b6107316116a4565b600054610100900460ff166113935760405162461bcd60e51b815260040161046c90611e73565b61063e82826116cb565b600054610100900460ff166113c45760405162461bcd60e51b815260040161046c90611e73565b61085d81604051806040016040528060018152602001603160f81b81525061170b565b600054610100900460ff1661140e5760405162461bcd60e51b815260040161046c90611e73565b61073161175a565b60606067805461051290611d92565b60606068805461051290611d92565b6001600160a01b0382166114945760405162461bcd60e51b815260206004820152602160248201527f45524332303a206275726e2066726f6d20746865207a65726f206164647265736044820152607360f81b606482015260840161046c565b6001600160a01b038216600090815260336020526040902054818110156115085760405162461bcd60e51b815260206004820152602260248201527f45524332303a206275726e20616d6f756e7420657863656564732062616c616e604482015261636560f01b606482015260840161046c565b6001600160a01b03831660008181526033602090815260408083208686039055603580548790039055518581529192917fddf252ad1be2c89b69c2b068fc378daa952ba7f163c4a11628f55a4df523b3ef9101610fed565b505050565b4260ce5560cd80546001600160a01b0319166001600160a01b0383169081179091556040517f6ab4d119f23076e8ad491bc65ce85f017fb0591dce08755ba8591059cc51737a90600090a250565b6001600160a01b03811660009081526099602052604090208054600181018255905b50919050565b60006105a96115e8611219565b8360405161190160f01b8152600281019290925260228201526042902090565b60008060006116198787878761178a565b915091506116268161184e565b5095945050505050565b60007f8b73c3c69bb8fe3d512ecc4cf759cc79239f7b179b0ffacaa9a75d522b39400f61165b611998565b6116636119f1565b60408051602081019490945283019190915260608201524660808201523060a082015260c00160405160208183030381529060405280519060200120905090565b600054610100900460ff166107315760405162461bcd60e51b815260040161046c90611e73565b600054610100900460ff166116f25760405162461bcd60e51b815260040161046c90611e73565b60366116fe8382611f0c565b5060376115608282611f0c565b600054610100900460ff166117325760405162461bcd60e51b815260040161046c90611e73565b606761173e8382611f0c565b50606861174b8282611f0c565b50506000606581905560665550565b600054610100900460ff166117815760405162461bcd60e51b815260040161046c90611e73565b610731336112e4565b6000807f7fffffffffffffffffffffffffffffff5d576e7357a4501ddfe92f46681b20a08311156117c15750600090506003611845565b6040805160008082526020820180845289905260ff881692820192909252606081018690526080810185905260019060a0016020604051602081039080840390855afa158015611815573d6000803e3d6000fd5b5050604051601f1901519150506001600160a01b03811661183e57600060019250925050611845565b9150600090505b94509492505050565b600081600481111561186257611862611fcc565b0361186a5750565b600181600481111561187e5761187e611fcc565b036118cb5760405162461bcd60e51b815260206004820152601860248201527f45434453413a20696e76616c6964207369676e61747572650000000000000000604482015260640161046c565b60028160048111156118df576118df611fcc565b0361192c5760405162461bcd60e51b815260206004820152601f60248201527f45434453413a20696e76616c6964207369676e6174757265206c656e67746800604482015260640161046c565b600381600481111561194057611940611fcc565b0361085d5760405162461bcd60e51b815260206004820152602260248201527f45434453413a20696e76616c6964207369676e6174757265202773272076616c604482015261756560f01b606482015260840161046c565b6000806119a3611416565b8051909150156119ba578051602090910120919050565b60655480156119c95792915050565b7fc5d2460186f7233c927e7db2dcc703c0e500b653ca82273b7bfad8045d85a4709250505090565b6000806119fc611425565b805190915015611a13578051602090910120919050565b60665480156119c95792915050565b80356001600160a01b0381168114611a3957600080fd5b919050565b600060208284031215611a5057600080fd5b611a5982611a22565b9392505050565b6000815180845260005b81811015611a8657602081850181015186830182015201611a6a565b506000602082860101526020601f19601f83011685010191505092915050565b602081526000611a596020830184611a60565b60008060408385031215611acc57600080fd5b611ad583611a22565b946020939093013593505050565b600080600060608486031215611af857600080fd5b611b0184611a22565b9250611b0f60208501611a22565b9150604084013590509250925092565b60ff60f81b881681526000602060e081840152611b3f60e084018a611a60565b8381036040850152611b51818a611a60565b606085018990526001600160a01b038816608086015260a0850187905284810360c0860152855180825283870192509083019060005b81811015611ba357835183529284019291840191600101611b87565b50909c9b505050505050505050505050565b634e487b7160e01b600052604160045260246000fd5b600082601f830112611bdc57600080fd5b813567ffffffffffffffff80821115611bf757611bf7611bb5565b604051601f8301601f19908116603f01168101908282118183101715611c1f57611c1f611bb5565b81604052838152866020858801011115611c3857600080fd5b836020870160208301376000602085830101528094505050505092915050565b600080600060608486031215611c6d57600080fd5b611c7684611a22565b9250602084013567ffffffffffffffff80821115611c9357600080fd5b611c9f87838801611bcb565b93506040860135915080821115611cb557600080fd5b50611cc286828701611bcb565b9150509250925092565b600080600080600080600060e0888a031215611ce757600080fd5b611cf088611a22565b9650611cfe60208901611a22565b95506040880135945060608801359350608088013560ff81168114611d2257600080fd5b9699959850939692959460a0840135945060c09093013592915050565b60008060408385031215611d5257600080fd5b611d5b83611a22565b9150611d6960208401611a22565b90509250929050565b60208082526006908201526510b7bbb732b960d11b604082015260600190565b600181811c90821680611da657607f821691505b6020821081036115d557634e487b7160e01b600052602260045260246000fd5b634e487b7160e01b600052601160045260246000fd5b808201808211156105a9576105a9611dc6565b818103818111156105a9576105a9611dc6565b602080825260099082015268085c1c9bdc1bdcd95960ba1b604082015260600190565b6020808252602e908201527f496e697469616c697a61626c653a20636f6e747261637420697320616c72656160408201526d191e481a5b9a5d1a585b1a5e995960921b606082015260800190565b6020808252602b908201527f496e697469616c697a61626c653a20636f6e7472616374206973206e6f74206960408201526a6e697469616c697a696e6760a81b606082015260800190565b601f82111561156057600081815260208120601f850160051c81016020861015611ee55750805b601f850160051c820191505b81811015611f0457828155600101611ef1565b505050505050565b815167ffffffffffffffff811115611f2657611f26611bb5565b611f3a81611f348454611d92565b84611ebe565b602080601f831160018114611f6f5760008415611f575750858301515b600019600386901b1c1916600185901b178555611f04565b600085815260208120601f198616915b82811015611f9e57888601518255948401946001909101908401611f7f565b5085821015611fbc5787850151600019600388901b60f8161c191681555b5050505050600190811b01905550565b634e487b7160e01b600052602160045260246000fdfea164736f6c6343000813000a",
    "linkReferences": {}
  },
  "methodIdentifiers": {
    "DOMAIN_SEPARATOR()": "3644e515",
    "acceptProposedOwner()": "c5b350df",
    "addBridge(address)": "9712fdf8",
    "allowance(address,address)": "dd62ed3e",
    "approve(address,uint256)": "095ea7b3",
    "balanceOf(address)": "70a08231",
    "burn(address,uint256)": "9dc29fac",
    "decimals()": "313ce567",
    "decreaseAllowance(address,uint256)": "a457c2d7",
    "delay()": "6a42b8f8",
    "eip712Domain()": "84b0196e",
    "getProxyAdmin()": "8b3240a0",
    "increaseAllowance(address,uint256)": "39509351",
    "initialize(address,string,string)": "90657147",
    "initializeIon()": "7b4ed7a1",
    "isBridge(address)": "726600ce",
    "mint(address,uint256)": "40c10f19",
    "name()": "06fdde03",
    "nonces(address)": "7ecebe00",
    "owner()": "8da5cb5b",
    "permit(address,address,uint256,uint256,uint8,bytes32,bytes32)": "d505accf",
    "proposeNewOwner(address)": "b1f8100d",
    "proposed()": "d1851c92",
    "proposedTimestamp()": "3cf52ffb",
    "removeBridge(address)": "04df017d",
    "renounceOwnership()": "715018a6",
    "renounced()": "d232c220",
    "symbol()": "95d89b41",
    "totalSupply()": "18160ddd",
    "transfer(address,uint256)": "a9059cbb",
    "transferFrom(address,address,uint256)": "23b872dd"
  }
}