{
  "address": "0x74112313046503EBAD894732980F7981FfAA9Def",
  "abi": [
    {
      "inputs": [],
      "stateMutability": "nonpayable",
      "type": "constructor"
    },
    {
      "inputs": [],
      "name": "XERC721__addBridge_alreadyAdded",
      "type": "error"
    },
    {
      "inputs": [],
      "name": "XERC721__onlyBridge_notBridge",
      "type": "error"
    },
    {
      "inputs": [],
      "name": "XERC721__removeBridge_alreadyRemoved",
      "type": "error"
    },
    {
      "anonymous": false,
      "inputs": [
        {
          "indexed": true,
          "internalType": "address",
          "name": "owner",
          "type": "address"
        },
        {
          "indexed": true,
          "internalType": "address",
          "name": "approved",
          "type": "address"
        },
        {
          "indexed": true,
          "internalType": "uint256",
          "name": "tokenId",
          "type": "uint256"
        }
      ],
      "name": "Approval",
      "type": "event"
    },
    {
      "anonymous": false,
      "inputs": [
        {
          "indexed": true,
          "internalType": "address",
          "name": "owner",
          "type": "address"
        },
        {
          "indexed": true,
          "internalType": "address",
          "name": "operator",
          "type": "address"
        },
        {
          "indexed": false,
          "internalType": "bool",
          "name": "approved",
          "type": "bool"
        }
      ],
      "name": "ApprovalForAll",
      "type": "event"
    },
    {
      "anonymous": false,
      "inputs": [
        {
          "indexed": true,
          "internalType": "address",
          "name": "bridge",
          "type": "address"
        }
      ],
      "name": "BridgeAdded",
      "type": "event"
    },
    {
      "anonymous": false,
      "inputs": [
        {
          "indexed": true,
          "internalType": "address",
          "name": "bridge",
          "type": "address"
        }
      ],
      "name": "BridgeRemoved",
      "type": "event"
    },
    {
      "anonymous": false,
      "inputs": [
        {
          "indexed": false,
          "internalType": "uint256",
          "name": "_tokenId",
          "type": "uint256"
        },
        {
          "indexed": false,
          "internalType": "bytes",
          "name": "_metadata",
          "type": "bytes"
        }
      ],
      "name": "BurnAsBridge",
      "type": "event"
    },
    {
      "anonymous": false,
      "inputs": [
        {
          "indexed": true,
          "internalType": "address",
          "name": "delegator",
          "type": "address"
        },
        {
          "indexed": true,
          "internalType": "address",
          "name": "fromDelegate",
          "type": "address"
        },
        {
          "indexed": true,
          "internalType": "address",
          "name": "toDelegate",
          "type": "address"
        }
      ],
      "name": "DelegateChanged",
      "type": "event"
    },
    {
      "anonymous": false,
      "inputs": [
        {
          "indexed": true,
          "internalType": "address",
          "name": "delegate",
          "type": "address"
        },
        {
          "indexed": false,
          "internalType": "uint256",
          "name": "previousBalance",
          "type": "uint256"
        },
        {
          "indexed": false,
          "internalType": "uint256",
          "name": "newBalance",
          "type": "uint256"
        }
      ],
      "name": "DelegateVotesChanged",
      "type": "event"
    },
    {
      "anonymous": false,
      "inputs": [
        {
          "indexed": true,
          "internalType": "address",
          "name": "provider",
          "type": "address"
        },
        {
          "indexed": false,
          "internalType": "uint256",
          "name": "tokenId",
          "type": "uint256"
        },
        {
          "indexed": false,
          "internalType": "uint256",
          "name": "value",
          "type": "uint256"
        },
        {
          "indexed": true,
          "internalType": "uint256",
          "name": "locktime",
          "type": "uint256"
        },
        {
          "indexed": false,
          "internalType": "enum VoteEscrow.DepositType",
          "name": "deposit_type",
          "type": "uint8"
        },
        {
          "indexed": false,
          "internalType": "uint256",
          "name": "ts",
          "type": "uint256"
        }
      ],
      "name": "Deposit",
      "type": "event"
    },
    {
      "anonymous": false,
      "inputs": [
        {
          "indexed": false,
          "internalType": "uint8",
          "name": "version",
          "type": "uint8"
        }
      ],
      "name": "Initialized",
      "type": "event"
    },
    {
      "anonymous": false,
      "inputs": [
        {
          "indexed": false,
          "internalType": "uint256",
          "name": "_tokenId",
          "type": "uint256"
        },
        {
          "indexed": false,
          "internalType": "bytes",
          "name": "_metadata",
          "type": "bytes"
        }
      ],
      "name": "MintAsBridge",
      "type": "event"
    },
    {
      "anonymous": false,
      "inputs": [
        {
          "indexed": true,
          "internalType": "address",
          "name": "previousOwner",
          "type": "address"
        },
        {
          "indexed": true,
          "internalType": "address",
          "name": "newOwner",
          "type": "address"
        }
      ],
      "name": "OwnershipTransferStarted",
      "type": "event"
    },
    {
      "anonymous": false,
      "inputs": [
        {
          "indexed": true,
          "internalType": "address",
          "name": "previousOwner",
          "type": "address"
        },
        {
          "indexed": true,
          "internalType": "address",
          "name": "newOwner",
          "type": "address"
        }
      ],
      "name": "OwnershipTransferred",
      "type": "event"
    },
    {
      "anonymous": false,
      "inputs": [
        {
          "indexed": false,
          "internalType": "uint256",
          "name": "prevSupply",
          "type": "uint256"
        },
        {
          "indexed": false,
          "internalType": "uint256",
          "name": "supply",
          "type": "uint256"
        }
      ],
      "name": "Supply",
      "type": "event"
    },
    {
      "anonymous": false,
      "inputs": [
        {
          "indexed": true,
          "internalType": "address",
          "name": "from",
          "type": "address"
        },
        {
          "indexed": true,
          "internalType": "address",
          "name": "to",
          "type": "address"
        },
        {
          "indexed": true,
          "internalType": "uint256",
          "name": "tokenId",
          "type": "uint256"
        }
      ],
      "name": "Transfer",
      "type": "event"
    },
    {
      "anonymous": false,
      "inputs": [
        {
          "indexed": true,
          "internalType": "address",
          "name": "provider",
          "type": "address"
        },
        {
          "indexed": false,
          "internalType": "uint256",
          "name": "tokenId",
          "type": "uint256"
        },
        {
          "indexed": false,
          "internalType": "uint256",
          "name": "value",
          "type": "uint256"
        },
        {
          "indexed": false,
          "internalType": "uint256",
          "name": "ts",
          "type": "uint256"
        }
      ],
      "name": "Withdraw",
      "type": "event"
    },
    {
      "inputs": [],
      "name": "ARBITRUM_ONE",
      "outputs": [
        {
          "internalType": "uint128",
          "name": "",
          "type": "uint128"
        }
      ],
      "stateMutability": "view",
      "type": "function"
    },
    {
      "inputs": [],
      "name": "DELEGATION_TYPEHASH",
      "outputs": [
        {
          "internalType": "bytes32",
          "name": "",
          "type": "bytes32"
        }
      ],
      "stateMutability": "view",
      "type": "function"
    },
    {
      "inputs": [],
      "name": "DOMAIN_TYPEHASH",
      "outputs": [
        {
          "internalType": "bytes32",
          "name": "",
          "type": "bytes32"
        }
      ],
      "stateMutability": "view",
      "type": "function"
    },
    {
      "inputs": [],
      "name": "MAX_DELEGATES",
      "outputs": [
        {
          "internalType": "uint256",
          "name": "",
          "type": "uint256"
        }
      ],
      "stateMutability": "view",
      "type": "function"
    },
    {
      "inputs": [
        {
          "internalType": "uint256",
          "name": "_tokenId",
          "type": "uint256"
        }
      ],
      "name": "abstain",
      "outputs": [],
      "stateMutability": "nonpayable",
      "type": "function"
    },
    {
      "inputs": [],
      "name": "acceptOwnership",
      "outputs": [],
      "stateMutability": "nonpayable",
      "type": "function"
    },
    {
      "inputs": [
        {
          "internalType": "address",
          "name": "_bridge",
          "type": "address"
        }
      ],
      "name": "addBridge",
      "outputs": [],
      "stateMutability": "nonpayable",
      "type": "function"
    },
    {
      "inputs": [
        {
          "internalType": "address",
          "name": "to",
          "type": "address"
        },
        {
          "internalType": "uint256",
          "name": "tokenId",
          "type": "uint256"
        }
      ],
      "name": "approve",
      "outputs": [],
      "stateMutability": "nonpayable",
      "type": "function"
    },
    {
      "inputs": [
        {
          "internalType": "address",
          "name": "owner",
          "type": "address"
        }
      ],
      "name": "balanceOf",
      "outputs": [
        {
          "internalType": "uint256",
          "name": "",
          "type": "uint256"
        }
      ],
      "stateMutability": "view",
      "type": "function"
    },
    {
      "inputs": [
        {
          "internalType": "uint256",
          "name": "_tokenId",
          "type": "uint256"
        },
        {
          "internalType": "uint256",
          "name": "_block",
          "type": "uint256"
        }
      ],
      "name": "balanceOfAtNFT",
      "outputs": [
        {
          "internalType": "uint256",
          "name": "",
          "type": "uint256"
        }
      ],
      "stateMutability": "view",
      "type": "function"
    },
    {
      "inputs": [
        {
          "internalType": "uint256",
          "name": "_tokenId",
          "type": "uint256"
        }
      ],
      "name": "balanceOfNFT",
      "outputs": [
        {
          "internalType": "uint256",
          "name": "",
          "type": "uint256"
        }
      ],
      "stateMutability": "view",
      "type": "function"
    },
    {
      "inputs": [
        {
          "internalType": "uint256",
          "name": "_tokenId",
          "type": "uint256"
        },
        {
          "internalType": "uint256",
          "name": "_t",
          "type": "uint256"
        }
      ],
      "name": "balanceOfNFTAt",
      "outputs": [
        {
          "internalType": "uint256",
          "name": "",
          "type": "uint256"
        }
      ],
      "stateMutability": "view",
      "type": "function"
    },
    {
      "inputs": [],
      "name": "block_number",
      "outputs": [
        {
          "internalType": "uint256",
          "name": "",
          "type": "uint256"
        }
      ],
      "stateMutability": "view",
      "type": "function"
    },
    {
      "inputs": [
        {
          "internalType": "uint256",
          "name": "_tokenId",
          "type": "uint256"
        }
      ],
      "name": "burn",
      "outputs": [
        {
          "internalType": "bytes",
          "name": "_metadata",
          "type": "bytes"
        }
      ],
      "stateMutability": "nonpayable",
      "type": "function"
    },
    {
      "inputs": [],
      "name": "checkpoint",
      "outputs": [],
      "stateMutability": "nonpayable",
      "type": "function"
    },
    {
      "inputs": [
        {
          "internalType": "address",
          "name": "",
          "type": "address"
        },
        {
          "internalType": "uint32",
          "name": "",
          "type": "uint32"
        }
      ],
      "name": "checkpoints",
      "outputs": [
        {
          "internalType": "uint256",
          "name": "timestamp",
          "type": "uint256"
        }
      ],
      "stateMutability": "view",
      "type": "function"
    },
    {
      "inputs": [
        {
          "internalType": "uint256",
          "name": "_value",
          "type": "uint256"
        },
        {
          "internalType": "uint256",
          "name": "_lock_duration",
          "type": "uint256"
        }
      ],
      "name": "create_lock",
      "outputs": [
        {
          "internalType": "uint256",
          "name": "",
          "type": "uint256"
        }
      ],
      "stateMutability": "nonpayable",
      "type": "function"
    },
    {
      "inputs": [
        {
          "internalType": "uint256",
          "name": "_value",
          "type": "uint256"
        },
        {
          "internalType": "uint256",
          "name": "_lock_duration",
          "type": "uint256"
        },
        {
          "internalType": "address",
          "name": "_to",
          "type": "address"
        }
      ],
      "name": "create_lock_for",
      "outputs": [
        {
          "internalType": "uint256",
          "name": "",
          "type": "uint256"
        }
      ],
      "stateMutability": "nonpayable",
      "type": "function"
    },
    {
      "inputs": [
        {
          "internalType": "address",
          "name": "delegatee",
          "type": "address"
        }
      ],
      "name": "delegate",
      "outputs": [],
      "stateMutability": "nonpayable",
      "type": "function"
    },
    {
      "inputs": [
        {
          "internalType": "address",
          "name": "delegatee",
          "type": "address"
        },
        {
          "internalType": "uint256",
          "name": "nonce",
          "type": "uint256"
        },
        {
          "internalType": "uint256",
          "name": "expiry",
          "type": "uint256"
        },
        {
          "internalType": "uint8",
          "name": "v",
          "type": "uint8"
        },
        {
          "internalType": "bytes32",
          "name": "r",
          "type": "bytes32"
        },
        {
          "internalType": "bytes32",
          "name": "s",
          "type": "bytes32"
        }
      ],
      "name": "delegateBySig",
      "outputs": [],
      "stateMutability": "nonpayable",
      "type": "function"
    },
    {
      "inputs": [
        {
          "internalType": "address",
          "name": "delegator",
          "type": "address"
        }
      ],
      "name": "delegates",
      "outputs": [
        {
          "internalType": "address",
          "name": "",
          "type": "address"
        }
      ],
      "stateMutability": "view",
      "type": "function"
    },
    {
      "inputs": [
        {
          "internalType": "uint256",
          "name": "_tokenId",
          "type": "uint256"
        },
        {
          "internalType": "uint256",
          "name": "_value",
          "type": "uint256"
        }
      ],
      "name": "deposit_for",
      "outputs": [],
      "stateMutability": "nonpayable",
      "type": "function"
    },
    {
      "inputs": [],
      "name": "epoch",
      "outputs": [
        {
          "internalType": "uint256",
          "name": "",
          "type": "uint256"
        }
      ],
      "stateMutability": "view",
      "type": "function"
    },
    {
      "inputs": [
        {
          "internalType": "uint256",
          "name": "tokenId",
          "type": "uint256"
        }
      ],
      "name": "getApproved",
      "outputs": [
        {
          "internalType": "address",
          "name": "",
          "type": "address"
        }
      ],
      "stateMutability": "view",
      "type": "function"
    },
    {
      "inputs": [
        {
          "internalType": "uint256",
          "name": "timestamp",
          "type": "uint256"
        }
      ],
      "name": "getPastTotalSupply",
      "outputs": [
        {
          "internalType": "uint256",
          "name": "",
          "type": "uint256"
        }
      ],
      "stateMutability": "view",
      "type": "function"
    },
    {
      "inputs": [
        {
          "internalType": "address",
          "name": "account",
          "type": "address"
        },
        {
          "internalType": "uint256",
          "name": "timestamp",
          "type": "uint256"
        }
      ],
      "name": "getPastVotes",
      "outputs": [
        {
          "internalType": "uint256",
          "name": "",
          "type": "uint256"
        }
      ],
      "stateMutability": "view",
      "type": "function"
    },
    {
      "inputs": [
        {
          "internalType": "address",
          "name": "account",
          "type": "address"
        },
        {
          "internalType": "uint256",
          "name": "timestamp",
          "type": "uint256"
        }
      ],
      "name": "getPastVotesIndex",
      "outputs": [
        {
          "internalType": "uint32",
          "name": "",
          "type": "uint32"
        }
      ],
      "stateMutability": "view",
      "type": "function"
    },
    {
      "inputs": [
        {
          "internalType": "address",
          "name": "account",
          "type": "address"
        }
      ],
      "name": "getVotes",
      "outputs": [
        {
          "internalType": "uint256",
          "name": "",
          "type": "uint256"
        }
      ],
      "stateMutability": "view",
      "type": "function"
    },
    {
      "inputs": [
        {
          "internalType": "uint256",
          "name": "_tokenId",
          "type": "uint256"
        }
      ],
      "name": "get_last_user_slope",
      "outputs": [
        {
          "internalType": "int128",
          "name": "",
          "type": "int128"
        }
      ],
      "stateMutability": "view",
      "type": "function"
    },
    {
      "inputs": [
        {
          "internalType": "uint256",
          "name": "_tokenId",
          "type": "uint256"
        },
        {
          "internalType": "uint256",
          "name": "_value",
          "type": "uint256"
        }
      ],
      "name": "increase_amount",
      "outputs": [],
      "stateMutability": "nonpayable",
      "type": "function"
    },
    {
      "inputs": [
        {
          "internalType": "uint256",
          "name": "_tokenId",
          "type": "uint256"
        },
        {
          "internalType": "uint256",
          "name": "_lock_duration",
          "type": "uint256"
        }
      ],
      "name": "increase_unlock_time",
      "outputs": [],
      "stateMutability": "nonpayable",
      "type": "function"
    },
    {
      "inputs": [
        {
          "internalType": "string",
          "name": "name_",
          "type": "string"
        },
        {
          "internalType": "string",
          "name": "symbol_",
          "type": "string"
        },
        {
          "internalType": "address",
          "name": "token_addr",
          "type": "address"
        }
      ],
      "name": "initialize",
      "outputs": [],
      "stateMutability": "nonpayable",
      "type": "function"
    },
    {
      "inputs": [
        {
          "internalType": "address",
          "name": "_owner",
          "type": "address"
        },
        {
          "internalType": "address",
          "name": "_operator",
          "type": "address"
        }
      ],
      "name": "isApprovedForAll",
      "outputs": [
        {
          "internalType": "bool",
          "name": "",
          "type": "bool"
        }
      ],
      "stateMutability": "view",
      "type": "function"
    },
    {
      "inputs": [
        {
          "internalType": "address",
          "name": "_spender",
          "type": "address"
        },
        {
          "internalType": "uint256",
          "name": "_tokenId",
          "type": "uint256"
        }
      ],
      "name": "isApprovedOrOwner",
      "outputs": [
        {
          "internalType": "bool",
          "name": "",
          "type": "bool"
        }
      ],
      "stateMutability": "view",
      "type": "function"
    },
    {
      "inputs": [
        {
          "internalType": "address",
          "name": "_bridge",
          "type": "address"
        }
      ],
      "name": "isBridge",
      "outputs": [
        {
          "internalType": "bool",
          "name": "",
          "type": "bool"
        }
      ],
      "stateMutability": "view",
      "type": "function"
    },
    {
      "inputs": [
        {
          "internalType": "uint256",
          "name": "",
          "type": "uint256"
        }
      ],
      "name": "locked",
      "outputs": [
        {
          "internalType": "int128",
          "name": "amount",
          "type": "int128"
        },
        {
          "internalType": "uint256",
          "name": "end",
          "type": "uint256"
        }
      ],
      "stateMutability": "view",
      "type": "function"
    },
    {
      "inputs": [
        {
          "internalType": "uint256",
          "name": "_tokenId",
          "type": "uint256"
        }
      ],
      "name": "locked__end",
      "outputs": [
        {
          "internalType": "uint256",
          "name": "",
          "type": "uint256"
        }
      ],
      "stateMutability": "view",
      "type": "function"
    },
    {
      "inputs": [],
      "name": "masterChainId",
      "outputs": [
        {
          "internalType": "uint256",
          "name": "",
          "type": "uint256"
        }
      ],
      "stateMutability": "view",
      "type": "function"
    },
    {
      "inputs": [
        {
          "internalType": "uint256",
          "name": "_from",
          "type": "uint256"
        },
        {
          "internalType": "uint256",
          "name": "_to",
          "type": "uint256"
        }
      ],
      "name": "merge",
      "outputs": [],
      "stateMutability": "nonpayable",
      "type": "function"
    },
    {
      "inputs": [
        {
          "internalType": "address",
          "name": "_to",
          "type": "address"
        },
        {
          "internalType": "uint256",
          "name": "_tokenId",
          "type": "uint256"
        },
        {
          "internalType": "bytes",
          "name": "_metadata",
          "type": "bytes"
        }
      ],
      "name": "mint",
      "outputs": [],
      "stateMutability": "nonpayable",
      "type": "function"
    },
    {
      "inputs": [],
      "name": "name",
      "outputs": [
        {
          "internalType": "string",
          "name": "",
          "type": "string"
        }
      ],
      "stateMutability": "view",
      "type": "function"
    },
    {
      "inputs": [
        {
          "internalType": "address",
          "name": "",
          "type": "address"
        }
      ],
      "name": "nonces",
      "outputs": [
        {
          "internalType": "uint256",
          "name": "",
          "type": "uint256"
        }
      ],
      "stateMutability": "view",
      "type": "function"
    },
    {
      "inputs": [
        {
          "internalType": "address",
          "name": "",
          "type": "address"
        }
      ],
      "name": "numCheckpoints",
      "outputs": [
        {
          "internalType": "uint32",
          "name": "",
          "type": "uint32"
        }
      ],
      "stateMutability": "view",
      "type": "function"
    },
    {
      "inputs": [],
      "name": "owner",
      "outputs": [
        {
          "internalType": "address",
          "name": "",
          "type": "address"
        }
      ],
      "stateMutability": "view",
      "type": "function"
    },
    {
      "inputs": [
        {
          "internalType": "uint256",
          "name": "tokenId",
          "type": "uint256"
        }
      ],
      "name": "ownerOf",
      "outputs": [
        {
          "internalType": "address",
          "name": "",
          "type": "address"
        }
      ],
      "stateMutability": "view",
      "type": "function"
    },
    {
      "inputs": [
        {
          "internalType": "uint256",
          "name": "",
          "type": "uint256"
        }
      ],
      "name": "ownership_change",
      "outputs": [
        {
          "internalType": "uint256",
          "name": "",
          "type": "uint256"
        }
      ],
      "stateMutability": "view",
      "type": "function"
    },
    {
      "inputs": [],
      "name": "pendingOwner",
      "outputs": [
        {
          "internalType": "address",
          "name": "",
          "type": "address"
        }
      ],
      "stateMutability": "view",
      "type": "function"
    },
    {
      "inputs": [
        {
          "internalType": "uint256",
          "name": "",
          "type": "uint256"
        }
      ],
      "name": "point_history",
      "outputs": [
        {
          "internalType": "int128",
          "name": "bias",
          "type": "int128"
        },
        {
          "internalType": "int128",
          "name": "slope",
          "type": "int128"
        },
        {
          "internalType": "uint256",
          "name": "ts",
          "type": "uint256"
        },
        {
          "internalType": "uint256",
          "name": "blk",
          "type": "uint256"
        }
      ],
      "stateMutability": "view",
      "type": "function"
    },
    {
      "inputs": [
        {
          "internalType": "address",
          "name": "_bridge",
          "type": "address"
        }
      ],
      "name": "removeBridge",
      "outputs": [],
      "stateMutability": "nonpayable",
      "type": "function"
    },
    {
      "inputs": [],
      "name": "renounceOwnership",
      "outputs": [],
      "stateMutability": "nonpayable",
      "type": "function"
    },
    {
      "inputs": [
        {
          "internalType": "address",
          "name": "from",
          "type": "address"
        },
        {
          "internalType": "address",
          "name": "to",
          "type": "address"
        },
        {
          "internalType": "uint256",
          "name": "tokenId",
          "type": "uint256"
        }
      ],
      "name": "safeTransferFrom",
      "outputs": [],
      "stateMutability": "nonpayable",
      "type": "function"
    },
    {
      "inputs": [
        {
          "internalType": "address",
          "name": "from",
          "type": "address"
        },
        {
          "internalType": "address",
          "name": "to",
          "type": "address"
        },
        {
          "internalType": "uint256",
          "name": "tokenId",
          "type": "uint256"
        },
        {
          "internalType": "bytes",
          "name": "data",
          "type": "bytes"
        }
      ],
      "name": "safeTransferFrom",
      "outputs": [],
      "stateMutability": "nonpayable",
      "type": "function"
    },
    {
      "inputs": [
        {
          "internalType": "address",
          "name": "operator",
          "type": "address"
        },
        {
          "internalType": "bool",
          "name": "approved",
          "type": "bool"
        }
      ],
      "name": "setApprovalForAll",
      "outputs": [],
      "stateMutability": "nonpayable",
      "type": "function"
    },
    {
      "inputs": [],
      "name": "setMasterChain",
      "outputs": [],
      "stateMutability": "nonpayable",
      "type": "function"
    },
    {
      "inputs": [
        {
          "internalType": "address",
          "name": "_team",
          "type": "address"
        }
      ],
      "name": "setTeam",
      "outputs": [],
      "stateMutability": "nonpayable",
      "type": "function"
    },
    {
      "inputs": [
        {
          "internalType": "address",
          "name": "_token",
          "type": "address"
        }
      ],
      "name": "setToken",
      "outputs": [],
      "stateMutability": "nonpayable",
      "type": "function"
    },
    {
      "inputs": [
        {
          "internalType": "address",
          "name": "_voter",
          "type": "address"
        }
      ],
      "name": "setVoter",
      "outputs": [],
      "stateMutability": "nonpayable",
      "type": "function"
    },
    {
      "inputs": [
        {
          "internalType": "uint256",
          "name": "",
          "type": "uint256"
        }
      ],
      "name": "slope_changes",
      "outputs": [
        {
          "internalType": "int128",
          "name": "",
          "type": "int128"
        }
      ],
      "stateMutability": "view",
      "type": "function"
    },
    {
      "inputs": [
        {
          "internalType": "uint256[]",
          "name": "amounts",
          "type": "uint256[]"
        },
        {
          "internalType": "uint256",
          "name": "_tokenId",
          "type": "uint256"
        }
      ],
      "name": "split",
      "outputs": [],
      "stateMutability": "nonpayable",
      "type": "function"
    },
    {
      "inputs": [],
      "name": "supply",
      "outputs": [
        {
          "internalType": "uint256",
          "name": "",
          "type": "uint256"
        }
      ],
      "stateMutability": "view",
      "type": "function"
    },
    {
      "inputs": [
        {
          "internalType": "bytes4",
          "name": "interfaceId",
          "type": "bytes4"
        }
      ],
      "name": "supportsInterface",
      "outputs": [
        {
          "internalType": "bool",
          "name": "",
          "type": "bool"
        }
      ],
      "stateMutability": "view",
      "type": "function"
    },
    {
      "inputs": [],
      "name": "symbol",
      "outputs": [
        {
          "internalType": "string",
          "name": "",
          "type": "string"
        }
      ],
      "stateMutability": "view",
      "type": "function"
    },
    {
      "inputs": [],
      "name": "team",
      "outputs": [
        {
          "internalType": "address",
          "name": "",
          "type": "address"
        }
      ],
      "stateMutability": "view",
      "type": "function"
    },
    {
      "inputs": [],
      "name": "token",
      "outputs": [
        {
          "internalType": "address",
          "name": "",
          "type": "address"
        }
      ],
      "stateMutability": "view",
      "type": "function"
    },
    {
      "inputs": [
        {
          "internalType": "address",
          "name": "_owner",
          "type": "address"
        },
        {
          "internalType": "uint256",
          "name": "_tokenIndex",
          "type": "uint256"
        }
      ],
      "name": "tokenOfOwnerByIndex",
      "outputs": [
        {
          "internalType": "uint256",
          "name": "",
          "type": "uint256"
        }
      ],
      "stateMutability": "view",
      "type": "function"
    },
    {
      "inputs": [
        {
          "internalType": "uint256",
          "name": "_tokenId",
          "type": "uint256"
        }
      ],
      "name": "tokenURI",
      "outputs": [
        {
          "internalType": "string",
          "name": "",
          "type": "string"
        }
      ],
      "stateMutability": "view",
      "type": "function"
    },
    {
      "inputs": [],
      "name": "totalSupply",
      "outputs": [
        {
          "internalType": "uint256",
          "name": "",
          "type": "uint256"
        }
      ],
      "stateMutability": "view",
      "type": "function"
    },
    {
      "inputs": [
        {
          "internalType": "uint256",
          "name": "_block",
          "type": "uint256"
        }
      ],
      "name": "totalSupplyAt",
      "outputs": [
        {
          "internalType": "uint256",
          "name": "",
          "type": "uint256"
        }
      ],
      "stateMutability": "view",
      "type": "function"
    },
    {
      "inputs": [
        {
          "internalType": "uint256",
          "name": "t",
          "type": "uint256"
        }
      ],
      "name": "totalSupplyAtT",
      "outputs": [
        {
          "internalType": "uint256",
          "name": "",
          "type": "uint256"
        }
      ],
      "stateMutability": "view",
      "type": "function"
    },
    {
      "inputs": [
        {
          "internalType": "address",
          "name": "from",
          "type": "address"
        },
        {
          "internalType": "address",
          "name": "to",
          "type": "address"
        },
        {
          "internalType": "uint256",
          "name": "tokenId",
          "type": "uint256"
        }
      ],
      "name": "transferFrom",
      "outputs": [],
      "stateMutability": "nonpayable",
      "type": "function"
    },
    {
      "inputs": [
        {
          "internalType": "address",
          "name": "newOwner",
          "type": "address"
        }
      ],
      "name": "transferOwnership",
      "outputs": [],
      "stateMutability": "nonpayable",
      "type": "function"
    },
    {
      "inputs": [
        {
          "internalType": "uint256",
          "name": "",
          "type": "uint256"
        }
      ],
      "name": "user_point_epoch",
      "outputs": [
        {
          "internalType": "uint256",
          "name": "",
          "type": "uint256"
        }
      ],
      "stateMutability": "view",
      "type": "function"
    },
    {
      "inputs": [
        {
          "internalType": "uint256",
          "name": "",
          "type": "uint256"
        },
        {
          "internalType": "uint256",
          "name": "",
          "type": "uint256"
        }
      ],
      "name": "user_point_history",
      "outputs": [
        {
          "internalType": "int128",
          "name": "bias",
          "type": "int128"
        },
        {
          "internalType": "int128",
          "name": "slope",
          "type": "int128"
        },
        {
          "internalType": "uint256",
          "name": "ts",
          "type": "uint256"
        },
        {
          "internalType": "uint256",
          "name": "blk",
          "type": "uint256"
        }
      ],
      "stateMutability": "view",
      "type": "function"
    },
    {
      "inputs": [
        {
          "internalType": "uint256",
          "name": "_tokenId",
          "type": "uint256"
        },
        {
          "internalType": "uint256",
          "name": "_idx",
          "type": "uint256"
        }
      ],
      "name": "user_point_history__ts",
      "outputs": [
        {
          "internalType": "uint256",
          "name": "",
          "type": "uint256"
        }
      ],
      "stateMutability": "view",
      "type": "function"
    },
    {
      "inputs": [],
      "name": "version",
      "outputs": [
        {
          "internalType": "string",
          "name": "",
          "type": "string"
        }
      ],
      "stateMutability": "view",
      "type": "function"
    },
    {
      "inputs": [
        {
          "internalType": "uint256",
          "name": "",
          "type": "uint256"
        }
      ],
      "name": "voted",
      "outputs": [
        {
          "internalType": "bool",
          "name": "",
          "type": "bool"
        }
      ],
      "stateMutability": "view",
      "type": "function"
    },
    {
      "inputs": [],
      "name": "voter",
      "outputs": [
        {
          "internalType": "address",
          "name": "",
          "type": "address"
        }
      ],
      "stateMutability": "view",
      "type": "function"
    },
    {
      "inputs": [
        {
          "internalType": "uint256",
          "name": "_tokenId",
          "type": "uint256"
        }
      ],
      "name": "voting",
      "outputs": [],
      "stateMutability": "nonpayable",
      "type": "function"
    },
    {
      "inputs": [
        {
          "internalType": "uint256",
          "name": "_tokenId",
          "type": "uint256"
        }
      ],
      "name": "withdraw",
      "outputs": [],
      "stateMutability": "nonpayable",
      "type": "function"
    }
  ],
  "transactionHash": "0x5d7fbce0dbb44ae94efed96be781941a9a75a0fd182a5237bb97a87441a94eda",
  "args": [],
  "numDeployments": 1,
  "bytecode": {
    "object": "0x60806040523480156200001157600080fd5b506200001c62000022565b620000e3565b600054610100900460ff16156200008f5760405162461bcd60e51b815260206004820152602760248201527f496e697469616c697a61626c653a20636f6e747261637420697320696e697469604482015266616c697a696e6760c81b606482015260840160405180910390fd5b60005460ff90811614620000e1576000805460ff191660ff9081179091556040519081527f7f26b83ff96e1f2b6a682f133852f6798a09c465da95921460cefb38474024989060200160405180910390a15b565b615c0080620000f36000396000f3fe608060405234801561001057600080fd5b50600436106104755760003560e01c8063715018a611610257578063b88d4fde11610146578063e441135c116100c3578063f1127ed811610087578063f1127ed814610b57578063f2fde38b14610b83578063f8a0576314610b96578063fc0c546a14610bba578063fd4a77f114610bce57600080fd5b8063e441135c14610ad6578063e7a324dc14610af7578063e7e242d414610b1e578063e985e9c514610b31578063ee99fe2814610b4457600080fd5b8063d1c2babb1161010a578063d1c2babb14610a4d578063d1febfb914610a60578063d4e54c3b14610a9f578063e0514aba14610ab2578063e30c397814610ac557600080fd5b8063b88d4fde146109f9578063c1f0fb9f14610a0c578063c2c4c5c114610a1f578063c3cda52014610a27578063c87b56dd14610a3a57600080fd5b8063901a251d116101d45780639ab24eb0116101985780639ab24eb014610964578063a183af5214610977578063a22cb4651461098a578063a4d855df1461099d578063b45a3c0e146109b057600080fd5b8063901a251d1461091b57806394d008ef1461092357806395d89b41146109365780639712fdf81461093e578063981b24d01461095157600080fd5b80638c2c9baf1161021b5780638c2c9baf146108b65780638da5cb5b146108c95780638e539e8c146108da5780638fbb38ff146108ed578063900cf0cf1461091157600080fd5b8063715018a614610845578063726600ce1461084d57806379ba5097146108795780637ecebe001461088157806385f2aef2146108a257600080fd5b80632f745c5911610373578063587cde1e116102f05780636f548837116102b45780636f548837146107b35780636fcfff45146107d457806370a08231146107fb5780637116c60c1461080e578063711974841461082157600080fd5b8063587cde1e1461075e5780635c19a95c146107715780635f5b0c32146107845780636352211e1461078d57806365fc3873146107a057600080fd5b8063461f711c11610337578063461f711c146106da57806346c96aac146107005780634bc2a6571461071457806354fd4d501461072757806356afe7441461074b57600080fd5b80632f745c59146106575780633a46b1a81461068e57806342842e0e146106a157806342966c68146106b4578063430c2081146106c757600080fd5b806310c3cf061161040157806320606b70116103c557806320606b70146105e35780632168ca0f1461060a57806323b872dd1461062b57806325a58b561461063e5780632e1a7d4d1461064457600080fd5b806310c3cf06146105705780631376f3da1461057a578063144fa6d7146105b557806318160ddd146105c85780631c984bc3146105d057600080fd5b80630758c7d8116104485780630758c7d8146104e4578063077f224a1461050c578063081812fc1461051f578063095cf5c61461054a578063095ea7b31461055d57600080fd5b806301ffc9a71461047a578063047fc9aa146104a257806304df017d146104ba57806306fdde03146104cf575b600080fd5b61048d610488366004615005565b610be1565b60405190151581526020015b60405180910390f35b6104ac61016a5481565b604051908152602001610499565b6104cd6104c836600461503e565b610c33565b005b6104d7610cc9565b604051610499919061509f565b6104f76104f23660046150b2565b610d5b565b60405163ffffffff9091168152602001610499565b6104cd61051a366004615193565b610ed0565b61053261052d366004615207565b611139565b6040516001600160a01b039091168152602001610499565b6104cd61055836600461503e565b611160565b6104cd61056b3660046150b2565b6111c6565b6104ac6101635481565b61058d610588366004615220565b6112db565b60408051600f95860b81529390940b6020840152928201526060810191909152608001610499565b6104cd6105c336600461503e565b611323565b6104ac61134e565b6104ac6105de366004615220565b61135e565b6104ac7f8cad95687ba82c2ce50e74f7b754645e5117c3a5bec8151c0726d5857980a86681565b61061361a4b181565b6040516001600160801b039091168152602001610499565b6104cd610639366004615242565b611391565b436104ac565b6104cd610652366004615207565b6113c2565b6104ac6106653660046150b2565b6001600160a01b0391909116600090815261016c60209081526040808320938352929052205490565b6104ac61069c3660046150b2565b61160e565b6104cd6106af366004615242565b6116ae565b6104d76106c2366004615207565b6116c9565b61048d6106d53660046150b2565b61174e565b6106ed6106e8366004615207565b611761565b604051600f9190910b8152602001610499565b61016054610532906001600160a01b031681565b6104cd61072236600461503e565b6117a6565b6104d7604051806040016040528060058152602001640312e302e360dc1b81525081565b6104cd61075936600461527e565b61180c565b61053261076c36600461503e565b611ab7565b6104cd61077f36600461503e565b611ae8565b6104ac61040081565b61053261079b366004615207565b611b03565b6104ac6107ae366004615220565b611b63565b6104ac6107c1366004615207565b61016b6020526000908152604090205481565b6104f76107e236600461503e565b6101706020526000908152604090205463ffffffff1681565b6104ac61080936600461503e565b611b85565b6104ac61081c366004615207565b611c0b565b6106ed61082f366004615207565b61016960205260009081526040902054600f0b81565b6104cd611c6d565b61048d61085b36600461503e565b6001600160a01b0316600090815260fb602052604090205460ff1690565b6104cd611c81565b6104ac61088f36600461503e565b6101716020526000908152604090205481565b61016154610532906001600160a01b031681565b6104ac6108c4366004615220565b611cf8565b6097546001600160a01b0316610532565b6104ac6108e8366004615207565b611d04565b61048d6108fb366004615207565b6101726020526000908152604090205460ff1681565b6104ac6101685481565b6104cd611d0f565b6104cd61093136600461532a565b611d39565b6104d7611dbb565b6104cd61094c36600461503e565b611dca565b6104ac61095f366004615207565b611e64565b6104ac61097236600461503e565b612009565b6104cd610985366004615220565b6120d5565b6104cd61099836600461538f565b6121bc565b6104cd6109ab366004615220565b6121c7565b6109df6109be366004615207565b6101676020526000908152604090208054600190910154600f9190910b9082565b60408051600f9390930b8352602083019190915201610499565b6104cd610a073660046153c6565b612360565b6104cd610a1a366004615207565b612392565b6104cd6123ef565b6104cd610a3536600461542e565b61242d565b6104d7610a48366004615207565b6127ca565b6104cd610a5b366004615220565b612860565b61058d610a6e366004615207565b61016460205260009081526040902080546001820154600290920154600f82810b93600160801b909304900b919084565b6104ac610aad36600461548e565b612a03565b6104ac610ac0366004615220565b612a25565b60c9546001600160a01b0316610532565b6104ac610ae4366004615207565b6101656020526000908152604090205481565b6104ac7fe48329057bfd03d55e49b547132e39cffd9c1820ad7b9d4c5307691425d15adf81565b6104ac610b2c366004615207565b612a31565b61048d610b3f3660046154ba565b612a5a565b6104cd610b52366004615220565b612aaa565b6104ac610b653660046154ed565b61016f60209081526000928352604080842090915290825290205481565b6104cd610b9136600461503e565b612b7b565b6104ac610ba4366004615207565b6000908152610167602052604090206001015490565b61015f54610532906001600160a01b031681565b6104cd610bdc366004615207565b612bec565b60006001600160e01b031982166380ac58cd60e01b1480610c1257506001600160e01b03198216635b5e139f60e01b145b80610c2d57506301ffc9a760e01b6001600160e01b03198316145b92915050565b610c3b612c4c565b6001600160a01b038116600090815260fb602052604090205460ff16610c7457604051632655e85f60e01b815260040160405180910390fd5b6040516001600160a01b038216907f5d9d5034656cb3ebfb0655057cd7f9b4077a9b42ff42ce223cbac5bc586d212690600090a26001600160a01b0316600090815260fb60205260409020805460ff19169055565b606060658054610cd890615522565b80601f0160208091040260200160405190810160405280929190818152602001828054610d0490615522565b8015610d515780601f10610d2657610100808354040283529160200191610d51565b820191906000526020600020905b815481529060010190602001808311610d3457829003601f168201915b5050505050905090565b6001600160a01b0382166000908152610170602052604081205463ffffffff16808203610d8c576000915050610c2d565b6001600160a01b038416600090815261016f602052604081208491610db260018561556c565b63ffffffff16815260208101919091526040016000205411610de157610dd960018261556c565b915050610c2d565b6001600160a01b038416600090815261016f60209081526040808320838052909152902054831015610e17576000915050610c2d565b600080610e2560018461556c565b90505b8163ffffffff168163ffffffff161115610ec75760006002610e4a848461556c565b610e54919061559f565b610e5e908361556c565b6001600160a01b038816600090815261016f6020908152604080832063ffffffff851684529091529020805491925090879003610ea157509350610c2d92505050565b8054871115610eb257819350610ec0565b610ebd60018361556c565b92505b5050610e28565b50949350505050565b600054610100900460ff1615808015610ef05750600054600160ff909116105b80610f0a5750303b158015610f0a575060005460ff166001145b610f725760405162461bcd60e51b815260206004820152602e60248201527f496e697469616c697a61626c653a20636f6e747261637420697320616c72656160448201526d191e481a5b9a5d1a585b1a5e995960921b60648201526084015b60405180910390fd5b6000805460ff191660011790558015610f95576000805461ff0019166101001790555b610f9d612ca6565b610fa5612cd5565b610fad612cd5565b610fb78484612d04565b610fbf612d35565b610fc833612d64565b46606114610fd85761a4b1610fdb565b60615b6001600160801b0316610163556001600160a01b0382166110275760405162461bcd60e51b815260206004820152600660248201526510ba37b5b2b760d11b6044820152606401610f69565b61015f80546001600160a01b0384166001600160a01b031991821617909155610160805482163390811790915561016180549092161790556000808052610164602052437f982a45c0d657ffdc04d7f0ba3fddd3312473ad5e129c54434a0935688d2bb23355427f982a45c0d657ffdc04d7f0ba3fddd3312473ad5e129c54434a0935688d2bb232556101625460405190913091600080516020615bd4833981519152908290a4610162546040516000903090600080516020615bd4833981519152908390a48015611133576000805461ff0019169055604051600181527f7f26b83ff96e1f2b6a682f133852f6798a09c465da95921460cefb38474024989060200160405180910390a15b50505050565b600061114482612d7d565b506000908152606960205260409020546001600160a01b031690565b610161546001600160a01b031633146111a35760405162461bcd60e51b8152602060048201526005602482015264217465616d60d81b6044820152606401610f69565b61016180546001600160a01b0319166001600160a01b0392909216919091179055565b60006111d182611b03565b9050806001600160a01b0316836001600160a01b03160361123e5760405162461bcd60e51b815260206004820152602160248201527f4552433732313a20617070726f76616c20746f2063757272656e74206f776e656044820152603960f91b6064820152608401610f69565b336001600160a01b038216148061125a575061125a8133612a5a565b6112cc5760405162461bcd60e51b815260206004820152603d60248201527f4552433732313a20617070726f76652063616c6c6572206973206e6f7420746f60448201527f6b656e206f776e6572206f7220617070726f76656420666f7220616c6c0000006064820152608401610f69565b6112d68383612ddc565b505050565b61016660205281600052604060002081633b9aca0081106112fb57600080fd5b6003020180546001820154600290920154600f82810b9550600160801b90920490910b925084565b61132b612c4c565b61015f80546001600160a01b0319166001600160a01b0392909216919091179055565b600061135942611c0b565b905090565b60008281526101666020526040812082633b9aca008110611381576113816155c2565b6003020160010154905092915050565b61139b3382612e4a565b6113b75760405162461bcd60e51b8152600401610f69906155d8565b6112d6838383612ea8565b6113ca612f28565b61016354461461140d5760405162461bcd60e51b815260206004820152600e60248201526d1ddc9bdb99c818da185a5b881a5960921b6044820152606401610f69565b6114173382612e4a565b61142357611423615625565b6000818152610172602052604090205460ff16156114535760405162461bcd60e51b8152600401610f699061563b565b6000818152610167602090815260409182902082518084019093528054600f0b8352600101549082018190524210156114c75760405162461bcd60e51b8152602060048201526016602482015275546865206c6f636b206469646e27742065787069726560501b6044820152606401610f69565b805161016a54600f9190910b906114de828261565b565b61016a556114eb84612f83565b506114f58461302e565b61015f5460405163a9059cbb60e01b8152336004820152602481018490526001600160a01b039091169063a9059cbb906044016020604051808303816000875af1158015611547573d6000803e3d6000fd5b505050506040513d601f19601f8201168201806040525081019061156b919061566e565b61157757611577615625565b60408051858152602081018490524281830152905133917f02f25270a4d87bea75db541cdfe559334a275b4a233520ed6c0a2429667cca94919081900360600190a27f5e2aa66efd74cce82b21852e317e5490d9ecc9e6bb953ae24d90851258cc2f5c816115e5848261565b565b6040805192835260208301919091520160405180910390a150505061160b600161012d55565b50565b60008061161b8484610d5b565b6001600160a01b038516600090815261016f6020908152604080832063ffffffff851684529091528120919250600190910190805b82548110156116a457600083828154811061166d5761166d6155c2565b9060005260206000200154905061168481886130e3565b61168e908461568b565b925050808061169c9061569e565b915050611650565b5095945050505050565b6112d683838360405180602001604052806000815250612360565b33600090815260fb602052604090205460609060ff166116fc576040516378f18ee960e11b815260040160405180910390fd5b61170582612f83565b90506117108261302e565b7f5747a69bb6c2c54b5c628298d364a5cc5066b4db09369ad6a2cfca362f0a023f82826040516117419291906156b7565b60405180910390a1919050565b600061175a8383612e4a565b9392505050565b60008181526101656020908152604080832054610166909252822081633b9aca008110611790576117906155c2565b6003020154600160801b9004600f0b9392505050565b610161546001600160a01b031633146117e95760405162461bcd60e51b8152602060048201526005602482015264217465616d60d81b6044820152606401610f69565b61016080546001600160a01b0319166001600160a01b0392909216919091179055565b60008251116118565760405162461bcd60e51b81526020600482015260166024820152751e995c9bc81b195b88185b5bdd5b9d1cc81a5b9c1d5d60521b6044820152606401610f69565b6000818152610172602052604090205460ff16156118865760405162461bcd60e51b8152600401610f699061563b565b6118903382612e4a565b6118dc5760405162461bcd60e51b815260206004820152601960248201527f2173656e64657220617070726f766564206f72206f776e6572000000000000006044820152606401610f69565b60008181526067602090815260408083205461016783529281902081518083019092528054600f0b8083526001909101549282018390526001600160a01b03909316929091908061193f5760405162461bcd60e51b8152600401610f69906156d0565b8061016a5461194e919061565b565b61016a556000805b875182101561199857878281518110611971576119716155c2565b602002602001015181611984919061568b565b9050816119908161569e565b925050611956565b6119a187612f83565b506119ab8761302e565b834281116119cb5760405162461bcd60e51b8152600401610f69906156ef565b6119d96301dfe2004261568b565b8111156119f85760405162461bcd60e51b8152600401610f6990615735565b60008093505b8951841015611aab5761016260008154611a179061569e565b90915550610162549850611a2b888a6131c0565b828a8581518110611a3e57611a3e6155c2565b602002602001015186611a51919061576c565b611a5b9190615783565b60008a8152610167602090815260409182902082518084019093528054600f0b83526001015490820152909150611a99908a908390859060056131f8565b83611aa38161569e565b9450506119fe565b50505050505050505050565b6001600160a01b03808216600090815261016e60205260408120549091168015611ae1578061175a565b5090919050565b6001600160a01b038116611af95750335b61160b3382613446565b6000818152606760205260408120546001600160a01b031680610c2d5760405162461bcd60e51b8152602060048201526018602482015277115490cdcc8c4e881a5b9d985b1a59081d1bdad95b88125160421b6044820152606401610f69565b6000611b6d612f28565b611b788383336134c4565b9050610c2d600161012d55565b60006001600160a01b038216611bef5760405162461bcd60e51b815260206004820152602960248201527f4552433732313a2061646472657373207a65726f206973206e6f7420612076616044820152683634b21037bbb732b960b91b6064820152608401610f69565b506001600160a01b031660009081526068602052604090205490565b6101685460008181526101646020908152604080832081516080810183528154600f81810b8352600160801b909104900b93810193909352600181015491830191909152600201546060820152909190611c6581856135c1565b949350505050565b611c75612c4c565b611c7f6000612d64565b565b60c95433906001600160a01b03168114611cef5760405162461bcd60e51b815260206004820152602960248201527f4f776e61626c6532537465703a2063616c6c6572206973206e6f7420746865206044820152683732bb9037bbb732b960b91b6064820152608401610f69565b61160b81612d64565b600061175a83836136c3565b6000610c2d82611c0b565b611d17612c4c565b46606114611d275761a4b1611d2a565b60615b6001600160801b031661016355565b33600090815260fb602052604090205460ff16611d69576040516378f18ee960e11b815260040160405180910390fd5b611d7383836131c0565b611d7d82826139a2565b7fc8ffd8a5cadf5f377038eb6cb621455f9673dc07f502ac1580838d85f2df001a8282604051611dae9291906156b7565b60405180910390a1505050565b606060668054610cd890615522565b611dd2612c4c565b6001600160a01b038116600090815260fb602052604090205460ff1615611e0c5760405163f74c45bf60e01b815260040160405180910390fd5b6040516001600160a01b038216907f3cda433c5679ae4c6a5dea50840e222a42cba3695e4663de4366be899348422190600090a26001600160a01b0316600090815260fb60205260409020805460ff19166001179055565b600043821115611e7657611e76615625565b610168546000611e868483613a25565b60008181526101646020908152604080832081516080810183528154600f81810b8352600160801b909104900b9381019390935260018101549183019190915260020154606082015291925083831015611f9757600061016481611eeb86600161568b565b8152602080820192909252604090810160002081516080810183528154600f81810b8352600160801b909104900b9381019390935260018101549183019190915260020154606080830182905285015191925014611f915782606001518160600151611f57919061565b565b83604001518260400151611f6b919061565b565b6060850151611f7a908a61565b565b611f84919061576c565b611f8e9190615783565b91505b50611fe6565b43826060015114611fe6576060820151611fb1904361565b565b6040830151611fc0904261565b565b6060840151611fcf908961565b565b611fd9919061576c565b611fe39190615783565b90505b611fff82828460400151611ffa919061568b565b6135c1565b9695505050505050565b6001600160a01b0381166000908152610170602052604081205463ffffffff168082036120395750600092915050565b6001600160a01b038316600090815261016f602052604081208161205e60018561556c565b63ffffffff1663ffffffff16815260200190815260200160002060010190506000805b8254811015610ec757600083828154811061209e5761209e6155c2565b906000526020600020015490506120b581426130e3565b6120bf908461568b565b92505080806120cd9061569e565b915050612081565b6120dd612f28565b6120e73383612e4a565b6120f3576120f3615625565b6000828152610167602090815260409182902082518084019093528054600f0b835260010154908201528161212a5761212a615625565b60008160000151600f0b1361217a5760405162461bcd60e51b8152602060048201526016602482015275139bc8195e1a5cdd1a5b99c81b1bd8dac8199bdd5b9960521b6044820152606401610f69565b4281602001511161219d5760405162461bcd60e51b8152600401610f6990615797565b6121ac838360008460026131f8565b506121b8600161012d55565b5050565b6121b8338383613aac565b6121cf612f28565b6121d93383612e4a565b6121e5576121e5615625565b60008281526101676020908152604080832081518083019092528054600f0b82526001015491810191909152906212750080612221854261568b565b61222b9190615783565b612235919061576c565b9050428260200151116122795760405162461bcd60e51b815260206004820152600c60248201526b131bd8dac8195e1c1a5c995960a21b6044820152606401610f69565b60008260000151600f0b136122c45760405162461bcd60e51b8152602060048201526011602482015270139bdd1a1a5b99c81a5cc81b1bd8dad959607a1b6044820152606401610f69565b816020015181116123175760405162461bcd60e51b815260206004820152601f60248201527f43616e206f6e6c7920696e637265617365206c6f636b206475726174696f6e006044820152606401610f69565b6123256301dfe2004261568b565b8111156123445760405162461bcd60e51b8152600401610f6990615735565b612353846000838560036131f8565b50506121b8600161012d55565b61236a3383612e4a565b6123865760405162461bcd60e51b8152600401610f69906155d8565b61113384848484613b7a565b610160546001600160a01b031633146123d65760405162461bcd60e51b815260206004820152600660248201526510bb37ba32b960d11b6044820152606401610f69565b600090815261017260205260409020805460ff19169055565b611c7f600060405180604001604052806000600f0b8152602001600081525060405180604001604052806000600f0b81526020016000815250613bad565b336001600160a01b0387160361246f5760405162461bcd60e51b815260206004820152600760248201526610b9b2b73232b960c91b6044820152606401610f69565b6001600160a01b0386166124b25760405162461bcd60e51b815260206004820152600a60248201526910bd32b9379030b2323960b11b6044820152606401610f69565b60007f8cad95687ba82c2ce50e74f7b754645e5117c3a5bec8151c0726d5857980a8666124dd610cc9565b805160209182012060408051808201825260058152640312e302e360dc1b90840152805180840194909452838101919091527f06c015bd22b4c69690933c1058878ebdfef31f9aaae40bbe86d8a09fe1b2972c60608401524660808401523060a0808501919091528151808503909101815260c0840182528051908301207fe48329057bfd03d55e49b547132e39cffd9c1820ad7b9d4c5307691425d15adf60e08501526001600160a01b038b1661010085015261012084018a90526101408085018a90528251808603909101815261016085019092528151919092012061190160f01b61018084015261018283018290526101a28301819052909250906000906101c20160408051601f198184030181528282528051602091820120600080855291840180845281905260ff8a169284019290925260608301889052608083018790529092509060019060a0016020604051602081039080840390855afa15801561264d573d6000803e3d6000fd5b5050604051601f1901519150506001600160a01b0381166126c75760405162461bcd60e51b815260206004820152602e60248201527f566f74696e67457363726f773a3a64656c656761746542795369673a20696e7660448201526d616c6964207369676e617475726560901b6064820152608401610f69565b6001600160a01b0381166000908152610171602052604081208054916126ec8361569e565b9190505589146127515760405162461bcd60e51b815260206004820152602a60248201527f566f74696e67457363726f773a3a64656c656761746542795369673a20696e76604482015269616c6964206e6f6e636560b01b6064820152608401610f69565b874211156127b85760405162461bcd60e51b815260206004820152602e60248201527f566f74696e67457363726f773a3a64656c656761746542795369673a2073696760448201526d1b985d1d5c9948195e1c1a5c995960921b6064820152608401610f69565b611aab818b613446565b505050505050565b6000818152606760205260409020546060906001600160a01b03166128315760405162461bcd60e51b815260206004820152601b60248201527f517565727920666f72206e6f6e6578697374656e7420746f6b656e00000000006044820152606401610f69565b6000918252610167602090815260409283902083518085019094528054600f0b84526001015492019190915290565b6000828152610172602052604090205460ff16156128905760405162461bcd60e51b8152600401610f699061563b565b8082036128cb5760405162461bcd60e51b81526020600482015260096024820152682166726f6d3d3d746f60b81b6044820152606401610f69565b6128d53383612e4a565b6129215760405162461bcd60e51b815260206004820152601760248201527f2166726f6d20617070726f766564206f72206f776e65720000000000000000006044820152606401610f69565b61292b3382612e4a565b61296f5760405162461bcd60e51b815260206004820152601560248201527410ba379030b8383937bb32b21037b91037bbb732b960591b6044820152606401610f69565b600082815261016760208181526040808420815180830183528154600f90810b825260019283015482860190815288885295855283872084518086019095528054820b855290920154938301849052805194519095929490910b9211156129da5782602001516129e0565b83602001515b90506129eb86612f83565b506129f58661302e565b6127c28583838660046131f8565b6000612a0d612f28565b612a188484846134c4565b905061175a600161012d55565b600061175a83836130e3565b600081815261016b6020526040812054439003612a5057506000919050565b610c2d82426130e3565b6001600160a01b038116600090815260fb602052604081205460ff168061175a57506001600160a01b038084166000908152606a602090815260408083209386168352929052205460ff1661175a565b612ab2612f28565b6000828152610167602090815260409182902082518084019093528054600f0b8352600101549082015281612af95760405162461bcd60e51b8152600401610f69906156d0565b60008160000151600f0b13612b495760405162461bcd60e51b8152602060048201526016602482015275139bc8195e1a5cdd1a5b99c81b1bd8dac8199bdd5b9960521b6044820152606401610f69565b42816020015111612b6c5760405162461bcd60e51b8152600401610f6990615797565b6121ac838360008460006131f8565b612b83612c4c565b60c980546001600160a01b0383166001600160a01b03199091168117909155612bb46097546001600160a01b031690565b6001600160a01b03167f38d16b8cac22d99fc7c124b9cd0de2d3fa1faef420bfe791d8c362d765e2270060405160405180910390a350565b610160546001600160a01b03163314612c305760405162461bcd60e51b815260206004820152600660248201526510bb37ba32b960d11b6044820152606401610f69565b600090815261017260205260409020805460ff19166001179055565b6097546001600160a01b03163314611c7f5760405162461bcd60e51b815260206004820181905260248201527f4f776e61626c653a2063616c6c6572206973206e6f7420746865206f776e65726044820152606401610f69565b600054610100900460ff16612ccd5760405162461bcd60e51b8152600401610f69906157db565b611c7f6141d6565b600054610100900460ff16612cfc5760405162461bcd60e51b8152600401610f69906157db565b611c7f6141fd565b600054610100900460ff16612d2b5760405162461bcd60e51b8152600401610f69906157db565b6121b8828261422d565b600054610100900460ff16612d5c5760405162461bcd60e51b8152600401610f69906157db565b611c7f61426d565b60c980546001600160a01b031916905561160b81614294565b6000818152606760205260409020546001600160a01b031661160b5760405162461bcd60e51b8152602060048201526018602482015277115490cdcc8c4e881a5b9d985b1a59081d1bdad95b88125160421b6044820152606401610f69565b600081815260696020526040902080546001600160a01b0319166001600160a01b0384169081179091558190612e1182611b03565b6001600160a01b03167f8c5be1e5ebec7d5bd14f71427d1e84f3dd0314c0f7b2291e5b200ac8c7c3b92560405160405180910390a45050565b600080612e5683611b03565b9050806001600160a01b0316846001600160a01b03161480612e7d5750612e7d8185612a5a565b80611c655750836001600160a01b0316612e9684611139565b6001600160a01b031614949350505050565b6000818152610172602052604090205460ff1615612ed85760405162461bcd60e51b8152600401610f699061563b565b612ee283826142e6565b612efd612eee84611ab7565b612ef784611ab7565b8361439c565b612f078282614708565b612f1283838361474e565b600090815261016b602052604090204390555050565b600261012d5403612f7b5760405162461bcd60e51b815260206004820152601f60248201527f5265656e7472616e637947756172643a207265656e7472616e742063616c6c006044820152606401610f69565b600261012d55565b60008181526101676020818152604080842080546001820180548451600f84900b81880181905281870183905286518083038801815260a08301885260608301918252608090920192909252855180870187528981528088018a81528b8b52988852516001600160801b03166001600160801b031990941693909317909355945190945581518083019092528482529181019390935290916130289084908390613bad565b50919050565b6130383382612e4a565b6130795760405162461bcd60e51b8152602060048201526012602482015271085bdddb995c881bdc88185c1c1c9bdd995960721b6044820152606401610f69565b600061308482611b03565b90506130916000836111c6565b6130a561309d82611ab7565b60008461439c565b6130af81836142e6565b6000828152606760205260409020546130d2906001600160a01b03166000613446565b6121b8826148a0565b600161012d55565b60008281526101656020526040812054808203613104576000915050610c2d565b60008481526101666020526040812082633b9aca008110613127576131276155c2565b60408051608081018252600392909202929092018054600f81810b8452600160801b909104900b6020830152600181015492820183905260020154606082015291506131739085615826565b81602001516131829190615846565b81518290613191908390615866565b600f90810b90915282516000910b121590506131ac57600081525b51600f0b9150610c2d9050565b5092915050565b6001600160a01b0382166131d6576131d6615625565b6131e46000612ef784611ab7565b6131ee8282614708565b6121b88282614923565b61016354461461323b5760405162461bcd60e51b815260206004820152600e60248201526d1ddc9bdb99c818da185a5b881a5960921b6044820152606401610f69565b61016a54829061324b868261568b565b61016a556040805180820190915260008082526020820152825160208085015190830152600f0b8152825187908490613285908390615893565b600f0b905250851561329957602083018690525b600088815261016760209081526040909120845181546001600160801b0319166001600160801b03909116178155908401516001909101556132dc888285613bad565b3387158015906132fe575060048560058111156132fb576132fb6158c0565b14155b801561331c57506005856005811115613319576133196158c0565b14155b156133ab5761015f546040516323b872dd60e01b81526001600160a01b038381166004830152306024830152604482018b9052909116906323b872dd906064016020604051808303816000875af115801561337b573d6000803e3d6000fd5b505050506040513d601f19601f8201168201806040525081019061339f919061566e565b6133ab576133ab615625565b8360200151816001600160a01b03167fff04ccafc360e16b67d682d17bd9503c4c6b9a131f6be6325762dc9ffc7de6248b8b89426040516133ef94939291906158d6565b60405180910390a37f5e2aa66efd74cce82b21852e317e5490d9ecc9e6bb953ae24d90851258cc2f5c836134238a8261568b565b6040805192835260208301919091520160405180910390a1505050505050505050565b6101635446036121b857600061345b83611ab7565b6001600160a01b03848116600081815261016e602052604080822080546001600160a01b031916888616908117909155905194955093928516927f3134e8a2e6d97e929a7e54011ea5485d7d196dd5f0ba4d4ef95803e8e3fc257f9190a46112d6838284614a9c565b60008062127500806134d6864261568b565b6134e09190615783565b6134ea919061576c565b90506000851161350c5760405162461bcd60e51b8152600401610f69906156d0565b42811161352b5760405162461bcd60e51b8152600401610f69906156ef565b6135396301dfe2004261568b565b8111156135585760405162461bcd60e51b8152600401610f6990615735565b610162600081546135689061569e565b909155506101625461357a84826131c0565b6000818152610167602090815260409182902082518084019093528054600f0b8352600190810154918301919091526135b8918391899186916131f8565b95945050505050565b6000808390506000621275008083604001516135dd9190615783565b6135e7919061576c565b905060005b60ff81101561369b57613602621275008361568b565b91506000858311156136165785925061362b565b5060008281526101696020526040902054600f0b5b604084015161363a908461565b565b84602001516136499190615846565b84518590613658908390615866565b600f0b90525085830361366b575061369b565b808460200181815161367d9190615893565b600f0b90525050604083018290526136948161569e565b90506135ec565b5060008260000151600f0b12156136b157600082525b50516001600160801b03169392505050565b6000438211156136d5576136d5615625565b60008381526101656020526040812054815b608081101561377757818310156137775760006002613706848661568b565b61371190600161568b565b61371b9190615783565b600088815261016660205260409020909150869082633b9aca008110613743576137436155c2565b60030201600201541161375857809350613766565b61376360018261565b565b92505b506137708161569e565b90506136e7565b5060008581526101666020526040812083633b9aca00811061379b5761379b6155c2565b60408051608081018252600392909202929092018054600f81810b8452600160801b909104900b602083015260018101549282019290925260029091015460608201526101685490915060006137f18783613a25565b60008181526101646020908152604080832081516080810183528154600f81810b8352600160801b909104900b9381019390935260018101549183019190915260020154606082015291925080848410156138d25760006101648161385787600161568b565b8152602080820192909252604090810160002081516080810183528154600f81810b8352600160801b909104900b938101939093526001810154918301919091526002015460608083018290528601519192506138b4919061565b565b9250836040015181604001516138ca919061565b565b9150506138f6565b60608301516138e1904361565b565b91508260400151426138f3919061565b565b90505b60408301518215613933578284606001518c613912919061565b565b61391c908461576c565b6139269190615783565b613930908261568b565b90505b6040870151613942908261565b565b87602001516139519190615846565b87518890613960908390615866565b600f90810b90915288516000910b12905061399057505093516001600160801b03169650610c2d95505050505050565b60009950505050505050505050610c2d565b600080828060200190518101906139b99190615914565b604080518082018252600f84900b8152602080820184815260008a81526101678352848120845181546001600160801b0319166001600160801b0390911617815591516001909201919091558351808501909452808452908301529294509092506127c2868284613bad565b60008082815b6080811015613aa25781831015613aa25760006002613a4a848661568b565b613a5590600161568b565b613a5f9190615783565b600081815261016460205260409020600201549091508710613a8357809350613a91565b613a8e60018261565b565b92505b50613a9b8161569e565b9050613a2b565b5090949350505050565b816001600160a01b0316836001600160a01b031603613b0d5760405162461bcd60e51b815260206004820152601960248201527f4552433732313a20617070726f766520746f2063616c6c6572000000000000006044820152606401610f69565b6001600160a01b038381166000818152606a6020908152604080832094871680845294825291829020805460ff191686151590811790915591519182527f17307eab39ab6107e8899845ad3d59bd9653f200f220920489ca2b5937696c31910160405180910390a3505050565b613b85848484612ea8565b613b9184848484614e73565b6111335760405162461bcd60e51b8152600401610f6990615948565b6040805160808101825260008082526020820181905291810182905260608101919091526040805160808101825260008082526020820181905291810182905260608101919091526101685460009081908715613d1b57428760200151118015613c1e575060008760000151600f0b135b15613c63578651613c34906301dfe2009061599a565b600f0b602080870191909152870151613c4e90429061565b565b8560200151613c5d9190615846565b600f0b85525b428660200151118015613c7d575060008660000151600f0b135b15613cc2578551613c93906301dfe2009061599a565b600f0b602080860191909152860151613cad90429061565b565b8460200151613cbc9190615846565b600f0b84525b60208088015160009081526101698252604090205490870151600f9190910b935015613d1b578660200151866020015103613cff57829150613d1b565b60208087015160009081526101699091526040902054600f0b91505b604080516080810182526000808252602082015242918101919091524360608201528115613d9157506000818152610164602090815260409182902082516080810184528154600f81810b8352600160801b909104900b9281019290925260018101549282019290925260029091015460608201525b604081015181600042831015613dde576040840151613db0904261565b565b6060850151613dbf904361565b565b613dd190670de0b6b3a764000061576c565b613ddb9190615783565b90505b600062127500613dee8186615783565b613df8919061576c565b905060005b60ff811015613f7457613e13621275008361568b565b9150600042831115613e2757429250613e3c565b5060008281526101696020526040902054600f0b5b613e46868461565b565b8760200151613e559190615846565b87518890613e64908390615866565b600f0b905250602087018051829190613e7e908390615893565b600f90810b90915288516000910b12159050613e9957600087525b60008760200151600f0b1215613eb157600060208801525b60408088018490528501519295508592670de0b6b3a764000090613ed5908561565b565b613edf908661576c565b613ee99190615783565b8560600151613ef8919061568b565b6060880152613f0860018961568b565b9750428303613f1d5750436060870152613f74565b600088815261016460209081526040918290208951918a01516001600160801b03908116600160801b029216919091178155908801516001820155606088015160029091015550613f6d8161569e565b9050613dfd565b50506101688590558b156140005788602001518860200151613f969190615866565b84602001818151613fa79190615893565b600f0b90525088518851613fbb9190615866565b84518590613fca908390615893565b600f90810b90915260208601516000910b12159050613feb57600060208501525b60008460000151600f0b121561400057600084525b600085815261016460209081526040918290208651918701516001600160801b03908116600160801b02921691909117815590850151600182015560608501516002909101558b156141c857428b6020015111156140b95760208901516140679088615893565b96508a602001518a602001510361408a5760208801516140879088615866565b96505b60208b81015160009081526101699091526040902080546001600160801b0319166001600160801b0389161790555b428a602001511115614115578a602001518a6020015111156141155760208801516140e49087615866565b60208b81015160009081526101699091526040902080546001600160801b0319166001600160801b03831617905595505b60008c8152610165602052604081205461413090600161568b565b90508061016560008f81526020019081526020016000208190555042896040018181525050438960600181815250508861016660008f815260200190815260200160002082633b9aca008110614188576141886155c2565b825160208401516001600160801b03908116600160801b029116176003919091029190910190815560408201516001820155606090910151600290910155505b505050505050505050505050565b600054610100900460ff166130db5760405162461bcd60e51b8152600401610f69906157db565b600054610100900460ff166142245760405162461bcd60e51b8152600401610f69906157db565b611c7f33612d64565b600054610100900460ff166142545760405162461bcd60e51b8152600401610f69906157db565b60656142608382615a1e565b5060666112d68282615a1e565b600054610100900460ff16611c7f5760405162461bcd60e51b8152600401610f69906157db565b609780546001600160a01b038381166001600160a01b0319831681179093556040519116919082907f8be0079c531659141344cd1fd0a4f28419497f9722a3daafe3b4186f6b6457e090600090a35050565b600060016142f384611b85565b6142fd919061565b565b600083815261016d602052604090205490915080820361434f576001600160a01b038416600090815261016c60209081526040808320858452825280832083905585835261016d909152812055611133565b6001600160a01b0393909316600090815261016c602090815260408083209383529281528282208054868452848420819055835261016d9091528282209490945592839055908252812055565b816001600160a01b0316836001600160a01b0316141580156143be5750600081115b156112d6576001600160a01b03831615614544576001600160a01b0383166000908152610170602052604081205463ffffffff169081614424576001600160a01b038516600090815261016f602090815260408083208380529091529020600101614467565b6001600160a01b038516600090815261016f602052604081209061444960018561556c565b63ffffffff1663ffffffff1681526020019081526020016000206001015b9050600061447486614f74565b6001600160a01b038716600090815261016f6020908152604080832063ffffffff8516845290915281209192506001909101905b83548110156145025760008482815481106144c5576144c56155c2565b906000526020600020015490508681146144ef578254600181018455600084815260209020018190555b50806144fa8161569e565b9150506144a8565b5061450e846001615ade565b6001600160a01b038816600090815261017060205260409020805463ffffffff191663ffffffff92909216919091179055505050505b6001600160a01b038216156112d6576001600160a01b0382166000908152610170602052604081205463ffffffff1690816145a5576001600160a01b038416600090815261016f6020908152604080832083805290915290206001016145e8565b6001600160a01b038416600090815261016f60205260408120906145ca60018561556c565b63ffffffff1663ffffffff1681526020019081526020016000206001015b905060006145f585614f74565b6001600160a01b038616600090815261016f6020908152604080832063ffffffff851684529091529020835491925060019081019161040091614638919061568b565b11156146565760405162461bcd60e51b8152600401610f6990615afb565b60005b83548110156146a8576000848281548110614676576146766155c2565b6000918252602080832090910154855460018101875586845291909220015550806146a08161569e565b915050614659565b508054600181810183556000838152602090209091018690556146cc908590615ade565b6001600160a01b038716600090815261017060205260409020805463ffffffff9290921663ffffffff1990921691909117905550505050505050565b600061471383611b85565b6001600160a01b03909316600090815261016c60209081526040808320868452825280832085905593825261016d9052919091209190915550565b826001600160a01b031661476182611b03565b6001600160a01b0316146147875760405162461bcd60e51b8152600401610f6990615b3e565b6001600160a01b0382166147e95760405162461bcd60e51b8152602060048201526024808201527f4552433732313a207472616e7366657220746f20746865207a65726f206164646044820152637265737360e01b6064820152608401610f69565b826001600160a01b03166147fc82611b03565b6001600160a01b0316146148225760405162461bcd60e51b8152600401610f6990615b3e565b600081815260696020908152604080832080546001600160a01b03199081169091556001600160a01b038781168086526068855283862080546000190190559087168086528386208054600101905586865260679094528285208054909216841790915590518493600080516020615bd483398151915291a4505050565b60006148ab82611b03565b90506148b682611b03565b600083815260696020908152604080832080546001600160a01b03199081169091556001600160a01b038516808552606884528285208054600019019055878552606790935281842080549091169055519293508492600080516020615bd4833981519152908390a45050565b6001600160a01b0382166149795760405162461bcd60e51b815260206004820181905260248201527f4552433732313a206d696e7420746f20746865207a65726f20616464726573736044820152606401610f69565b6000818152606760205260409020546001600160a01b0316156149de5760405162461bcd60e51b815260206004820152601c60248201527f4552433732313a20746f6b656e20616c7265616479206d696e746564000000006044820152606401610f69565b6000818152606760205260409020546001600160a01b031615614a435760405162461bcd60e51b815260206004820152601c60248201527f4552433732313a20746f6b656e20616c7265616479206d696e746564000000006044820152606401610f69565b6001600160a01b038216600081815260686020908152604080832080546001019055848352606790915280822080546001600160a01b031916841790555183929190600080516020615bd4833981519152908290a45050565b806001600160a01b0316826001600160a01b0316146112d6576001600160a01b03821615614c66576001600160a01b0382166000908152610170602052604081205463ffffffff169081614b16576001600160a01b038416600090815261016f602090815260408083208380529091529020600101614b59565b6001600160a01b038416600090815261016f6020526040812090614b3b60018561556c565b63ffffffff1663ffffffff1681526020019081526020016000206001015b90506000614b6685614f74565b6001600160a01b038616600090815261016f6020908152604080832063ffffffff8516845290915281209192506001909101905b8354811015614c24576000848281548110614bb757614bb76155c2565b90600052602060002001549050886001600160a01b0316614bed826000908152606760205260409020546001600160a01b031690565b6001600160a01b031614614c11578254600181018455600084815260209020018190555b5080614c1c8161569e565b915050614b9a565b50614c30846001615ade565b6001600160a01b038716600090815261017060205260409020805463ffffffff191663ffffffff92909216919091179055505050505b6001600160a01b038116156112d6576001600160a01b0381166000908152610170602052604081205463ffffffff169081614cc7576001600160a01b038316600090815261016f602090815260408083208380529091529020600101614d0a565b6001600160a01b038316600090815261016f6020526040812090614cec60018561556c565b63ffffffff1663ffffffff1681526020019081526020016000206001015b90506000614d1784614f74565b6001600160a01b038516600090815261016f6020908152604080832063ffffffff851684529091528120919250600190910190614d5388611b85565b845490915061040090614d6790839061568b565b1115614d855760405162461bcd60e51b8152600401610f6990615afb565b60005b8454811015614dd7576000858281548110614da557614da56155c2565b600091825260208083209091015486546001810188558784529190922001555080614dcf8161569e565b915050614d88565b5060005b81811015614e2a576001600160a01b038916600090815261016c602090815260408083208484528252822054855460018101875586845291909220015580614e228161569e565b915050614ddb565b50614e36856001615ade565b6001600160a01b038716600090815261017060205260409020805463ffffffff9290921663ffffffff199092169190911790555050505050505050565b60006001600160a01b0384163b15614f6957604051630a85bd0160e11b81526001600160a01b0385169063150b7a0290614eb7903390899088908890600401615b83565b6020604051808303816000875af1925050508015614ef2575060408051601f3d908101601f19168201909252614eef91810190615bb6565b60015b614f4f573d808015614f20576040519150601f19603f3d011682016040523d82523d6000602084013e614f25565b606091505b508051600003614f475760405162461bcd60e51b8152600401610f6990615948565b805181602001fd5b6001600160e01b031916630a85bd0160e11b149050611c65565b506001949350505050565b6001600160a01b03811660009081526101706020526040812054429063ffffffff168015801590614fdf57506001600160a01b038416600090815261016f602052604081208391614fc660018561556c565b63ffffffff168152602081019190915260400160002054145b1561175a57611c6560018261556c565b6001600160e01b03198116811461160b57600080fd5b60006020828403121561501757600080fd5b813561175a81614fef565b80356001600160a01b038116811461503957600080fd5b919050565b60006020828403121561505057600080fd5b61175a82615022565b6000815180845260005b8181101561507f57602081850181015186830182015201615063565b506000602082860101526020601f19601f83011685010191505092915050565b60208152600061175a6020830184615059565b600080604083850312156150c557600080fd5b6150ce83615022565b946020939093013593505050565b634e487b7160e01b600052604160045260246000fd5b604051601f8201601f1916810167ffffffffffffffff8111828210171561511b5761511b6150dc565b604052919050565b600082601f83011261513457600080fd5b813567ffffffffffffffff81111561514e5761514e6150dc565b615161601f8201601f19166020016150f2565b81815284602083860101111561517657600080fd5b816020850160208301376000918101602001919091529392505050565b6000806000606084860312156151a857600080fd5b833567ffffffffffffffff808211156151c057600080fd5b6151cc87838801615123565b945060208601359150808211156151e257600080fd5b506151ef86828701615123565b9250506151fe60408501615022565b90509250925092565b60006020828403121561521957600080fd5b5035919050565b6000806040838503121561523357600080fd5b50508035926020909101359150565b60008060006060848603121561525757600080fd5b61526084615022565b925061526e60208501615022565b9150604084013590509250925092565b6000806040838503121561529157600080fd5b823567ffffffffffffffff808211156152a957600080fd5b818501915085601f8301126152bd57600080fd5b81356020828211156152d1576152d16150dc565b8160051b92506152e28184016150f2565b82815292840181019281810190898511156152fc57600080fd5b948201945b8486101561531a57853582529482019490820190615301565b9997909101359750505050505050565b60008060006060848603121561533f57600080fd5b61534884615022565b925060208401359150604084013567ffffffffffffffff81111561536b57600080fd5b61537786828701615123565b9150509250925092565b801515811461160b57600080fd5b600080604083850312156153a257600080fd5b6153ab83615022565b915060208301356153bb81615381565b809150509250929050565b600080600080608085870312156153dc57600080fd5b6153e585615022565b93506153f360208601615022565b925060408501359150606085013567ffffffffffffffff81111561541657600080fd5b61542287828801615123565b91505092959194509250565b60008060008060008060c0878903121561544757600080fd5b61545087615022565b95506020870135945060408701359350606087013560ff8116811461547457600080fd5b9598949750929560808101359460a0909101359350915050565b6000806000606084860312156154a357600080fd5b83359250602084013591506151fe60408501615022565b600080604083850312156154cd57600080fd5b6154d683615022565b91506154e460208401615022565b90509250929050565b6000806040838503121561550057600080fd5b61550983615022565b9150602083013563ffffffff811681146153bb57600080fd5b600181811c9082168061553657607f821691505b60208210810361302857634e487b7160e01b600052602260045260246000fd5b634e487b7160e01b600052601160045260246000fd5b63ffffffff8281168282160390808211156131b9576131b9615556565b634e487b7160e01b600052601260045260246000fd5b600063ffffffff808416806155b6576155b6615589565b92169190910492915050565b634e487b7160e01b600052603260045260246000fd5b6020808252602d908201527f4552433732313a2063616c6c6572206973206e6f7420746f6b656e206f776e6560408201526c1c881bdc88185c1c1c9bdd9959609a1b606082015260800190565b634e487b7160e01b600052600160045260246000fd5b602080825260069082015265085d9bdd195960d21b604082015260600190565b81810381811115610c2d57610c2d615556565b60006020828403121561568057600080fd5b815161175a81615381565b80820180821115610c2d57610c2d615556565b6000600182016156b0576156b0615556565b5060010190565b828152604060208201526000611c656040830184615059565b602080825260059082015264217a65726f60d81b604082015260600190565b60208082526026908201527f43616e206f6e6c79206c6f636b20756e74696c2074696d6520696e207468652060408201526566757475726560d01b606082015260800190565b6020808252601e908201527f566f74696e67206c6f636b2063616e2062652031207965617273206d61780000604082015260600190565b8082028115828204841417610c2d57610c2d615556565b60008261579257615792615589565b500490565b60208082526024908201527f43616e6e6f742061646420746f2065787069726564206c6f636b2e20576974686040820152636472617760e01b606082015260800190565b6020808252602b908201527f496e697469616c697a61626c653a20636f6e7472616374206973206e6f74206960408201526a6e697469616c697a696e6760a81b606082015260800190565b81810360008312801583831316838312821617156131b9576131b9615556565b600082600f0b82600f0b0280600f0b91508082146131b9576131b9615556565b600f82810b9082900b0360016001607f1b0319811260016001607f1b0382131715610c2d57610c2d615556565b600f81810b9083900b0160016001607f1b03811360016001607f1b031982121715610c2d57610c2d615556565b634e487b7160e01b600052602160045260246000fd5b84815260208101849052608081016006841061590257634e487b7160e01b600052602160045260246000fd5b60408201939093526060015292915050565b6000806040838503121561592757600080fd5b825180600f0b811461593857600080fd5b6020939093015192949293505050565b60208082526032908201527f4552433732313a207472616e7366657220746f206e6f6e20455243373231526560408201527131b2b4bb32b91034b6b83632b6b2b73a32b960711b606082015260800190565b600081600f0b83600f0b806159b1576159b1615589565b60016001607f1b03198214600019821416156159cf576159cf615556565b90059392505050565b601f8211156112d657600081815260208120601f850160051c810160208610156159ff5750805b601f850160051c820191505b818110156127c257828155600101615a0b565b815167ffffffffffffffff811115615a3857615a386150dc565b615a4c81615a468454615522565b846159d8565b602080601f831160018114615a815760008415615a695750858301515b600019600386901b1c1916600185901b1785556127c2565b600085815260208120601f198616915b82811015615ab057888601518255948401946001909101908401615a91565b5085821015615ace5787850151600019600388901b60f8161c191681555b5050505050600190811b01905550565b63ffffffff8181168382160190808211156131b9576131b9615556565b60208082526023908201527f64737452657020776f756c64206861766520746f6f206d616e7920746f6b656e60408201526249647360e81b606082015260800190565b60208082526025908201527f4552433732313a207472616e736665722066726f6d20696e636f72726563742060408201526437bbb732b960d91b606082015260800190565b6001600160a01b0385811682528416602082015260408101839052608060608201819052600090611fff90830184615059565b600060208284031215615bc857600080fd5b815161175a81614fef56feddf252ad1be2c89b69c2b068fc378daa952ba7f163c4a11628f55a4df523b3efa164736f6c6343000813000a",
    "linkReferences": {}
  },
  "methodIdentifiers": {
    "ARBITRUM_ONE()": "2168ca0f",
    "DELEGATION_TYPEHASH()": "e7a324dc",
    "DOMAIN_TYPEHASH()": "20606b70",
    "MAX_DELEGATES()": "5f5b0c32",
    "abstain(uint256)": "c1f0fb9f",
    "acceptOwnership()": "79ba5097",
    "addBridge(address)": "9712fdf8",
    "approve(address,uint256)": "095ea7b3",
    "balanceOf(address)": "70a08231",
    "balanceOfAtNFT(uint256,uint256)": "8c2c9baf",
    "balanceOfNFT(uint256)": "e7e242d4",
    "balanceOfNFTAt(uint256,uint256)": "e0514aba",
    "block_number()": "25a58b56",
    "burn(uint256)": "42966c68",
    "checkpoint()": "c2c4c5c1",
    "checkpoints(address,uint32)": "f1127ed8",
    "create_lock(uint256,uint256)": "65fc3873",
    "create_lock_for(uint256,uint256,address)": "d4e54c3b",
    "delegate(address)": "5c19a95c",
    "delegateBySig(address,uint256,uint256,uint8,bytes32,bytes32)": "c3cda520",
    "delegates(address)": "587cde1e",
    "deposit_for(uint256,uint256)": "ee99fe28",
    "epoch()": "900cf0cf",
    "getApproved(uint256)": "081812fc",
    "getPastTotalSupply(uint256)": "8e539e8c",
    "getPastVotes(address,uint256)": "3a46b1a8",
    "getPastVotesIndex(address,uint256)": "0758c7d8",
    "getVotes(address)": "9ab24eb0",
    "get_last_user_slope(uint256)": "461f711c",
    "increase_amount(uint256,uint256)": "a183af52",
    "increase_unlock_time(uint256,uint256)": "a4d855df",
    "initialize(string,string,address)": "077f224a",
    "isApprovedForAll(address,address)": "e985e9c5",
    "isApprovedOrOwner(address,uint256)": "430c2081",
    "isBridge(address)": "726600ce",
    "locked(uint256)": "b45a3c0e",
    "locked__end(uint256)": "f8a05763",
    "masterChainId()": "10c3cf06",
    "merge(uint256,uint256)": "d1c2babb",
    "mint(address,uint256,bytes)": "94d008ef",
    "name()": "06fdde03",
    "nonces(address)": "7ecebe00",
    "numCheckpoints(address)": "6fcfff45",
    "owner()": "8da5cb5b",
    "ownerOf(uint256)": "6352211e",
    "ownership_change(uint256)": "6f548837",
    "pendingOwner()": "e30c3978",
    "point_history(uint256)": "d1febfb9",
    "removeBridge(address)": "04df017d",
    "renounceOwnership()": "715018a6",
    "safeTransferFrom(address,address,uint256)": "42842e0e",
    "safeTransferFrom(address,address,uint256,bytes)": "b88d4fde",
    "setApprovalForAll(address,bool)": "a22cb465",
    "setMasterChain()": "901a251d",
    "setTeam(address)": "095cf5c6",
    "setToken(address)": "144fa6d7",
    "setVoter(address)": "4bc2a657",
    "slope_changes(uint256)": "71197484",
    "split(uint256[],uint256)": "56afe744",
    "supply()": "047fc9aa",
    "supportsInterface(bytes4)": "01ffc9a7",
    "symbol()": "95d89b41",
    "team()": "85f2aef2",
    "token()": "fc0c546a",
    "tokenOfOwnerByIndex(address,uint256)": "2f745c59",
    "tokenURI(uint256)": "c87b56dd",
    "totalSupply()": "18160ddd",
    "totalSupplyAt(uint256)": "981b24d0",
    "totalSupplyAtT(uint256)": "7116c60c",
    "transferFrom(address,address,uint256)": "23b872dd",
    "transferOwnership(address)": "f2fde38b",
    "user_point_epoch(uint256)": "e441135c",
    "user_point_history(uint256,uint256)": "1376f3da",
    "user_point_history__ts(uint256,uint256)": "1c984bc3",
    "version()": "54fd4d50",
    "voted(uint256)": "8fbb38ff",
    "voter()": "46c96aac",
    "voting(uint256)": "fd4a77f1",
    "withdraw(uint256)": "2e1a7d4d"
  }
}