{
  "address": "0x3B452E7A36812558C2A1a5F0d489C41Ec9374A05",
  "abi": [
    {
      "inputs": [
        {
          "internalType": "contract VoteEscrow",
          "name": "_ve",
          "type": "address"
        }
      ],
      "stateMutability": "nonpayable",
      "type": "constructor"
    },
    {
      "inputs": [
        {
          "internalType": "uint256",
          "name": "_tokenId",
          "type": "uint256"
        }
      ],
      "name": "burn",
      "outputs": [
        {
          "internalType": "bytes",
          "name": "_metadata",
          "type": "bytes"
        }
      ],
      "stateMutability": "nonpayable",
      "type": "function"
    },
    {
      "inputs": [
        {
          "internalType": "address",
          "name": "_to",
          "type": "address"
        },
        {
          "internalType": "uint256",
          "name": "_tokenId",
          "type": "uint256"
        },
        {
          "internalType": "bytes",
          "name": "_metadata",
          "type": "bytes"
        }
      ],
      "name": "mint",
      "outputs": [],
      "stateMutability": "nonpayable",
      "type": "function"
    },
    {
      "inputs": [],
      "name": "ve",
      "outputs": [
        {
          "internalType": "contract VoteEscrow",
          "name": "",
          "type": "address"
        }
      ],
      "stateMutability": "view",
      "type": "function"
    }
  ],
  "transactionHash": "0x026abf27481f1d555a16ac33385703b2c302e6fadc14208bdc5b94750cc242a3",
  "args": [
    "0x1A259641e9bd072caC79e5Fd08B9fcF4A186b97E"
  ],
  "numDeployments": 1,
  "bytecode": {
    "object": "0x608060405234801561001057600080fd5b5060405161046838038061046883398101604081905261002f91610054565b600080546001600160a01b0319166001600160a01b0392909216919091179055610084565b60006020828403121561006657600080fd5b81516001600160a01b038116811461007d57600080fd5b9392505050565b6103d5806100936000396000f3fe608060405234801561001057600080fd5b50600436106100415760003560e01c80631f8507161461004657806342966c681461007657806394d008ef14610096575b600080fd5b600054610059906001600160a01b031681565b6040516001600160a01b0390911681526020015b60405180910390f35b610089610084366004610190565b6100ab565b60405161006d91906101f9565b6100a96100a4366004610282565b610125565b005b600054604051630852cd8d60e31b8152600481018390526060916001600160a01b0316906342966c68906024016000604051808303816000875af11580156100f7573d6000803e3d6000fd5b505050506040513d6000823e601f3d908101601f1916820160405261011f919081019061032a565b92915050565b6000546040516394d008ef60e01b81526001600160a01b03909116906394d008ef90610159908690869086906004016103a1565b600060405180830381600087803b15801561017357600080fd5b505af1158015610187573d6000803e3d6000fd5b50505050505050565b6000602082840312156101a257600080fd5b5035919050565b60005b838110156101c45781810151838201526020016101ac565b50506000910152565b600081518084526101e58160208601602086016101a9565b601f01601f19169290920160200192915050565b60208152600061020c60208301846101cd565b9392505050565b634e487b7160e01b600052604160045260246000fd5b604051601f8201601f1916810167ffffffffffffffff8111828210171561025257610252610213565b604052919050565b600067ffffffffffffffff82111561027457610274610213565b50601f01601f191660200190565b60008060006060848603121561029757600080fd5b83356001600160a01b03811681146102ae57600080fd5b925060208401359150604084013567ffffffffffffffff8111156102d157600080fd5b8401601f810186136102e257600080fd5b80356102f56102f08261025a565b610229565b81815287602083850101111561030a57600080fd5b816020840160208301376000602083830101528093505050509250925092565b60006020828403121561033c57600080fd5b815167ffffffffffffffff81111561035357600080fd5b8201601f8101841361036457600080fd5b80516103726102f08261025a565b81815285602083850101111561038757600080fd5b6103988260208301602086016101a9565b95945050505050565b60018060a01b038416815282602082015260606040820152600061039860608301846101cd56fea164736f6c6343000813000a",
    "linkReferences": {}
  },
  "methodIdentifiers": {
    "burn(uint256)": "42966c68",
    "mint(address,uint256,bytes)": "94d008ef",
    "ve()": "1f850716"
  }
}