{
  "address": "0x6644E6D2e773fE4Bbf8400926924DedD87cd9177",
  "abi": [
    {
      "inputs": [],
      "stateMutability": "nonpayable",
      "type": "constructor"
    },
    {
      "inputs": [],
      "name": "XERC721__addBridge_alreadyAdded",
      "type": "error"
    },
    {
      "inputs": [],
      "name": "XERC721__onlyBridge_notBridge",
      "type": "error"
    },
    {
      "inputs": [],
      "name": "XERC721__removeBridge_alreadyRemoved",
      "type": "error"
    },
    {
      "anonymous": false,
      "inputs": [
        {
          "indexed": true,
          "internalType": "address",
          "name": "owner",
          "type": "address"
        },
        {
          "indexed": true,
          "internalType": "address",
          "name": "approved",
          "type": "address"
        },
        {
          "indexed": true,
          "internalType": "uint256",
          "name": "tokenId",
          "type": "uint256"
        }
      ],
      "name": "Approval",
      "type": "event"
    },
    {
      "anonymous": false,
      "inputs": [
        {
          "indexed": true,
          "internalType": "address",
          "name": "owner",
          "type": "address"
        },
        {
          "indexed": true,
          "internalType": "address",
          "name": "operator",
          "type": "address"
        },
        {
          "indexed": false,
          "internalType": "bool",
          "name": "approved",
          "type": "bool"
        }
      ],
      "name": "ApprovalForAll",
      "type": "event"
    },
    {
      "anonymous": false,
      "inputs": [
        {
          "indexed": true,
          "internalType": "address",
          "name": "bridge",
          "type": "address"
        }
      ],
      "name": "BridgeAdded",
      "type": "event"
    },
    {
      "anonymous": false,
      "inputs": [
        {
          "indexed": true,
          "internalType": "address",
          "name": "bridge",
          "type": "address"
        }
      ],
      "name": "BridgeRemoved",
      "type": "event"
    },
    {
      "anonymous": false,
      "inputs": [
        {
          "indexed": false,
          "internalType": "uint256",
          "name": "_tokenId",
          "type": "uint256"
        },
        {
          "indexed": false,
          "internalType": "bytes",
          "name": "_metadata",
          "type": "bytes"
        }
      ],
      "name": "BurnAsBridge",
      "type": "event"
    },
    {
      "anonymous": false,
      "inputs": [
        {
          "indexed": true,
          "internalType": "address",
          "name": "delegator",
          "type": "address"
        },
        {
          "indexed": true,
          "internalType": "address",
          "name": "fromDelegate",
          "type": "address"
        },
        {
          "indexed": true,
          "internalType": "address",
          "name": "toDelegate",
          "type": "address"
        }
      ],
      "name": "DelegateChanged",
      "type": "event"
    },
    {
      "anonymous": false,
      "inputs": [
        {
          "indexed": true,
          "internalType": "address",
          "name": "delegate",
          "type": "address"
        },
        {
          "indexed": false,
          "internalType": "uint256",
          "name": "previousBalance",
          "type": "uint256"
        },
        {
          "indexed": false,
          "internalType": "uint256",
          "name": "newBalance",
          "type": "uint256"
        }
      ],
      "name": "DelegateVotesChanged",
      "type": "event"
    },
    {
      "anonymous": false,
      "inputs": [
        {
          "indexed": true,
          "internalType": "address",
          "name": "provider",
          "type": "address"
        },
        {
          "indexed": false,
          "internalType": "uint256",
          "name": "tokenId",
          "type": "uint256"
        },
        {
          "indexed": false,
          "internalType": "uint256",
          "name": "value",
          "type": "uint256"
        },
        {
          "indexed": true,
          "internalType": "uint256",
          "name": "locktime",
          "type": "uint256"
        },
        {
          "indexed": false,
          "internalType": "enum VoteEscrow.DepositType",
          "name": "deposit_type",
          "type": "uint8"
        },
        {
          "indexed": false,
          "internalType": "uint256",
          "name": "ts",
          "type": "uint256"
        }
      ],
      "name": "Deposit",
      "type": "event"
    },
    {
      "anonymous": false,
      "inputs": [
        {
          "indexed": false,
          "internalType": "uint8",
          "name": "version",
          "type": "uint8"
        }
      ],
      "name": "Initialized",
      "type": "event"
    },
    {
      "anonymous": false,
      "inputs": [
        {
          "indexed": false,
          "internalType": "uint256",
          "name": "_tokenId",
          "type": "uint256"
        },
        {
          "indexed": false,
          "internalType": "bytes",
          "name": "_metadata",
          "type": "bytes"
        }
      ],
      "name": "MintAsBridge",
      "type": "event"
    },
    {
      "anonymous": false,
      "inputs": [
        {
          "indexed": true,
          "internalType": "address",
          "name": "previousOwner",
          "type": "address"
        },
        {
          "indexed": true,
          "internalType": "address",
          "name": "newOwner",
          "type": "address"
        }
      ],
      "name": "OwnershipTransferStarted",
      "type": "event"
    },
    {
      "anonymous": false,
      "inputs": [
        {
          "indexed": true,
          "internalType": "address",
          "name": "previousOwner",
          "type": "address"
        },
        {
          "indexed": true,
          "internalType": "address",
          "name": "newOwner",
          "type": "address"
        }
      ],
      "name": "OwnershipTransferred",
      "type": "event"
    },
    {
      "anonymous": false,
      "inputs": [
        {
          "indexed": false,
          "internalType": "uint256",
          "name": "prevSupply",
          "type": "uint256"
        },
        {
          "indexed": false,
          "internalType": "uint256",
          "name": "supply",
          "type": "uint256"
        }
      ],
      "name": "Supply",
      "type": "event"
    },
    {
      "anonymous": false,
      "inputs": [
        {
          "indexed": true,
          "internalType": "address",
          "name": "from",
          "type": "address"
        },
        {
          "indexed": true,
          "internalType": "address",
          "name": "to",
          "type": "address"
        },
        {
          "indexed": true,
          "internalType": "uint256",
          "name": "tokenId",
          "type": "uint256"
        }
      ],
      "name": "Transfer",
      "type": "event"
    },
    {
      "anonymous": false,
      "inputs": [
        {
          "indexed": true,
          "internalType": "address",
          "name": "provider",
          "type": "address"
        },
        {
          "indexed": false,
          "internalType": "uint256",
          "name": "tokenId",
          "type": "uint256"
        },
        {
          "indexed": false,
          "internalType": "uint256",
          "name": "value",
          "type": "uint256"
        },
        {
          "indexed": false,
          "internalType": "uint256",
          "name": "ts",
          "type": "uint256"
        }
      ],
      "name": "Withdraw",
      "type": "event"
    },
    {
      "inputs": [],
      "name": "ARBITRUM_ONE",
      "outputs": [
        {
          "internalType": "uint128",
          "name": "",
          "type": "uint128"
        }
      ],
      "stateMutability": "view",
      "type": "function"
    },
    {
      "inputs": [],
      "name": "DELEGATION_TYPEHASH",
      "outputs": [
        {
          "internalType": "bytes32",
          "name": "",
          "type": "bytes32"
        }
      ],
      "stateMutability": "view",
      "type": "function"
    },
    {
      "inputs": [],
      "name": "DOMAIN_TYPEHASH",
      "outputs": [
        {
          "internalType": "bytes32",
          "name": "",
          "type": "bytes32"
        }
      ],
      "stateMutability": "view",
      "type": "function"
    },
    {
      "inputs": [],
      "name": "MAX_DELEGATES",
      "outputs": [
        {
          "internalType": "uint256",
          "name": "",
          "type": "uint256"
        }
      ],
      "stateMutability": "view",
      "type": "function"
    },
    {
      "inputs": [
        {
          "internalType": "uint256",
          "name": "_tokenId",
          "type": "uint256"
        }
      ],
      "name": "abstain",
      "outputs": [],
      "stateMutability": "nonpayable",
      "type": "function"
    },
    {
      "inputs": [],
      "name": "acceptOwnership",
      "outputs": [],
      "stateMutability": "nonpayable",
      "type": "function"
    },
    {
      "inputs": [
        {
          "internalType": "address",
          "name": "_bridge",
          "type": "address"
        }
      ],
      "name": "addBridge",
      "outputs": [],
      "stateMutability": "nonpayable",
      "type": "function"
    },
    {
      "inputs": [
        {
          "internalType": "address",
          "name": "to",
          "type": "address"
        },
        {
          "internalType": "uint256",
          "name": "tokenId",
          "type": "uint256"
        }
      ],
      "name": "approve",
      "outputs": [],
      "stateMutability": "nonpayable",
      "type": "function"
    },
    {
      "inputs": [
        {
          "internalType": "address",
          "name": "owner",
          "type": "address"
        }
      ],
      "name": "balanceOf",
      "outputs": [
        {
          "internalType": "uint256",
          "name": "",
          "type": "uint256"
        }
      ],
      "stateMutability": "view",
      "type": "function"
    },
    {
      "inputs": [
        {
          "internalType": "uint256",
          "name": "_tokenId",
          "type": "uint256"
        },
        {
          "internalType": "uint256",
          "name": "_block",
          "type": "uint256"
        }
      ],
      "name": "balanceOfAtNFT",
      "outputs": [
        {
          "internalType": "uint256",
          "name": "",
          "type": "uint256"
        }
      ],
      "stateMutability": "view",
      "type": "function"
    },
    {
      "inputs": [
        {
          "internalType": "uint256",
          "name": "_tokenId",
          "type": "uint256"
        }
      ],
      "name": "balanceOfNFT",
      "outputs": [
        {
          "internalType": "uint256",
          "name": "",
          "type": "uint256"
        }
      ],
      "stateMutability": "view",
      "type": "function"
    },
    {
      "inputs": [
        {
          "internalType": "uint256",
          "name": "_tokenId",
          "type": "uint256"
        },
        {
          "internalType": "uint256",
          "name": "_t",
          "type": "uint256"
        }
      ],
      "name": "balanceOfNFTAt",
      "outputs": [
        {
          "internalType": "uint256",
          "name": "",
          "type": "uint256"
        }
      ],
      "stateMutability": "view",
      "type": "function"
    },
    {
      "inputs": [],
      "name": "block_number",
      "outputs": [
        {
          "internalType": "uint256",
          "name": "",
          "type": "uint256"
        }
      ],
      "stateMutability": "view",
      "type": "function"
    },
    {
      "inputs": [
        {
          "internalType": "uint256",
          "name": "_tokenId",
          "type": "uint256"
        }
      ],
      "name": "burn",
      "outputs": [
        {
          "internalType": "bytes",
          "name": "_metadata",
          "type": "bytes"
        }
      ],
      "stateMutability": "nonpayable",
      "type": "function"
    },
    {
      "inputs": [],
      "name": "checkpoint",
      "outputs": [],
      "stateMutability": "nonpayable",
      "type": "function"
    },
    {
      "inputs": [
        {
          "internalType": "address",
          "name": "",
          "type": "address"
        },
        {
          "internalType": "uint32",
          "name": "",
          "type": "uint32"
        }
      ],
      "name": "checkpoints",
      "outputs": [
        {
          "internalType": "uint256",
          "name": "timestamp",
          "type": "uint256"
        }
      ],
      "stateMutability": "view",
      "type": "function"
    },
    {
      "inputs": [
        {
          "internalType": "uint256",
          "name": "_value",
          "type": "uint256"
        },
        {
          "internalType": "uint256",
          "name": "_lock_duration",
          "type": "uint256"
        }
      ],
      "name": "create_lock",
      "outputs": [
        {
          "internalType": "uint256",
          "name": "",
          "type": "uint256"
        }
      ],
      "stateMutability": "nonpayable",
      "type": "function"
    },
    {
      "inputs": [
        {
          "internalType": "uint256",
          "name": "_value",
          "type": "uint256"
        },
        {
          "internalType": "uint256",
          "name": "_lock_duration",
          "type": "uint256"
        },
        {
          "internalType": "address",
          "name": "_to",
          "type": "address"
        }
      ],
      "name": "create_lock_for",
      "outputs": [
        {
          "internalType": "uint256",
          "name": "",
          "type": "uint256"
        }
      ],
      "stateMutability": "nonpayable",
      "type": "function"
    },
    {
      "inputs": [
        {
          "internalType": "address",
          "name": "delegatee",
          "type": "address"
        }
      ],
      "name": "delegate",
      "outputs": [],
      "stateMutability": "nonpayable",
      "type": "function"
    },
    {
      "inputs": [
        {
          "internalType": "address",
          "name": "delegatee",
          "type": "address"
        },
        {
          "internalType": "uint256",
          "name": "nonce",
          "type": "uint256"
        },
        {
          "internalType": "uint256",
          "name": "expiry",
          "type": "uint256"
        },
        {
          "internalType": "uint8",
          "name": "v",
          "type": "uint8"
        },
        {
          "internalType": "bytes32",
          "name": "r",
          "type": "bytes32"
        },
        {
          "internalType": "bytes32",
          "name": "s",
          "type": "bytes32"
        }
      ],
      "name": "delegateBySig",
      "outputs": [],
      "stateMutability": "nonpayable",
      "type": "function"
    },
    {
      "inputs": [
        {
          "internalType": "address",
          "name": "delegator",
          "type": "address"
        }
      ],
      "name": "delegates",
      "outputs": [
        {
          "internalType": "address",
          "name": "",
          "type": "address"
        }
      ],
      "stateMutability": "view",
      "type": "function"
    },
    {
      "inputs": [
        {
          "internalType": "uint256",
          "name": "_tokenId",
          "type": "uint256"
        },
        {
          "internalType": "uint256",
          "name": "_value",
          "type": "uint256"
        }
      ],
      "name": "deposit_for",
      "outputs": [],
      "stateMutability": "nonpayable",
      "type": "function"
    },
    {
      "inputs": [],
      "name": "epoch",
      "outputs": [
        {
          "internalType": "uint256",
          "name": "",
          "type": "uint256"
        }
      ],
      "stateMutability": "view",
      "type": "function"
    },
    {
      "inputs": [
        {
          "internalType": "uint256",
          "name": "tokenId",
          "type": "uint256"
        }
      ],
      "name": "getApproved",
      "outputs": [
        {
          "internalType": "address",
          "name": "",
          "type": "address"
        }
      ],
      "stateMutability": "view",
      "type": "function"
    },
    {
      "inputs": [
        {
          "internalType": "uint256",
          "name": "timestamp",
          "type": "uint256"
        }
      ],
      "name": "getPastTotalSupply",
      "outputs": [
        {
          "internalType": "uint256",
          "name": "",
          "type": "uint256"
        }
      ],
      "stateMutability": "view",
      "type": "function"
    },
    {
      "inputs": [
        {
          "internalType": "address",
          "name": "account",
          "type": "address"
        },
        {
          "internalType": "uint256",
          "name": "timestamp",
          "type": "uint256"
        }
      ],
      "name": "getPastVotes",
      "outputs": [
        {
          "internalType": "uint256",
          "name": "",
          "type": "uint256"
        }
      ],
      "stateMutability": "view",
      "type": "function"
    },
    {
      "inputs": [
        {
          "internalType": "address",
          "name": "account",
          "type": "address"
        },
        {
          "internalType": "uint256",
          "name": "timestamp",
          "type": "uint256"
        }
      ],
      "name": "getPastVotesIndex",
      "outputs": [
        {
          "internalType": "uint32",
          "name": "",
          "type": "uint32"
        }
      ],
      "stateMutability": "view",
      "type": "function"
    },
    {
      "inputs": [
        {
          "internalType": "address",
          "name": "account",
          "type": "address"
        }
      ],
      "name": "getVotes",
      "outputs": [
        {
          "internalType": "uint256",
          "name": "",
          "type": "uint256"
        }
      ],
      "stateMutability": "view",
      "type": "function"
    },
    {
      "inputs": [
        {
          "internalType": "uint256",
          "name": "_tokenId",
          "type": "uint256"
        }
      ],
      "name": "get_last_user_slope",
      "outputs": [
        {
          "internalType": "int128",
          "name": "",
          "type": "int128"
        }
      ],
      "stateMutability": "view",
      "type": "function"
    },
    {
      "inputs": [
        {
          "internalType": "uint256",
          "name": "_tokenId",
          "type": "uint256"
        },
        {
          "internalType": "uint256",
          "name": "_value",
          "type": "uint256"
        }
      ],
      "name": "increase_amount",
      "outputs": [],
      "stateMutability": "nonpayable",
      "type": "function"
    },
    {
      "inputs": [
        {
          "internalType": "uint256",
          "name": "_tokenId",
          "type": "uint256"
        },
        {
          "internalType": "uint256",
          "name": "_lock_duration",
          "type": "uint256"
        }
      ],
      "name": "increase_unlock_time",
      "outputs": [],
      "stateMutability": "nonpayable",
      "type": "function"
    },
    {
      "inputs": [
        {
          "internalType": "string",
          "name": "name_",
          "type": "string"
        },
        {
          "internalType": "string",
          "name": "symbol_",
          "type": "string"
        },
        {
          "internalType": "address",
          "name": "token_addr",
          "type": "address"
        }
      ],
      "name": "initialize",
      "outputs": [],
      "stateMutability": "nonpayable",
      "type": "function"
    },
    {
      "inputs": [
        {
          "internalType": "address",
          "name": "owner",
          "type": "address"
        },
        {
          "internalType": "address",
          "name": "operator",
          "type": "address"
        }
      ],
      "name": "isApprovedForAll",
      "outputs": [
        {
          "internalType": "bool",
          "name": "",
          "type": "bool"
        }
      ],
      "stateMutability": "view",
      "type": "function"
    },
    {
      "inputs": [
        {
          "internalType": "address",
          "name": "_spender",
          "type": "address"
        },
        {
          "internalType": "uint256",
          "name": "_tokenId",
          "type": "uint256"
        }
      ],
      "name": "isApprovedOrOwner",
      "outputs": [
        {
          "internalType": "bool",
          "name": "",
          "type": "bool"
        }
      ],
      "stateMutability": "view",
      "type": "function"
    },
    {
      "inputs": [
        {
          "internalType": "uint256",
          "name": "",
          "type": "uint256"
        }
      ],
      "name": "locked",
      "outputs": [
        {
          "internalType": "int128",
          "name": "amount",
          "type": "int128"
        },
        {
          "internalType": "uint256",
          "name": "end",
          "type": "uint256"
        }
      ],
      "stateMutability": "view",
      "type": "function"
    },
    {
      "inputs": [
        {
          "internalType": "uint256",
          "name": "_tokenId",
          "type": "uint256"
        }
      ],
      "name": "locked__end",
      "outputs": [
        {
          "internalType": "uint256",
          "name": "",
          "type": "uint256"
        }
      ],
      "stateMutability": "view",
      "type": "function"
    },
    {
      "inputs": [],
      "name": "masterChainId",
      "outputs": [
        {
          "internalType": "uint256",
          "name": "",
          "type": "uint256"
        }
      ],
      "stateMutability": "view",
      "type": "function"
    },
    {
      "inputs": [
        {
          "internalType": "uint256",
          "name": "_from",
          "type": "uint256"
        },
        {
          "internalType": "uint256",
          "name": "_to",
          "type": "uint256"
        }
      ],
      "name": "merge",
      "outputs": [],
      "stateMutability": "nonpayable",
      "type": "function"
    },
    {
      "inputs": [
        {
          "internalType": "address",
          "name": "_to",
          "type": "address"
        },
        {
          "internalType": "uint256",
          "name": "_tokenId",
          "type": "uint256"
        },
        {
          "internalType": "bytes",
          "name": "_metadata",
          "type": "bytes"
        }
      ],
      "name": "mint",
      "outputs": [],
      "stateMutability": "nonpayable",
      "type": "function"
    },
    {
      "inputs": [],
      "name": "name",
      "outputs": [
        {
          "internalType": "string",
          "name": "",
          "type": "string"
        }
      ],
      "stateMutability": "view",
      "type": "function"
    },
    {
      "inputs": [
        {
          "internalType": "address",
          "name": "",
          "type": "address"
        }
      ],
      "name": "nonces",
      "outputs": [
        {
          "internalType": "uint256",
          "name": "",
          "type": "uint256"
        }
      ],
      "stateMutability": "view",
      "type": "function"
    },
    {
      "inputs": [
        {
          "internalType": "address",
          "name": "",
          "type": "address"
        }
      ],
      "name": "numCheckpoints",
      "outputs": [
        {
          "internalType": "uint32",
          "name": "",
          "type": "uint32"
        }
      ],
      "stateMutability": "view",
      "type": "function"
    },
    {
      "inputs": [],
      "name": "owner",
      "outputs": [
        {
          "internalType": "address",
          "name": "",
          "type": "address"
        }
      ],
      "stateMutability": "view",
      "type": "function"
    },
    {
      "inputs": [
        {
          "internalType": "uint256",
          "name": "tokenId",
          "type": "uint256"
        }
      ],
      "name": "ownerOf",
      "outputs": [
        {
          "internalType": "address",
          "name": "",
          "type": "address"
        }
      ],
      "stateMutability": "view",
      "type": "function"
    },
    {
      "inputs": [
        {
          "internalType": "uint256",
          "name": "",
          "type": "uint256"
        }
      ],
      "name": "ownership_change",
      "outputs": [
        {
          "internalType": "uint256",
          "name": "",
          "type": "uint256"
        }
      ],
      "stateMutability": "view",
      "type": "function"
    },
    {
      "inputs": [],
      "name": "pendingOwner",
      "outputs": [
        {
          "internalType": "address",
          "name": "",
          "type": "address"
        }
      ],
      "stateMutability": "view",
      "type": "function"
    },
    {
      "inputs": [
        {
          "internalType": "uint256",
          "name": "",
          "type": "uint256"
        }
      ],
      "name": "point_history",
      "outputs": [
        {
          "internalType": "int128",
          "name": "bias",
          "type": "int128"
        },
        {
          "internalType": "int128",
          "name": "slope",
          "type": "int128"
        },
        {
          "internalType": "uint256",
          "name": "ts",
          "type": "uint256"
        },
        {
          "internalType": "uint256",
          "name": "blk",
          "type": "uint256"
        }
      ],
      "stateMutability": "view",
      "type": "function"
    },
    {
      "inputs": [
        {
          "internalType": "address",
          "name": "_bridge",
          "type": "address"
        }
      ],
      "name": "removeBridge",
      "outputs": [],
      "stateMutability": "nonpayable",
      "type": "function"
    },
    {
      "inputs": [],
      "name": "renounceOwnership",
      "outputs": [],
      "stateMutability": "nonpayable",
      "type": "function"
    },
    {
      "inputs": [
        {
          "internalType": "address",
          "name": "from",
          "type": "address"
        },
        {
          "internalType": "address",
          "name": "to",
          "type": "address"
        },
        {
          "internalType": "uint256",
          "name": "tokenId",
          "type": "uint256"
        }
      ],
      "name": "safeTransferFrom",
      "outputs": [],
      "stateMutability": "nonpayable",
      "type": "function"
    },
    {
      "inputs": [
        {
          "internalType": "address",
          "name": "from",
          "type": "address"
        },
        {
          "internalType": "address",
          "name": "to",
          "type": "address"
        },
        {
          "internalType": "uint256",
          "name": "tokenId",
          "type": "uint256"
        },
        {
          "internalType": "bytes",
          "name": "data",
          "type": "bytes"
        }
      ],
      "name": "safeTransferFrom",
      "outputs": [],
      "stateMutability": "nonpayable",
      "type": "function"
    },
    {
      "inputs": [
        {
          "internalType": "address",
          "name": "operator",
          "type": "address"
        },
        {
          "internalType": "bool",
          "name": "approved",
          "type": "bool"
        }
      ],
      "name": "setApprovalForAll",
      "outputs": [],
      "stateMutability": "nonpayable",
      "type": "function"
    },
    {
      "inputs": [
        {
          "internalType": "address",
          "name": "_team",
          "type": "address"
        }
      ],
      "name": "setTeam",
      "outputs": [],
      "stateMutability": "nonpayable",
      "type": "function"
    },
    {
      "inputs": [
        {
          "internalType": "address",
          "name": "_token",
          "type": "address"
        }
      ],
      "name": "setToken",
      "outputs": [],
      "stateMutability": "nonpayable",
      "type": "function"
    },
    {
      "inputs": [
        {
          "internalType": "address",
          "name": "_voter",
          "type": "address"
        }
      ],
      "name": "setVoter",
      "outputs": [],
      "stateMutability": "nonpayable",
      "type": "function"
    },
    {
      "inputs": [
        {
          "internalType": "uint256",
          "name": "",
          "type": "uint256"
        }
      ],
      "name": "slope_changes",
      "outputs": [
        {
          "internalType": "int128",
          "name": "",
          "type": "int128"
        }
      ],
      "stateMutability": "view",
      "type": "function"
    },
    {
      "inputs": [
        {
          "internalType": "uint256[]",
          "name": "amounts",
          "type": "uint256[]"
        },
        {
          "internalType": "uint256",
          "name": "_tokenId",
          "type": "uint256"
        }
      ],
      "name": "split",
      "outputs": [],
      "stateMutability": "nonpayable",
      "type": "function"
    },
    {
      "inputs": [],
      "name": "supply",
      "outputs": [
        {
          "internalType": "uint256",
          "name": "",
          "type": "uint256"
        }
      ],
      "stateMutability": "view",
      "type": "function"
    },
    {
      "inputs": [
        {
          "internalType": "bytes4",
          "name": "_interfaceID",
          "type": "bytes4"
        }
      ],
      "name": "supportsInterface",
      "outputs": [
        {
          "internalType": "bool",
          "name": "",
          "type": "bool"
        }
      ],
      "stateMutability": "view",
      "type": "function"
    },
    {
      "inputs": [],
      "name": "symbol",
      "outputs": [
        {
          "internalType": "string",
          "name": "",
          "type": "string"
        }
      ],
      "stateMutability": "view",
      "type": "function"
    },
    {
      "inputs": [],
      "name": "team",
      "outputs": [
        {
          "internalType": "address",
          "name": "",
          "type": "address"
        }
      ],
      "stateMutability": "view",
      "type": "function"
    },
    {
      "inputs": [],
      "name": "token",
      "outputs": [
        {
          "internalType": "address",
          "name": "",
          "type": "address"
        }
      ],
      "stateMutability": "view",
      "type": "function"
    },
    {
      "inputs": [
        {
          "internalType": "address",
          "name": "_owner",
          "type": "address"
        },
        {
          "internalType": "uint256",
          "name": "_tokenIndex",
          "type": "uint256"
        }
      ],
      "name": "tokenOfOwnerByIndex",
      "outputs": [
        {
          "internalType": "uint256",
          "name": "",
          "type": "uint256"
        }
      ],
      "stateMutability": "view",
      "type": "function"
    },
    {
      "inputs": [
        {
          "internalType": "uint256",
          "name": "_tokenId",
          "type": "uint256"
        }
      ],
      "name": "tokenURI",
      "outputs": [
        {
          "internalType": "string",
          "name": "",
          "type": "string"
        }
      ],
      "stateMutability": "view",
      "type": "function"
    },
    {
      "inputs": [],
      "name": "totalSupply",
      "outputs": [
        {
          "internalType": "uint256",
          "name": "",
          "type": "uint256"
        }
      ],
      "stateMutability": "view",
      "type": "function"
    },
    {
      "inputs": [
        {
          "internalType": "uint256",
          "name": "_block",
          "type": "uint256"
        }
      ],
      "name": "totalSupplyAt",
      "outputs": [
        {
          "internalType": "uint256",
          "name": "",
          "type": "uint256"
        }
      ],
      "stateMutability": "view",
      "type": "function"
    },
    {
      "inputs": [
        {
          "internalType": "uint256",
          "name": "t",
          "type": "uint256"
        }
      ],
      "name": "totalSupplyAtT",
      "outputs": [
        {
          "internalType": "uint256",
          "name": "",
          "type": "uint256"
        }
      ],
      "stateMutability": "view",
      "type": "function"
    },
    {
      "inputs": [
        {
          "internalType": "address",
          "name": "from",
          "type": "address"
        },
        {
          "internalType": "address",
          "name": "to",
          "type": "address"
        },
        {
          "internalType": "uint256",
          "name": "tokenId",
          "type": "uint256"
        }
      ],
      "name": "transferFrom",
      "outputs": [],
      "stateMutability": "nonpayable",
      "type": "function"
    },
    {
      "inputs": [
        {
          "internalType": "address",
          "name": "newOwner",
          "type": "address"
        }
      ],
      "name": "transferOwnership",
      "outputs": [],
      "stateMutability": "nonpayable",
      "type": "function"
    },
    {
      "inputs": [
        {
          "internalType": "uint256",
          "name": "",
          "type": "uint256"
        }
      ],
      "name": "user_point_epoch",
      "outputs": [
        {
          "internalType": "uint256",
          "name": "",
          "type": "uint256"
        }
      ],
      "stateMutability": "view",
      "type": "function"
    },
    {
      "inputs": [
        {
          "internalType": "uint256",
          "name": "",
          "type": "uint256"
        },
        {
          "internalType": "uint256",
          "name": "",
          "type": "uint256"
        }
      ],
      "name": "user_point_history",
      "outputs": [
        {
          "internalType": "int128",
          "name": "bias",
          "type": "int128"
        },
        {
          "internalType": "int128",
          "name": "slope",
          "type": "int128"
        },
        {
          "internalType": "uint256",
          "name": "ts",
          "type": "uint256"
        },
        {
          "internalType": "uint256",
          "name": "blk",
          "type": "uint256"
        }
      ],
      "stateMutability": "view",
      "type": "function"
    },
    {
      "inputs": [
        {
          "internalType": "uint256",
          "name": "_tokenId",
          "type": "uint256"
        },
        {
          "internalType": "uint256",
          "name": "_idx",
          "type": "uint256"
        }
      ],
      "name": "user_point_history__ts",
      "outputs": [
        {
          "internalType": "uint256",
          "name": "",
          "type": "uint256"
        }
      ],
      "stateMutability": "view",
      "type": "function"
    },
    {
      "inputs": [],
      "name": "version",
      "outputs": [
        {
          "internalType": "string",
          "name": "",
          "type": "string"
        }
      ],
      "stateMutability": "view",
      "type": "function"
    },
    {
      "inputs": [
        {
          "internalType": "uint256",
          "name": "",
          "type": "uint256"
        }
      ],
      "name": "voted",
      "outputs": [
        {
          "internalType": "bool",
          "name": "",
          "type": "bool"
        }
      ],
      "stateMutability": "view",
      "type": "function"
    },
    {
      "inputs": [],
      "name": "voter",
      "outputs": [
        {
          "internalType": "address",
          "name": "",
          "type": "address"
        }
      ],
      "stateMutability": "view",
      "type": "function"
    },
    {
      "inputs": [
        {
          "internalType": "uint256",
          "name": "_tokenId",
          "type": "uint256"
        }
      ],
      "name": "voting",
      "outputs": [],
      "stateMutability": "nonpayable",
      "type": "function"
    },
    {
      "inputs": [
        {
          "internalType": "uint256",
          "name": "_tokenId",
          "type": "uint256"
        }
      ],
      "name": "withdraw",
      "outputs": [],
      "stateMutability": "nonpayable",
      "type": "function"
    }
  ],
  "transactionHash": "0x98a6b45fcc9ec9f19ea6493016a84df6338d74dcca17e7c77353eef91fd65389",
  "args": [],
  "numDeployments": 2,
  "bytecode": {
    "object": "0x60806040523480156200001157600080fd5b506200001c62000022565b620000e3565b600054610100900460ff16156200008f5760405162461bcd60e51b815260206004820152602760248201527f496e697469616c697a61626c653a20636f6e747261637420697320696e697469604482015266616c697a696e6760c81b606482015260840160405180910390fd5b60005460ff90811614620000e1576000805460ff191660ff9081179091556040519081527f7f26b83ff96e1f2b6a682f133852f6798a09c465da95921460cefb38474024989060200160405180910390a15b565b615bc380620000f36000396000f3fe608060405234801561001057600080fd5b506004361061045f5760003560e01c8063711974841161024c578063b88d4fde11610146578063e441135c116100c3578063f1127ed811610087578063f1127ed814610b51578063f2fde38b14610b7d578063f8a0576314610b90578063fc0c546a14610bb4578063fd4a77f114610bc857600080fd5b8063e441135c14610aa7578063e7a324dc14610ac8578063e7e242d414610aef578063e985e9c514610b02578063ee99fe2814610b3e57600080fd5b8063d1c2babb1161010a578063d1c2babb14610a1e578063d1febfb914610a31578063d4e54c3b14610a70578063e0514aba14610a83578063e30c397814610a9657600080fd5b8063b88d4fde146109ca578063c1f0fb9f146109dd578063c2c4c5c1146109f0578063c3cda520146109f8578063c87b56dd14610a0b57600080fd5b8063900cf0cf116101d45780639ab24eb0116101985780639ab24eb014610935578063a183af5214610948578063a22cb4651461095b578063a4d855df1461096e578063b45a3c0e1461098157600080fd5b8063900cf0cf146108ea57806394d008ef146108f457806395d89b41146109075780639712fdf81461090f578063981b24d01461092257600080fd5b806385f2aef21161021b57806385f2aef21461087b5780638c2c9baf1461088f5780638da5cb5b146108a25780638e539e8c146108b35780638fbb38ff146108c657600080fd5b80637119748414610826578063715018a61461084a57806379ba5097146108525780637ecebe001461085a57600080fd5b80632f745c591161035d57806356afe744116102e557806365fc3873116102a957806365fc3873146107a55780636f548837146107b85780636fcfff45146107d957806370a08231146108005780637116c60c1461081357600080fd5b806356afe74414610750578063587cde1e146107635780635c19a95c146107765780635f5b0c32146107895780636352211e1461079257600080fd5b8063430c20811161032c578063430c2081146106cc578063461f711c146106df57806346c96aac146107055780634bc2a6571461071957806354fd4d501461072c57600080fd5b80632f745c591461065c5780633a46b1a81461069357806342842e0e146106a657806342966c68146106b957600080fd5b806310c3cf06116103eb57806320606b70116103af57806320606b70146105e85780632168ca0f1461060f57806323b872dd1461063057806325a58b56146106435780632e1a7d4d1461064957600080fd5b806310c3cf06146105755780631376f3da1461057f578063144fa6d7146105ba57806318160ddd146105cd5780631c984bc3146105d557600080fd5b80630758c7d8116104325780630758c7d8146104e9578063077f224a14610511578063081812fc14610524578063095cf5c61461054f578063095ea7b31461056257600080fd5b806301ffc9a714610464578063047fc9aa146104a757806304df017d146104bf57806306fdde03146104d4575b600080fd5b610492610472366004614fa0565b6001600160e01b0319166000908152610163602052604090205460ff1690565b60405190151581526020015b60405180910390f35b6104b161016e5481565b60405190815260200161049e565b6104d26104cd366004614fd9565b610bdb565b005b6104dc610c71565b60405161049e919061503a565b6104fc6104f736600461504d565b610d03565b60405163ffffffff909116815260200161049e565b6104d261051f36600461512e565b610e7a565b6105376105323660046151a2565b611157565b6040516001600160a01b03909116815260200161049e565b6104d261055d366004614fd9565b61117e565b6104d261057036600461504d565b6111e4565b6104b16101655481565b61059261058d3660046151bb565b6112f9565b60408051600f95860b81529390940b602084015292820152606081019190915260800161049e565b6104d26105c8366004614fd9565b611341565b6104b161136c565b6104b16105e33660046151bb565b61137c565b6104b17f8cad95687ba82c2ce50e74f7b754645e5117c3a5bec8151c0726d5857980a86681565b61061861a4b181565b6040516001600160801b03909116815260200161049e565b6104d261063e3660046151dd565b6113af565b436104b1565b6104d26106573660046151a2565b6113e0565b6104b161066a36600461504d565b6001600160a01b0391909116600090815261016760209081526040808320938352929052205490565b6104b16106a136600461504d565b61160b565b6104d26106b43660046151dd565b6116ab565b6104dc6106c73660046151a2565b6116c6565b6104926106da36600461504d565b61174b565b6106f26106ed3660046151a2565b61175e565b604051600f9190910b815260200161049e565b61016054610537906001600160a01b031681565b6104d2610727366004614fd9565b6117a3565b6104dc604051806040016040528060058152602001640312e302e360dc1b81525081565b6104d261075e366004615219565b611809565b610537610771366004614fd9565b611ab4565b6104d2610784366004614fd9565b611ae5565b6104b161040081565b6105376107a03660046151a2565b611b00565b6104b16107b33660046151bb565b611b60565b6104b16107c63660046151a2565b6101666020526000908152604090205481565b6104fc6107e7366004614fd9565b6101726020526000908152604090205463ffffffff1681565b6104b161080e366004614fd9565b611b82565b6104b16108213660046151a2565b611c08565b6106f26108343660046151a2565b61016d60205260009081526040902054600f0b81565b6104d2611c6a565b6104d2611c7e565b6104b1610868366004614fd9565b6101736020526000908152604090205481565b61016154610537906001600160a01b031681565b6104b161089d3660046151bb565b611cf5565b6097546001600160a01b0316610537565b6104b16108c13660046151a2565b611d01565b6104926108d43660046151a2565b61016f6020526000908152604090205460ff1681565b6104b161016c5481565b6104d26109023660046152c5565b611d0c565b6104dc611d8e565b6104d261091d366004614fd9565b611d9d565b6104b16109303660046151a2565b611e37565b6104b1610943366004614fd9565b611fdc565b6104d26109563660046151bb565b6120b1565b6104d261096936600461532a565b612198565b6104d261097c3660046151bb565b6121a3565b6109b061098f3660046151a2565b61016b6020526000908152604090208054600190910154600f9190910b9082565b60408051600f9390930b835260208301919091520161049e565b6104d26109d8366004615361565b61233c565b6104d26109eb3660046151a2565b61236e565b6104d26123cb565b6104d2610a063660046153c9565b612409565b6104dc610a193660046151a2565b6127a6565b6104d2610a2c3660046151bb565b61283c565b610592610a3f3660046151a2565b61016260205260009081526040902080546001820154600290920154600f82810b93600160801b909304900b919084565b6104b1610a7e366004615429565b6129df565b6104b1610a913660046151bb565b612a01565b60c9546001600160a01b0316610537565b6104b1610ab53660046151a2565b6101696020526000908152604090205481565b6104b17fe48329057bfd03d55e49b547132e39cffd9c1820ad7b9d4c5307691425d15adf81565b6104b1610afd3660046151a2565b612a0d565b610492610b10366004615455565b6001600160a01b039182166000908152606a6020908152604080832093909416825291909152205460ff1690565b6104d2610b4c3660046151bb565b612a36565b6104b1610b5f366004615488565b61017160209081526000928352604080842090915290825290205481565b6104d2610b8b366004614fd9565b612b07565b6104b1610b9e3660046151a2565b600090815261016b602052604090206001015490565b61015f54610537906001600160a01b031681565b6104d2610bd63660046151a2565b612b78565b610be3612bd8565b6001600160a01b038116600090815260fb602052604090205460ff16610c1c57604051632655e85f60e01b815260040160405180910390fd5b6040516001600160a01b038216907f5d9d5034656cb3ebfb0655057cd7f9b4077a9b42ff42ce223cbac5bc586d212690600090a26001600160a01b0316600090815260fb60205260409020805460ff19169055565b606060658054610c80906154bd565b80601f0160208091040260200160405190810160405280929190818152602001828054610cac906154bd565b8015610cf95780601f10610cce57610100808354040283529160200191610cf9565b820191906000526020600020905b815481529060010190602001808311610cdc57829003601f168201915b5050505050905090565b6001600160a01b0382166000908152610172602052604081205463ffffffff16808203610d34576000915050610e74565b6001600160a01b0384166000908152610171602052604081208491610d5a600185615507565b63ffffffff16815260208101919091526040016000205411610d8957610d81600182615507565b915050610e74565b6001600160a01b038416600090815261017160209081526040808320838052909152902054831015610dbf576000915050610e74565b600080610dcd600184615507565b90505b8163ffffffff168163ffffffff161115610e6f5760006002610df28484615507565b610dfc919061553a565b610e069083615507565b6001600160a01b03881660009081526101716020908152604080832063ffffffff851684529091529020805491925090879003610e4957509350610e7492505050565b8054871115610e5a57819350610e68565b610e65600183615507565b92505b5050610dd0565b509150505b92915050565b600054610100900460ff1615808015610e9a5750600054600160ff909116105b80610eb45750303b158015610eb4575060005460ff166001145b610f1c5760405162461bcd60e51b815260206004820152602e60248201527f496e697469616c697a61626c653a20636f6e747261637420697320616c72656160448201526d191e481a5b9a5d1a585b1a5e995960921b60648201526084015b60405180910390fd5b6000805460ff191660011790558015610f3f576000805461ff0019166101001790555b610f47612c32565b610f4f612c61565b610f57612c61565b610f618484612c90565b610f69612cc1565b610f7233612cf0565b61a4b1610165556001600160a01b038216610fb85760405162461bcd60e51b815260206004820152600660248201526510ba37b5b2b760d11b6044820152606401610f13565b61015f80546001600160a01b0384166001600160a01b03199182161790915561016080548216339081179091556101618054909216179055437fd3963e8e1761c638694d3c60d54f123240f3fe953a68debc0fa797faeeb01d1155427fd3963e8e1761c638694d3c60d54f123240f3fe953a68debc0fa797faeeb01d10556101636020527fa8bef1461af97ffd75cfbc1c7627e40a5952107159e2d161b830af3c415a5971805460ff1990811660019081179092557f9c2286954f65a97095a628a27b8932da4542255331e66eaa5eb37db1fb5a9b038054821683179055635b5e139f60e01b60009081527fc5a25afa8aabe00a5261aa4d8aa3186ef1a373a7ca51f1fc2e467b9a5b593700805490921690921790556101645460405190913091600080516020615b97833981519152908290a4610164546040516000903090600080516020615b97833981519152908390a48015611151576000805461ff0019169055604051600181527f7f26b83ff96e1f2b6a682f133852f6798a09c465da95921460cefb38474024989060200160405180910390a15b50505050565b600061116282612d09565b506000908152606960205260409020546001600160a01b031690565b610161546001600160a01b031633146111c15760405162461bcd60e51b8152602060048201526005602482015264217465616d60d81b6044820152606401610f13565b61016180546001600160a01b0319166001600160a01b0392909216919091179055565b60006111ef82611b00565b9050806001600160a01b0316836001600160a01b03160361125c5760405162461bcd60e51b815260206004820152602160248201527f4552433732313a20617070726f76616c20746f2063757272656e74206f776e656044820152603960f91b6064820152608401610f13565b336001600160a01b038216148061127857506112788133610b10565b6112ea5760405162461bcd60e51b815260206004820152603d60248201527f4552433732313a20617070726f76652063616c6c6572206973206e6f7420746f60448201527f6b656e206f776e6572206f7220617070726f76656420666f7220616c6c0000006064820152608401610f13565b6112f48383612d68565b505050565b61016a60205281600052604060002081633b9aca00811061131957600080fd5b6003020180546001820154600290920154600f82810b9550600160801b90920490910b925084565b611349612bd8565b61015f80546001600160a01b0319166001600160a01b0392909216919091179055565b600061137742611c08565b905090565b600082815261016a6020526040812082633b9aca00811061139f5761139f61555d565b6003020160010154905092915050565b6113b93382612dd6565b6113d55760405162461bcd60e51b8152600401610f1390615573565b6112f4838383612e54565b6113e8612ed4565b61016554461461140a5760405162461bcd60e51b8152600401610f13906155c0565b6114143382612dd6565b611420576114206155e8565b600081815261016f602052604090205460ff16156114505760405162461bcd60e51b8152600401610f13906155fe565b600081815261016b602090815260409182902082518084019093528054600f0b8352600101549082018190524210156114c45760405162461bcd60e51b8152602060048201526016602482015275546865206c6f636b206469646e27742065787069726560501b6044820152606401610f13565b805161016e54600f9190910b906114db828261561e565b61016e556114e884612f2f565b506114f284612fda565b61015f5460405163a9059cbb60e01b8152336004820152602481018490526001600160a01b039091169063a9059cbb906044016020604051808303816000875af1158015611544573d6000803e3d6000fd5b505050506040513d601f19601f820116820180604052508101906115689190615631565b611574576115746155e8565b60408051858152602081018490524281830152905133917f02f25270a4d87bea75db541cdfe559334a275b4a233520ed6c0a2429667cca94919081900360600190a27f5e2aa66efd74cce82b21852e317e5490d9ecc9e6bb953ae24d90851258cc2f5c816115e2848261561e565b6040805192835260208301919091520160405180910390a1505050611608600161012d55565b50565b6000806116188484610d03565b6001600160a01b03851660009081526101716020908152604080832063ffffffff851684529091528120919250600190910190805b82548110156116a157600083828154811061166a5761166a61555d565b906000526020600020015490506116818188613087565b61168b908461564e565b925050808061169990615661565b91505061164d565b5095945050505050565b6112f48383836040518060200160405280600081525061233c565b33600090815260fb602052604090205460609060ff166116f9576040516378f18ee960e11b815260040160405180910390fd5b61170282612f2f565b905061170d82612fda565b7f5747a69bb6c2c54b5c628298d364a5cc5066b4db09369ad6a2cfca362f0a023f828260405161173e92919061567a565b60405180910390a1919050565b60006117578383612dd6565b9392505050565b6000818152610169602090815260408083205461016a909252822081633b9aca00811061178d5761178d61555d565b6003020154600160801b9004600f0b9392505050565b610161546001600160a01b031633146117e65760405162461bcd60e51b8152602060048201526005602482015264217465616d60d81b6044820152606401610f13565b61016080546001600160a01b0319166001600160a01b0392909216919091179055565b60008251116118535760405162461bcd60e51b81526020600482015260166024820152751e995c9bc81b195b88185b5bdd5b9d1cc81a5b9c1d5d60521b6044820152606401610f13565b600081815261016f602052604090205460ff16156118835760405162461bcd60e51b8152600401610f13906155fe565b61188d3382612dd6565b6118d95760405162461bcd60e51b815260206004820152601960248201527f2173656e64657220617070726f766564206f72206f776e6572000000000000006044820152606401610f13565b60008181526067602090815260408083205461016b83529281902081518083019092528054600f0b8083526001909101549282018390526001600160a01b03909316929091908061193c5760405162461bcd60e51b8152600401610f1390615693565b8061016e5461194b919061561e565b61016e556000805b87518210156119955787828151811061196e5761196e61555d565b602002602001015181611981919061564e565b90508161198d81615661565b925050611953565b61199e87612f2f565b506119a887612fda565b834281116119c85760405162461bcd60e51b8152600401610f13906156b2565b6119d66301dfe2004261564e565b8111156119f55760405162461bcd60e51b8152600401610f13906156f8565b60008093505b8951841015611aa85761016460008154611a1490615661565b90915550610164549850611a28888a613164565b828a8581518110611a3b57611a3b61555d565b602002602001015186611a4e919061572f565b611a589190615746565b60008a815261016b602090815260409182902082518084019093528054600f0b83526001015490820152909150611a96908a9083908590600561319c565b83611aa081615661565b9450506119fb565b50505050505050505050565b6001600160a01b03808216600090815261017060205260408120549091168015611ade5780611757565b5090919050565b6001600160a01b038116611af65750335b61160833826133c9565b6000818152606760205260408120546001600160a01b031680610e745760405162461bcd60e51b8152602060048201526018602482015277115490cdcc8c4e881a5b9d985b1a59081d1bdad95b88125160421b6044820152606401610f13565b6000611b6a612ed4565b611b7583833361345f565b9050610e74600161012d55565b60006001600160a01b038216611bec5760405162461bcd60e51b815260206004820152602960248201527f4552433732313a2061646472657373207a65726f206973206e6f7420612076616044820152683634b21037bbb732b960b91b6064820152608401610f13565b506001600160a01b031660009081526068602052604090205490565b61016c5460008181526101626020908152604080832081516080810183528154600f81810b8352600160801b909104900b93810193909352600181015491830191909152600201546060820152909190611c62818561355c565b949350505050565b611c72612bd8565b611c7c6000612cf0565b565b60c95433906001600160a01b03168114611cec5760405162461bcd60e51b815260206004820152602960248201527f4f776e61626c6532537465703a2063616c6c6572206973206e6f7420746865206044820152683732bb9037bbb732b960b91b6064820152608401610f13565b61160881612cf0565b6000611757838361365e565b6000610e7482611c08565b33600090815260fb602052604090205460ff16611d3c576040516378f18ee960e11b815260040160405180910390fd5b611d468383613164565b611d50828261393d565b7fc8ffd8a5cadf5f377038eb6cb621455f9673dc07f502ac1580838d85f2df001a8282604051611d8192919061567a565b60405180910390a1505050565b606060668054610c80906154bd565b611da5612bd8565b6001600160a01b038116600090815260fb602052604090205460ff1615611ddf5760405163f74c45bf60e01b815260040160405180910390fd5b6040516001600160a01b038216907f3cda433c5679ae4c6a5dea50840e222a42cba3695e4663de4366be899348422190600090a26001600160a01b0316600090815260fb60205260409020805460ff19166001179055565b600043821115611e4957611e496155e8565b61016c546000611e5984836139c0565b60008181526101626020908152604080832081516080810183528154600f81810b8352600160801b909104900b9381019390935260018101549183019190915260020154606082015291925083831015611f6a57600061016281611ebe86600161564e565b8152602080820192909252604090810160002081516080810183528154600f81810b8352600160801b909104900b9381019390935260018101549183019190915260020154606080830182905285015191925014611f645782606001518160600151611f2a919061561e565b83604001518260400151611f3e919061561e565b6060850151611f4d908a61561e565b611f57919061572f565b611f619190615746565b91505b50611fb9565b43826060015114611fb9576060820151611f84904361561e565b6040830151611f93904261561e565b6060840151611fa2908961561e565b611fac919061572f565b611fb69190615746565b90505b611fd282828460400151611fcd919061564e565b61355c565b9695505050505050565b6001600160a01b0381166000908152610172602052604081205463ffffffff1680820361200c5750600092915050565b6001600160a01b03831660009081526101716020526040812081612031600185615507565b63ffffffff1663ffffffff16815260200190815260200160002060010190506000805b82548110156120a85760008382815481106120715761207161555d565b906000526020600020015490506120888142613087565b612092908461564e565b92505080806120a090615661565b915050612054565b50949350505050565b6120b9612ed4565b6120c33383612dd6565b6120cf576120cf6155e8565b600082815261016b602090815260409182902082518084019093528054600f0b8352600101549082015281612106576121066155e8565b60008160000151600f0b136121565760405162461bcd60e51b8152602060048201526016602482015275139bc8195e1a5cdd1a5b99c81b1bd8dac8199bdd5b9960521b6044820152606401610f13565b428160200151116121795760405162461bcd60e51b8152600401610f139061575a565b6121888383600084600261319c565b50612194600161012d55565b5050565b612194338383613a47565b6121ab612ed4565b6121b53383612dd6565b6121c1576121c16155e8565b600082815261016b6020908152604080832081518083019092528054600f0b825260010154918101919091529062127500806121fd854261564e565b6122079190615746565b612211919061572f565b9050428260200151116122555760405162461bcd60e51b815260206004820152600c60248201526b131bd8dac8195e1c1a5c995960a21b6044820152606401610f13565b60008260000151600f0b136122a05760405162461bcd60e51b8152602060048201526011602482015270139bdd1a1a5b99c81a5cc81b1bd8dad959607a1b6044820152606401610f13565b816020015181116122f35760405162461bcd60e51b815260206004820152601f60248201527f43616e206f6e6c7920696e637265617365206c6f636b206475726174696f6e006044820152606401610f13565b6123016301dfe2004261564e565b8111156123205760405162461bcd60e51b8152600401610f13906156f8565b61232f8460008385600361319c565b5050612194600161012d55565b6123463383612dd6565b6123625760405162461bcd60e51b8152600401610f1390615573565b61115184848484613b15565b610160546001600160a01b031633146123b25760405162461bcd60e51b815260206004820152600660248201526510bb37ba32b960d11b6044820152606401610f13565b600090815261016f60205260409020805460ff19169055565b611c7c600060405180604001604052806000600f0b8152602001600081525060405180604001604052806000600f0b81526020016000815250613b48565b336001600160a01b0387160361244b5760405162461bcd60e51b815260206004820152600760248201526610b9b2b73232b960c91b6044820152606401610f13565b6001600160a01b03861661248e5760405162461bcd60e51b815260206004820152600a60248201526910bd32b9379030b2323960b11b6044820152606401610f13565b60007f8cad95687ba82c2ce50e74f7b754645e5117c3a5bec8151c0726d5857980a8666124b9610c71565b805160209182012060408051808201825260058152640312e302e360dc1b90840152805180840194909452838101919091527f06c015bd22b4c69690933c1058878ebdfef31f9aaae40bbe86d8a09fe1b2972c60608401524660808401523060a0808501919091528151808503909101815260c0840182528051908301207fe48329057bfd03d55e49b547132e39cffd9c1820ad7b9d4c5307691425d15adf60e08501526001600160a01b038b1661010085015261012084018a90526101408085018a90528251808603909101815261016085019092528151919092012061190160f01b61018084015261018283018290526101a28301819052909250906000906101c20160408051601f198184030181528282528051602091820120600080855291840180845281905260ff8a169284019290925260608301889052608083018790529092509060019060a0016020604051602081039080840390855afa158015612629573d6000803e3d6000fd5b5050604051601f1901519150506001600160a01b0381166126a35760405162461bcd60e51b815260206004820152602e60248201527f566f74696e67457363726f773a3a64656c656761746542795369673a20696e7660448201526d616c6964207369676e617475726560901b6064820152608401610f13565b6001600160a01b0381166000908152610173602052604081208054916126c883615661565b91905055891461272d5760405162461bcd60e51b815260206004820152602a60248201527f566f74696e67457363726f773a3a64656c656761746542795369673a20696e76604482015269616c6964206e6f6e636560b01b6064820152608401610f13565b874211156127945760405162461bcd60e51b815260206004820152602e60248201527f566f74696e67457363726f773a3a64656c656761746542795369673a2073696760448201526d1b985d1d5c9948195e1c1a5c995960921b6064820152608401610f13565b611aa8818b6133c9565b505050505050565b6000818152606760205260409020546060906001600160a01b031661280d5760405162461bcd60e51b815260206004820152601b60248201527f517565727920666f72206e6f6e6578697374656e7420746f6b656e00000000006044820152606401610f13565b600091825261016b602090815260409283902083518085019094528054600f0b84526001015492019190915290565b600082815261016f602052604090205460ff161561286c5760405162461bcd60e51b8152600401610f13906155fe565b8082036128a75760405162461bcd60e51b81526020600482015260096024820152682166726f6d3d3d746f60b81b6044820152606401610f13565b6128b13383612dd6565b6128fd5760405162461bcd60e51b815260206004820152601760248201527f2166726f6d20617070726f766564206f72206f776e65720000000000000000006044820152606401610f13565b6129073382612dd6565b61294b5760405162461bcd60e51b815260206004820152601560248201527410ba379030b8383937bb32b21037b91037bbb732b960591b6044820152606401610f13565b600082815261016b60208181526040808420815180830183528154600f90810b825260019283015482860190815288885295855283872084518086019095528054820b855290920154938301849052805194519095929490910b9211156129b65782602001516129bc565b83602001515b90506129c786612f2f565b506129d186612fda565b61279e85838386600461319c565b60006129e9612ed4565b6129f484848461345f565b9050611757600161012d55565b60006117578383613087565b60008181526101666020526040812054439003612a2c57506000919050565b610e748242613087565b612a3e612ed4565b600082815261016b602090815260409182902082518084019093528054600f0b8352600101549082015281612a855760405162461bcd60e51b8152600401610f1390615693565b60008160000151600f0b13612ad55760405162461bcd60e51b8152602060048201526016602482015275139bc8195e1a5cdd1a5b99c81b1bd8dac8199bdd5b9960521b6044820152606401610f13565b42816020015111612af85760405162461bcd60e51b8152600401610f139061575a565b6121888383600084600061319c565b612b0f612bd8565b60c980546001600160a01b0383166001600160a01b03199091168117909155612b406097546001600160a01b031690565b6001600160a01b03167f38d16b8cac22d99fc7c124b9cd0de2d3fa1faef420bfe791d8c362d765e2270060405160405180910390a350565b610160546001600160a01b03163314612bbc5760405162461bcd60e51b815260206004820152600660248201526510bb37ba32b960d11b6044820152606401610f13565b600090815261016f60205260409020805460ff19166001179055565b6097546001600160a01b03163314611c7c5760405162461bcd60e51b815260206004820181905260248201527f4f776e61626c653a2063616c6c6572206973206e6f7420746865206f776e65726044820152606401610f13565b600054610100900460ff16612c595760405162461bcd60e51b8152600401610f139061579e565b611c7c614171565b600054610100900460ff16612c885760405162461bcd60e51b8152600401610f139061579e565b611c7c614198565b600054610100900460ff16612cb75760405162461bcd60e51b8152600401610f139061579e565b61219482826141c8565b600054610100900460ff16612ce85760405162461bcd60e51b8152600401610f139061579e565b611c7c614208565b60c980546001600160a01b03191690556116088161422f565b6000818152606760205260409020546001600160a01b03166116085760405162461bcd60e51b8152602060048201526018602482015277115490cdcc8c4e881a5b9d985b1a59081d1bdad95b88125160421b6044820152606401610f13565b600081815260696020526040902080546001600160a01b0319166001600160a01b0384169081179091558190612d9d82611b00565b6001600160a01b03167f8c5be1e5ebec7d5bd14f71427d1e84f3dd0314c0f7b2291e5b200ac8c7c3b92560405160405180910390a45050565b600080612de283611b00565b9050806001600160a01b0316846001600160a01b03161480612e2957506001600160a01b038082166000908152606a602090815260408083209388168352929052205460ff165b80611c625750836001600160a01b0316612e4284611157565b6001600160a01b031614949350505050565b600081815261016f602052604090205460ff1615612e845760405162461bcd60e51b8152600401610f13906155fe565b612e8e8382614281565b612ea9612e9a84611ab4565b612ea384611ab4565b83614337565b612eb382826146a3565b612ebe8383836146e9565b6000908152610166602052604090204390555050565b600261012d5403612f275760405162461bcd60e51b815260206004820152601f60248201527f5265656e7472616e637947756172643a207265656e7472616e742063616c6c006044820152606401610f13565b600261012d55565b600081815261016b6020818152604080842080546001820180548451600f84900b81880181905281870183905286518083038801815260a08301885260608301918252608090920192909252855180870187528981528088018a81528b8b52988852516001600160801b03166001600160801b03199094169390931790935594519094558151808301909252848252918101939093529091612fd49084908390613b48565b50919050565b33600090815260fb602052604090205460ff1661304057612ffb3382612dd6565b6130405760405162461bcd60e51b81526020600482015260166024820152751b9bdd081bdddb995c881b9bdc88185c1c1c9bdd995960521b6044820152606401610f13565b600061304b82611b00565b90506130586000836111e4565b61306c61306482611ab4565b600084614337565b6130768183614281565b6121948261483b565b600161012d55565b600082815261016960205260408120548082036130a8576000915050610e74565b600084815261016a6020526040812082633b9aca0081106130cb576130cb61555d565b60408051608081018252600392909202929092018054600f81810b8452600160801b909104900b60208301526001810154928201839052600201546060820152915061311790856157e9565b81602001516131269190615809565b81518290613135908390615829565b600f90810b90915282516000910b1215905061315057600081525b51600f0b9150610e749050565b5092915050565b6001600160a01b03821661317a5761317a6155e8565b6131886000612ea384611ab4565b61319282826146a3565b61219482826148be565b6101655446146131be5760405162461bcd60e51b8152600401610f13906155c0565b61016e5482906131ce868261564e565b61016e556040805180820190915260008082526020820152825160208085015190830152600f0b8152825187908490613208908390615856565b600f0b905250851561321c57602083018690525b600088815261016b60209081526040909120845181546001600160801b0319166001600160801b039091161781559084015160019091015561325f888285613b48565b3387158015906132815750600485600581111561327e5761327e615883565b14155b801561329f5750600585600581111561329c5761329c615883565b14155b1561332e5761015f546040516323b872dd60e01b81526001600160a01b038381166004830152306024830152604482018b9052909116906323b872dd906064016020604051808303816000875af11580156132fe573d6000803e3d6000fd5b505050506040513d601f19601f820116820180604052508101906133229190615631565b61332e5761332e6155e8565b8360200151816001600160a01b03167fff04ccafc360e16b67d682d17bd9503c4c6b9a131f6be6325762dc9ffc7de6248b8b89426040516133729493929190615899565b60405180910390a37f5e2aa66efd74cce82b21852e317e5490d9ecc9e6bb953ae24d90851258cc2f5c836133a68a8261564e565b6040805192835260208301919091520160405180910390a1505050505050505050565b6101655446146133eb5760405162461bcd60e51b8152600401610f13906155c0565b60006133f683611ab4565b6001600160a01b038481166000818152610170602052604080822080546001600160a01b031916888616908117909155905194955093928516927f3134e8a2e6d97e929a7e54011ea5485d7d196dd5f0ba4d4ef95803e8e3fc257f9190a46112f4838284614a37565b6000806212750080613471864261564e565b61347b9190615746565b613485919061572f565b9050600085116134a75760405162461bcd60e51b8152600401610f1390615693565b4281116134c65760405162461bcd60e51b8152600401610f13906156b2565b6134d46301dfe2004261564e565b8111156134f35760405162461bcd60e51b8152600401610f13906156f8565b6101646000815461350390615661565b90915550610164546135158482613164565b600081815261016b602090815260409182902082518084019093528054600f0b8352600190810154918301919091526135539183918991869161319c565b95945050505050565b6000808390506000621275008083604001516135789190615746565b613582919061572f565b905060005b60ff8110156136365761359d621275008361564e565b91506000858311156135b1578592506135c6565b50600082815261016d6020526040902054600f0b5b60408401516135d5908461561e565b84602001516135e49190615809565b845185906135f3908390615829565b600f0b9052508583036136065750613636565b80846020018181516136189190615856565b600f0b905250506040830182905261362f81615661565b9050613587565b5060008260000151600f0b121561364c57600082525b50516001600160801b03169392505050565b600043821115613670576136706155e8565b60008381526101696020526040812054815b6080811015613712578183101561371257600060026136a1848661564e565b6136ac90600161564e565b6136b69190615746565b600088815261016a60205260409020909150869082633b9aca0081106136de576136de61555d565b6003020160020154116136f357809350613701565b6136fe60018261561e565b92505b5061370b81615661565b9050613682565b50600085815261016a6020526040812083633b9aca0081106137365761373661555d565b60408051608081018252600392909202929092018054600f81810b8452600160801b909104900b6020830152600181015492820192909252600290910154606082015261016c54909150600061378c87836139c0565b60008181526101626020908152604080832081516080810183528154600f81810b8352600160801b909104900b93810193909352600181015491830191909152600201546060820152919250808484101561386d576000610162816137f287600161564e565b8152602080820192909252604090810160002081516080810183528154600f81810b8352600160801b909104900b9381019390935260018101549183019190915260020154606080830182905286015191925061384f919061561e565b925083604001518160400151613865919061561e565b915050613891565b606083015161387c904361561e565b915082604001514261388e919061561e565b90505b604083015182156138ce578284606001518c6138ad919061561e565b6138b7908461572f565b6138c19190615746565b6138cb908261564e565b90505b60408701516138dd908261561e565b87602001516138ec9190615809565b875188906138fb908390615829565b600f90810b90915288516000910b12905061392b57505093516001600160801b03169650610e7495505050505050565b60009950505050505050505050610e74565b6000808280602001905181019061395491906158d7565b604080518082018252600f84900b8152602080820184815260008a815261016b8352848120845181546001600160801b0319166001600160801b03909116178155915160019092019190915583518085019094528084529083015292945090925061279e868284613b48565b60008082815b6080811015613a3d5781831015613a3d57600060026139e5848661564e565b6139f090600161564e565b6139fa9190615746565b600081815261016260205260409020600201549091508710613a1e57809350613a2c565b613a2960018261561e565b92505b50613a3681615661565b90506139c6565b5090949350505050565b816001600160a01b0316836001600160a01b031603613aa85760405162461bcd60e51b815260206004820152601960248201527f4552433732313a20617070726f766520746f2063616c6c6572000000000000006044820152606401610f13565b6001600160a01b038381166000818152606a6020908152604080832094871680845294825291829020805460ff191686151590811790915591519182527f17307eab39ab6107e8899845ad3d59bd9653f200f220920489ca2b5937696c31910160405180910390a3505050565b613b20848484612e54565b613b2c84848484614e0e565b6111515760405162461bcd60e51b8152600401610f139061590b565b60408051608081018252600080825260208201819052918101829052606081019190915260408051608081018252600080825260208201819052918101829052606081019190915261016c5460009081908715613cb657428760200151118015613bb9575060008760000151600f0b135b15613bfe578651613bcf906301dfe2009061595d565b600f0b602080870191909152870151613be990429061561e565b8560200151613bf89190615809565b600f0b85525b428660200151118015613c18575060008660000151600f0b135b15613c5d578551613c2e906301dfe2009061595d565b600f0b602080860191909152860151613c4890429061561e565b8460200151613c579190615809565b600f0b84525b602080880151600090815261016d8252604090205490870151600f9190910b935015613cb6578660200151866020015103613c9a57829150613cb6565b602080870151600090815261016d9091526040902054600f0b91505b604080516080810182526000808252602082015242918101919091524360608201528115613d2c57506000818152610162602090815260409182902082516080810184528154600f81810b8352600160801b909104900b9281019290925260018101549282019290925260029091015460608201525b604081015181600042831015613d79576040840151613d4b904261561e565b6060850151613d5a904361561e565b613d6c90670de0b6b3a764000061572f565b613d769190615746565b90505b600062127500613d898186615746565b613d93919061572f565b905060005b60ff811015613f0f57613dae621275008361564e565b9150600042831115613dc257429250613dd7565b50600082815261016d6020526040902054600f0b5b613de1868461561e565b8760200151613df09190615809565b87518890613dff908390615829565b600f0b905250602087018051829190613e19908390615856565b600f90810b90915288516000910b12159050613e3457600087525b60008760200151600f0b1215613e4c57600060208801525b60408088018490528501519295508592670de0b6b3a764000090613e70908561561e565b613e7a908661572f565b613e849190615746565b8560600151613e93919061564e565b6060880152613ea360018961564e565b9750428303613eb85750436060870152613f0f565b600088815261016260209081526040918290208951918a01516001600160801b03908116600160801b029216919091178155908801516001820155606088015160029091015550613f0881615661565b9050613d98565b505061016c8590558b15613f9b5788602001518860200151613f319190615829565b84602001818151613f429190615856565b600f0b90525088518851613f569190615829565b84518590613f65908390615856565b600f90810b90915260208601516000910b12159050613f8657600060208501525b60008460000151600f0b1215613f9b57600084525b600085815261016260209081526040918290208651918701516001600160801b03908116600160801b02921691909117815590850151600182015560608501516002909101558b1561416357428b6020015111156140545760208901516140029088615856565b96508a602001518a60200151036140255760208801516140229088615829565b96505b60208b810151600090815261016d9091526040902080546001600160801b0319166001600160801b0389161790555b428a6020015111156140b0578a602001518a6020015111156140b057602088015161407f9087615829565b60208b810151600090815261016d9091526040902080546001600160801b0319166001600160801b03831617905595505b60008c815261016960205260408120546140cb90600161564e565b90508061016960008f81526020019081526020016000208190555042896040018181525050438960600181815250508861016a60008f815260200190815260200160002082633b9aca0081106141235761412361555d565b825160208401516001600160801b03908116600160801b029116176003919091029190910190815560408201516001820155606090910151600290910155505b505050505050505050505050565b600054610100900460ff1661307f5760405162461bcd60e51b8152600401610f139061579e565b600054610100900460ff166141bf5760405162461bcd60e51b8152600401610f139061579e565b611c7c33612cf0565b600054610100900460ff166141ef5760405162461bcd60e51b8152600401610f139061579e565b60656141fb83826159e1565b5060666112f482826159e1565b600054610100900460ff16611c7c5760405162461bcd60e51b8152600401610f139061579e565b609780546001600160a01b038381166001600160a01b0319831681179093556040519116919082907f8be0079c531659141344cd1fd0a4f28419497f9722a3daafe3b4186f6b6457e090600090a35050565b6000600161428e84611b82565b614298919061561e565b600083815261016860205260409020549091508082036142ea576001600160a01b0384166000908152610167602090815260408083208584528252808320839055858352610168909152812055611151565b6001600160a01b0393909316600090815261016760209081526040808320938352928152828220805486845284842081905583526101689091528282209490945592839055908252812055565b816001600160a01b0316836001600160a01b0316141580156143595750600081115b156112f4576001600160a01b038316156144df576001600160a01b0383166000908152610172602052604081205463ffffffff1690816143bf576001600160a01b0385166000908152610171602090815260408083208380529091529020600101614402565b6001600160a01b038516600090815261017160205260408120906143e4600185615507565b63ffffffff1663ffffffff1681526020019081526020016000206001015b9050600061440f86614f0f565b6001600160a01b03871660009081526101716020908152604080832063ffffffff8516845290915281209192506001909101905b835481101561449d5760008482815481106144605761446061555d565b9060005260206000200154905086811461448a578254600181018455600084815260209020018190555b508061449581615661565b915050614443565b506144a9846001615aa1565b6001600160a01b038816600090815261017260205260409020805463ffffffff191663ffffffff92909216919091179055505050505b6001600160a01b038216156112f4576001600160a01b0382166000908152610172602052604081205463ffffffff169081614540576001600160a01b0384166000908152610171602090815260408083208380529091529020600101614583565b6001600160a01b03841660009081526101716020526040812090614565600185615507565b63ffffffff1663ffffffff1681526020019081526020016000206001015b9050600061459085614f0f565b6001600160a01b03861660009081526101716020908152604080832063ffffffff8516845290915290208354919250600190810191610400916145d3919061564e565b11156145f15760405162461bcd60e51b8152600401610f1390615abe565b60005b83548110156146435760008482815481106146115761461161555d565b60009182526020808320909101548554600181018755868452919092200155508061463b81615661565b9150506145f4565b50805460018181018355600083815260209020909101869055614667908590615aa1565b6001600160a01b038716600090815261017260205260409020805463ffffffff9290921663ffffffff1990921691909117905550505050505050565b60006146ae83611b82565b6001600160a01b0390931660009081526101676020908152604080832086845282528083208590559382526101689052919091209190915550565b826001600160a01b03166146fc82611b00565b6001600160a01b0316146147225760405162461bcd60e51b8152600401610f1390615b01565b6001600160a01b0382166147845760405162461bcd60e51b8152602060048201526024808201527f4552433732313a207472616e7366657220746f20746865207a65726f206164646044820152637265737360e01b6064820152608401610f13565b826001600160a01b031661479782611b00565b6001600160a01b0316146147bd5760405162461bcd60e51b8152600401610f1390615b01565b600081815260696020908152604080832080546001600160a01b03199081169091556001600160a01b038781168086526068855283862080546000190190559087168086528386208054600101905586865260679094528285208054909216841790915590518493600080516020615b9783398151915291a4505050565b600061484682611b00565b905061485182611b00565b600083815260696020908152604080832080546001600160a01b03199081169091556001600160a01b038516808552606884528285208054600019019055878552606790935281842080549091169055519293508492600080516020615b97833981519152908390a45050565b6001600160a01b0382166149145760405162461bcd60e51b815260206004820181905260248201527f4552433732313a206d696e7420746f20746865207a65726f20616464726573736044820152606401610f13565b6000818152606760205260409020546001600160a01b0316156149795760405162461bcd60e51b815260206004820152601c60248201527f4552433732313a20746f6b656e20616c7265616479206d696e746564000000006044820152606401610f13565b6000818152606760205260409020546001600160a01b0316156149de5760405162461bcd60e51b815260206004820152601c60248201527f4552433732313a20746f6b656e20616c7265616479206d696e746564000000006044820152606401610f13565b6001600160a01b038216600081815260686020908152604080832080546001019055848352606790915280822080546001600160a01b031916841790555183929190600080516020615b97833981519152908290a45050565b806001600160a01b0316826001600160a01b0316146112f4576001600160a01b03821615614c01576001600160a01b0382166000908152610172602052604081205463ffffffff169081614ab1576001600160a01b0384166000908152610171602090815260408083208380529091529020600101614af4565b6001600160a01b03841660009081526101716020526040812090614ad6600185615507565b63ffffffff1663ffffffff1681526020019081526020016000206001015b90506000614b0185614f0f565b6001600160a01b03861660009081526101716020908152604080832063ffffffff8516845290915281209192506001909101905b8354811015614bbf576000848281548110614b5257614b5261555d565b90600052602060002001549050886001600160a01b0316614b88826000908152606760205260409020546001600160a01b031690565b6001600160a01b031614614bac578254600181018455600084815260209020018190555b5080614bb781615661565b915050614b35565b50614bcb846001615aa1565b6001600160a01b038716600090815261017260205260409020805463ffffffff191663ffffffff92909216919091179055505050505b6001600160a01b038116156112f4576001600160a01b0381166000908152610172602052604081205463ffffffff169081614c62576001600160a01b0383166000908152610171602090815260408083208380529091529020600101614ca5565b6001600160a01b03831660009081526101716020526040812090614c87600185615507565b63ffffffff1663ffffffff1681526020019081526020016000206001015b90506000614cb284614f0f565b6001600160a01b03851660009081526101716020908152604080832063ffffffff851684529091528120919250600190910190614cee88611b82565b845490915061040090614d0290839061564e565b1115614d205760405162461bcd60e51b8152600401610f1390615abe565b60005b8454811015614d72576000858281548110614d4057614d4061555d565b600091825260208083209091015486546001810188558784529190922001555080614d6a81615661565b915050614d23565b5060005b81811015614dc5576001600160a01b0389166000908152610167602090815260408083208484528252822054855460018101875586845291909220015580614dbd81615661565b915050614d76565b50614dd1856001615aa1565b6001600160a01b038716600090815261017260205260409020805463ffffffff9290921663ffffffff199092169190911790555050505050505050565b60006001600160a01b0384163b15614f0457604051630a85bd0160e11b81526001600160a01b0385169063150b7a0290614e52903390899088908890600401615b46565b6020604051808303816000875af1925050508015614e8d575060408051601f3d908101601f19168201909252614e8a91810190615b79565b60015b614eea573d808015614ebb576040519150601f19603f3d011682016040523d82523d6000602084013e614ec0565b606091505b508051600003614ee25760405162461bcd60e51b8152600401610f139061590b565b805181602001fd5b6001600160e01b031916630a85bd0160e11b149050611c62565b506001949350505050565b6001600160a01b03811660009081526101726020526040812054429063ffffffff168015801590614f7a57506001600160a01b0384166000908152610171602052604081208391614f61600185615507565b63ffffffff168152602081019190915260400160002054145b1561175757611c62600182615507565b6001600160e01b03198116811461160857600080fd5b600060208284031215614fb257600080fd5b813561175781614f8a565b80356001600160a01b0381168114614fd457600080fd5b919050565b600060208284031215614feb57600080fd5b61175782614fbd565b6000815180845260005b8181101561501a57602081850181015186830182015201614ffe565b506000602082860101526020601f19601f83011685010191505092915050565b6020815260006117576020830184614ff4565b6000806040838503121561506057600080fd5b61506983614fbd565b946020939093013593505050565b634e487b7160e01b600052604160045260246000fd5b604051601f8201601f1916810167ffffffffffffffff811182821017156150b6576150b6615077565b604052919050565b600082601f8301126150cf57600080fd5b813567ffffffffffffffff8111156150e9576150e9615077565b6150fc601f8201601f191660200161508d565b81815284602083860101111561511157600080fd5b816020850160208301376000918101602001919091529392505050565b60008060006060848603121561514357600080fd5b833567ffffffffffffffff8082111561515b57600080fd5b615167878388016150be565b9450602086013591508082111561517d57600080fd5b5061518a868287016150be565b92505061519960408501614fbd565b90509250925092565b6000602082840312156151b457600080fd5b5035919050565b600080604083850312156151ce57600080fd5b50508035926020909101359150565b6000806000606084860312156151f257600080fd5b6151fb84614fbd565b925061520960208501614fbd565b9150604084013590509250925092565b6000806040838503121561522c57600080fd5b823567ffffffffffffffff8082111561524457600080fd5b818501915085601f83011261525857600080fd5b813560208282111561526c5761526c615077565b8160051b925061527d81840161508d565b828152928401810192818101908985111561529757600080fd5b948201945b848610156152b55785358252948201949082019061529c565b9997909101359750505050505050565b6000806000606084860312156152da57600080fd5b6152e384614fbd565b925060208401359150604084013567ffffffffffffffff81111561530657600080fd5b615312868287016150be565b9150509250925092565b801515811461160857600080fd5b6000806040838503121561533d57600080fd5b61534683614fbd565b915060208301356153568161531c565b809150509250929050565b6000806000806080858703121561537757600080fd5b61538085614fbd565b935061538e60208601614fbd565b925060408501359150606085013567ffffffffffffffff8111156153b157600080fd5b6153bd878288016150be565b91505092959194509250565b60008060008060008060c087890312156153e257600080fd5b6153eb87614fbd565b95506020870135945060408701359350606087013560ff8116811461540f57600080fd5b9598949750929560808101359460a0909101359350915050565b60008060006060848603121561543e57600080fd5b833592506020840135915061519960408501614fbd565b6000806040838503121561546857600080fd5b61547183614fbd565b915061547f60208401614fbd565b90509250929050565b6000806040838503121561549b57600080fd5b6154a483614fbd565b9150602083013563ffffffff8116811461535657600080fd5b600181811c908216806154d157607f821691505b602082108103612fd457634e487b7160e01b600052602260045260246000fd5b634e487b7160e01b600052601160045260246000fd5b63ffffffff82811682821603908082111561315d5761315d6154f1565b634e487b7160e01b600052601260045260246000fd5b600063ffffffff8084168061555157615551615524565b92169190910492915050565b634e487b7160e01b600052603260045260246000fd5b6020808252602d908201527f4552433732313a2063616c6c6572206973206e6f7420746f6b656e206f776e6560408201526c1c881bdc88185c1c1c9bdd9959609a1b606082015260800190565b6020808252600e908201526d1ddc9bdb99c818da185a5b881a5960921b604082015260600190565b634e487b7160e01b600052600160045260246000fd5b602080825260069082015265085d9bdd195960d21b604082015260600190565b81810381811115610e7457610e746154f1565b60006020828403121561564357600080fd5b81516117578161531c565b80820180821115610e7457610e746154f1565b600060018201615673576156736154f1565b5060010190565b828152604060208201526000611c626040830184614ff4565b602080825260059082015264217a65726f60d81b604082015260600190565b60208082526026908201527f43616e206f6e6c79206c6f636b20756e74696c2074696d6520696e207468652060408201526566757475726560d01b606082015260800190565b6020808252601e908201527f566f74696e67206c6f636b2063616e2062652031207965617273206d61780000604082015260600190565b8082028115828204841417610e7457610e746154f1565b60008261575557615755615524565b500490565b60208082526024908201527f43616e6e6f742061646420746f2065787069726564206c6f636b2e20576974686040820152636472617760e01b606082015260800190565b6020808252602b908201527f496e697469616c697a61626c653a20636f6e7472616374206973206e6f74206960408201526a6e697469616c697a696e6760a81b606082015260800190565b818103600083128015838313168383128216171561315d5761315d6154f1565b600082600f0b82600f0b0280600f0b915080821461315d5761315d6154f1565b600f82810b9082900b0360016001607f1b0319811260016001607f1b0382131715610e7457610e746154f1565b600f81810b9083900b0160016001607f1b03811360016001607f1b031982121715610e7457610e746154f1565b634e487b7160e01b600052602160045260246000fd5b8481526020810184905260808101600684106158c557634e487b7160e01b600052602160045260246000fd5b60408201939093526060015292915050565b600080604083850312156158ea57600080fd5b825180600f0b81146158fb57600080fd5b6020939093015192949293505050565b60208082526032908201527f4552433732313a207472616e7366657220746f206e6f6e20455243373231526560408201527131b2b4bb32b91034b6b83632b6b2b73a32b960711b606082015260800190565b600081600f0b83600f0b8061597457615974615524565b60016001607f1b0319821460001982141615615992576159926154f1565b90059392505050565b601f8211156112f457600081815260208120601f850160051c810160208610156159c25750805b601f850160051c820191505b8181101561279e578281556001016159ce565b815167ffffffffffffffff8111156159fb576159fb615077565b615a0f81615a0984546154bd565b8461599b565b602080601f831160018114615a445760008415615a2c5750858301515b600019600386901b1c1916600185901b17855561279e565b600085815260208120601f198616915b82811015615a7357888601518255948401946001909101908401615a54565b5085821015615a915787850151600019600388901b60f8161c191681555b5050505050600190811b01905550565b63ffffffff81811683821601908082111561315d5761315d6154f1565b60208082526023908201527f64737452657020776f756c64206861766520746f6f206d616e7920746f6b656e60408201526249647360e81b606082015260800190565b60208082526025908201527f4552433732313a207472616e736665722066726f6d20696e636f72726563742060408201526437bbb732b960d91b606082015260800190565b6001600160a01b0385811682528416602082015260408101839052608060608201819052600090611fd290830184614ff4565b600060208284031215615b8b57600080fd5b815161175781614f8a56feddf252ad1be2c89b69c2b068fc378daa952ba7f163c4a11628f55a4df523b3efa164736f6c6343000813000a",
    "linkReferences": {}
  },
  "methodIdentifiers": {
    "ARBITRUM_ONE()": "2168ca0f",
    "DELEGATION_TYPEHASH()": "e7a324dc",
    "DOMAIN_TYPEHASH()": "20606b70",
    "MAX_DELEGATES()": "5f5b0c32",
    "abstain(uint256)": "c1f0fb9f",
    "acceptOwnership()": "79ba5097",
    "addBridge(address)": "9712fdf8",
    "approve(address,uint256)": "095ea7b3",
    "balanceOf(address)": "70a08231",
    "balanceOfAtNFT(uint256,uint256)": "8c2c9baf",
    "balanceOfNFT(uint256)": "e7e242d4",
    "balanceOfNFTAt(uint256,uint256)": "e0514aba",
    "block_number()": "25a58b56",
    "burn(uint256)": "42966c68",
    "checkpoint()": "c2c4c5c1",
    "checkpoints(address,uint32)": "f1127ed8",
    "create_lock(uint256,uint256)": "65fc3873",
    "create_lock_for(uint256,uint256,address)": "d4e54c3b",
    "delegate(address)": "5c19a95c",
    "delegateBySig(address,uint256,uint256,uint8,bytes32,bytes32)": "c3cda520",
    "delegates(address)": "587cde1e",
    "deposit_for(uint256,uint256)": "ee99fe28",
    "epoch()": "900cf0cf",
    "getApproved(uint256)": "081812fc",
    "getPastTotalSupply(uint256)": "8e539e8c",
    "getPastVotes(address,uint256)": "3a46b1a8",
    "getPastVotesIndex(address,uint256)": "0758c7d8",
    "getVotes(address)": "9ab24eb0",
    "get_last_user_slope(uint256)": "461f711c",
    "increase_amount(uint256,uint256)": "a183af52",
    "increase_unlock_time(uint256,uint256)": "a4d855df",
    "initialize(string,string,address)": "077f224a",
    "isApprovedForAll(address,address)": "e985e9c5",
    "isApprovedOrOwner(address,uint256)": "430c2081",
    "locked(uint256)": "b45a3c0e",
    "locked__end(uint256)": "f8a05763",
    "masterChainId()": "10c3cf06",
    "merge(uint256,uint256)": "d1c2babb",
    "mint(address,uint256,bytes)": "94d008ef",
    "name()": "06fdde03",
    "nonces(address)": "7ecebe00",
    "numCheckpoints(address)": "6fcfff45",
    "owner()": "8da5cb5b",
    "ownerOf(uint256)": "6352211e",
    "ownership_change(uint256)": "6f548837",
    "pendingOwner()": "e30c3978",
    "point_history(uint256)": "d1febfb9",
    "removeBridge(address)": "04df017d",
    "renounceOwnership()": "715018a6",
    "safeTransferFrom(address,address,uint256)": "42842e0e",
    "safeTransferFrom(address,address,uint256,bytes)": "b88d4fde",
    "setApprovalForAll(address,bool)": "a22cb465",
    "setTeam(address)": "095cf5c6",
    "setToken(address)": "144fa6d7",
    "setVoter(address)": "4bc2a657",
    "slope_changes(uint256)": "71197484",
    "split(uint256[],uint256)": "56afe744",
    "supply()": "047fc9aa",
    "supportsInterface(bytes4)": "01ffc9a7",
    "symbol()": "95d89b41",
    "team()": "85f2aef2",
    "token()": "fc0c546a",
    "tokenOfOwnerByIndex(address,uint256)": "2f745c59",
    "tokenURI(uint256)": "c87b56dd",
    "totalSupply()": "18160ddd",
    "totalSupplyAt(uint256)": "981b24d0",
    "totalSupplyAtT(uint256)": "7116c60c",
    "transferFrom(address,address,uint256)": "23b872dd",
    "transferOwnership(address)": "f2fde38b",
    "user_point_epoch(uint256)": "e441135c",
    "user_point_history(uint256,uint256)": "1376f3da",
    "user_point_history__ts(uint256,uint256)": "1c984bc3",
    "version()": "54fd4d50",
    "voted(uint256)": "8fbb38ff",
    "voter()": "46c96aac",
    "voting(uint256)": "fd4a77f1",
    "withdraw(uint256)": "2e1a7d4d"
  }
}