{
  "address": "0x78A5F19866ca9cb6A3f5BaCa197a326C2A08a8BE",
  "abi": [
    {
      "inputs": [],
      "stateMutability": "nonpayable",
      "type": "constructor"
    },
    {
      "inputs": [],
      "name": "XERC721__addBridge_alreadyAdded",
      "type": "error"
    },
    {
      "inputs": [],
      "name": "XERC721__onlyBridge_notBridge",
      "type": "error"
    },
    {
      "inputs": [],
      "name": "XERC721__removeBridge_alreadyRemoved",
      "type": "error"
    },
    {
      "anonymous": false,
      "inputs": [
        {
          "indexed": true,
          "internalType": "address",
          "name": "owner",
          "type": "address"
        },
        {
          "indexed": true,
          "internalType": "address",
          "name": "approved",
          "type": "address"
        },
        {
          "indexed": true,
          "internalType": "uint256",
          "name": "tokenId",
          "type": "uint256"
        }
      ],
      "name": "Approval",
      "type": "event"
    },
    {
      "anonymous": false,
      "inputs": [
        {
          "indexed": true,
          "internalType": "address",
          "name": "owner",
          "type": "address"
        },
        {
          "indexed": true,
          "internalType": "address",
          "name": "operator",
          "type": "address"
        },
        {
          "indexed": false,
          "internalType": "bool",
          "name": "approved",
          "type": "bool"
        }
      ],
      "name": "ApprovalForAll",
      "type": "event"
    },
    {
      "anonymous": false,
      "inputs": [
        {
          "indexed": true,
          "internalType": "address",
          "name": "bridge",
          "type": "address"
        }
      ],
      "name": "BridgeAdded",
      "type": "event"
    },
    {
      "anonymous": false,
      "inputs": [
        {
          "indexed": true,
          "internalType": "address",
          "name": "bridge",
          "type": "address"
        }
      ],
      "name": "BridgeRemoved",
      "type": "event"
    },
    {
      "anonymous": false,
      "inputs": [
        {
          "indexed": false,
          "internalType": "uint256",
          "name": "_tokenId",
          "type": "uint256"
        },
        {
          "indexed": false,
          "internalType": "bytes",
          "name": "_metadata",
          "type": "bytes"
        }
      ],
      "name": "BurnAsBridge",
      "type": "event"
    },
    {
      "anonymous": false,
      "inputs": [
        {
          "indexed": true,
          "internalType": "address",
          "name": "delegator",
          "type": "address"
        },
        {
          "indexed": true,
          "internalType": "address",
          "name": "fromDelegate",
          "type": "address"
        },
        {
          "indexed": true,
          "internalType": "address",
          "name": "toDelegate",
          "type": "address"
        }
      ],
      "name": "DelegateChanged",
      "type": "event"
    },
    {
      "anonymous": false,
      "inputs": [
        {
          "indexed": true,
          "internalType": "address",
          "name": "delegate",
          "type": "address"
        },
        {
          "indexed": false,
          "internalType": "uint256",
          "name": "previousBalance",
          "type": "uint256"
        },
        {
          "indexed": false,
          "internalType": "uint256",
          "name": "newBalance",
          "type": "uint256"
        }
      ],
      "name": "DelegateVotesChanged",
      "type": "event"
    },
    {
      "anonymous": false,
      "inputs": [
        {
          "indexed": true,
          "internalType": "address",
          "name": "provider",
          "type": "address"
        },
        {
          "indexed": false,
          "internalType": "uint256",
          "name": "tokenId",
          "type": "uint256"
        },
        {
          "indexed": false,
          "internalType": "uint256",
          "name": "value",
          "type": "uint256"
        },
        {
          "indexed": true,
          "internalType": "uint256",
          "name": "locktime",
          "type": "uint256"
        },
        {
          "indexed": false,
          "internalType": "enum VoteEscrow.DepositType",
          "name": "deposit_type",
          "type": "uint8"
        },
        {
          "indexed": false,
          "internalType": "uint256",
          "name": "ts",
          "type": "uint256"
        }
      ],
      "name": "Deposit",
      "type": "event"
    },
    {
      "anonymous": false,
      "inputs": [
        {
          "indexed": false,
          "internalType": "uint8",
          "name": "version",
          "type": "uint8"
        }
      ],
      "name": "Initialized",
      "type": "event"
    },
    {
      "anonymous": false,
      "inputs": [
        {
          "indexed": false,
          "internalType": "uint256",
          "name": "_tokenId",
          "type": "uint256"
        },
        {
          "indexed": false,
          "internalType": "bytes",
          "name": "_metadata",
          "type": "bytes"
        }
      ],
      "name": "MintAsBridge",
      "type": "event"
    },
    {
      "anonymous": false,
      "inputs": [
        {
          "indexed": true,
          "internalType": "address",
          "name": "previousOwner",
          "type": "address"
        },
        {
          "indexed": true,
          "internalType": "address",
          "name": "newOwner",
          "type": "address"
        }
      ],
      "name": "OwnershipTransferStarted",
      "type": "event"
    },
    {
      "anonymous": false,
      "inputs": [
        {
          "indexed": true,
          "internalType": "address",
          "name": "previousOwner",
          "type": "address"
        },
        {
          "indexed": true,
          "internalType": "address",
          "name": "newOwner",
          "type": "address"
        }
      ],
      "name": "OwnershipTransferred",
      "type": "event"
    },
    {
      "anonymous": false,
      "inputs": [
        {
          "indexed": false,
          "internalType": "uint256",
          "name": "prevSupply",
          "type": "uint256"
        },
        {
          "indexed": false,
          "internalType": "uint256",
          "name": "supply",
          "type": "uint256"
        }
      ],
      "name": "Supply",
      "type": "event"
    },
    {
      "anonymous": false,
      "inputs": [
        {
          "indexed": true,
          "internalType": "address",
          "name": "from",
          "type": "address"
        },
        {
          "indexed": true,
          "internalType": "address",
          "name": "to",
          "type": "address"
        },
        {
          "indexed": true,
          "internalType": "uint256",
          "name": "tokenId",
          "type": "uint256"
        }
      ],
      "name": "Transfer",
      "type": "event"
    },
    {
      "anonymous": false,
      "inputs": [
        {
          "indexed": true,
          "internalType": "address",
          "name": "provider",
          "type": "address"
        },
        {
          "indexed": false,
          "internalType": "uint256",
          "name": "tokenId",
          "type": "uint256"
        },
        {
          "indexed": false,
          "internalType": "uint256",
          "name": "value",
          "type": "uint256"
        },
        {
          "indexed": false,
          "internalType": "uint256",
          "name": "ts",
          "type": "uint256"
        }
      ],
      "name": "Withdraw",
      "type": "event"
    },
    {
      "inputs": [],
      "name": "ARBITRUM_ONE",
      "outputs": [
        {
          "internalType": "uint128",
          "name": "",
          "type": "uint128"
        }
      ],
      "stateMutability": "view",
      "type": "function"
    },
    {
      "inputs": [],
      "name": "DELEGATION_TYPEHASH",
      "outputs": [
        {
          "internalType": "bytes32",
          "name": "",
          "type": "bytes32"
        }
      ],
      "stateMutability": "view",
      "type": "function"
    },
    {
      "inputs": [],
      "name": "DOMAIN_TYPEHASH",
      "outputs": [
        {
          "internalType": "bytes32",
          "name": "",
          "type": "bytes32"
        }
      ],
      "stateMutability": "view",
      "type": "function"
    },
    {
      "inputs": [],
      "name": "MAX_DELEGATES",
      "outputs": [
        {
          "internalType": "uint256",
          "name": "",
          "type": "uint256"
        }
      ],
      "stateMutability": "view",
      "type": "function"
    },
    {
      "inputs": [
        {
          "internalType": "uint256",
          "name": "_tokenId",
          "type": "uint256"
        }
      ],
      "name": "abstain",
      "outputs": [],
      "stateMutability": "nonpayable",
      "type": "function"
    },
    {
      "inputs": [],
      "name": "acceptOwnership",
      "outputs": [],
      "stateMutability": "nonpayable",
      "type": "function"
    },
    {
      "inputs": [
        {
          "internalType": "address",
          "name": "_bridge",
          "type": "address"
        }
      ],
      "name": "addBridge",
      "outputs": [],
      "stateMutability": "nonpayable",
      "type": "function"
    },
    {
      "inputs": [
        {
          "internalType": "address",
          "name": "to",
          "type": "address"
        },
        {
          "internalType": "uint256",
          "name": "tokenId",
          "type": "uint256"
        }
      ],
      "name": "approve",
      "outputs": [],
      "stateMutability": "nonpayable",
      "type": "function"
    },
    {
      "inputs": [
        {
          "internalType": "address",
          "name": "owner",
          "type": "address"
        }
      ],
      "name": "balanceOf",
      "outputs": [
        {
          "internalType": "uint256",
          "name": "",
          "type": "uint256"
        }
      ],
      "stateMutability": "view",
      "type": "function"
    },
    {
      "inputs": [
        {
          "internalType": "uint256",
          "name": "_tokenId",
          "type": "uint256"
        },
        {
          "internalType": "uint256",
          "name": "_block",
          "type": "uint256"
        }
      ],
      "name": "balanceOfAtNFT",
      "outputs": [
        {
          "internalType": "uint256",
          "name": "",
          "type": "uint256"
        }
      ],
      "stateMutability": "view",
      "type": "function"
    },
    {
      "inputs": [
        {
          "internalType": "uint256",
          "name": "_tokenId",
          "type": "uint256"
        }
      ],
      "name": "balanceOfNFT",
      "outputs": [
        {
          "internalType": "uint256",
          "name": "",
          "type": "uint256"
        }
      ],
      "stateMutability": "view",
      "type": "function"
    },
    {
      "inputs": [
        {
          "internalType": "uint256",
          "name": "_tokenId",
          "type": "uint256"
        },
        {
          "internalType": "uint256",
          "name": "_t",
          "type": "uint256"
        }
      ],
      "name": "balanceOfNFTAt",
      "outputs": [
        {
          "internalType": "uint256",
          "name": "",
          "type": "uint256"
        }
      ],
      "stateMutability": "view",
      "type": "function"
    },
    {
      "inputs": [],
      "name": "block_number",
      "outputs": [
        {
          "internalType": "uint256",
          "name": "",
          "type": "uint256"
        }
      ],
      "stateMutability": "view",
      "type": "function"
    },
    {
      "inputs": [
        {
          "internalType": "uint256",
          "name": "_tokenId",
          "type": "uint256"
        }
      ],
      "name": "burn",
      "outputs": [
        {
          "internalType": "bytes",
          "name": "_metadata",
          "type": "bytes"
        }
      ],
      "stateMutability": "nonpayable",
      "type": "function"
    },
    {
      "inputs": [],
      "name": "checkpoint",
      "outputs": [],
      "stateMutability": "nonpayable",
      "type": "function"
    },
    {
      "inputs": [
        {
          "internalType": "address",
          "name": "",
          "type": "address"
        },
        {
          "internalType": "uint32",
          "name": "",
          "type": "uint32"
        }
      ],
      "name": "checkpoints",
      "outputs": [
        {
          "internalType": "uint256",
          "name": "timestamp",
          "type": "uint256"
        }
      ],
      "stateMutability": "view",
      "type": "function"
    },
    {
      "inputs": [
        {
          "internalType": "uint256",
          "name": "_value",
          "type": "uint256"
        },
        {
          "internalType": "uint256",
          "name": "_lock_duration",
          "type": "uint256"
        }
      ],
      "name": "create_lock",
      "outputs": [
        {
          "internalType": "uint256",
          "name": "",
          "type": "uint256"
        }
      ],
      "stateMutability": "nonpayable",
      "type": "function"
    },
    {
      "inputs": [
        {
          "internalType": "uint256",
          "name": "_value",
          "type": "uint256"
        },
        {
          "internalType": "uint256",
          "name": "_lock_duration",
          "type": "uint256"
        },
        {
          "internalType": "address",
          "name": "_to",
          "type": "address"
        }
      ],
      "name": "create_lock_for",
      "outputs": [
        {
          "internalType": "uint256",
          "name": "",
          "type": "uint256"
        }
      ],
      "stateMutability": "nonpayable",
      "type": "function"
    },
    {
      "inputs": [
        {
          "internalType": "address",
          "name": "delegatee",
          "type": "address"
        }
      ],
      "name": "delegate",
      "outputs": [],
      "stateMutability": "nonpayable",
      "type": "function"
    },
    {
      "inputs": [
        {
          "internalType": "address",
          "name": "delegatee",
          "type": "address"
        },
        {
          "internalType": "uint256",
          "name": "nonce",
          "type": "uint256"
        },
        {
          "internalType": "uint256",
          "name": "expiry",
          "type": "uint256"
        },
        {
          "internalType": "uint8",
          "name": "v",
          "type": "uint8"
        },
        {
          "internalType": "bytes32",
          "name": "r",
          "type": "bytes32"
        },
        {
          "internalType": "bytes32",
          "name": "s",
          "type": "bytes32"
        }
      ],
      "name": "delegateBySig",
      "outputs": [],
      "stateMutability": "nonpayable",
      "type": "function"
    },
    {
      "inputs": [
        {
          "internalType": "address",
          "name": "delegator",
          "type": "address"
        }
      ],
      "name": "delegates",
      "outputs": [
        {
          "internalType": "address",
          "name": "",
          "type": "address"
        }
      ],
      "stateMutability": "view",
      "type": "function"
    },
    {
      "inputs": [
        {
          "internalType": "uint256",
          "name": "_tokenId",
          "type": "uint256"
        },
        {
          "internalType": "uint256",
          "name": "_value",
          "type": "uint256"
        }
      ],
      "name": "deposit_for",
      "outputs": [],
      "stateMutability": "nonpayable",
      "type": "function"
    },
    {
      "inputs": [],
      "name": "epoch",
      "outputs": [
        {
          "internalType": "uint256",
          "name": "",
          "type": "uint256"
        }
      ],
      "stateMutability": "view",
      "type": "function"
    },
    {
      "inputs": [
        {
          "internalType": "uint256",
          "name": "tokenId",
          "type": "uint256"
        }
      ],
      "name": "getApproved",
      "outputs": [
        {
          "internalType": "address",
          "name": "",
          "type": "address"
        }
      ],
      "stateMutability": "view",
      "type": "function"
    },
    {
      "inputs": [
        {
          "internalType": "uint256",
          "name": "timestamp",
          "type": "uint256"
        }
      ],
      "name": "getPastTotalSupply",
      "outputs": [
        {
          "internalType": "uint256",
          "name": "",
          "type": "uint256"
        }
      ],
      "stateMutability": "view",
      "type": "function"
    },
    {
      "inputs": [
        {
          "internalType": "address",
          "name": "account",
          "type": "address"
        },
        {
          "internalType": "uint256",
          "name": "timestamp",
          "type": "uint256"
        }
      ],
      "name": "getPastVotes",
      "outputs": [
        {
          "internalType": "uint256",
          "name": "",
          "type": "uint256"
        }
      ],
      "stateMutability": "view",
      "type": "function"
    },
    {
      "inputs": [
        {
          "internalType": "address",
          "name": "account",
          "type": "address"
        },
        {
          "internalType": "uint256",
          "name": "timestamp",
          "type": "uint256"
        }
      ],
      "name": "getPastVotesIndex",
      "outputs": [
        {
          "internalType": "uint32",
          "name": "",
          "type": "uint32"
        }
      ],
      "stateMutability": "view",
      "type": "function"
    },
    {
      "inputs": [
        {
          "internalType": "address",
          "name": "account",
          "type": "address"
        }
      ],
      "name": "getVotes",
      "outputs": [
        {
          "internalType": "uint256",
          "name": "",
          "type": "uint256"
        }
      ],
      "stateMutability": "view",
      "type": "function"
    },
    {
      "inputs": [
        {
          "internalType": "uint256",
          "name": "_tokenId",
          "type": "uint256"
        }
      ],
      "name": "get_last_user_slope",
      "outputs": [
        {
          "internalType": "int128",
          "name": "",
          "type": "int128"
        }
      ],
      "stateMutability": "view",
      "type": "function"
    },
    {
      "inputs": [
        {
          "internalType": "uint256",
          "name": "_tokenId",
          "type": "uint256"
        },
        {
          "internalType": "uint256",
          "name": "_value",
          "type": "uint256"
        }
      ],
      "name": "increase_amount",
      "outputs": [],
      "stateMutability": "nonpayable",
      "type": "function"
    },
    {
      "inputs": [
        {
          "internalType": "uint256",
          "name": "_tokenId",
          "type": "uint256"
        },
        {
          "internalType": "uint256",
          "name": "_lock_duration",
          "type": "uint256"
        }
      ],
      "name": "increase_unlock_time",
      "outputs": [],
      "stateMutability": "nonpayable",
      "type": "function"
    },
    {
      "inputs": [
        {
          "internalType": "string",
          "name": "name_",
          "type": "string"
        },
        {
          "internalType": "string",
          "name": "symbol_",
          "type": "string"
        },
        {
          "internalType": "address",
          "name": "token_addr",
          "type": "address"
        }
      ],
      "name": "initialize",
      "outputs": [],
      "stateMutability": "nonpayable",
      "type": "function"
    },
    {
      "inputs": [
        {
          "internalType": "address",
          "name": "_owner",
          "type": "address"
        },
        {
          "internalType": "address",
          "name": "_operator",
          "type": "address"
        }
      ],
      "name": "isApprovedForAll",
      "outputs": [
        {
          "internalType": "bool",
          "name": "",
          "type": "bool"
        }
      ],
      "stateMutability": "view",
      "type": "function"
    },
    {
      "inputs": [
        {
          "internalType": "address",
          "name": "_spender",
          "type": "address"
        },
        {
          "internalType": "uint256",
          "name": "_tokenId",
          "type": "uint256"
        }
      ],
      "name": "isApprovedOrOwner",
      "outputs": [
        {
          "internalType": "bool",
          "name": "",
          "type": "bool"
        }
      ],
      "stateMutability": "view",
      "type": "function"
    },
    {
      "inputs": [
        {
          "internalType": "uint256",
          "name": "",
          "type": "uint256"
        }
      ],
      "name": "locked",
      "outputs": [
        {
          "internalType": "int128",
          "name": "amount",
          "type": "int128"
        },
        {
          "internalType": "uint256",
          "name": "end",
          "type": "uint256"
        }
      ],
      "stateMutability": "view",
      "type": "function"
    },
    {
      "inputs": [
        {
          "internalType": "uint256",
          "name": "_tokenId",
          "type": "uint256"
        }
      ],
      "name": "locked__end",
      "outputs": [
        {
          "internalType": "uint256",
          "name": "",
          "type": "uint256"
        }
      ],
      "stateMutability": "view",
      "type": "function"
    },
    {
      "inputs": [],
      "name": "masterChainId",
      "outputs": [
        {
          "internalType": "uint256",
          "name": "",
          "type": "uint256"
        }
      ],
      "stateMutability": "view",
      "type": "function"
    },
    {
      "inputs": [
        {
          "internalType": "uint256",
          "name": "_from",
          "type": "uint256"
        },
        {
          "internalType": "uint256",
          "name": "_to",
          "type": "uint256"
        }
      ],
      "name": "merge",
      "outputs": [],
      "stateMutability": "nonpayable",
      "type": "function"
    },
    {
      "inputs": [
        {
          "internalType": "address",
          "name": "_to",
          "type": "address"
        },
        {
          "internalType": "uint256",
          "name": "_tokenId",
          "type": "uint256"
        },
        {
          "internalType": "bytes",
          "name": "_metadata",
          "type": "bytes"
        }
      ],
      "name": "mint",
      "outputs": [],
      "stateMutability": "nonpayable",
      "type": "function"
    },
    {
      "inputs": [],
      "name": "name",
      "outputs": [
        {
          "internalType": "string",
          "name": "",
          "type": "string"
        }
      ],
      "stateMutability": "view",
      "type": "function"
    },
    {
      "inputs": [
        {
          "internalType": "address",
          "name": "",
          "type": "address"
        }
      ],
      "name": "nonces",
      "outputs": [
        {
          "internalType": "uint256",
          "name": "",
          "type": "uint256"
        }
      ],
      "stateMutability": "view",
      "type": "function"
    },
    {
      "inputs": [
        {
          "internalType": "address",
          "name": "",
          "type": "address"
        }
      ],
      "name": "numCheckpoints",
      "outputs": [
        {
          "internalType": "uint32",
          "name": "",
          "type": "uint32"
        }
      ],
      "stateMutability": "view",
      "type": "function"
    },
    {
      "inputs": [],
      "name": "owner",
      "outputs": [
        {
          "internalType": "address",
          "name": "",
          "type": "address"
        }
      ],
      "stateMutability": "view",
      "type": "function"
    },
    {
      "inputs": [
        {
          "internalType": "uint256",
          "name": "tokenId",
          "type": "uint256"
        }
      ],
      "name": "ownerOf",
      "outputs": [
        {
          "internalType": "address",
          "name": "",
          "type": "address"
        }
      ],
      "stateMutability": "view",
      "type": "function"
    },
    {
      "inputs": [
        {
          "internalType": "uint256",
          "name": "",
          "type": "uint256"
        }
      ],
      "name": "ownership_change",
      "outputs": [
        {
          "internalType": "uint256",
          "name": "",
          "type": "uint256"
        }
      ],
      "stateMutability": "view",
      "type": "function"
    },
    {
      "inputs": [],
      "name": "pendingOwner",
      "outputs": [
        {
          "internalType": "address",
          "name": "",
          "type": "address"
        }
      ],
      "stateMutability": "view",
      "type": "function"
    },
    {
      "inputs": [
        {
          "internalType": "uint256",
          "name": "",
          "type": "uint256"
        }
      ],
      "name": "point_history",
      "outputs": [
        {
          "internalType": "int128",
          "name": "bias",
          "type": "int128"
        },
        {
          "internalType": "int128",
          "name": "slope",
          "type": "int128"
        },
        {
          "internalType": "uint256",
          "name": "ts",
          "type": "uint256"
        },
        {
          "internalType": "uint256",
          "name": "blk",
          "type": "uint256"
        }
      ],
      "stateMutability": "view",
      "type": "function"
    },
    {
      "inputs": [
        {
          "internalType": "address",
          "name": "_bridge",
          "type": "address"
        }
      ],
      "name": "removeBridge",
      "outputs": [],
      "stateMutability": "nonpayable",
      "type": "function"
    },
    {
      "inputs": [],
      "name": "renounceOwnership",
      "outputs": [],
      "stateMutability": "nonpayable",
      "type": "function"
    },
    {
      "inputs": [
        {
          "internalType": "address",
          "name": "from",
          "type": "address"
        },
        {
          "internalType": "address",
          "name": "to",
          "type": "address"
        },
        {
          "internalType": "uint256",
          "name": "tokenId",
          "type": "uint256"
        }
      ],
      "name": "safeTransferFrom",
      "outputs": [],
      "stateMutability": "nonpayable",
      "type": "function"
    },
    {
      "inputs": [
        {
          "internalType": "address",
          "name": "from",
          "type": "address"
        },
        {
          "internalType": "address",
          "name": "to",
          "type": "address"
        },
        {
          "internalType": "uint256",
          "name": "tokenId",
          "type": "uint256"
        },
        {
          "internalType": "bytes",
          "name": "data",
          "type": "bytes"
        }
      ],
      "name": "safeTransferFrom",
      "outputs": [],
      "stateMutability": "nonpayable",
      "type": "function"
    },
    {
      "inputs": [
        {
          "internalType": "address",
          "name": "operator",
          "type": "address"
        },
        {
          "internalType": "bool",
          "name": "approved",
          "type": "bool"
        }
      ],
      "name": "setApprovalForAll",
      "outputs": [],
      "stateMutability": "nonpayable",
      "type": "function"
    },
    {
      "inputs": [
        {
          "internalType": "address",
          "name": "_team",
          "type": "address"
        }
      ],
      "name": "setTeam",
      "outputs": [],
      "stateMutability": "nonpayable",
      "type": "function"
    },
    {
      "inputs": [
        {
          "internalType": "address",
          "name": "_token",
          "type": "address"
        }
      ],
      "name": "setToken",
      "outputs": [],
      "stateMutability": "nonpayable",
      "type": "function"
    },
    {
      "inputs": [
        {
          "internalType": "address",
          "name": "_voter",
          "type": "address"
        }
      ],
      "name": "setVoter",
      "outputs": [],
      "stateMutability": "nonpayable",
      "type": "function"
    },
    {
      "inputs": [
        {
          "internalType": "uint256",
          "name": "",
          "type": "uint256"
        }
      ],
      "name": "slope_changes",
      "outputs": [
        {
          "internalType": "int128",
          "name": "",
          "type": "int128"
        }
      ],
      "stateMutability": "view",
      "type": "function"
    },
    {
      "inputs": [
        {
          "internalType": "uint256[]",
          "name": "amounts",
          "type": "uint256[]"
        },
        {
          "internalType": "uint256",
          "name": "_tokenId",
          "type": "uint256"
        }
      ],
      "name": "split",
      "outputs": [],
      "stateMutability": "nonpayable",
      "type": "function"
    },
    {
      "inputs": [],
      "name": "supply",
      "outputs": [
        {
          "internalType": "uint256",
          "name": "",
          "type": "uint256"
        }
      ],
      "stateMutability": "view",
      "type": "function"
    },
    {
      "inputs": [
        {
          "internalType": "bytes4",
          "name": "_interfaceID",
          "type": "bytes4"
        }
      ],
      "name": "supportsInterface",
      "outputs": [
        {
          "internalType": "bool",
          "name": "",
          "type": "bool"
        }
      ],
      "stateMutability": "view",
      "type": "function"
    },
    {
      "inputs": [],
      "name": "symbol",
      "outputs": [
        {
          "internalType": "string",
          "name": "",
          "type": "string"
        }
      ],
      "stateMutability": "view",
      "type": "function"
    },
    {
      "inputs": [],
      "name": "team",
      "outputs": [
        {
          "internalType": "address",
          "name": "",
          "type": "address"
        }
      ],
      "stateMutability": "view",
      "type": "function"
    },
    {
      "inputs": [],
      "name": "token",
      "outputs": [
        {
          "internalType": "address",
          "name": "",
          "type": "address"
        }
      ],
      "stateMutability": "view",
      "type": "function"
    },
    {
      "inputs": [
        {
          "internalType": "address",
          "name": "_owner",
          "type": "address"
        },
        {
          "internalType": "uint256",
          "name": "_tokenIndex",
          "type": "uint256"
        }
      ],
      "name": "tokenOfOwnerByIndex",
      "outputs": [
        {
          "internalType": "uint256",
          "name": "",
          "type": "uint256"
        }
      ],
      "stateMutability": "view",
      "type": "function"
    },
    {
      "inputs": [
        {
          "internalType": "uint256",
          "name": "_tokenId",
          "type": "uint256"
        }
      ],
      "name": "tokenURI",
      "outputs": [
        {
          "internalType": "string",
          "name": "",
          "type": "string"
        }
      ],
      "stateMutability": "view",
      "type": "function"
    },
    {
      "inputs": [],
      "name": "totalSupply",
      "outputs": [
        {
          "internalType": "uint256",
          "name": "",
          "type": "uint256"
        }
      ],
      "stateMutability": "view",
      "type": "function"
    },
    {
      "inputs": [
        {
          "internalType": "uint256",
          "name": "_block",
          "type": "uint256"
        }
      ],
      "name": "totalSupplyAt",
      "outputs": [
        {
          "internalType": "uint256",
          "name": "",
          "type": "uint256"
        }
      ],
      "stateMutability": "view",
      "type": "function"
    },
    {
      "inputs": [
        {
          "internalType": "uint256",
          "name": "t",
          "type": "uint256"
        }
      ],
      "name": "totalSupplyAtT",
      "outputs": [
        {
          "internalType": "uint256",
          "name": "",
          "type": "uint256"
        }
      ],
      "stateMutability": "view",
      "type": "function"
    },
    {
      "inputs": [
        {
          "internalType": "address",
          "name": "from",
          "type": "address"
        },
        {
          "internalType": "address",
          "name": "to",
          "type": "address"
        },
        {
          "internalType": "uint256",
          "name": "tokenId",
          "type": "uint256"
        }
      ],
      "name": "transferFrom",
      "outputs": [],
      "stateMutability": "nonpayable",
      "type": "function"
    },
    {
      "inputs": [
        {
          "internalType": "address",
          "name": "newOwner",
          "type": "address"
        }
      ],
      "name": "transferOwnership",
      "outputs": [],
      "stateMutability": "nonpayable",
      "type": "function"
    },
    {
      "inputs": [
        {
          "internalType": "uint256",
          "name": "",
          "type": "uint256"
        }
      ],
      "name": "user_point_epoch",
      "outputs": [
        {
          "internalType": "uint256",
          "name": "",
          "type": "uint256"
        }
      ],
      "stateMutability": "view",
      "type": "function"
    },
    {
      "inputs": [
        {
          "internalType": "uint256",
          "name": "",
          "type": "uint256"
        },
        {
          "internalType": "uint256",
          "name": "",
          "type": "uint256"
        }
      ],
      "name": "user_point_history",
      "outputs": [
        {
          "internalType": "int128",
          "name": "bias",
          "type": "int128"
        },
        {
          "internalType": "int128",
          "name": "slope",
          "type": "int128"
        },
        {
          "internalType": "uint256",
          "name": "ts",
          "type": "uint256"
        },
        {
          "internalType": "uint256",
          "name": "blk",
          "type": "uint256"
        }
      ],
      "stateMutability": "view",
      "type": "function"
    },
    {
      "inputs": [
        {
          "internalType": "uint256",
          "name": "_tokenId",
          "type": "uint256"
        },
        {
          "internalType": "uint256",
          "name": "_idx",
          "type": "uint256"
        }
      ],
      "name": "user_point_history__ts",
      "outputs": [
        {
          "internalType": "uint256",
          "name": "",
          "type": "uint256"
        }
      ],
      "stateMutability": "view",
      "type": "function"
    },
    {
      "inputs": [],
      "name": "version",
      "outputs": [
        {
          "internalType": "string",
          "name": "",
          "type": "string"
        }
      ],
      "stateMutability": "view",
      "type": "function"
    },
    {
      "inputs": [
        {
          "internalType": "uint256",
          "name": "",
          "type": "uint256"
        }
      ],
      "name": "voted",
      "outputs": [
        {
          "internalType": "bool",
          "name": "",
          "type": "bool"
        }
      ],
      "stateMutability": "view",
      "type": "function"
    },
    {
      "inputs": [],
      "name": "voter",
      "outputs": [
        {
          "internalType": "address",
          "name": "",
          "type": "address"
        }
      ],
      "stateMutability": "view",
      "type": "function"
    },
    {
      "inputs": [
        {
          "internalType": "uint256",
          "name": "_tokenId",
          "type": "uint256"
        }
      ],
      "name": "voting",
      "outputs": [],
      "stateMutability": "nonpayable",
      "type": "function"
    },
    {
      "inputs": [
        {
          "internalType": "uint256",
          "name": "_tokenId",
          "type": "uint256"
        }
      ],
      "name": "withdraw",
      "outputs": [],
      "stateMutability": "nonpayable",
      "type": "function"
    }
  ],
  "transactionHash": "0x6ce43b894ffb3b5f6e2e9f8cd46b4af6a005d6615f8ddb84513cafb4fb4a3ddb",
  "args": [],
  "numDeployments": 4,
  "bytecode": {
    "object": "0x60806040523480156200001157600080fd5b506200001c62000022565b620000e3565b600054610100900460ff16156200008f5760405162461bcd60e51b815260206004820152602760248201527f496e697469616c697a61626c653a20636f6e747261637420697320696e697469604482015266616c697a696e6760c81b606482015260840160405180910390fd5b60005460ff90811614620000e1576000805460ff191660ff9081179091556040519081527f7f26b83ff96e1f2b6a682f133852f6798a09c465da95921460cefb38474024989060200160405180910390a15b565b615bd680620000f36000396000f3fe608060405234801561001057600080fd5b506004361061045f5760003560e01c8063711974841161024c578063b88d4fde11610146578063e441135c116100c3578063f1127ed811610087578063f1127ed814610b28578063f2fde38b14610b54578063f8a0576314610b67578063fc0c546a14610b8b578063fd4a77f114610b9f57600080fd5b8063e441135c14610aa7578063e7a324dc14610ac8578063e7e242d414610aef578063e985e9c514610b02578063ee99fe2814610b1557600080fd5b8063d1c2babb1161010a578063d1c2babb14610a1e578063d1febfb914610a31578063d4e54c3b14610a70578063e0514aba14610a83578063e30c397814610a9657600080fd5b8063b88d4fde146109ca578063c1f0fb9f146109dd578063c2c4c5c1146109f0578063c3cda520146109f8578063c87b56dd14610a0b57600080fd5b8063900cf0cf116101d45780639ab24eb0116101985780639ab24eb014610935578063a183af5214610948578063a22cb4651461095b578063a4d855df1461096e578063b45a3c0e1461098157600080fd5b8063900cf0cf146108ea57806394d008ef146108f457806395d89b41146109075780639712fdf81461090f578063981b24d01461092257600080fd5b806385f2aef21161021b57806385f2aef21461087b5780638c2c9baf1461088f5780638da5cb5b146108a25780638e539e8c146108b35780638fbb38ff146108c657600080fd5b80637119748414610826578063715018a61461084a57806379ba5097146108525780637ecebe001461085a57600080fd5b80632f745c591161035d57806356afe744116102e557806365fc3873116102a957806365fc3873146107a55780636f548837146107b85780636fcfff45146107d957806370a08231146108005780637116c60c1461081357600080fd5b806356afe74414610750578063587cde1e146107635780635c19a95c146107765780635f5b0c32146107895780636352211e1461079257600080fd5b8063430c20811161032c578063430c2081146106cc578063461f711c146106df57806346c96aac146107055780634bc2a6571461071957806354fd4d501461072c57600080fd5b80632f745c591461065c5780633a46b1a81461069357806342842e0e146106a657806342966c68146106b957600080fd5b806310c3cf06116103eb57806320606b70116103af57806320606b70146105e85780632168ca0f1461060f57806323b872dd1461063057806325a58b56146106435780632e1a7d4d1461064957600080fd5b806310c3cf06146105755780631376f3da1461057f578063144fa6d7146105ba57806318160ddd146105cd5780631c984bc3146105d557600080fd5b80630758c7d8116104325780630758c7d8146104e9578063077f224a14610511578063081812fc14610524578063095cf5c61461054f578063095ea7b31461056257600080fd5b806301ffc9a714610464578063047fc9aa146104a757806304df017d146104bf57806306fdde03146104d4575b600080fd5b610492610472366004614fb3565b6001600160e01b0319166000908152610163602052604090205460ff1690565b60405190151581526020015b60405180910390f35b6104b161016e5481565b60405190815260200161049e565b6104d26104cd366004614fec565b610bb2565b005b6104dc610c48565b60405161049e919061504d565b6104fc6104f7366004615060565b610cda565b60405163ffffffff909116815260200161049e565b6104d261051f366004615141565b610e51565b6105376105323660046151b5565b61112e565b6040516001600160a01b03909116815260200161049e565b6104d261055d366004614fec565b611155565b6104d2610570366004615060565b6111bb565b6104b16101655481565b61059261058d3660046151ce565b6112d0565b60408051600f95860b81529390940b602084015292820152606081019190915260800161049e565b6104d26105c8366004614fec565b611318565b6104b1611343565b6104b16105e33660046151ce565b611353565b6104b17f8cad95687ba82c2ce50e74f7b754645e5117c3a5bec8151c0726d5857980a86681565b61061861a4b181565b6040516001600160801b03909116815260200161049e565b6104d261063e3660046151f0565b611386565b436104b1565b6104d26106573660046151b5565b6113b7565b6104b161066a366004615060565b6001600160a01b0391909116600090815261016760209081526040808320938352929052205490565b6104b16106a1366004615060565b6115e2565b6104d26106b43660046151f0565b611682565b6104dc6106c73660046151b5565b61169d565b6104926106da366004615060565b611722565b6106f26106ed3660046151b5565b611735565b604051600f9190910b815260200161049e565b61016054610537906001600160a01b031681565b6104d2610727366004614fec565b61177a565b6104dc604051806040016040528060058152602001640312e302e360dc1b81525081565b6104d261075e36600461522c565b6117e0565b610537610771366004614fec565b611a8b565b6104d2610784366004614fec565b611abc565b6104b161040081565b6105376107a03660046151b5565b611ad7565b6104b16107b33660046151ce565b611b37565b6104b16107c63660046151b5565b6101666020526000908152604090205481565b6104fc6107e7366004614fec565b6101726020526000908152604090205463ffffffff1681565b6104b161080e366004614fec565b611b59565b6104b16108213660046151b5565b611bdf565b6106f26108343660046151b5565b61016d60205260009081526040902054600f0b81565b6104d2611c41565b6104d2611c55565b6104b1610868366004614fec565b6101736020526000908152604090205481565b61016154610537906001600160a01b031681565b6104b161089d3660046151ce565b611ccc565b6097546001600160a01b0316610537565b6104b16108c13660046151b5565b611cd8565b6104926108d43660046151b5565b61016f6020526000908152604090205460ff1681565b6104b161016c5481565b6104d26109023660046152d8565b611ce3565b6104dc611d65565b6104d261091d366004614fec565b611d74565b6104b16109303660046151b5565b611e0e565b6104b1610943366004614fec565b611fb3565b6104d26109563660046151ce565b612088565b6104d261096936600461533d565b61216f565b6104d261097c3660046151ce565b61217a565b6109b061098f3660046151b5565b61016b6020526000908152604090208054600190910154600f9190910b9082565b60408051600f9390930b835260208301919091520161049e565b6104d26109d8366004615374565b612313565b6104d26109eb3660046151b5565b612345565b6104d26123a2565b6104d2610a063660046153dc565b6123e0565b6104dc610a193660046151b5565b61277d565b6104d2610a2c3660046151ce565b612813565b610592610a3f3660046151b5565b61016260205260009081526040902080546001820154600290920154600f82810b93600160801b909304900b919084565b6104b1610a7e36600461543c565b6129b6565b6104b1610a913660046151ce565b6129d8565b60c9546001600160a01b0316610537565b6104b1610ab53660046151b5565b6101696020526000908152604090205481565b6104b17fe48329057bfd03d55e49b547132e39cffd9c1820ad7b9d4c5307691425d15adf81565b6104b1610afd3660046151b5565b6129e4565b610492610b10366004615468565b612a0d565b6104d2610b233660046151ce565b612a5d565b6104b1610b3636600461549b565b61017160209081526000928352604080842090915290825290205481565b6104d2610b62366004614fec565b612b2e565b6104b1610b753660046151b5565b600090815261016b602052604090206001015490565b61015f54610537906001600160a01b031681565b6104d2610bad3660046151b5565b612b9f565b610bba612bff565b6001600160a01b038116600090815260fb602052604090205460ff16610bf357604051632655e85f60e01b815260040160405180910390fd5b6040516001600160a01b038216907f5d9d5034656cb3ebfb0655057cd7f9b4077a9b42ff42ce223cbac5bc586d212690600090a26001600160a01b0316600090815260fb60205260409020805460ff19169055565b606060658054610c57906154d0565b80601f0160208091040260200160405190810160405280929190818152602001828054610c83906154d0565b8015610cd05780601f10610ca557610100808354040283529160200191610cd0565b820191906000526020600020905b815481529060010190602001808311610cb357829003601f168201915b5050505050905090565b6001600160a01b0382166000908152610172602052604081205463ffffffff16808203610d0b576000915050610e4b565b6001600160a01b0384166000908152610171602052604081208491610d3160018561551a565b63ffffffff16815260208101919091526040016000205411610d6057610d5860018261551a565b915050610e4b565b6001600160a01b038416600090815261017160209081526040808320838052909152902054831015610d96576000915050610e4b565b600080610da460018461551a565b90505b8163ffffffff168163ffffffff161115610e465760006002610dc9848461551a565b610dd3919061554d565b610ddd908361551a565b6001600160a01b03881660009081526101716020908152604080832063ffffffff851684529091529020805491925090879003610e2057509350610e4b92505050565b8054871115610e3157819350610e3f565b610e3c60018361551a565b92505b5050610da7565b509150505b92915050565b600054610100900460ff1615808015610e715750600054600160ff909116105b80610e8b5750303b158015610e8b575060005460ff166001145b610ef35760405162461bcd60e51b815260206004820152602e60248201527f496e697469616c697a61626c653a20636f6e747261637420697320616c72656160448201526d191e481a5b9a5d1a585b1a5e995960921b60648201526084015b60405180910390fd5b6000805460ff191660011790558015610f16576000805461ff0019166101001790555b610f1e612c59565b610f26612c88565b610f2e612c88565b610f388484612cb7565b610f40612ce8565b610f4933612d17565b61a4b1610165556001600160a01b038216610f8f5760405162461bcd60e51b815260206004820152600660248201526510ba37b5b2b760d11b6044820152606401610eea565b61015f80546001600160a01b0384166001600160a01b03199182161790915561016080548216339081179091556101618054909216179055437fd3963e8e1761c638694d3c60d54f123240f3fe953a68debc0fa797faeeb01d1155427fd3963e8e1761c638694d3c60d54f123240f3fe953a68debc0fa797faeeb01d10556101636020527fa8bef1461af97ffd75cfbc1c7627e40a5952107159e2d161b830af3c415a5971805460ff1990811660019081179092557f9c2286954f65a97095a628a27b8932da4542255331e66eaa5eb37db1fb5a9b038054821683179055635b5e139f60e01b60009081527fc5a25afa8aabe00a5261aa4d8aa3186ef1a373a7ca51f1fc2e467b9a5b593700805490921690921790556101645460405190913091600080516020615baa833981519152908290a4610164546040516000903090600080516020615baa833981519152908390a48015611128576000805461ff0019169055604051600181527f7f26b83ff96e1f2b6a682f133852f6798a09c465da95921460cefb38474024989060200160405180910390a15b50505050565b600061113982612d30565b506000908152606960205260409020546001600160a01b031690565b610161546001600160a01b031633146111985760405162461bcd60e51b8152602060048201526005602482015264217465616d60d81b6044820152606401610eea565b61016180546001600160a01b0319166001600160a01b0392909216919091179055565b60006111c682611ad7565b9050806001600160a01b0316836001600160a01b0316036112335760405162461bcd60e51b815260206004820152602160248201527f4552433732313a20617070726f76616c20746f2063757272656e74206f776e656044820152603960f91b6064820152608401610eea565b336001600160a01b038216148061124f575061124f8133612a0d565b6112c15760405162461bcd60e51b815260206004820152603d60248201527f4552433732313a20617070726f76652063616c6c6572206973206e6f7420746f60448201527f6b656e206f776e6572206f7220617070726f76656420666f7220616c6c0000006064820152608401610eea565b6112cb8383612d8f565b505050565b61016a60205281600052604060002081633b9aca0081106112f057600080fd5b6003020180546001820154600290920154600f82810b9550600160801b90920490910b925084565b611320612bff565b61015f80546001600160a01b0319166001600160a01b0392909216919091179055565b600061134e42611bdf565b905090565b600082815261016a6020526040812082633b9aca00811061137657611376615570565b6003020160010154905092915050565b6113903382612dfd565b6113ac5760405162461bcd60e51b8152600401610eea90615586565b6112cb838383612e82565b6113bf612f02565b6101655446146113e15760405162461bcd60e51b8152600401610eea906155d3565b6113eb3382612dfd565b6113f7576113f76155fb565b600081815261016f602052604090205460ff16156114275760405162461bcd60e51b8152600401610eea90615611565b600081815261016b602090815260409182902082518084019093528054600f0b83526001015490820181905242101561149b5760405162461bcd60e51b8152602060048201526016602482015275546865206c6f636b206469646e27742065787069726560501b6044820152606401610eea565b805161016e54600f9190910b906114b28282615631565b61016e556114bf84612f5d565b506114c984613008565b61015f5460405163a9059cbb60e01b8152336004820152602481018490526001600160a01b039091169063a9059cbb906044016020604051808303816000875af115801561151b573d6000803e3d6000fd5b505050506040513d601f19601f8201168201806040525081019061153f9190615644565b61154b5761154b6155fb565b60408051858152602081018490524281830152905133917f02f25270a4d87bea75db541cdfe559334a275b4a233520ed6c0a2429667cca94919081900360600190a27f5e2aa66efd74cce82b21852e317e5490d9ecc9e6bb953ae24d90851258cc2f5c816115b98482615631565b6040805192835260208301919091520160405180910390a15050506115df600161012d55565b50565b6000806115ef8484610cda565b6001600160a01b03851660009081526101716020908152604080832063ffffffff851684529091528120919250600190910190805b825481101561167857600083828154811061164157611641615570565b90600052602060002001549050611658818861309a565b6116629084615661565b925050808061167090615674565b915050611624565b5095945050505050565b6112cb83838360405180602001604052806000815250612313565b33600090815260fb602052604090205460609060ff166116d0576040516378f18ee960e11b815260040160405180910390fd5b6116d982612f5d565b90506116e482613008565b7f5747a69bb6c2c54b5c628298d364a5cc5066b4db09369ad6a2cfca362f0a023f828260405161171592919061568d565b60405180910390a1919050565b600061172e8383612dfd565b9392505050565b6000818152610169602090815260408083205461016a909252822081633b9aca00811061176457611764615570565b6003020154600160801b9004600f0b9392505050565b610161546001600160a01b031633146117bd5760405162461bcd60e51b8152602060048201526005602482015264217465616d60d81b6044820152606401610eea565b61016080546001600160a01b0319166001600160a01b0392909216919091179055565b600082511161182a5760405162461bcd60e51b81526020600482015260166024820152751e995c9bc81b195b88185b5bdd5b9d1cc81a5b9c1d5d60521b6044820152606401610eea565b600081815261016f602052604090205460ff161561185a5760405162461bcd60e51b8152600401610eea90615611565b6118643382612dfd565b6118b05760405162461bcd60e51b815260206004820152601960248201527f2173656e64657220617070726f766564206f72206f776e6572000000000000006044820152606401610eea565b60008181526067602090815260408083205461016b83529281902081518083019092528054600f0b8083526001909101549282018390526001600160a01b0390931692909190806119135760405162461bcd60e51b8152600401610eea906156a6565b8061016e546119229190615631565b61016e556000805b875182101561196c5787828151811061194557611945615570565b6020026020010151816119589190615661565b90508161196481615674565b92505061192a565b61197587612f5d565b5061197f87613008565b8342811161199f5760405162461bcd60e51b8152600401610eea906156c5565b6119ad6301dfe20042615661565b8111156119cc5760405162461bcd60e51b8152600401610eea9061570b565b60008093505b8951841015611a7f57610164600081546119eb90615674565b909155506101645498506119ff888a613177565b828a8581518110611a1257611a12615570565b602002602001015186611a259190615742565b611a2f9190615759565b60008a815261016b602090815260409182902082518084019093528054600f0b83526001015490820152909150611a6d908a908390859060056131af565b83611a7781615674565b9450506119d2565b50505050505050505050565b6001600160a01b03808216600090815261017060205260408120549091168015611ab5578061172e565b5090919050565b6001600160a01b038116611acd5750335b6115df33826133dc565b6000818152606760205260408120546001600160a01b031680610e4b5760405162461bcd60e51b8152602060048201526018602482015277115490cdcc8c4e881a5b9d985b1a59081d1bdad95b88125160421b6044820152606401610eea565b6000611b41612f02565b611b4c838333613472565b9050610e4b600161012d55565b60006001600160a01b038216611bc35760405162461bcd60e51b815260206004820152602960248201527f4552433732313a2061646472657373207a65726f206973206e6f7420612076616044820152683634b21037bbb732b960b91b6064820152608401610eea565b506001600160a01b031660009081526068602052604090205490565b61016c5460008181526101626020908152604080832081516080810183528154600f81810b8352600160801b909104900b93810193909352600181015491830191909152600201546060820152909190611c39818561356f565b949350505050565b611c49612bff565b611c536000612d17565b565b60c95433906001600160a01b03168114611cc35760405162461bcd60e51b815260206004820152602960248201527f4f776e61626c6532537465703a2063616c6c6572206973206e6f7420746865206044820152683732bb9037bbb732b960b91b6064820152608401610eea565b6115df81612d17565b600061172e8383613671565b6000610e4b82611bdf565b33600090815260fb602052604090205460ff16611d13576040516378f18ee960e11b815260040160405180910390fd5b611d1d8383613177565b611d278282613950565b7fc8ffd8a5cadf5f377038eb6cb621455f9673dc07f502ac1580838d85f2df001a8282604051611d5892919061568d565b60405180910390a1505050565b606060668054610c57906154d0565b611d7c612bff565b6001600160a01b038116600090815260fb602052604090205460ff1615611db65760405163f74c45bf60e01b815260040160405180910390fd5b6040516001600160a01b038216907f3cda433c5679ae4c6a5dea50840e222a42cba3695e4663de4366be899348422190600090a26001600160a01b0316600090815260fb60205260409020805460ff19166001179055565b600043821115611e2057611e206155fb565b61016c546000611e3084836139d3565b60008181526101626020908152604080832081516080810183528154600f81810b8352600160801b909104900b9381019390935260018101549183019190915260020154606082015291925083831015611f4157600061016281611e95866001615661565b8152602080820192909252604090810160002081516080810183528154600f81810b8352600160801b909104900b9381019390935260018101549183019190915260020154606080830182905285015191925014611f3b5782606001518160600151611f019190615631565b83604001518260400151611f159190615631565b6060850151611f24908a615631565b611f2e9190615742565b611f389190615759565b91505b50611f90565b43826060015114611f90576060820151611f5b9043615631565b6040830151611f6a9042615631565b6060840151611f799089615631565b611f839190615742565b611f8d9190615759565b90505b611fa982828460400151611fa49190615661565b61356f565b9695505050505050565b6001600160a01b0381166000908152610172602052604081205463ffffffff16808203611fe35750600092915050565b6001600160a01b0383166000908152610171602052604081208161200860018561551a565b63ffffffff1663ffffffff16815260200190815260200160002060010190506000805b825481101561207f57600083828154811061204857612048615570565b9060005260206000200154905061205f814261309a565b6120699084615661565b925050808061207790615674565b91505061202b565b50949350505050565b612090612f02565b61209a3383612dfd565b6120a6576120a66155fb565b600082815261016b602090815260409182902082518084019093528054600f0b83526001015490820152816120dd576120dd6155fb565b60008160000151600f0b1361212d5760405162461bcd60e51b8152602060048201526016602482015275139bc8195e1a5cdd1a5b99c81b1bd8dac8199bdd5b9960521b6044820152606401610eea565b428160200151116121505760405162461bcd60e51b8152600401610eea9061576d565b61215f838360008460026131af565b5061216b600161012d55565b5050565b61216b338383613a5a565b612182612f02565b61218c3383612dfd565b612198576121986155fb565b600082815261016b6020908152604080832081518083019092528054600f0b825260010154918101919091529062127500806121d48542615661565b6121de9190615759565b6121e89190615742565b90504282602001511161222c5760405162461bcd60e51b815260206004820152600c60248201526b131bd8dac8195e1c1a5c995960a21b6044820152606401610eea565b60008260000151600f0b136122775760405162461bcd60e51b8152602060048201526011602482015270139bdd1a1a5b99c81a5cc81b1bd8dad959607a1b6044820152606401610eea565b816020015181116122ca5760405162461bcd60e51b815260206004820152601f60248201527f43616e206f6e6c7920696e637265617365206c6f636b206475726174696f6e006044820152606401610eea565b6122d86301dfe20042615661565b8111156122f75760405162461bcd60e51b8152600401610eea9061570b565b612306846000838560036131af565b505061216b600161012d55565b61231d3383612dfd565b6123395760405162461bcd60e51b8152600401610eea90615586565b61112884848484613b28565b610160546001600160a01b031633146123895760405162461bcd60e51b815260206004820152600660248201526510bb37ba32b960d11b6044820152606401610eea565b600090815261016f60205260409020805460ff19169055565b611c53600060405180604001604052806000600f0b8152602001600081525060405180604001604052806000600f0b81526020016000815250613b5b565b336001600160a01b038716036124225760405162461bcd60e51b815260206004820152600760248201526610b9b2b73232b960c91b6044820152606401610eea565b6001600160a01b0386166124655760405162461bcd60e51b815260206004820152600a60248201526910bd32b9379030b2323960b11b6044820152606401610eea565b60007f8cad95687ba82c2ce50e74f7b754645e5117c3a5bec8151c0726d5857980a866612490610c48565b805160209182012060408051808201825260058152640312e302e360dc1b90840152805180840194909452838101919091527f06c015bd22b4c69690933c1058878ebdfef31f9aaae40bbe86d8a09fe1b2972c60608401524660808401523060a0808501919091528151808503909101815260c0840182528051908301207fe48329057bfd03d55e49b547132e39cffd9c1820ad7b9d4c5307691425d15adf60e08501526001600160a01b038b1661010085015261012084018a90526101408085018a90528251808603909101815261016085019092528151919092012061190160f01b61018084015261018283018290526101a28301819052909250906000906101c20160408051601f198184030181528282528051602091820120600080855291840180845281905260ff8a169284019290925260608301889052608083018790529092509060019060a0016020604051602081039080840390855afa158015612600573d6000803e3d6000fd5b5050604051601f1901519150506001600160a01b03811661267a5760405162461bcd60e51b815260206004820152602e60248201527f566f74696e67457363726f773a3a64656c656761746542795369673a20696e7660448201526d616c6964207369676e617475726560901b6064820152608401610eea565b6001600160a01b03811660009081526101736020526040812080549161269f83615674565b9190505589146127045760405162461bcd60e51b815260206004820152602a60248201527f566f74696e67457363726f773a3a64656c656761746542795369673a20696e76604482015269616c6964206e6f6e636560b01b6064820152608401610eea565b8742111561276b5760405162461bcd60e51b815260206004820152602e60248201527f566f74696e67457363726f773a3a64656c656761746542795369673a2073696760448201526d1b985d1d5c9948195e1c1a5c995960921b6064820152608401610eea565b611a7f818b6133dc565b505050505050565b6000818152606760205260409020546060906001600160a01b03166127e45760405162461bcd60e51b815260206004820152601b60248201527f517565727920666f72206e6f6e6578697374656e7420746f6b656e00000000006044820152606401610eea565b600091825261016b602090815260409283902083518085019094528054600f0b84526001015492019190915290565b600082815261016f602052604090205460ff16156128435760405162461bcd60e51b8152600401610eea90615611565b80820361287e5760405162461bcd60e51b81526020600482015260096024820152682166726f6d3d3d746f60b81b6044820152606401610eea565b6128883383612dfd565b6128d45760405162461bcd60e51b815260206004820152601760248201527f2166726f6d20617070726f766564206f72206f776e65720000000000000000006044820152606401610eea565b6128de3382612dfd565b6129225760405162461bcd60e51b815260206004820152601560248201527410ba379030b8383937bb32b21037b91037bbb732b960591b6044820152606401610eea565b600082815261016b60208181526040808420815180830183528154600f90810b825260019283015482860190815288885295855283872084518086019095528054820b855290920154938301849052805194519095929490910b92111561298d578260200151612993565b83602001515b905061299e86612f5d565b506129a886613008565b6127758583838660046131af565b60006129c0612f02565b6129cb848484613472565b905061172e600161012d55565b600061172e838361309a565b60008181526101666020526040812054439003612a0357506000919050565b610e4b824261309a565b6001600160a01b038116600090815260fb602052604081205460ff168061172e57506001600160a01b038084166000908152606a602090815260408083209386168352929052205460ff1661172e565b612a65612f02565b600082815261016b602090815260409182902082518084019093528054600f0b8352600101549082015281612aac5760405162461bcd60e51b8152600401610eea906156a6565b60008160000151600f0b13612afc5760405162461bcd60e51b8152602060048201526016602482015275139bc8195e1a5cdd1a5b99c81b1bd8dac8199bdd5b9960521b6044820152606401610eea565b42816020015111612b1f5760405162461bcd60e51b8152600401610eea9061576d565b61215f838360008460006131af565b612b36612bff565b60c980546001600160a01b0383166001600160a01b03199091168117909155612b676097546001600160a01b031690565b6001600160a01b03167f38d16b8cac22d99fc7c124b9cd0de2d3fa1faef420bfe791d8c362d765e2270060405160405180910390a350565b610160546001600160a01b03163314612be35760405162461bcd60e51b815260206004820152600660248201526510bb37ba32b960d11b6044820152606401610eea565b600090815261016f60205260409020805460ff19166001179055565b6097546001600160a01b03163314611c535760405162461bcd60e51b815260206004820181905260248201527f4f776e61626c653a2063616c6c6572206973206e6f7420746865206f776e65726044820152606401610eea565b600054610100900460ff16612c805760405162461bcd60e51b8152600401610eea906157b1565b611c53614184565b600054610100900460ff16612caf5760405162461bcd60e51b8152600401610eea906157b1565b611c536141ab565b600054610100900460ff16612cde5760405162461bcd60e51b8152600401610eea906157b1565b61216b82826141db565b600054610100900460ff16612d0f5760405162461bcd60e51b8152600401610eea906157b1565b611c5361421b565b60c980546001600160a01b03191690556115df81614242565b6000818152606760205260409020546001600160a01b03166115df5760405162461bcd60e51b8152602060048201526018602482015277115490cdcc8c4e881a5b9d985b1a59081d1bdad95b88125160421b6044820152606401610eea565b600081815260696020526040902080546001600160a01b0319166001600160a01b0384169081179091558190612dc482611ad7565b6001600160a01b03167f8c5be1e5ebec7d5bd14f71427d1e84f3dd0314c0f7b2291e5b200ac8c7c3b92560405160405180910390a45050565b6000818152606760209081526040808320546001600160a01b03868116855260fb9093529083205491169060ff1680612e475750806001600160a01b0316846001600160a01b0316145b80612e575750612e578185612a0d565b80611c395750836001600160a01b0316612e708461112e565b6001600160a01b031614949350505050565b600081815261016f602052604090205460ff1615612eb25760405162461bcd60e51b8152600401610eea90615611565b612ebc8382614294565b612ed7612ec884611a8b565b612ed184611a8b565b8361434a565b612ee182826146b6565b612eec8383836146fc565b6000908152610166602052604090204390555050565b600261012d5403612f555760405162461bcd60e51b815260206004820152601f60248201527f5265656e7472616e637947756172643a207265656e7472616e742063616c6c006044820152606401610eea565b600261012d55565b600081815261016b6020818152604080842080546001820180548451600f84900b81880181905281870183905286518083038801815260a08301885260608301918252608090920192909252855180870187528981528088018a81528b8b52988852516001600160801b03166001600160801b031990941693909317909355945190945581518083019092528482529181019390935290916130029084908390613b5b565b50919050565b6130123382612dfd565b6130535760405162461bcd60e51b8152602060048201526012602482015271085bdddb995c881bdc88185c1c1c9bdd995960721b6044820152606401610eea565b600061305e82611ad7565b905061306b6000836111bb565b61307f61307782611a8b565b60008461434a565b6130898183614294565b61216b8261484e565b600161012d55565b600082815261016960205260408120548082036130bb576000915050610e4b565b600084815261016a6020526040812082633b9aca0081106130de576130de615570565b60408051608081018252600392909202929092018054600f81810b8452600160801b909104900b60208301526001810154928201839052600201546060820152915061312a90856157fc565b8160200151613139919061581c565b8151829061314890839061583c565b600f90810b90915282516000910b1215905061316357600081525b51600f0b9150610e4b9050565b5092915050565b6001600160a01b03821661318d5761318d6155fb565b61319b6000612ed184611a8b565b6131a582826146b6565b61216b82826148d1565b6101655446146131d15760405162461bcd60e51b8152600401610eea906155d3565b61016e5482906131e18682615661565b61016e556040805180820190915260008082526020820152825160208085015190830152600f0b815282518790849061321b908390615869565b600f0b905250851561322f57602083018690525b600088815261016b60209081526040909120845181546001600160801b0319166001600160801b0390911617815590840151600190910155613272888285613b5b565b3387158015906132945750600485600581111561329157613291615896565b14155b80156132b2575060058560058111156132af576132af615896565b14155b156133415761015f546040516323b872dd60e01b81526001600160a01b038381166004830152306024830152604482018b9052909116906323b872dd906064016020604051808303816000875af1158015613311573d6000803e3d6000fd5b505050506040513d601f19601f820116820180604052508101906133359190615644565b613341576133416155fb565b8360200151816001600160a01b03167fff04ccafc360e16b67d682d17bd9503c4c6b9a131f6be6325762dc9ffc7de6248b8b894260405161338594939291906158ac565b60405180910390a37f5e2aa66efd74cce82b21852e317e5490d9ecc9e6bb953ae24d90851258cc2f5c836133b98a82615661565b6040805192835260208301919091520160405180910390a1505050505050505050565b6101655446146133fe5760405162461bcd60e51b8152600401610eea906155d3565b600061340983611a8b565b6001600160a01b038481166000818152610170602052604080822080546001600160a01b031916888616908117909155905194955093928516927f3134e8a2e6d97e929a7e54011ea5485d7d196dd5f0ba4d4ef95803e8e3fc257f9190a46112cb838284614a4a565b60008062127500806134848642615661565b61348e9190615759565b6134989190615742565b9050600085116134ba5760405162461bcd60e51b8152600401610eea906156a6565b4281116134d95760405162461bcd60e51b8152600401610eea906156c5565b6134e76301dfe20042615661565b8111156135065760405162461bcd60e51b8152600401610eea9061570b565b6101646000815461351690615674565b90915550610164546135288482613177565b600081815261016b602090815260409182902082518084019093528054600f0b835260019081015491830191909152613566918391899186916131af565b95945050505050565b60008083905060006212750080836040015161358b9190615759565b6135959190615742565b905060005b60ff811015613649576135b06212750083615661565b91506000858311156135c4578592506135d9565b50600082815261016d6020526040902054600f0b5b60408401516135e89084615631565b84602001516135f7919061581c565b8451859061360690839061583c565b600f0b9052508583036136195750613649565b808460200181815161362b9190615869565b600f0b905250506040830182905261364281615674565b905061359a565b5060008260000151600f0b121561365f57600082525b50516001600160801b03169392505050565b600043821115613683576136836155fb565b60008381526101696020526040812054815b6080811015613725578183101561372557600060026136b48486615661565b6136bf906001615661565b6136c99190615759565b600088815261016a60205260409020909150869082633b9aca0081106136f1576136f1615570565b60030201600201541161370657809350613714565b613711600182615631565b92505b5061371e81615674565b9050613695565b50600085815261016a6020526040812083633b9aca00811061374957613749615570565b60408051608081018252600392909202929092018054600f81810b8452600160801b909104900b6020830152600181015492820192909252600290910154606082015261016c54909150600061379f87836139d3565b60008181526101626020908152604080832081516080810183528154600f81810b8352600160801b909104900b93810193909352600181015491830191909152600201546060820152919250808484101561388057600061016281613805876001615661565b8152602080820192909252604090810160002081516080810183528154600f81810b8352600160801b909104900b938101939093526001810154918301919091526002015460608083018290528601519192506138629190615631565b9250836040015181604001516138789190615631565b9150506138a4565b606083015161388f9043615631565b91508260400151426138a19190615631565b90505b604083015182156138e1578284606001518c6138c09190615631565b6138ca9084615742565b6138d49190615759565b6138de9082615661565b90505b60408701516138f09082615631565b87602001516138ff919061581c565b8751889061390e90839061583c565b600f90810b90915288516000910b12905061393e57505093516001600160801b03169650610e4b95505050505050565b60009950505050505050505050610e4b565b6000808280602001905181019061396791906158ea565b604080518082018252600f84900b8152602080820184815260008a815261016b8352848120845181546001600160801b0319166001600160801b039091161781559151600190920191909155835180850190945280845290830152929450909250612775868284613b5b565b60008082815b6080811015613a505781831015613a5057600060026139f88486615661565b613a03906001615661565b613a0d9190615759565b600081815261016260205260409020600201549091508710613a3157809350613a3f565b613a3c600182615631565b92505b50613a4981615674565b90506139d9565b5090949350505050565b816001600160a01b0316836001600160a01b031603613abb5760405162461bcd60e51b815260206004820152601960248201527f4552433732313a20617070726f766520746f2063616c6c6572000000000000006044820152606401610eea565b6001600160a01b038381166000818152606a6020908152604080832094871680845294825291829020805460ff191686151590811790915591519182527f17307eab39ab6107e8899845ad3d59bd9653f200f220920489ca2b5937696c31910160405180910390a3505050565b613b33848484612e82565b613b3f84848484614e21565b6111285760405162461bcd60e51b8152600401610eea9061591e565b60408051608081018252600080825260208201819052918101829052606081019190915260408051608081018252600080825260208201819052918101829052606081019190915261016c5460009081908715613cc957428760200151118015613bcc575060008760000151600f0b135b15613c11578651613be2906301dfe20090615970565b600f0b602080870191909152870151613bfc904290615631565b8560200151613c0b919061581c565b600f0b85525b428660200151118015613c2b575060008660000151600f0b135b15613c70578551613c41906301dfe20090615970565b600f0b602080860191909152860151613c5b904290615631565b8460200151613c6a919061581c565b600f0b84525b602080880151600090815261016d8252604090205490870151600f9190910b935015613cc9578660200151866020015103613cad57829150613cc9565b602080870151600090815261016d9091526040902054600f0b91505b604080516080810182526000808252602082015242918101919091524360608201528115613d3f57506000818152610162602090815260409182902082516080810184528154600f81810b8352600160801b909104900b9281019290925260018101549282019290925260029091015460608201525b604081015181600042831015613d8c576040840151613d5e9042615631565b6060850151613d6d9043615631565b613d7f90670de0b6b3a7640000615742565b613d899190615759565b90505b600062127500613d9c8186615759565b613da69190615742565b905060005b60ff811015613f2257613dc16212750083615661565b9150600042831115613dd557429250613dea565b50600082815261016d6020526040902054600f0b5b613df48684615631565b8760200151613e03919061581c565b87518890613e1290839061583c565b600f0b905250602087018051829190613e2c908390615869565b600f90810b90915288516000910b12159050613e4757600087525b60008760200151600f0b1215613e5f57600060208801525b60408088018490528501519295508592670de0b6b3a764000090613e839085615631565b613e8d9086615742565b613e979190615759565b8560600151613ea69190615661565b6060880152613eb6600189615661565b9750428303613ecb5750436060870152613f22565b600088815261016260209081526040918290208951918a01516001600160801b03908116600160801b029216919091178155908801516001820155606088015160029091015550613f1b81615674565b9050613dab565b505061016c8590558b15613fae5788602001518860200151613f44919061583c565b84602001818151613f559190615869565b600f0b90525088518851613f69919061583c565b84518590613f78908390615869565b600f90810b90915260208601516000910b12159050613f9957600060208501525b60008460000151600f0b1215613fae57600084525b600085815261016260209081526040918290208651918701516001600160801b03908116600160801b02921691909117815590850151600182015560608501516002909101558b1561417657428b6020015111156140675760208901516140159088615869565b96508a602001518a6020015103614038576020880151614035908861583c565b96505b60208b810151600090815261016d9091526040902080546001600160801b0319166001600160801b0389161790555b428a6020015111156140c3578a602001518a6020015111156140c3576020880151614092908761583c565b60208b810151600090815261016d9091526040902080546001600160801b0319166001600160801b03831617905595505b60008c815261016960205260408120546140de906001615661565b90508061016960008f81526020019081526020016000208190555042896040018181525050438960600181815250508861016a60008f815260200190815260200160002082633b9aca00811061413657614136615570565b825160208401516001600160801b03908116600160801b029116176003919091029190910190815560408201516001820155606090910151600290910155505b505050505050505050505050565b600054610100900460ff166130925760405162461bcd60e51b8152600401610eea906157b1565b600054610100900460ff166141d25760405162461bcd60e51b8152600401610eea906157b1565b611c5333612d17565b600054610100900460ff166142025760405162461bcd60e51b8152600401610eea906157b1565b606561420e83826159f4565b5060666112cb82826159f4565b600054610100900460ff16611c535760405162461bcd60e51b8152600401610eea906157b1565b609780546001600160a01b038381166001600160a01b0319831681179093556040519116919082907f8be0079c531659141344cd1fd0a4f28419497f9722a3daafe3b4186f6b6457e090600090a35050565b600060016142a184611b59565b6142ab9190615631565b600083815261016860205260409020549091508082036142fd576001600160a01b0384166000908152610167602090815260408083208584528252808320839055858352610168909152812055611128565b6001600160a01b0393909316600090815261016760209081526040808320938352928152828220805486845284842081905583526101689091528282209490945592839055908252812055565b816001600160a01b0316836001600160a01b03161415801561436c5750600081115b156112cb576001600160a01b038316156144f2576001600160a01b0383166000908152610172602052604081205463ffffffff1690816143d2576001600160a01b0385166000908152610171602090815260408083208380529091529020600101614415565b6001600160a01b038516600090815261017160205260408120906143f760018561551a565b63ffffffff1663ffffffff1681526020019081526020016000206001015b9050600061442286614f22565b6001600160a01b03871660009081526101716020908152604080832063ffffffff8516845290915281209192506001909101905b83548110156144b057600084828154811061447357614473615570565b9060005260206000200154905086811461449d578254600181018455600084815260209020018190555b50806144a881615674565b915050614456565b506144bc846001615ab4565b6001600160a01b038816600090815261017260205260409020805463ffffffff191663ffffffff92909216919091179055505050505b6001600160a01b038216156112cb576001600160a01b0382166000908152610172602052604081205463ffffffff169081614553576001600160a01b0384166000908152610171602090815260408083208380529091529020600101614596565b6001600160a01b0384166000908152610171602052604081209061457860018561551a565b63ffffffff1663ffffffff1681526020019081526020016000206001015b905060006145a385614f22565b6001600160a01b03861660009081526101716020908152604080832063ffffffff8516845290915290208354919250600190810191610400916145e69190615661565b11156146045760405162461bcd60e51b8152600401610eea90615ad1565b60005b835481101561465657600084828154811061462457614624615570565b60009182526020808320909101548554600181018755868452919092200155508061464e81615674565b915050614607565b5080546001818101835560008381526020902090910186905561467a908590615ab4565b6001600160a01b038716600090815261017260205260409020805463ffffffff9290921663ffffffff1990921691909117905550505050505050565b60006146c183611b59565b6001600160a01b0390931660009081526101676020908152604080832086845282528083208590559382526101689052919091209190915550565b826001600160a01b031661470f82611ad7565b6001600160a01b0316146147355760405162461bcd60e51b8152600401610eea90615b14565b6001600160a01b0382166147975760405162461bcd60e51b8152602060048201526024808201527f4552433732313a207472616e7366657220746f20746865207a65726f206164646044820152637265737360e01b6064820152608401610eea565b826001600160a01b03166147aa82611ad7565b6001600160a01b0316146147d05760405162461bcd60e51b8152600401610eea90615b14565b600081815260696020908152604080832080546001600160a01b03199081169091556001600160a01b038781168086526068855283862080546000190190559087168086528386208054600101905586865260679094528285208054909216841790915590518493600080516020615baa83398151915291a4505050565b600061485982611ad7565b905061486482611ad7565b600083815260696020908152604080832080546001600160a01b03199081169091556001600160a01b038516808552606884528285208054600019019055878552606790935281842080549091169055519293508492600080516020615baa833981519152908390a45050565b6001600160a01b0382166149275760405162461bcd60e51b815260206004820181905260248201527f4552433732313a206d696e7420746f20746865207a65726f20616464726573736044820152606401610eea565b6000818152606760205260409020546001600160a01b03161561498c5760405162461bcd60e51b815260206004820152601c60248201527f4552433732313a20746f6b656e20616c7265616479206d696e746564000000006044820152606401610eea565b6000818152606760205260409020546001600160a01b0316156149f15760405162461bcd60e51b815260206004820152601c60248201527f4552433732313a20746f6b656e20616c7265616479206d696e746564000000006044820152606401610eea565b6001600160a01b038216600081815260686020908152604080832080546001019055848352606790915280822080546001600160a01b031916841790555183929190600080516020615baa833981519152908290a45050565b806001600160a01b0316826001600160a01b0316146112cb576001600160a01b03821615614c14576001600160a01b0382166000908152610172602052604081205463ffffffff169081614ac4576001600160a01b0384166000908152610171602090815260408083208380529091529020600101614b07565b6001600160a01b03841660009081526101716020526040812090614ae960018561551a565b63ffffffff1663ffffffff1681526020019081526020016000206001015b90506000614b1485614f22565b6001600160a01b03861660009081526101716020908152604080832063ffffffff8516845290915281209192506001909101905b8354811015614bd2576000848281548110614b6557614b65615570565b90600052602060002001549050886001600160a01b0316614b9b826000908152606760205260409020546001600160a01b031690565b6001600160a01b031614614bbf578254600181018455600084815260209020018190555b5080614bca81615674565b915050614b48565b50614bde846001615ab4565b6001600160a01b038716600090815261017260205260409020805463ffffffff191663ffffffff92909216919091179055505050505b6001600160a01b038116156112cb576001600160a01b0381166000908152610172602052604081205463ffffffff169081614c75576001600160a01b0383166000908152610171602090815260408083208380529091529020600101614cb8565b6001600160a01b03831660009081526101716020526040812090614c9a60018561551a565b63ffffffff1663ffffffff1681526020019081526020016000206001015b90506000614cc584614f22565b6001600160a01b03851660009081526101716020908152604080832063ffffffff851684529091528120919250600190910190614d0188611b59565b845490915061040090614d15908390615661565b1115614d335760405162461bcd60e51b8152600401610eea90615ad1565b60005b8454811015614d85576000858281548110614d5357614d53615570565b600091825260208083209091015486546001810188558784529190922001555080614d7d81615674565b915050614d36565b5060005b81811015614dd8576001600160a01b0389166000908152610167602090815260408083208484528252822054855460018101875586845291909220015580614dd081615674565b915050614d89565b50614de4856001615ab4565b6001600160a01b038716600090815261017260205260409020805463ffffffff9290921663ffffffff199092169190911790555050505050505050565b60006001600160a01b0384163b15614f1757604051630a85bd0160e11b81526001600160a01b0385169063150b7a0290614e65903390899088908890600401615b59565b6020604051808303816000875af1925050508015614ea0575060408051601f3d908101601f19168201909252614e9d91810190615b8c565b60015b614efd573d808015614ece576040519150601f19603f3d011682016040523d82523d6000602084013e614ed3565b606091505b508051600003614ef55760405162461bcd60e51b8152600401610eea9061591e565b805181602001fd5b6001600160e01b031916630a85bd0160e11b149050611c39565b506001949350505050565b6001600160a01b03811660009081526101726020526040812054429063ffffffff168015801590614f8d57506001600160a01b0384166000908152610171602052604081208391614f7460018561551a565b63ffffffff168152602081019190915260400160002054145b1561172e57611c3960018261551a565b6001600160e01b0319811681146115df57600080fd5b600060208284031215614fc557600080fd5b813561172e81614f9d565b80356001600160a01b0381168114614fe757600080fd5b919050565b600060208284031215614ffe57600080fd5b61172e82614fd0565b6000815180845260005b8181101561502d57602081850181015186830182015201615011565b506000602082860101526020601f19601f83011685010191505092915050565b60208152600061172e6020830184615007565b6000806040838503121561507357600080fd5b61507c83614fd0565b946020939093013593505050565b634e487b7160e01b600052604160045260246000fd5b604051601f8201601f1916810167ffffffffffffffff811182821017156150c9576150c961508a565b604052919050565b600082601f8301126150e257600080fd5b813567ffffffffffffffff8111156150fc576150fc61508a565b61510f601f8201601f19166020016150a0565b81815284602083860101111561512457600080fd5b816020850160208301376000918101602001919091529392505050565b60008060006060848603121561515657600080fd5b833567ffffffffffffffff8082111561516e57600080fd5b61517a878388016150d1565b9450602086013591508082111561519057600080fd5b5061519d868287016150d1565b9250506151ac60408501614fd0565b90509250925092565b6000602082840312156151c757600080fd5b5035919050565b600080604083850312156151e157600080fd5b50508035926020909101359150565b60008060006060848603121561520557600080fd5b61520e84614fd0565b925061521c60208501614fd0565b9150604084013590509250925092565b6000806040838503121561523f57600080fd5b823567ffffffffffffffff8082111561525757600080fd5b818501915085601f83011261526b57600080fd5b813560208282111561527f5761527f61508a565b8160051b92506152908184016150a0565b82815292840181019281810190898511156152aa57600080fd5b948201945b848610156152c8578535825294820194908201906152af565b9997909101359750505050505050565b6000806000606084860312156152ed57600080fd5b6152f684614fd0565b925060208401359150604084013567ffffffffffffffff81111561531957600080fd5b615325868287016150d1565b9150509250925092565b80151581146115df57600080fd5b6000806040838503121561535057600080fd5b61535983614fd0565b915060208301356153698161532f565b809150509250929050565b6000806000806080858703121561538a57600080fd5b61539385614fd0565b93506153a160208601614fd0565b925060408501359150606085013567ffffffffffffffff8111156153c457600080fd5b6153d0878288016150d1565b91505092959194509250565b60008060008060008060c087890312156153f557600080fd5b6153fe87614fd0565b95506020870135945060408701359350606087013560ff8116811461542257600080fd5b9598949750929560808101359460a0909101359350915050565b60008060006060848603121561545157600080fd5b83359250602084013591506151ac60408501614fd0565b6000806040838503121561547b57600080fd5b61548483614fd0565b915061549260208401614fd0565b90509250929050565b600080604083850312156154ae57600080fd5b6154b783614fd0565b9150602083013563ffffffff8116811461536957600080fd5b600181811c908216806154e457607f821691505b60208210810361300257634e487b7160e01b600052602260045260246000fd5b634e487b7160e01b600052601160045260246000fd5b63ffffffff82811682821603908082111561317057613170615504565b634e487b7160e01b600052601260045260246000fd5b600063ffffffff8084168061556457615564615537565b92169190910492915050565b634e487b7160e01b600052603260045260246000fd5b6020808252602d908201527f4552433732313a2063616c6c6572206973206e6f7420746f6b656e206f776e6560408201526c1c881bdc88185c1c1c9bdd9959609a1b606082015260800190565b6020808252600e908201526d1ddc9bdb99c818da185a5b881a5960921b604082015260600190565b634e487b7160e01b600052600160045260246000fd5b602080825260069082015265085d9bdd195960d21b604082015260600190565b81810381811115610e4b57610e4b615504565b60006020828403121561565657600080fd5b815161172e8161532f565b80820180821115610e4b57610e4b615504565b60006001820161568657615686615504565b5060010190565b828152604060208201526000611c396040830184615007565b602080825260059082015264217a65726f60d81b604082015260600190565b60208082526026908201527f43616e206f6e6c79206c6f636b20756e74696c2074696d6520696e207468652060408201526566757475726560d01b606082015260800190565b6020808252601e908201527f566f74696e67206c6f636b2063616e2062652031207965617273206d61780000604082015260600190565b8082028115828204841417610e4b57610e4b615504565b60008261576857615768615537565b500490565b60208082526024908201527f43616e6e6f742061646420746f2065787069726564206c6f636b2e20576974686040820152636472617760e01b606082015260800190565b6020808252602b908201527f496e697469616c697a61626c653a20636f6e7472616374206973206e6f74206960408201526a6e697469616c697a696e6760a81b606082015260800190565b818103600083128015838313168383128216171561317057613170615504565b600082600f0b82600f0b0280600f0b915080821461317057613170615504565b600f82810b9082900b0360016001607f1b0319811260016001607f1b0382131715610e4b57610e4b615504565b600f81810b9083900b0160016001607f1b03811360016001607f1b031982121715610e4b57610e4b615504565b634e487b7160e01b600052602160045260246000fd5b8481526020810184905260808101600684106158d857634e487b7160e01b600052602160045260246000fd5b60408201939093526060015292915050565b600080604083850312156158fd57600080fd5b825180600f0b811461590e57600080fd5b6020939093015192949293505050565b60208082526032908201527f4552433732313a207472616e7366657220746f206e6f6e20455243373231526560408201527131b2b4bb32b91034b6b83632b6b2b73a32b960711b606082015260800190565b600081600f0b83600f0b8061598757615987615537565b60016001607f1b03198214600019821416156159a5576159a5615504565b90059392505050565b601f8211156112cb57600081815260208120601f850160051c810160208610156159d55750805b601f850160051c820191505b81811015612775578281556001016159e1565b815167ffffffffffffffff811115615a0e57615a0e61508a565b615a2281615a1c84546154d0565b846159ae565b602080601f831160018114615a575760008415615a3f5750858301515b600019600386901b1c1916600185901b178555612775565b600085815260208120601f198616915b82811015615a8657888601518255948401946001909101908401615a67565b5085821015615aa45787850151600019600388901b60f8161c191681555b5050505050600190811b01905550565b63ffffffff81811683821601908082111561317057613170615504565b60208082526023908201527f64737452657020776f756c64206861766520746f6f206d616e7920746f6b656e60408201526249647360e81b606082015260800190565b60208082526025908201527f4552433732313a207472616e736665722066726f6d20696e636f72726563742060408201526437bbb732b960d91b606082015260800190565b6001600160a01b0385811682528416602082015260408101839052608060608201819052600090611fa990830184615007565b600060208284031215615b9e57600080fd5b815161172e81614f9d56feddf252ad1be2c89b69c2b068fc378daa952ba7f163c4a11628f55a4df523b3efa164736f6c6343000813000a",
    "linkReferences": {}
  },
  "methodIdentifiers": {
    "ARBITRUM_ONE()": "2168ca0f",
    "DELEGATION_TYPEHASH()": "e7a324dc",
    "DOMAIN_TYPEHASH()": "20606b70",
    "MAX_DELEGATES()": "5f5b0c32",
    "abstain(uint256)": "c1f0fb9f",
    "acceptOwnership()": "79ba5097",
    "addBridge(address)": "9712fdf8",
    "approve(address,uint256)": "095ea7b3",
    "balanceOf(address)": "70a08231",
    "balanceOfAtNFT(uint256,uint256)": "8c2c9baf",
    "balanceOfNFT(uint256)": "e7e242d4",
    "balanceOfNFTAt(uint256,uint256)": "e0514aba",
    "block_number()": "25a58b56",
    "burn(uint256)": "42966c68",
    "checkpoint()": "c2c4c5c1",
    "checkpoints(address,uint32)": "f1127ed8",
    "create_lock(uint256,uint256)": "65fc3873",
    "create_lock_for(uint256,uint256,address)": "d4e54c3b",
    "delegate(address)": "5c19a95c",
    "delegateBySig(address,uint256,uint256,uint8,bytes32,bytes32)": "c3cda520",
    "delegates(address)": "587cde1e",
    "deposit_for(uint256,uint256)": "ee99fe28",
    "epoch()": "900cf0cf",
    "getApproved(uint256)": "081812fc",
    "getPastTotalSupply(uint256)": "8e539e8c",
    "getPastVotes(address,uint256)": "3a46b1a8",
    "getPastVotesIndex(address,uint256)": "0758c7d8",
    "getVotes(address)": "9ab24eb0",
    "get_last_user_slope(uint256)": "461f711c",
    "increase_amount(uint256,uint256)": "a183af52",
    "increase_unlock_time(uint256,uint256)": "a4d855df",
    "initialize(string,string,address)": "077f224a",
    "isApprovedForAll(address,address)": "e985e9c5",
    "isApprovedOrOwner(address,uint256)": "430c2081",
    "locked(uint256)": "b45a3c0e",
    "locked__end(uint256)": "f8a05763",
    "masterChainId()": "10c3cf06",
    "merge(uint256,uint256)": "d1c2babb",
    "mint(address,uint256,bytes)": "94d008ef",
    "name()": "06fdde03",
    "nonces(address)": "7ecebe00",
    "numCheckpoints(address)": "6fcfff45",
    "owner()": "8da5cb5b",
    "ownerOf(uint256)": "6352211e",
    "ownership_change(uint256)": "6f548837",
    "pendingOwner()": "e30c3978",
    "point_history(uint256)": "d1febfb9",
    "removeBridge(address)": "04df017d",
    "renounceOwnership()": "715018a6",
    "safeTransferFrom(address,address,uint256)": "42842e0e",
    "safeTransferFrom(address,address,uint256,bytes)": "b88d4fde",
    "setApprovalForAll(address,bool)": "a22cb465",
    "setTeam(address)": "095cf5c6",
    "setToken(address)": "144fa6d7",
    "setVoter(address)": "4bc2a657",
    "slope_changes(uint256)": "71197484",
    "split(uint256[],uint256)": "56afe744",
    "supply()": "047fc9aa",
    "supportsInterface(bytes4)": "01ffc9a7",
    "symbol()": "95d89b41",
    "team()": "85f2aef2",
    "token()": "fc0c546a",
    "tokenOfOwnerByIndex(address,uint256)": "2f745c59",
    "tokenURI(uint256)": "c87b56dd",
    "totalSupply()": "18160ddd",
    "totalSupplyAt(uint256)": "981b24d0",
    "totalSupplyAtT(uint256)": "7116c60c",
    "transferFrom(address,address,uint256)": "23b872dd",
    "transferOwnership(address)": "f2fde38b",
    "user_point_epoch(uint256)": "e441135c",
    "user_point_history(uint256,uint256)": "1376f3da",
    "user_point_history__ts(uint256,uint256)": "1c984bc3",
    "version()": "54fd4d50",
    "voted(uint256)": "8fbb38ff",
    "voter()": "46c96aac",
    "voting(uint256)": "fd4a77f1",
    "withdraw(uint256)": "2e1a7d4d"
  }
}