{
  "address": "0xeF069aF908D7223220D848370986c8102d5eE93f",
  "abi": [
    {
      "inputs": [],
      "name": "XERC20__addBridge_alreadyAdded",
      "type": "error"
    },
    {
      "inputs": [],
      "name": "XERC20__onlyBridge_notBridge",
      "type": "error"
    },
    {
      "inputs": [],
      "name": "XERC20__removeBridge_alreadyRemoved",
      "type": "error"
    },
    {
      "anonymous": false,
      "inputs": [
        {
          "indexed": true,
          "internalType": "address",
          "name": "owner",
          "type": "address"
        },
        {
          "indexed": true,
          "internalType": "address",
          "name": "spender",
          "type": "address"
        },
        {
          "indexed": false,
          "internalType": "uint256",
          "name": "value",
          "type": "uint256"
        }
      ],
      "name": "Approval",
      "type": "event"
    },
    {
      "anonymous": false,
      "inputs": [
        {
          "indexed": true,
          "internalType": "address",
          "name": "bridge",
          "type": "address"
        }
      ],
      "name": "BridgeAdded",
      "type": "event"
    },
    {
      "anonymous": false,
      "inputs": [
        {
          "indexed": true,
          "internalType": "address",
          "name": "bridge",
          "type": "address"
        }
      ],
      "name": "BridgeRemoved",
      "type": "event"
    },
    {
      "anonymous": false,
      "inputs": [],
      "name": "EIP712DomainChanged",
      "type": "event"
    },
    {
      "anonymous": false,
      "inputs": [
        {
          "indexed": false,
          "internalType": "uint8",
          "name": "version",
          "type": "uint8"
        }
      ],
      "name": "Initialized",
      "type": "event"
    },
    {
      "anonymous": false,
      "inputs": [
        {
          "indexed": true,
          "internalType": "address",
          "name": "proposedOwner",
          "type": "address"
        }
      ],
      "name": "OwnershipProposed",
      "type": "event"
    },
    {
      "anonymous": false,
      "inputs": [
        {
          "indexed": true,
          "internalType": "address",
          "name": "previousOwner",
          "type": "address"
        },
        {
          "indexed": true,
          "internalType": "address",
          "name": "newOwner",
          "type": "address"
        }
      ],
      "name": "OwnershipTransferred",
      "type": "event"
    },
    {
      "anonymous": false,
      "inputs": [
        {
          "indexed": true,
          "internalType": "address",
          "name": "from",
          "type": "address"
        },
        {
          "indexed": true,
          "internalType": "address",
          "name": "to",
          "type": "address"
        },
        {
          "indexed": false,
          "internalType": "uint256",
          "name": "value",
          "type": "uint256"
        }
      ],
      "name": "Transfer",
      "type": "event"
    },
    {
      "inputs": [],
      "name": "DOMAIN_SEPARATOR",
      "outputs": [
        {
          "internalType": "bytes32",
          "name": "",
          "type": "bytes32"
        }
      ],
      "stateMutability": "view",
      "type": "function"
    },
    {
      "inputs": [],
      "name": "acceptProposedOwner",
      "outputs": [],
      "stateMutability": "nonpayable",
      "type": "function"
    },
    {
      "inputs": [
        {
          "internalType": "address",
          "name": "_bridge",
          "type": "address"
        }
      ],
      "name": "addBridge",
      "outputs": [],
      "stateMutability": "nonpayable",
      "type": "function"
    },
    {
      "inputs": [
        {
          "internalType": "address",
          "name": "owner",
          "type": "address"
        },
        {
          "internalType": "address",
          "name": "spender",
          "type": "address"
        }
      ],
      "name": "allowance",
      "outputs": [
        {
          "internalType": "uint256",
          "name": "",
          "type": "uint256"
        }
      ],
      "stateMutability": "view",
      "type": "function"
    },
    {
      "inputs": [
        {
          "internalType": "address",
          "name": "spender",
          "type": "address"
        },
        {
          "internalType": "uint256",
          "name": "amount",
          "type": "uint256"
        }
      ],
      "name": "approve",
      "outputs": [
        {
          "internalType": "bool",
          "name": "",
          "type": "bool"
        }
      ],
      "stateMutability": "nonpayable",
      "type": "function"
    },
    {
      "inputs": [
        {
          "internalType": "address",
          "name": "account",
          "type": "address"
        }
      ],
      "name": "balanceOf",
      "outputs": [
        {
          "internalType": "uint256",
          "name": "",
          "type": "uint256"
        }
      ],
      "stateMutability": "view",
      "type": "function"
    },
    {
      "inputs": [
        {
          "internalType": "address",
          "name": "_from",
          "type": "address"
        },
        {
          "internalType": "uint256",
          "name": "_amount",
          "type": "uint256"
        }
      ],
      "name": "burn",
      "outputs": [],
      "stateMutability": "nonpayable",
      "type": "function"
    },
    {
      "inputs": [],
      "name": "decimals",
      "outputs": [
        {
          "internalType": "uint8",
          "name": "",
          "type": "uint8"
        }
      ],
      "stateMutability": "view",
      "type": "function"
    },
    {
      "inputs": [
        {
          "internalType": "address",
          "name": "spender",
          "type": "address"
        },
        {
          "internalType": "uint256",
          "name": "subtractedValue",
          "type": "uint256"
        }
      ],
      "name": "decreaseAllowance",
      "outputs": [
        {
          "internalType": "bool",
          "name": "",
          "type": "bool"
        }
      ],
      "stateMutability": "nonpayable",
      "type": "function"
    },
    {
      "inputs": [],
      "name": "delay",
      "outputs": [
        {
          "internalType": "uint256",
          "name": "",
          "type": "uint256"
        }
      ],
      "stateMutability": "view",
      "type": "function"
    },
    {
      "inputs": [],
      "name": "eip712Domain",
      "outputs": [
        {
          "internalType": "bytes1",
          "name": "fields",
          "type": "bytes1"
        },
        {
          "internalType": "string",
          "name": "name",
          "type": "string"
        },
        {
          "internalType": "string",
          "name": "version",
          "type": "string"
        },
        {
          "internalType": "uint256",
          "name": "chainId",
          "type": "uint256"
        },
        {
          "internalType": "address",
          "name": "verifyingContract",
          "type": "address"
        },
        {
          "internalType": "bytes32",
          "name": "salt",
          "type": "bytes32"
        },
        {
          "internalType": "uint256[]",
          "name": "extensions",
          "type": "uint256[]"
        }
      ],
      "stateMutability": "view",
      "type": "function"
    },
    {
      "inputs": [],
      "name": "getProxyAdmin",
      "outputs": [
        {
          "internalType": "address",
          "name": "",
          "type": "address"
        }
      ],
      "stateMutability": "view",
      "type": "function"
    },
    {
      "inputs": [
        {
          "internalType": "address",
          "name": "spender",
          "type": "address"
        },
        {
          "internalType": "uint256",
          "name": "addedValue",
          "type": "uint256"
        }
      ],
      "name": "increaseAllowance",
      "outputs": [
        {
          "internalType": "bool",
          "name": "",
          "type": "bool"
        }
      ],
      "stateMutability": "nonpayable",
      "type": "function"
    },
    {
      "inputs": [
        {
          "internalType": "address",
          "name": "_owner",
          "type": "address"
        },
        {
          "internalType": "string",
          "name": "_name",
          "type": "string"
        },
        {
          "internalType": "string",
          "name": "_symbol",
          "type": "string"
        }
      ],
      "name": "initialize",
      "outputs": [],
      "stateMutability": "nonpayable",
      "type": "function"
    },
    {
      "inputs": [],
      "name": "initializeIon",
      "outputs": [],
      "stateMutability": "nonpayable",
      "type": "function"
    },
    {
      "inputs": [
        {
          "internalType": "address",
          "name": "_bridge",
          "type": "address"
        }
      ],
      "name": "isBridge",
      "outputs": [
        {
          "internalType": "bool",
          "name": "",
          "type": "bool"
        }
      ],
      "stateMutability": "view",
      "type": "function"
    },
    {
      "inputs": [
        {
          "internalType": "address",
          "name": "_to",
          "type": "address"
        },
        {
          "internalType": "uint256",
          "name": "_amount",
          "type": "uint256"
        }
      ],
      "name": "mint",
      "outputs": [],
      "stateMutability": "nonpayable",
      "type": "function"
    },
    {
      "inputs": [],
      "name": "name",
      "outputs": [
        {
          "internalType": "string",
          "name": "",
          "type": "string"
        }
      ],
      "stateMutability": "view",
      "type": "function"
    },
    {
      "inputs": [
        {
          "internalType": "address",
          "name": "owner",
          "type": "address"
        }
      ],
      "name": "nonces",
      "outputs": [
        {
          "internalType": "uint256",
          "name": "",
          "type": "uint256"
        }
      ],
      "stateMutability": "view",
      "type": "function"
    },
    {
      "inputs": [],
      "name": "owner",
      "outputs": [
        {
          "internalType": "address",
          "name": "",
          "type": "address"
        }
      ],
      "stateMutability": "view",
      "type": "function"
    },
    {
      "inputs": [
        {
          "internalType": "address",
          "name": "owner",
          "type": "address"
        },
        {
          "internalType": "address",
          "name": "spender",
          "type": "address"
        },
        {
          "internalType": "uint256",
          "name": "value",
          "type": "uint256"
        },
        {
          "internalType": "uint256",
          "name": "deadline",
          "type": "uint256"
        },
        {
          "internalType": "uint8",
          "name": "v",
          "type": "uint8"
        },
        {
          "internalType": "bytes32",
          "name": "r",
          "type": "bytes32"
        },
        {
          "internalType": "bytes32",
          "name": "s",
          "type": "bytes32"
        }
      ],
      "name": "permit",
      "outputs": [],
      "stateMutability": "nonpayable",
      "type": "function"
    },
    {
      "inputs": [
        {
          "internalType": "address",
          "name": "newlyProposed",
          "type": "address"
        }
      ],
      "name": "proposeNewOwner",
      "outputs": [],
      "stateMutability": "nonpayable",
      "type": "function"
    },
    {
      "inputs": [],
      "name": "proposed",
      "outputs": [
        {
          "internalType": "address",
          "name": "",
          "type": "address"
        }
      ],
      "stateMutability": "view",
      "type": "function"
    },
    {
      "inputs": [],
      "name": "proposedTimestamp",
      "outputs": [
        {
          "internalType": "uint256",
          "name": "",
          "type": "uint256"
        }
      ],
      "stateMutability": "view",
      "type": "function"
    },
    {
      "inputs": [],
      "name": "reinitialize",
      "outputs": [],
      "stateMutability": "nonpayable",
      "type": "function"
    },
    {
      "inputs": [
        {
          "internalType": "address",
          "name": "_bridge",
          "type": "address"
        }
      ],
      "name": "removeBridge",
      "outputs": [],
      "stateMutability": "nonpayable",
      "type": "function"
    },
    {
      "inputs": [],
      "name": "renounceOwnership",
      "outputs": [],
      "stateMutability": "nonpayable",
      "type": "function"
    },
    {
      "inputs": [],
      "name": "renounced",
      "outputs": [
        {
          "internalType": "bool",
          "name": "",
          "type": "bool"
        }
      ],
      "stateMutability": "view",
      "type": "function"
    },
    {
      "inputs": [],
      "name": "symbol",
      "outputs": [
        {
          "internalType": "string",
          "name": "",
          "type": "string"
        }
      ],
      "stateMutability": "view",
      "type": "function"
    },
    {
      "inputs": [],
      "name": "totalSupply",
      "outputs": [
        {
          "internalType": "uint256",
          "name": "",
          "type": "uint256"
        }
      ],
      "stateMutability": "view",
      "type": "function"
    },
    {
      "inputs": [
        {
          "internalType": "address",
          "name": "to",
          "type": "address"
        },
        {
          "internalType": "uint256",
          "name": "amount",
          "type": "uint256"
        }
      ],
      "name": "transfer",
      "outputs": [
        {
          "internalType": "bool",
          "name": "",
          "type": "bool"
        }
      ],
      "stateMutability": "nonpayable",
      "type": "function"
    },
    {
      "inputs": [
        {
          "internalType": "address",
          "name": "from",
          "type": "address"
        },
        {
          "internalType": "address",
          "name": "to",
          "type": "address"
        },
        {
          "internalType": "uint256",
          "name": "amount",
          "type": "uint256"
        }
      ],
      "name": "transferFrom",
      "outputs": [
        {
          "internalType": "bool",
          "name": "",
          "type": "bool"
        }
      ],
      "stateMutability": "nonpayable",
      "type": "function"
    }
  ],
  "transactionHash": "0x37fc600988861a5652ccd028d1ad920dd0f962a25f61149c4acd304e7901df25",
  "args": [],
  "numDeployments": 2,
  "bytecode": {
    "object": "0x608060405234801561001057600080fd5b506120cf806100206000396000f3fe608060405234801561001057600080fd5b50600436106101f05760003560e01c80637ecebe001161010f578063a457c2d7116100a2578063d1851c9211610071578063d1851c921461040c578063d232c2201461041d578063d505accf1461042f578063dd62ed3e1461044257600080fd5b8063a457c2d7146103cb578063a9059cbb146103de578063b1f8100d146103f1578063c5b350df1461040457600080fd5b806390657147116100de578063906571471461038a57806395d89b411461039d5780639712fdf8146103a55780639dc29fac146103b857600080fd5b80637ecebe001461032b57806384b0196e1461033e5780638b3240a0146103595780638da5cb5b1461037957600080fd5b80633cf52ffb1161018757806370a082311161015657806370a08231146102c6578063715018a6146102ef578063726600ce146102f75780637b4ed7a11461032357600080fd5b80633cf52ffb1461029a57806340c10f19146102a25780636a42b8f8146102b55780636c2eb350146102be57600080fd5b806323b872dd116101c357806323b872dd1461025d578063313ce567146102705780633644e5151461027f578063395093511461028757600080fd5b806304df017d146101f557806306fdde031461020a578063095ea7b31461022857806318160ddd1461024b575b600080fd5b610208610203366004611afe565b610455565b005b610212610516565b60405161021f9190611b66565b60405180910390f35b61023b610236366004611b79565b6105a8565b604051901515815260200161021f565b6035545b60405190815260200161021f565b61023b61026b366004611ba3565b6105c2565b6040516012815260200161021f565b61024f6105e6565b61023b610295366004611b79565b6105f5565b60ce5461024f565b6102086102b0366004611b79565b610617565b62093a8061024f565b610208610655565b61024f6102d4366004611afe565b6001600160a01b031660009081526033602052604090205490565b610208610716565b61023b610305366004611afe565b6001600160a01b0316600090815260fe602052604090205460ff1690565b610208610807565b61024f610339366004611afe565b610956565b610346610974565b60405161021f9796959493929190611bdf565b610361610a12565b6040516001600160a01b03909116815260200161021f565b60cc546001600160a01b0316610361565b610208610398366004611d18565b610a45565b610212610b36565b6102086103b3366004611afe565b610b45565b6102086103c6366004611b79565b610c01565b61023b6103d9366004611b79565b610c3b565b61023b6103ec366004611b79565b610cb6565b6102086103ff366004611afe565b610cc4565b610208610d7e565b60cd546001600160a01b0316610361565b60cc546001600160a01b03161561023b565b61020861043d366004611d8c565b610e3c565b61024f610450366004611dff565b610fa0565b60cc546001600160a01b031633146104885760405162461bcd60e51b815260040161047f90611e32565b60405180910390fd5b6001600160a01b038116600090815260fe602052604090205460ff166104c15760405163292574f360e21b815260040160405180910390fd5b6040516001600160a01b038216907f5d9d5034656cb3ebfb0655057cd7f9b4077a9b42ff42ce223cbac5bc586d212690600090a26001600160a01b0316600090815260fe60205260409020805460ff19169055565b60606036805461052590611e52565b80601f016020809104026020016040519081016040528092919081815260200182805461055190611e52565b801561059e5780601f106105735761010080835404028352916020019161059e565b820191906000526020600020905b81548152906001019060200180831161058157829003601f168201915b5050505050905090565b6000336105b6818585610fcb565b60019150505b92915050565b6000336105d08582856110f0565b6105db858585611164565b506001949350505050565b60006105f06112fd565b905090565b6000336105b68185856106088383610fa0565b6106129190611e9c565b610fcb565b33600090815260fe602052604090205460ff1661064757604051635c57712b60e01b815260040160405180910390fd5b6106518282611307565b5050565b600054600290610100900460ff16158015610677575060005460ff8083169116105b6106935760405162461bcd60e51b815260040161047f90611eaf565b6000805461ffff191660ff83161761010017815560405181906000805160206120a3833981519152906106c99083815260200190565b60405180910390a36000805461ff001916905560405160ff821681527f7f26b83ff96e1f2b6a682f133852f6798a09c465da95921460cefb3847402498906020015b60405180910390a150565b60cc546001600160a01b031633146107405760405162461bcd60e51b815260040161047f90611e32565b600060ce541161077d5760405162461bcd60e51b8152602060048201526008602482015267085cdd185c9d195960c21b604482015260640161047f565b62093a8060ce544261078f9190611efd565b116107c75760405162461bcd60e51b815260206004820152600860248201526708595b185c1cd95960c21b604482015260640161047f565b60cd546001600160a01b0316156107f05760405162461bcd60e51b815260040161047f90611f10565b60cd54610805906001600160a01b03166113b6565b565b600054610100900460ff16158080156108275750600054600160ff909116105b806108415750303b158015610841575060005460ff166001145b61085d5760405162461bcd60e51b815260040161047f90611eaf565b6000805460ff191660011790558015610880576000805461ff0019166101001790555b604080518082018252600b81526a24b7b734b1902a37b5b2b760a91b6020808301919091528251808401909352600383526224a7a760e91b90830152906108c561140f565b6108cf828261143e565b6108d88261146f565b6108e06114b9565b6108e9336113b6565b60405160008082529081906000805160206120a38339815191529060200160405180910390a350508015610953576000805461ff0019169055604051600181527f7f26b83ff96e1f2b6a682f133852f6798a09c465da95921460cefb38474024989060200161070b565b50565b6001600160a01b0381166000908152609960205260408120546105bc565b6000606080600080600060606065546000801b1480156109945750606654155b6109d85760405162461bcd60e51b81526020600482015260156024820152741152540dcc4c8e88155b9a5b9a5d1a585b1a5e9959605a1b604482015260640161047f565b6109e06114e8565b6109e86114f7565b60408051600080825260208201909252600f60f81b9b939a50919850469750309650945092509050565b60006105f07fb53127684a568b3173ae13b9f8a6016e243e63b6e8ee1178d6a717850b5d6103546001600160a01b031690565b600054610100900460ff1615808015610a655750600054600160ff909116105b80610a7f5750303b158015610a7f575060005460ff166001145b610a9b5760405162461bcd60e51b815260040161047f90611eaf565b6000805460ff191660011790558015610abe576000805461ff0019166101001790555b610ac661140f565b610ad0838361143e565b610ad98361146f565b610ae16114b9565b610aea846113b6565b8015610b30576000805461ff0019169055604051600181527f7f26b83ff96e1f2b6a682f133852f6798a09c465da95921460cefb38474024989060200160405180910390a15b50505050565b60606037805461052590611e52565b60cc546001600160a01b03163314610b6f5760405162461bcd60e51b815260040161047f90611e32565b6001600160a01b038116600090815260fe602052604090205460ff1615610ba95760405163371e828760e01b815260040160405180910390fd5b6040516001600160a01b038216907f3cda433c5679ae4c6a5dea50840e222a42cba3695e4663de4366be899348422190600090a26001600160a01b0316600090815260fe60205260409020805460ff19166001179055565b33600090815260fe602052604090205460ff16610c3157604051635c57712b60e01b815260040160405180910390fd5b6106518282611506565b60003381610c498286610fa0565b905083811015610ca95760405162461bcd60e51b815260206004820152602560248201527f45524332303a2064656372656173656420616c6c6f77616e63652062656c6f77604482015264207a65726f60d81b606482015260840161047f565b6105db8286868403610fcb565b6000336105b6818585611164565b60cc546001600160a01b03163314610cee5760405162461bcd60e51b815260040161047f90611e32565b60cd546001600160a01b038281169116141580610d1257506001600160a01b038116155b610d2e5760405162461bcd60e51b815260040161047f90611f10565b60cc546001600160a01b03808316911603610d755760405162461bcd60e51b8152602060048201526007602482015266216368616e676560c81b604482015260640161047f565b61095381611625565b60cd546001600160a01b03163314610da85760405162461bcd60e51b815260040161047f90611f10565b60cd5460cc546001600160a01b03918216911603610df25760405162461bcd60e51b8152602060048201526007602482015266216368616e676560c81b604482015260640161047f565b62093a8060ce5442610e049190611efd565b116107f05760405162461bcd60e51b815260206004820152600860248201526708595b185c1cd95960c21b604482015260640161047f565b83421115610e8c5760405162461bcd60e51b815260206004820152601d60248201527f45524332305065726d69743a206578706972656420646561646c696e65000000604482015260640161047f565b60007f6e71edae12b1b97f4d1f60370fef10105fa2faae0126114a169c64845d6126c9888888610ebb8c611673565b6040805160208101969096526001600160a01b0394851690860152929091166060840152608083015260a082015260c0810186905260e0016040516020818303038152906040528051906020012090506000610f168261169b565b90506000610f26828787876116c8565b9050896001600160a01b0316816001600160a01b031614610f895760405162461bcd60e51b815260206004820152601e60248201527f45524332305065726d69743a20696e76616c6964207369676e61747572650000604482015260640161047f565b610f948a8a8a610fcb565b50505050505050505050565b6001600160a01b03918216600090815260346020908152604080832093909416825291909152205490565b6001600160a01b03831661102d5760405162461bcd60e51b8152602060048201526024808201527f45524332303a20617070726f76652066726f6d20746865207a65726f206164646044820152637265737360e01b606482015260840161047f565b6001600160a01b03821661108e5760405162461bcd60e51b815260206004820152602260248201527f45524332303a20617070726f766520746f20746865207a65726f206164647265604482015261737360f01b606482015260840161047f565b6001600160a01b0383811660008181526034602090815260408083209487168084529482529182902085905590518481527f8c5be1e5ebec7d5bd14f71427d1e84f3dd0314c0f7b2291e5b200ac8c7c3b92591015b60405180910390a3505050565b60006110fc8484610fa0565b90506000198114610b3057818110156111575760405162461bcd60e51b815260206004820152601d60248201527f45524332303a20696e73756666696369656e7420616c6c6f77616e6365000000604482015260640161047f565b610b308484848403610fcb565b6001600160a01b0383166111c85760405162461bcd60e51b815260206004820152602560248201527f45524332303a207472616e736665722066726f6d20746865207a65726f206164604482015264647265737360d81b606482015260840161047f565b6001600160a01b03821661122a5760405162461bcd60e51b815260206004820152602360248201527f45524332303a207472616e7366657220746f20746865207a65726f206164647260448201526265737360e81b606482015260840161047f565b6001600160a01b038316600090815260336020526040902054818110156112a25760405162461bcd60e51b815260206004820152602660248201527f45524332303a207472616e7366657220616d6f756e7420657863656564732062604482015265616c616e636560d01b606482015260840161047f565b6001600160a01b0380851660008181526033602052604080822086860390559286168082529083902080548601905591516000805160206120a3833981519152906112f09086815260200190565b60405180910390a3610b30565b60006105f06116f0565b6001600160a01b03821661135d5760405162461bcd60e51b815260206004820152601f60248201527f45524332303a206d696e7420746f20746865207a65726f206164647265737300604482015260640161047f565b806035600082825461136f9190611e9c565b90915550506001600160a01b0382166000818152603360209081526040808320805486019055518481526000805160206120a3833981519152910160405180910390a35050565b60cc80546001600160a01b038381166001600160a01b031983168117909355600060ce81905560405191909216929183917f8be0079c531659141344cd1fd0a4f28419497f9722a3daafe3b4186f6b6457e09190a35050565b600054610100900460ff166114365760405162461bcd60e51b815260040161047f90611f33565b610805611764565b600054610100900460ff166114655760405162461bcd60e51b815260040161047f90611f33565b610651828261178b565b600054610100900460ff166114965760405162461bcd60e51b815260040161047f90611f33565b61095381604051806040016040528060018152602001603160f81b8152506117cb565b600054610100900460ff166114e05760405162461bcd60e51b815260040161047f90611f33565b61080561181a565b60606067805461052590611e52565b60606068805461052590611e52565b6001600160a01b0382166115665760405162461bcd60e51b815260206004820152602160248201527f45524332303a206275726e2066726f6d20746865207a65726f206164647265736044820152607360f81b606482015260840161047f565b6001600160a01b038216600090815260336020526040902054818110156115da5760405162461bcd60e51b815260206004820152602260248201527f45524332303a206275726e20616d6f756e7420657863656564732062616c616e604482015261636560f01b606482015260840161047f565b6001600160a01b03831660008181526033602090815260408083208686039055603580548790039055518581529192916000805160206120a383398151915291016110e3565b505050565b4260ce5560cd80546001600160a01b0319166001600160a01b0383169081179091556040517f6ab4d119f23076e8ad491bc65ce85f017fb0591dce08755ba8591059cc51737a90600090a250565b6001600160a01b03811660009081526099602052604090208054600181018255905b50919050565b60006105bc6116a86112fd565b8360405161190160f01b8152600281019290925260228201526042902090565b60008060006116d98787878761184a565b915091506116e68161190e565b5095945050505050565b60007f8b73c3c69bb8fe3d512ecc4cf759cc79239f7b179b0ffacaa9a75d522b39400f61171b611a58565b611723611ab1565b60408051602081019490945283019190915260608201524660808201523060a082015260c00160405160208183030381529060405280519060200120905090565b600054610100900460ff166108055760405162461bcd60e51b815260040161047f90611f33565b600054610100900460ff166117b25760405162461bcd60e51b815260040161047f90611f33565b60366117be8382611fcc565b5060376116208282611fcc565b600054610100900460ff166117f25760405162461bcd60e51b815260040161047f90611f33565b60676117fe8382611fcc565b50606861180b8282611fcc565b50506000606581905560665550565b600054610100900460ff166118415760405162461bcd60e51b815260040161047f90611f33565b610805336113b6565b6000807f7fffffffffffffffffffffffffffffff5d576e7357a4501ddfe92f46681b20a08311156118815750600090506003611905565b6040805160008082526020820180845289905260ff881692820192909252606081018690526080810185905260019060a0016020604051602081039080840390855afa1580156118d5573d6000803e3d6000fd5b5050604051601f1901519150506001600160a01b0381166118fe57600060019250925050611905565b9150600090505b94509492505050565b60008160048111156119225761192261208c565b0361192a5750565b600181600481111561193e5761193e61208c565b0361198b5760405162461bcd60e51b815260206004820152601860248201527f45434453413a20696e76616c6964207369676e61747572650000000000000000604482015260640161047f565b600281600481111561199f5761199f61208c565b036119ec5760405162461bcd60e51b815260206004820152601f60248201527f45434453413a20696e76616c6964207369676e6174757265206c656e67746800604482015260640161047f565b6003816004811115611a0057611a0061208c565b036109535760405162461bcd60e51b815260206004820152602260248201527f45434453413a20696e76616c6964207369676e6174757265202773272076616c604482015261756560f01b606482015260840161047f565b600080611a636114e8565b805190915015611a7a578051602090910120919050565b6065548015611a895792915050565b7fc5d2460186f7233c927e7db2dcc703c0e500b653ca82273b7bfad8045d85a4709250505090565b600080611abc6114f7565b805190915015611ad3578051602090910120919050565b6066548015611a895792915050565b80356001600160a01b0381168114611af957600080fd5b919050565b600060208284031215611b1057600080fd5b611b1982611ae2565b9392505050565b6000815180845260005b81811015611b4657602081850181015186830182015201611b2a565b506000602082860101526020601f19601f83011685010191505092915050565b602081526000611b196020830184611b20565b60008060408385031215611b8c57600080fd5b611b9583611ae2565b946020939093013593505050565b600080600060608486031215611bb857600080fd5b611bc184611ae2565b9250611bcf60208501611ae2565b9150604084013590509250925092565b60ff60f81b881681526000602060e081840152611bff60e084018a611b20565b8381036040850152611c11818a611b20565b606085018990526001600160a01b038816608086015260a0850187905284810360c0860152855180825283870192509083019060005b81811015611c6357835183529284019291840191600101611c47565b50909c9b505050505050505050505050565b634e487b7160e01b600052604160045260246000fd5b600082601f830112611c9c57600080fd5b813567ffffffffffffffff80821115611cb757611cb7611c75565b604051601f8301601f19908116603f01168101908282118183101715611cdf57611cdf611c75565b81604052838152866020858801011115611cf857600080fd5b836020870160208301376000602085830101528094505050505092915050565b600080600060608486031215611d2d57600080fd5b611d3684611ae2565b9250602084013567ffffffffffffffff80821115611d5357600080fd5b611d5f87838801611c8b565b93506040860135915080821115611d7557600080fd5b50611d8286828701611c8b565b9150509250925092565b600080600080600080600060e0888a031215611da757600080fd5b611db088611ae2565b9650611dbe60208901611ae2565b95506040880135945060608801359350608088013560ff81168114611de257600080fd5b9699959850939692959460a0840135945060c09093013592915050565b60008060408385031215611e1257600080fd5b611e1b83611ae2565b9150611e2960208401611ae2565b90509250929050565b60208082526006908201526510b7bbb732b960d11b604082015260600190565b600181811c90821680611e6657607f821691505b60208210810361169557634e487b7160e01b600052602260045260246000fd5b634e487b7160e01b600052601160045260246000fd5b808201808211156105bc576105bc611e86565b6020808252602e908201527f496e697469616c697a61626c653a20636f6e747261637420697320616c72656160408201526d191e481a5b9a5d1a585b1a5e995960921b606082015260800190565b818103818111156105bc576105bc611e86565b602080825260099082015268085c1c9bdc1bdcd95960ba1b604082015260600190565b6020808252602b908201527f496e697469616c697a61626c653a20636f6e7472616374206973206e6f74206960408201526a6e697469616c697a696e6760a81b606082015260800190565b601f82111561162057600081815260208120601f850160051c81016020861015611fa55750805b601f850160051c820191505b81811015611fc457828155600101611fb1565b505050505050565b815167ffffffffffffffff811115611fe657611fe6611c75565b611ffa81611ff48454611e52565b84611f7e565b602080601f83116001811461202f57600084156120175750858301515b600019600386901b1c1916600185901b178555611fc4565b600085815260208120601f198616915b8281101561205e5788860151825594840194600190910190840161203f565b508582101561207c5787850151600019600388901b60f8161c191681555b5050505050600190811b01905550565b634e487b7160e01b600052602160045260246000fdfeddf252ad1be2c89b69c2b068fc378daa952ba7f163c4a11628f55a4df523b3efa164736f6c6343000813000a",
    "linkReferences": {}
  },
  "methodIdentifiers": {
    "DOMAIN_SEPARATOR()": "3644e515",
    "acceptProposedOwner()": "c5b350df",
    "addBridge(address)": "9712fdf8",
    "allowance(address,address)": "dd62ed3e",
    "approve(address,uint256)": "095ea7b3",
    "balanceOf(address)": "70a08231",
    "burn(address,uint256)": "9dc29fac",
    "decimals()": "313ce567",
    "decreaseAllowance(address,uint256)": "a457c2d7",
    "delay()": "6a42b8f8",
    "eip712Domain()": "84b0196e",
    "getProxyAdmin()": "8b3240a0",
    "increaseAllowance(address,uint256)": "39509351",
    "initialize(address,string,string)": "90657147",
    "initializeIon()": "7b4ed7a1",
    "isBridge(address)": "726600ce",
    "mint(address,uint256)": "40c10f19",
    "name()": "06fdde03",
    "nonces(address)": "7ecebe00",
    "owner()": "8da5cb5b",
    "permit(address,address,uint256,uint256,uint8,bytes32,bytes32)": "d505accf",
    "proposeNewOwner(address)": "b1f8100d",
    "proposed()": "d1851c92",
    "proposedTimestamp()": "3cf52ffb",
    "reinitialize()": "6c2eb350",
    "removeBridge(address)": "04df017d",
    "renounceOwnership()": "715018a6",
    "renounced()": "d232c220",
    "symbol()": "95d89b41",
    "totalSupply()": "18160ddd",
    "transfer(address,uint256)": "a9059cbb",
    "transferFrom(address,address,uint256)": "23b872dd"
  }
}